{"src/contracts/RayanChainDAO.sol":{"RayanChainDAO":{"abi":[{"inputs":[{"internalType":"address","name":"_accControlAddress","type":"address"},{"internalType":"address","name":"_stakingAddress","type":"address"},{"internalType":"address","name":"_financeAddress","type":"address"},{"internalType":"uint256","name":"_votingPeriod","type":"uint256"},{"internalType":"uint256","name":"_quorumPercentage","type":"uint256"},{"internalType":"uint256","name":"_approvalThreshold","type":"uint256"}],"stateMutability":"nonpayable","type":"constructor"},{"inputs":[{"internalType":"address","name":"owner","type":"address"}],"name":"OwnableInvalidOwner","type":"error"},{"inputs":[{"internalType":"address","name":"account","type":"address"}],"name":"OwnableUnauthorizedAccount","type":"error"},{"inputs":[],"name":"ReentrancyGuardReentrantCall","type":"error"},{"anonymous":false,"inputs":[{"indexed":true,"internalType":"uint256","name":"proposalId","type":"uint256"},{"indexed":false,"internalType":"uint256","name":"milestoneIndex","type":"uint256"},{"indexed":false,"internalType":"uint256","name":"amount","type":"uint256"}],"name":"MilestoneReleased","type":"event"},{"anonymous":false,"inputs":[{"indexed":true,"internalType":"address","name":"previousOwner","type":"address"},{"indexed":true,"internalType":"address","name":"newOwner","type":"address"}],"name":"OwnershipTransferred","type":"event"},{"anonymous":false,"inputs":[{"indexed":true,"internalType":"address","name":"user","type":"address"},{"indexed":false,"internalType":"uint256","name":"newScore","type":"uint256"}],"name":"ParticipationScoreUpdated","type":"event"},{"anonymous":false,"inputs":[{"indexed":false,"internalType":"uint256","name":"id","type":"uint256"},{"indexed":false,"internalType":"address","name":"proposer","type":"address"},{"indexed":false,"internalType":"enum RayanChainDAO.ProposalType","name":"pType","type":"uint8"},{"indexed":false,"internalType":"bytes32","name":"descriptionHash","type":"bytes32"}],"name":"ProposalCreated","type":"event"},{"anonymous":false,"inputs":[{"indexed":false,"internalType":"uint256","name":"id","type":"uint256"}],"name":"ProposalExecuted","type":"event"},{"anonymous":false,"inputs":[{"indexed":false,"internalType":"uint256","name":"id","type":"uint256"},{"indexed":false,"internalType":"enum RayanChainDAO.ProposalState","name":"newState","type":"uint8"}],"name":"ProposalStateChanged","type":"event"},{"anonymous":false,"inputs":[{"indexed":false,"internalType":"uint256","name":"proposalId","type":"uint256"},{"indexed":false,"internalType":"address","name":"voter","type":"address"},{"indexed":false,"internalType":"enum RayanChainDAO.VoteType","name":"vote","type":"uint8"},{"indexed":false,"internalType":"uint256","name":"weight","type":"uint256"}],"name":"Voted","type":"event"},{"inputs":[],"name":"MAX_RISK_SCORE","outputs":[{"internalType":"uint256","name":"","type":"uint256"}],"stateMutability":"view","type":"function"},{"inputs":[],"name":"accControl","outputs":[{"internalType":"contract AccControl","name":"","type":"address"}],"stateMutability":"view","type":"function"},{"inputs":[],"name":"approvalThresholdPercentage","outputs":[{"internalType":"uint256","name":"","type":"uint256"}],"stateMutability":"view","type":"function"},{"inputs":[{"internalType":"bytes32","name":"_descriptionHash","type":"bytes32"},{"internalType":"address payable","name":"_recipient","type":"address"},{"internalType":"uint256[]","name":"_milestoneAmounts","type":"uint256[]"}],"name":"createFundingProposal","outputs":[],"stateMutability":"nonpayable","type":"function"},{"inputs":[{"internalType":"bytes32","name":"_descriptionHash","type":"bytes32"},{"internalType":"address payable","name":"_recipient","type":"address"},{"internalType":"uint256","name":"_amount","type":"uint256"},{"internalType":"enum RayanChainDAO.TokenType","name":"_tokenType","type":"uint8"}],"name":"createTreasuryActionProposal","outputs":[],"stateMutability":"nonpayable","type":"function"},{"inputs":[{"internalType":"uint256","name":"_proposalId","type":"uint256"}],"name":"executeProposal","outputs":[],"stateMutability":"nonpayable","type":"function"},{"inputs":[],"name":"financeContract","outputs":[{"internalType":"contract IFinance","name":"","type":"address"}],"stateMutability":"view","type":"function"},{"inputs":[{"internalType":"uint256","name":"","type":"uint256"},{"internalType":"address","name":"","type":"address"}],"name":"hasVoted","outputs":[{"internalType":"bool","name":"","type":"bool"}],"stateMutability":"view","type":"function"},{"inputs":[],"name":"nextProposalId","outputs":[{"internalType":"uint256","name":"","type":"uint256"}],"stateMutability":"view","type":"function"},{"inputs":[],"name":"owner","outputs":[{"internalType":"address","name":"","type":"address"}],"stateMutability":"view","type":"function"},{"inputs":[{"internalType":"address","name":"","type":"address"}],"name":"participationScores","outputs":[{"internalType":"uint256","name":"","type":"uint256"}],"stateMutability":"view","type":"function"},{"inputs":[{"internalType":"uint256","name":"","type":"uint256"}],"name":"proposals","outputs":[{"internalType":"uint256","name":"id","type":"uint256"},{"internalType":"enum RayanChainDAO.ProposalType","name":"pType","type":"uint8"},{"internalType":"address","name":"proposer","type":"address"},{"internalType":"bytes32","name":"descriptionHash","type":"bytes32"},{"internalType":"address payable","name":"recipient","type":"address"},{"internalType":"uint256","name":"amount","type":"uint256"},{"internalType":"enum RayanChainDAO.TokenType","name":"tokenType","type":"uint8"},{"internalType":"uint256","name":"creationTime","type":"uint256"},{"internalType":"uint256","name":"votingDeadline","type":"uint256"},{"internalType":"uint256","name":"forVotes","type":"uint256"},{"internalType":"uint256","name":"againstVotes","type":"uint256"},{"internalType":"enum RayanChainDAO.ProposalState","name":"state","type":"uint8"},{"internalType":"bool","name":"executed","type":"bool"},{"internalType":"uint256","name":"currentMilestoneIndex","type":"uint256"},{"internalType":"uint256","name":"aiRiskScore","type":"uint256"},{"internalType":"uint256","name":"requiredApprovalThreshold","type":"uint256"}],"stateMutability":"view","type":"function"},{"inputs":[],"name":"quorumPercentage","outputs":[{"internalType":"uint256","name":"","type":"uint256"}],"stateMutability":"view","type":"function"},{"inputs":[{"internalType":"uint256","name":"_proposalId","type":"uint256"},{"internalType":"bytes32","name":"_proofHash","type":"bytes32"}],"name":"releaseNextMilestone","outputs":[],"stateMutability":"nonpayable","type":"function"},{"inputs":[],"name":"renounceOwnership","outputs":[],"stateMutability":"nonpayable","type":"function"},{"inputs":[],"name":"stakingContract","outputs":[{"internalType":"contract IStaking","name":"","type":"address"}],"stateMutability":"view","type":"function"},{"inputs":[{"internalType":"uint256","name":"_proposalId","type":"uint256"}],"name":"tallyVotes","outputs":[],"stateMutability":"nonpayable","type":"function"},{"inputs":[{"internalType":"address","name":"newOwner","type":"address"}],"name":"transferOwnership","outputs":[],"stateMutability":"nonpayable","type":"function"},{"inputs":[{"internalType":"address","name":"_user","type":"address"},{"internalType":"uint256","name":"_score","type":"uint256"}],"name":"updateParticipationScore","outputs":[],"stateMutability":"nonpayable","type":"function"},{"inputs":[{"internalType":"uint256","name":"_proposalId","type":"uint256"},{"internalType":"uint256","name":"_riskScore","type":"uint256"}],"name":"updateProposalRiskScore","outputs":[],"stateMutability":"nonpayable","type":"function"},{"inputs":[{"internalType":"uint256","name":"_proposalId","type":"uint256"},{"internalType":"enum RayanChainDAO.VoteType","name":"_voteType","type":"uint8"}],"name":"vote","outputs":[],"stateMutability":"nonpayable","type":"function"},{"inputs":[],"name":"votingPeriod","outputs":[{"internalType":"uint256","name":"","type":"uint256"}],"stateMutability":"view","type":"function"}],"evm":{"bytecode":{"linkReferences":{},"object":"6080346200012e57601f62001d8c38819003918201601f19168301916001600160401b03831184841017620001335780849260c0946040528339810103126200012e576200004d8162000149565b906200005c6020820162000149565b906200006b6040820162000149565b9260608201519060a060808401519301519333156200011557600080546001600160a01b03198082163390811784556040519991956001600160a01b039592948694859391908416907f8be0079c531659141344cd1fd0a4f28419497f9722a3daafe3b4186f6b6457e09080a360018055168560025416176002551683600354161760035516906004541617600455600955600a55600b556001600655611c2d90816200015f8239f35b604051631e4fbdf760e01b815260006004820152602490fd5b600080fd5b634e487b7160e01b600052604160045260246000fd5b51906001600160a01b03821682036200012e5756fe6080604052600436101561001257600080fd5b6000803560e01c8063013cf08b1461166957806302a251a31461164b5780630d61b5191461124f57806322005a92146111325780632ab09d1414611114578063345c3537146110eb57806338add68d146110b2578063438596321461106657806345f191311461104a5780634d318b0e1461102a5780634f23c04c1461100c5780634fa76ec914610fee5780635f95bfa014610cc0578063715018a614610c665780638158a502146108245780638da5cb5b146107fd578063943e821614610553578063bb1345c914610423578063c62a441f146101ee578063d3396149146101c5578063ee99205c1461019c5763f2fde38b1461010f57600080fd5b34610199576020366003190112610199576101286117a4565b610130611bab565b6001600160a01b0390811690811561018057600054826001600160601b0360a01b821617600055167f8be0079c531659141344cd1fd0a4f28419497f9722a3daafe3b4186f6b6457e0600080a380f35b604051631e4fbdf760e01b815260048101849052602490fd5b80fd5b50346101995780600319360112610199576003546040516001600160a01b039091168152602090f35b50346101995780600319360112610199576004546040516001600160a01b039091168152602090f35b50346101995760803660031901126101995760043561020b6117ba565b9060643591600283101561041f5760025460405163a217fddf60e01b8152906020906001600160a01b0390879082168385600481845afa9485156104145782956103dc575b50604051632474521560e21b815260048101959095523360248601528390859060449082905afa9586156103cf57600080516020611bd8833981519152976002600a7fcc914becfa276bbc067049bf8db2d34ebbdc1bafa851e4d4936aaed376c08dbe956102cb60409b849a608098916103a2575b50611873565b6102d6851515611b3c565b600654996102e38b611b2d565b6006558a600052600589528b600020918b835560018301600181546101008260a81b033360081b16906affffffffffffffffffffff60a81b161717905586858401556003830191166001600160601b0360a01b82541617905560443560048201556005810161035185611784565b60ff199460ff86835416911617905542600682015561037260095442611838565b6007820155019182541617905586519086825233858301526001888301526060820152a18351928352820152a180f35b6103c291508a3d8c116103c8575b6103ba81836117e4565b81019061185b565b386102c5565b503d6103b0565b50604051903d90823e3d90fd5b945090508284813d811161040d575b6103f581836117e4565b8101031261040857925192879083610250565b600080fd5b503d6103eb565b6040513d84823e3d90fd5b8380fd5b50346101995760403660031901126101995761043d6117a4565b60025460405163c601f7af60e01b8152602435926001600160a01b03928316926020929091908381600481885afa908115610548578791610519575b50604051632474521560e21b8152600481019190915233602482015293839085908180604481015b03915afa93841561050e577fbce4be9b5e0540fc5c565cd30c59b6465d9eb0550f7a36a89128eeb8271b6c72946104de9188916104f75750611873565b169283855260088252806040862055604051908152a280f35b6103c29150853d87116103c8576103ba81836117e4565b6040513d88823e3d90fd5b90508381813d8311610541575b61053081836117e4565b8101031261040857516104a1610479565b503d610526565b6040513d89823e3d90fd5b50346101995760403660031901126101995760043560248035600281101561041f5761057d611b88565b828452602060058152604085209260ff600a8501541660088110156107ea5760026105a891146118ca565b600784015442116107a757848652600782526040862033600052825260ff60406000205416610774576003546040516326d352ab60e11b8152336004820152919083908390839082906001600160a01b03165afa918215610548578792610745575b50811561070257338752600883526040872054606401806064116106ef57808302928304036106db5750916080939160647f2635c84c3a8027a303ca6d6e90b1c4a9604754040372414d244aadfa647175189694049284885260078252604088203360005282526040600020600160ff1982541617905561068a83611784565b826106c65760080161069d848254611838565b90555b60405193845233908401526106b481611784565b60408301526060820152a16001805580f35b6009016106d4848254611838565b90556106a0565b634e487b7160e01b60009081526011600452fd5b50634e487b7160e01b8752601160045286fd5b82601f6064926040519262461bcd60e51b845260048401528201527f4d7573742068617665207374616b656420746f6b656e7320746f20766f7465006044820152fd5b9091508281813d831161076d575b61075d81836117e4565b810103126104085751903861060a565b503d610753565b90600d6064926040519262461bcd60e51b845260048401528201526c105b1c9958591e481d9bdd1959609a1b6044820152fd5b9060176064926040519262461bcd60e51b845260048401528201527f566f74696e6720706572696f642068617320656e6465640000000000000000006044820152fd5b50634e487b7160e01b8652602160045285fd5b5034610199578060031936011261019957546040516001600160a01b039091168152602090f35b50346101995760603660031901126101995761083e6117ba565b60443567ffffffffffffffff8111610c625736602382011215610c625780600401359067ffffffffffffffff8211610c4e578160051b6040519261088560208301856117e4565b83526024602084019183010191368311610c4a57602401905b828210610c3a5750506002546040516313aa1d4d60e11b81526001600160a01b039091169150602081600481855afa908115610c2f578591610bfb575b50604051632474521560e21b815260048101919091523360248201529060209082908180604481015b03915afa8015610bf05761091e918591610bd75750611873565b805115610b87576109326004351515611b3c565b600a6006549261094184611b2d565b6006558360005260056020526040600020908482556001820154610100600160a81b033360081b16906affffffffffffffffffffff60a81b161760018301556004356002830155600382019060018060a01b03166001600160601b0360a01b82541617905560006004820155600160ff196005830154161760058201554260068201556109d060095442611838565b600782015501600260ff198254161790557fcc914becfa276bbc067049bf8db2d34ebbdc1bafa851e4d4936aaed376c08dbe6080604051848152336020820152600060408201526004356060820152a1600080516020611bd88339815191526040805184815260026020820152a1825b8151811015610b83578284526005602052600b60408520018251821015610b6f5760208260051b84010151906040519182608081011067ffffffffffffffff608085011117610b595760808301604052825285602083015285604083015285606083015280549068010000000000000000821015610b455790610ac891600182018155611806565b610b3157815181556020820151906008821015610b1d579060606003600195949360ff19878201541660ff8095161787820155604085015160028201550192015115159060ff19835416911617905501610a40565b634e487b7160e01b87526021600452602487fd5b634e487b7160e01b86526004869052602486fd5b634e487b7160e01b87526041600452602487fd5b634e487b7160e01b600052604160045260246000fd5b634e487b7160e01b85526032600452602485fd5b8380f35b60405162461bcd60e51b815260206004820152602260248201527f4174206c65617374206f6e65206d696c6573746f6e6520697320726571756972604482015261195960f21b6064820152608490fd5b6103c2915060203d6020116103c8576103ba81836117e4565b6040513d86823e3d90fd5b90506020813d602011610c27575b81610c16602093836117e4565b8101031261040857516109046108db565b3d9150610c09565b6040513d87823e3d90fd5b813581526020918201910161089e565b8580fd5b634e487b7160e01b84526041600452602484fd5b8280fd5b5034610199578060031936011261019957610c7f611bab565b600080546001600160a01b0319811682556001600160a01b03167f8be0079c531659141344cd1fd0a4f28419497f9722a3daafe3b4186f6b6457e08280a380f35b5034610199576040366003190112610199576004356024803590610ce2611b88565b60025460405163a217fddf60e01b81526001600160a01b039491602091908616908281600481855afa8015610fe35783918991610fb2575b50604051632474521560e21b815260048101919091523360248201529182908180604481015b03915afa801561054857610d5a918891610f9b5750611873565b81865260058152604086209260ff600185015416610d7781611784565b610f5f5760ff600a850154166008811015610f4c57600503610efa57600c840195600b875495019485541115610eb6578515610e72579087916004541690813b15610c625782918291604051809481936331c57b1f60e11b83528960048401525af1801561041457610e5e575b505060407fd33fcd27cbfb73a2d9058c968b560ccb306500bf536133802048489ecc7355e991610e55956002610e1b895488611806565b5001556003610e2b885487611806565b5001600160ff19825416179055610e4487548096611806565b5054825191868352820152a2611b2d565b90556001805580f35b610e67906117d0565b610c4a578538610de4565b60405162461bcd60e51b8152600481018490526019818401527f50726f6f6620686173682063616e6e6f74206265207a65726f000000000000006044820152606490fd5b60405162461bcd60e51b815260048101849052601f818401527f416c6c206d696c6573746f6e657320616c72656164792072656c6561736564006044820152606490fd5b9060266084926040519262461bcd60e51b845260048401528201527f50726f706f73616c20776173206e6f7420617070726f76656420616e642065786044820152651958dd5d195960d21b6064820152fd5b50634e487b7160e01b8752602160045286fd5b9060166064926040519262461bcd60e51b8452600484015282015275139bdd081848199d5b991a5b99c81c1c9bdc1bdcd85b60521b6044820152fd5b6103c29150833d85116103c8576103ba81836117e4565b82819392503d8311610fdc575b610fc981836117e4565b8101031261040857518290610d40610d1a565b503d610fbf565b6040513d8a823e3d90fd5b50346101995780600319360112610199576020600a54604051908152f35b50346101995780600319360112610199576020600b54604051908152f35b503461019957602036600319011261019957611047600435611936565b80f35b50346101995780600319360112610199576020604051604b8152f35b50346101995760403660031901126101995760406110826117ba565b9160043581526007602052209060018060a01b0316600052602052602060ff604060002054166040519015158152f35b5034610199576020366003190112610199576020906040906001600160a01b036110da6117a4565b168152600883522054604051908152f35b50346101995780600319360112610199576002546040516001600160a01b039091168152602090f35b50346101995780600319360112610199576020600654604051908152f35b50346101995760403660031901126101995760025460405163c601f7af60e01b8152602435916020916001600160a01b03909116908281600481855afa8015610c2f578391869161121e575b50604051632474521560e21b815260048101919091523360248201529182908180604481015b03915afa8015610bf0576111be918591610f9b5750611873565b606482116111da57600590600435845252600d60408320015580f35b6064906040519062461bcd60e51b82526004820152601c60248201527f5269736b2073636f72652063616e6e6f742065786365656420313030000000006044820152fd5b82819392503d8311611248575b61123581836117e4565b81010312610408575182906111a461117e565b503d61122b565b503461019957602080600319360112611647576004359061126e611b88565b8183526005815260408320600a810160ff90818154166008811015610b1d576002148061163a575b61162c575b80548281166008811015611618576003036115d357828160081c1661158e57604b600d85015411611549576101059061ffff191617905560019185826001830154166112e681611784565b806113e95750929190839084600b8201948554955b8683106113bd5750505060018060a01b036003816004541692015416813b15610c4a578560849281956040519788968795630a7932b160e21b87528d6004880152602487015260448601521660648401525af18015610414576113a9575b5050600080516020611bd88339815191529160056040925b7f712ae1383f79ac853f8d882153778e0260ef8f03b504e2866e0593e04d2b291f818551858152a18351928352820152a16001805580f35b6113b2906117d0565b610c62578238611359565b91949596506113da8193946113d28785611806565b505490611838565b940190918996959493926112fb565b60019194506113fa81949394611784565b1461141d575b505050600080516020611bd8833981519152916005604092611371565b60058201541661142c81611784565b6114b35760018060a01b039060048281541692600383015416910154823b1561041f576044849283604051958694859363f3fef3a360e01b8552600485015260248401525af180156104145761149f575b5050600080516020611bd88339815191529160056040925b9285929450611400565b6114a8906117d0565b610c6257823861147d565b60048054600383015491909201546001600160a01b039283169392909116833b15610c62576044908360405195869485936306b091f960e01b8552600485015260248401525af18015610bf057611520575b50600080516020611bd8833981519152916005604092611495565b9160056040929461153f600080516020611bd8833981519152956117d0565b9492505091611505565b60405162461bcd60e51b815260048101869052601960248201527f4149207269736b2073636f726520697320746f6f2068696768000000000000006044820152606490fd5b60405162461bcd60e51b815260048101869052601960248201527f50726f706f73616c20616c7265616479206578656375746564000000000000006044820152606490fd5b60405162461bcd60e51b815260048101869052601860248201527f50726f706f73616c206973206e6f7420617070726f76656400000000000000006044820152606490fd5b634e487b7160e01b88526021600452602488fd5b61163585611936565b61129b565b5060078301544211611296565b5080fd5b50346101995780600319360112610199576020600954604051908152f35b50346101995760203660031901126101995760043581526005602052604081208080805493816001810154600282015460018060a01b03600384015416600484015460ff60058601541690600686015492600787015494600888015496600e600d600c600a60098d01549c01549d01549d01549d01549d6080526116ef60ff8216611784565b60ff811660a05260081c6001600160a01b031660c05260e052610100526101205261171981611784565b6101405261016052610180526101a0526101c052600860ff8316101561177057508060ff8092166101606080015260081c161515610180608001526101a0608001526101c0608001526101e0608001526102006080f35b634e487b7160e01b81526021600452602490fd5b6002111561178e57565b634e487b7160e01b600052602160045260246000fd5b600435906001600160a01b038216820361040857565b602435906001600160a01b038216820361040857565b67ffffffffffffffff8111610b5957604052565b90601f8019910116810190811067ffffffffffffffff821117610b5957604052565b80548210156118225760005260206000209060021b0190600090565b634e487b7160e01b600052603260045260246000fd5b9190820180921161184557565b634e487b7160e01b600052601160045260246000fd5b90816020910312610408575180151581036104085790565b1561187a57565b60405162461bcd60e51b815260206004820152602260248201527f43616c6c657220646f6573206e6f74206861766520726571756972656420726f6044820152616c6560f01b6064820152608490fd5b156118d157565b60405162461bcd60e51b815260206004820152601c60248201527f50726f706f73616c206e6f7420696e20766f74696e67207374617465000000006044820152606490fd5b8115611920570490565b634e487b7160e01b600052601260045260246000fd5b90600082815260209260058452604091828120600a81019081549260ff84166008811015611b1957600261196a91146118ca565b6007820154421115611ad55760035486516318160ddd60e01b815298600495909493929185908b90889082906001600160a01b03165afa998a15611acb57829a611a9c575b506119c36009600885015494015484611838565b9960648b028b81046064148c151715611a8957906119e091611916565b600a5411611a605750606482029180830460641490151715611a4d5750600080516020611bd88339815191529697611a1791611916565b600b5411611a3857600380935060ff198254161790558351928352820152a1565b805460ff1916831790558351928352820152a1565b634e487b7160e01b815260118552602490fd5b60ff1916851790925550508351928352820152919250600080516020611bd883398151915291a1565b634e487b7160e01b845260118852602484fd5b9099508481813d8311611ac4575b611ab481836117e4565b81010312611647575198386119af565b503d611aaa565b88513d84823e3d90fd5b855162461bcd60e51b815260048101899052601b60248201527f566f74696e6720706572696f64206e6f742079657420656e64656400000000006044820152606490fd5b634e487b7160e01b82526021600452602482fd5b60001981146118455760010190565b15611b4357565b60405162461bcd60e51b815260206004820152601f60248201527f4465736372697074696f6e20686173682063616e6e6f74206265207a65726f006044820152606490fd5b600260015414611b99576002600155565b604051633ee5aeb560e01b8152600490fd5b6000546001600160a01b03163303611bbf57565b60405163118cdaa760e01b8152336004820152602490fdfed6b3a81dd8b7dc419d8d0f20797397ea2eaba914386b89898aa638438803a1eca26469706673582212207e2091989f5570cb3470a1cfe21db48eac764a240a80737ff0dce4d7049bedf764736f6c63430008180033","opcodes":"PUSH1 0x80 CALLVALUE PUSH3 0x12E JUMPI PUSH1 0x1F PUSH3 0x1D8C CODESIZE DUP2 SWAP1 SUB SWAP2 DUP3 ADD PUSH1 0x1F NOT AND DUP4 ADD SWAP2 PUSH1 0x1 PUSH1 0x1 PUSH1 0x40 SHL SUB DUP4 GT DUP5 DUP5 LT OR PUSH3 0x133 JUMPI DUP1 DUP5 SWAP3 PUSH1 0xC0 SWAP5 PUSH1 0x40 MSTORE DUP4 CODECOPY DUP2 ADD SUB SLT PUSH3 0x12E JUMPI PUSH3 0x4D DUP2 PUSH3 0x149 JUMP JUMPDEST SWAP1 PUSH3 0x5C PUSH1 0x20 DUP3 ADD PUSH3 0x149 JUMP JUMPDEST SWAP1 PUSH3 0x6B PUSH1 0x40 DUP3 ADD PUSH3 0x149 JUMP JUMPDEST SWAP3 PUSH1 0x60 DUP3 ADD MLOAD SWAP1 PUSH1 0xA0 PUSH1 0x80 DUP5 ADD MLOAD SWAP4 ADD MLOAD SWAP4 CALLER ISZERO PUSH3 0x115 JUMPI PUSH1 0x0 DUP1 SLOAD PUSH1 0x1 PUSH1 0x1 PUSH1 0xA0 SHL SUB NOT DUP1 DUP3 AND CALLER SWAP1 DUP2 OR DUP5 SSTORE PUSH1 0x40 MLOAD SWAP10 SWAP2 SWAP6 PUSH1 0x1 PUSH1 0x1 PUSH1 0xA0 SHL SUB SWAP6 SWAP3 SWAP5 DUP7 SWAP5 DUP6 SWAP4 SWAP2 SWAP1 DUP5 AND SWAP1 PUSH32 0x8BE0079C531659141344CD1FD0A4F28419497F9722A3DAAFE3B4186F6B6457E0 SWAP1 DUP1 LOG3 PUSH1 0x1 DUP1 SSTORE AND DUP6 PUSH1 0x2 SLOAD AND OR PUSH1 0x2 SSTORE AND DUP4 PUSH1 0x3 SLOAD AND OR PUSH1 0x3 SSTORE AND SWAP1 PUSH1 0x4 SLOAD AND OR PUSH1 0x4 SSTORE PUSH1 0x9 SSTORE PUSH1 0xA SSTORE PUSH1 0xB SSTORE PUSH1 0x1 PUSH1 0x6 SSTORE PUSH2 0x1C2D SWAP1 DUP2 PUSH3 0x15F DUP3 CODECOPY RETURN JUMPDEST PUSH1 0x40 MLOAD PUSH4 0x1E4FBDF7 PUSH1 0xE0 SHL DUP2 MSTORE PUSH1 0x0 PUSH1 0x4 DUP3 ADD MSTORE PUSH1 0x24 SWAP1 REVERT JUMPDEST PUSH1 0x0 DUP1 REVERT JUMPDEST PUSH4 0x4E487B71 PUSH1 0xE0 SHL PUSH1 0x0 MSTORE PUSH1 0x41 PUSH1 0x4 MSTORE PUSH1 0x24 PUSH1 0x0 REVERT JUMPDEST MLOAD SWAP1 PUSH1 0x1 PUSH1 0x1 PUSH1 0xA0 SHL SUB DUP3 AND DUP3 SUB PUSH3 0x12E JUMPI JUMP INVALID PUSH1 0x80 PUSH1 0x40 MSTORE PUSH1 0x4 CALLDATASIZE LT ISZERO PUSH2 0x12 JUMPI PUSH1 0x0 DUP1 REVERT JUMPDEST PUSH1 0x0 DUP1 CALLDATALOAD PUSH1 0xE0 SHR DUP1 PUSH4 0x13CF08B EQ PUSH2 0x1669 JUMPI DUP1 PUSH4 0x2A251A3 EQ PUSH2 0x164B JUMPI DUP1 PUSH4 0xD61B519 EQ PUSH2 0x124F JUMPI DUP1 PUSH4 0x22005A92 EQ PUSH2 0x1132 JUMPI DUP1 PUSH4 0x2AB09D14 EQ PUSH2 0x1114 JUMPI DUP1 PUSH4 0x345C3537 EQ PUSH2 0x10EB JUMPI DUP1 PUSH4 0x38ADD68D EQ PUSH2 0x10B2 JUMPI DUP1 PUSH4 0x43859632 EQ PUSH2 0x1066 JUMPI DUP1 PUSH4 0x45F19131 EQ PUSH2 0x104A JUMPI DUP1 PUSH4 0x4D318B0E EQ PUSH2 0x102A JUMPI DUP1 PUSH4 0x4F23C04C EQ PUSH2 0x100C JUMPI DUP1 PUSH4 0x4FA76EC9 EQ PUSH2 0xFEE JUMPI DUP1 PUSH4 0x5F95BFA0 EQ PUSH2 0xCC0 JUMPI DUP1 PUSH4 0x715018A6 EQ PUSH2 0xC66 JUMPI DUP1 PUSH4 0x8158A502 EQ PUSH2 0x824 JUMPI DUP1 PUSH4 0x8DA5CB5B EQ PUSH2 0x7FD JUMPI DUP1 PUSH4 0x943E8216 EQ PUSH2 0x553 JUMPI DUP1 PUSH4 0xBB1345C9 EQ PUSH2 0x423 JUMPI DUP1 PUSH4 0xC62A441F EQ PUSH2 0x1EE JUMPI DUP1 PUSH4 0xD3396149 EQ PUSH2 0x1C5 JUMPI DUP1 PUSH4 0xEE99205C EQ PUSH2 0x19C JUMPI PUSH4 0xF2FDE38B EQ PUSH2 0x10F JUMPI PUSH1 0x0 DUP1 REVERT JUMPDEST CALLVALUE PUSH2 0x199 JUMPI PUSH1 0x20 CALLDATASIZE PUSH1 0x3 NOT ADD SLT PUSH2 0x199 JUMPI PUSH2 0x128 PUSH2 0x17A4 JUMP JUMPDEST PUSH2 0x130 PUSH2 0x1BAB JUMP JUMPDEST PUSH1 0x1 PUSH1 0x1 PUSH1 0xA0 SHL SUB SWAP1 DUP2 AND SWAP1 DUP2 ISZERO PUSH2 0x180 JUMPI PUSH1 0x0 SLOAD DUP3 PUSH1 0x1 PUSH1 0x1 PUSH1 0x60 SHL SUB PUSH1 0xA0 SHL DUP3 AND OR PUSH1 0x0 SSTORE AND PUSH32 0x8BE0079C531659141344CD1FD0A4F28419497F9722A3DAAFE3B4186F6B6457E0 PUSH1 0x0 DUP1 LOG3 DUP1 RETURN JUMPDEST PUSH1 0x40 MLOAD PUSH4 0x1E4FBDF7 PUSH1 0xE0 SHL DUP2 MSTORE PUSH1 0x4 DUP2 ADD DUP5 SWAP1 MSTORE PUSH1 0x24 SWAP1 REVERT JUMPDEST DUP1 REVERT JUMPDEST POP CALLVALUE PUSH2 0x199 JUMPI DUP1 PUSH1 0x3 NOT CALLDATASIZE ADD SLT PUSH2 0x199 JUMPI PUSH1 0x3 SLOAD PUSH1 0x40 MLOAD PUSH1 0x1 PUSH1 0x1 PUSH1 0xA0 SHL SUB SWAP1 SWAP2 AND DUP2 MSTORE PUSH1 0x20 SWAP1 RETURN JUMPDEST POP CALLVALUE PUSH2 0x199 JUMPI DUP1 PUSH1 0x3 NOT CALLDATASIZE ADD SLT PUSH2 0x199 JUMPI PUSH1 0x4 SLOAD PUSH1 0x40 MLOAD PUSH1 0x1 PUSH1 0x1 PUSH1 0xA0 SHL SUB SWAP1 SWAP2 AND DUP2 MSTORE PUSH1 0x20 SWAP1 RETURN JUMPDEST POP CALLVALUE PUSH2 0x199 JUMPI PUSH1 0x80 CALLDATASIZE PUSH1 0x3 NOT ADD SLT PUSH2 0x199 JUMPI PUSH1 0x4 CALLDATALOAD PUSH2 0x20B PUSH2 0x17BA JUMP JUMPDEST SWAP1 PUSH1 0x64 CALLDATALOAD SWAP2 PUSH1 0x2 DUP4 LT ISZERO PUSH2 0x41F JUMPI PUSH1 0x2 SLOAD PUSH1 0x40 MLOAD PUSH4 0xA217FDDF PUSH1 0xE0 SHL DUP2 MSTORE SWAP1 PUSH1 0x20 SWAP1 PUSH1 0x1 PUSH1 0x1 PUSH1 0xA0 SHL SUB SWAP1 DUP8 SWAP1 DUP3 AND DUP4 DUP6 PUSH1 0x4 DUP2 DUP5 GAS STATICCALL SWAP5 DUP6 ISZERO PUSH2 0x414 JUMPI DUP3 SWAP6 PUSH2 0x3DC JUMPI JUMPDEST POP PUSH1 0x40 MLOAD PUSH4 0x24745215 PUSH1 0xE2 SHL DUP2 MSTORE PUSH1 0x4 DUP2 ADD SWAP6 SWAP1 SWAP6 MSTORE CALLER PUSH1 0x24 DUP7 ADD MSTORE DUP4 SWAP1 DUP6 SWAP1 PUSH1 0x44 SWAP1 DUP3 SWAP1 GAS STATICCALL SWAP6 DUP7 ISZERO PUSH2 0x3CF JUMPI PUSH1 0x0 DUP1 MLOAD PUSH1 0x20 PUSH2 0x1BD8 DUP4 CODECOPY DUP2 MLOAD SWAP2 MSTORE SWAP8 PUSH1 0x2 PUSH1 0xA PUSH32 0xCC914BECFA276BBC067049BF8DB2D34EBBDC1BAFA851E4D4936AAED376C08DBE SWAP6 PUSH2 0x2CB PUSH1 0x40 SWAP12 DUP5 SWAP11 PUSH1 0x80 SWAP9 SWAP2 PUSH2 0x3A2 JUMPI JUMPDEST POP PUSH2 0x1873 JUMP JUMPDEST PUSH2 0x2D6 DUP6 ISZERO ISZERO PUSH2 0x1B3C JUMP JUMPDEST PUSH1 0x6 SLOAD SWAP10 PUSH2 0x2E3 DUP12 PUSH2 0x1B2D JUMP JUMPDEST PUSH1 0x6 SSTORE DUP11 PUSH1 0x0 MSTORE PUSH1 0x5 DUP10 MSTORE DUP12 PUSH1 0x0 KECCAK256 SWAP2 DUP12 DUP4 SSTORE PUSH1 0x1 DUP4 ADD PUSH1 0x1 DUP2 SLOAD PUSH2 0x100 DUP3 PUSH1 0xA8 SHL SUB CALLER PUSH1 0x8 SHL AND SWAP1 PUSH11 0xFFFFFFFFFFFFFFFFFFFFFF PUSH1 0xA8 SHL AND OR OR SWAP1 SSTORE DUP7 DUP6 DUP5 ADD SSTORE PUSH1 0x3 DUP4 ADD SWAP2 AND PUSH1 0x1 PUSH1 0x1 PUSH1 0x60 SHL SUB PUSH1 0xA0 SHL DUP3 SLOAD AND OR SWAP1 SSTORE PUSH1 0x44 CALLDATALOAD PUSH1 0x4 DUP3 ADD SSTORE PUSH1 0x5 DUP2 ADD PUSH2 0x351 DUP6 PUSH2 0x1784 JUMP JUMPDEST PUSH1 0xFF NOT SWAP5 PUSH1 0xFF DUP7 DUP4 SLOAD AND SWAP2 AND OR SWAP1 SSTORE TIMESTAMP PUSH1 0x6 DUP3 ADD SSTORE PUSH2 0x372 PUSH1 0x9 SLOAD TIMESTAMP PUSH2 0x1838 JUMP JUMPDEST PUSH1 0x7 DUP3 ADD SSTORE ADD SWAP2 DUP3 SLOAD AND OR SWAP1 SSTORE DUP7 MLOAD SWAP1 DUP7 DUP3 MSTORE CALLER DUP6 DUP4 ADD MSTORE PUSH1 0x1 DUP9 DUP4 ADD MSTORE PUSH1 0x60 DUP3 ADD MSTORE LOG1 DUP4 MLOAD SWAP3 DUP4 MSTORE DUP3 ADD MSTORE LOG1 DUP1 RETURN JUMPDEST PUSH2 0x3C2 SWAP2 POP DUP11 RETURNDATASIZE DUP13 GT PUSH2 0x3C8 JUMPI JUMPDEST PUSH2 0x3BA DUP2 DUP4 PUSH2 0x17E4 JUMP JUMPDEST DUP2 ADD SWAP1 PUSH2 0x185B JUMP JUMPDEST CODESIZE PUSH2 0x2C5 JUMP JUMPDEST POP RETURNDATASIZE PUSH2 0x3B0 JUMP JUMPDEST POP PUSH1 0x40 MLOAD SWAP1 RETURNDATASIZE SWAP1 DUP3 RETURNDATACOPY RETURNDATASIZE SWAP1 REVERT JUMPDEST SWAP5 POP SWAP1 POP DUP3 DUP5 DUP2 RETURNDATASIZE DUP2 GT PUSH2 0x40D JUMPI JUMPDEST PUSH2 0x3F5 DUP2 DUP4 PUSH2 0x17E4 JUMP JUMPDEST DUP2 ADD SUB SLT PUSH2 0x408 JUMPI SWAP3 MLOAD SWAP3 DUP8 SWAP1 DUP4 PUSH2 0x250 JUMP JUMPDEST PUSH1 0x0 DUP1 REVERT JUMPDEST POP RETURNDATASIZE PUSH2 0x3EB JUMP JUMPDEST PUSH1 0x40 MLOAD RETURNDATASIZE DUP5 DUP3 RETURNDATACOPY RETURNDATASIZE SWAP1 REVERT JUMPDEST DUP4 DUP1 REVERT JUMPDEST POP CALLVALUE PUSH2 0x199 JUMPI PUSH1 0x40 CALLDATASIZE PUSH1 0x3 NOT ADD SLT PUSH2 0x199 JUMPI PUSH2 0x43D PUSH2 0x17A4 JUMP JUMPDEST PUSH1 0x2 SLOAD PUSH1 0x40 MLOAD PUSH4 0xC601F7AF PUSH1 0xE0 SHL DUP2 MSTORE PUSH1 0x24 CALLDATALOAD SWAP3 PUSH1 0x1 PUSH1 0x1 PUSH1 0xA0 SHL SUB SWAP3 DUP4 AND SWAP3 PUSH1 0x20 SWAP3 SWAP1 SWAP2 SWAP1 DUP4 DUP2 PUSH1 0x4 DUP2 DUP9 GAS STATICCALL SWAP1 DUP2 ISZERO PUSH2 0x548 JUMPI DUP8 SWAP2 PUSH2 0x519 JUMPI JUMPDEST POP PUSH1 0x40 MLOAD PUSH4 0x24745215 PUSH1 0xE2 SHL DUP2 MSTORE PUSH1 0x4 DUP2 ADD SWAP2 SWAP1 SWAP2 MSTORE CALLER PUSH1 0x24 DUP3 ADD MSTORE SWAP4 DUP4 SWAP1 DUP6 SWAP1 DUP2 DUP1 PUSH1 0x44 DUP2 ADD JUMPDEST SUB SWAP2 GAS STATICCALL SWAP4 DUP5 ISZERO PUSH2 0x50E JUMPI PUSH32 0xBCE4BE9B5E0540FC5C565CD30C59B6465D9EB0550F7A36A89128EEB8271B6C72 SWAP5 PUSH2 0x4DE SWAP2 DUP9 SWAP2 PUSH2 0x4F7 JUMPI POP PUSH2 0x1873 JUMP JUMPDEST AND SWAP3 DUP4 DUP6 MSTORE PUSH1 0x8 DUP3 MSTORE DUP1 PUSH1 0x40 DUP7 KECCAK256 SSTORE PUSH1 0x40 MLOAD SWAP1 DUP2 MSTORE LOG2 DUP1 RETURN JUMPDEST PUSH2 0x3C2 SWAP2 POP DUP6 RETURNDATASIZE DUP8 GT PUSH2 0x3C8 JUMPI PUSH2 0x3BA DUP2 DUP4 PUSH2 0x17E4 JUMP JUMPDEST PUSH1 0x40 MLOAD RETURNDATASIZE DUP9 DUP3 RETURNDATACOPY RETURNDATASIZE SWAP1 REVERT JUMPDEST SWAP1 POP DUP4 DUP2 DUP2 RETURNDATASIZE DUP4 GT PUSH2 0x541 JUMPI JUMPDEST PUSH2 0x530 DUP2 DUP4 PUSH2 0x17E4 JUMP JUMPDEST DUP2 ADD SUB SLT PUSH2 0x408 JUMPI MLOAD PUSH2 0x4A1 PUSH2 0x479 JUMP JUMPDEST POP RETURNDATASIZE PUSH2 0x526 JUMP JUMPDEST PUSH1 0x40 MLOAD RETURNDATASIZE DUP10 DUP3 RETURNDATACOPY RETURNDATASIZE SWAP1 REVERT JUMPDEST POP CALLVALUE PUSH2 0x199 JUMPI PUSH1 0x40 CALLDATASIZE PUSH1 0x3 NOT ADD SLT PUSH2 0x199 JUMPI PUSH1 0x4 CALLDATALOAD PUSH1 0x24 DUP1 CALLDATALOAD PUSH1 0x2 DUP2 LT ISZERO PUSH2 0x41F JUMPI PUSH2 0x57D PUSH2 0x1B88 JUMP JUMPDEST DUP3 DUP5 MSTORE PUSH1 0x20 PUSH1 0x5 DUP2 MSTORE PUSH1 0x40 DUP6 KECCAK256 SWAP3 PUSH1 0xFF PUSH1 0xA DUP6 ADD SLOAD AND PUSH1 0x8 DUP2 LT ISZERO PUSH2 0x7EA JUMPI PUSH1 0x2 PUSH2 0x5A8 SWAP2 EQ PUSH2 0x18CA JUMP JUMPDEST PUSH1 0x7 DUP5 ADD SLOAD TIMESTAMP GT PUSH2 0x7A7 JUMPI DUP5 DUP7 MSTORE PUSH1 0x7 DUP3 MSTORE PUSH1 0x40 DUP7 KECCAK256 CALLER PUSH1 0x0 MSTORE DUP3 MSTORE PUSH1 0xFF PUSH1 0x40 PUSH1 0x0 KECCAK256 SLOAD AND PUSH2 0x774 JUMPI PUSH1 0x3 SLOAD PUSH1 0x40 MLOAD PUSH4 0x26D352AB PUSH1 0xE1 SHL DUP2 MSTORE CALLER PUSH1 0x4 DUP3 ADD MSTORE SWAP2 SWAP1 DUP4 SWAP1 DUP4 SWAP1 DUP4 SWAP1 DUP3 SWAP1 PUSH1 0x1 PUSH1 0x1 PUSH1 0xA0 SHL SUB AND GAS STATICCALL SWAP2 DUP3 ISZERO PUSH2 0x548 JUMPI DUP8 SWAP3 PUSH2 0x745 JUMPI JUMPDEST POP DUP2 ISZERO PUSH2 0x702 JUMPI CALLER DUP8 MSTORE PUSH1 0x8 DUP4 MSTORE PUSH1 0x40 DUP8 KECCAK256 SLOAD PUSH1 0x64 ADD DUP1 PUSH1 0x64 GT PUSH2 0x6EF JUMPI DUP1 DUP4 MUL SWAP3 DUP4 DIV SUB PUSH2 0x6DB JUMPI POP SWAP2 PUSH1 0x80 SWAP4 SWAP2 PUSH1 0x64 PUSH32 0x2635C84C3A8027A303CA6D6E90B1C4A9604754040372414D244AADFA64717518 SWAP7 SWAP5 DIV SWAP3 DUP5 DUP9 MSTORE PUSH1 0x7 DUP3 MSTORE PUSH1 0x40 DUP9 KECCAK256 CALLER PUSH1 0x0 MSTORE DUP3 MSTORE PUSH1 0x40 PUSH1 0x0 KECCAK256 PUSH1 0x1 PUSH1 0xFF NOT DUP3 SLOAD AND OR SWAP1 SSTORE PUSH2 0x68A DUP4 PUSH2 0x1784 JUMP JUMPDEST DUP3 PUSH2 0x6C6 JUMPI PUSH1 0x8 ADD PUSH2 0x69D DUP5 DUP3 SLOAD PUSH2 0x1838 JUMP JUMPDEST SWAP1 SSTORE JUMPDEST PUSH1 0x40 MLOAD SWAP4 DUP5 MSTORE CALLER SWAP1 DUP5 ADD MSTORE PUSH2 0x6B4 DUP2 PUSH2 0x1784 JUMP JUMPDEST PUSH1 0x40 DUP4 ADD MSTORE PUSH1 0x60 DUP3 ADD MSTORE LOG1 PUSH1 0x1 DUP1 SSTORE DUP1 RETURN JUMPDEST PUSH1 0x9 ADD PUSH2 0x6D4 DUP5 DUP3 SLOAD PUSH2 0x1838 JUMP JUMPDEST SWAP1 SSTORE PUSH2 0x6A0 JUMP JUMPDEST PUSH4 0x4E487B71 PUSH1 0xE0 SHL PUSH1 0x0 SWAP1 DUP2 MSTORE PUSH1 0x11 PUSH1 0x4 MSTORE REVERT JUMPDEST POP PUSH4 0x4E487B71 PUSH1 0xE0 SHL DUP8 MSTORE PUSH1 0x11 PUSH1 0x4 MSTORE DUP7 REVERT JUMPDEST DUP3 PUSH1 0x1F PUSH1 0x64 SWAP3 PUSH1 0x40 MLOAD SWAP3 PUSH3 0x461BCD PUSH1 0xE5 SHL DUP5 MSTORE PUSH1 0x4 DUP5 ADD MSTORE DUP3 ADD MSTORE PUSH32 0x4D7573742068617665207374616B656420746F6B656E7320746F20766F746500 PUSH1 0x44 DUP3 ADD MSTORE REVERT JUMPDEST SWAP1 SWAP2 POP DUP3 DUP2 DUP2 RETURNDATASIZE DUP4 GT PUSH2 0x76D JUMPI JUMPDEST PUSH2 0x75D DUP2 DUP4 PUSH2 0x17E4 JUMP JUMPDEST DUP2 ADD SUB SLT PUSH2 0x408 JUMPI MLOAD SWAP1 CODESIZE PUSH2 0x60A JUMP JUMPDEST POP RETURNDATASIZE PUSH2 0x753 JUMP JUMPDEST SWAP1 PUSH1 0xD PUSH1 0x64 SWAP3 PUSH1 0x40 MLOAD SWAP3 PUSH3 0x461BCD PUSH1 0xE5 SHL DUP5 MSTORE PUSH1 0x4 DUP5 ADD MSTORE DUP3 ADD MSTORE PUSH13 0x105B1C9958591E481D9BDD1959 PUSH1 0x9A SHL PUSH1 0x44 DUP3 ADD MSTORE REVERT JUMPDEST SWAP1 PUSH1 0x17 PUSH1 0x64 SWAP3 PUSH1 0x40 MLOAD SWAP3 PUSH3 0x461BCD PUSH1 0xE5 SHL DUP5 MSTORE PUSH1 0x4 DUP5 ADD MSTORE DUP3 ADD MSTORE PUSH32 0x566F74696E6720706572696F642068617320656E646564000000000000000000 PUSH1 0x44 DUP3 ADD MSTORE REVERT JUMPDEST POP PUSH4 0x4E487B71 PUSH1 0xE0 SHL DUP7 MSTORE PUSH1 0x21 PUSH1 0x4 MSTORE DUP6 REVERT JUMPDEST POP CALLVALUE PUSH2 0x199 JUMPI DUP1 PUSH1 0x3 NOT CALLDATASIZE ADD SLT PUSH2 0x199 JUMPI SLOAD PUSH1 0x40 MLOAD PUSH1 0x1 PUSH1 0x1 PUSH1 0xA0 SHL SUB SWAP1 SWAP2 AND DUP2 MSTORE PUSH1 0x20 SWAP1 RETURN JUMPDEST POP CALLVALUE PUSH2 0x199 JUMPI PUSH1 0x60 CALLDATASIZE PUSH1 0x3 NOT ADD SLT PUSH2 0x199 JUMPI PUSH2 0x83E PUSH2 0x17BA JUMP JUMPDEST PUSH1 0x44 CALLDATALOAD PUSH8 0xFFFFFFFFFFFFFFFF DUP2 GT PUSH2 0xC62 JUMPI CALLDATASIZE PUSH1 0x23 DUP3 ADD SLT ISZERO PUSH2 0xC62 JUMPI DUP1 PUSH1 0x4 ADD CALLDATALOAD SWAP1 PUSH8 0xFFFFFFFFFFFFFFFF DUP3 GT PUSH2 0xC4E JUMPI DUP2 PUSH1 0x5 SHL PUSH1 0x40 MLOAD SWAP3 PUSH2 0x885 PUSH1 0x20 DUP4 ADD DUP6 PUSH2 0x17E4 JUMP JUMPDEST DUP4 MSTORE PUSH1 0x24 PUSH1 0x20 DUP5 ADD SWAP2 DUP4 ADD ADD SWAP2 CALLDATASIZE DUP4 GT PUSH2 0xC4A JUMPI PUSH1 0x24 ADD SWAP1 JUMPDEST DUP3 DUP3 LT PUSH2 0xC3A JUMPI POP POP PUSH1 0x2 SLOAD PUSH1 0x40 MLOAD PUSH4 0x13AA1D4D PUSH1 0xE1 SHL DUP2 MSTORE PUSH1 0x1 PUSH1 0x1 PUSH1 0xA0 SHL SUB SWAP1 SWAP2 AND SWAP2 POP PUSH1 0x20 DUP2 PUSH1 0x4 DUP2 DUP6 GAS STATICCALL SWAP1 DUP2 ISZERO PUSH2 0xC2F JUMPI DUP6 SWAP2 PUSH2 0xBFB JUMPI JUMPDEST POP PUSH1 0x40 MLOAD PUSH4 0x24745215 PUSH1 0xE2 SHL DUP2 MSTORE PUSH1 0x4 DUP2 ADD SWAP2 SWAP1 SWAP2 MSTORE CALLER PUSH1 0x24 DUP3 ADD MSTORE SWAP1 PUSH1 0x20 SWAP1 DUP3 SWAP1 DUP2 DUP1 PUSH1 0x44 DUP2 ADD JUMPDEST SUB SWAP2 GAS STATICCALL DUP1 ISZERO PUSH2 0xBF0 JUMPI PUSH2 0x91E SWAP2 DUP6 SWAP2 PUSH2 0xBD7 JUMPI POP PUSH2 0x1873 JUMP JUMPDEST DUP1 MLOAD ISZERO PUSH2 0xB87 JUMPI PUSH2 0x932 PUSH1 0x4 CALLDATALOAD ISZERO ISZERO PUSH2 0x1B3C JUMP JUMPDEST PUSH1 0xA PUSH1 0x6 SLOAD SWAP3 PUSH2 0x941 DUP5 PUSH2 0x1B2D JUMP JUMPDEST PUSH1 0x6 SSTORE DUP4 PUSH1 0x0 MSTORE PUSH1 0x5 PUSH1 0x20 MSTORE PUSH1 0x40 PUSH1 0x0 KECCAK256 SWAP1 DUP5 DUP3 SSTORE PUSH1 0x1 DUP3 ADD SLOAD PUSH2 0x100 PUSH1 0x1 PUSH1 0xA8 SHL SUB CALLER PUSH1 0x8 SHL AND SWAP1 PUSH11 0xFFFFFFFFFFFFFFFFFFFFFF PUSH1 0xA8 SHL AND OR PUSH1 0x1 DUP4 ADD SSTORE PUSH1 0x4 CALLDATALOAD PUSH1 0x2 DUP4 ADD SSTORE PUSH1 0x3 DUP3 ADD SWAP1 PUSH1 0x1 DUP1 PUSH1 0xA0 SHL SUB AND PUSH1 0x1 PUSH1 0x1 PUSH1 0x60 SHL SUB PUSH1 0xA0 SHL DUP3 SLOAD AND OR SWAP1 SSTORE PUSH1 0x0 PUSH1 0x4 DUP3 ADD SSTORE PUSH1 0x1 PUSH1 0xFF NOT PUSH1 0x5 DUP4 ADD SLOAD AND OR PUSH1 0x5 DUP3 ADD SSTORE TIMESTAMP PUSH1 0x6 DUP3 ADD SSTORE PUSH2 0x9D0 PUSH1 0x9 SLOAD TIMESTAMP PUSH2 0x1838 JUMP JUMPDEST PUSH1 0x7 DUP3 ADD SSTORE ADD PUSH1 0x2 PUSH1 0xFF NOT DUP3 SLOAD AND OR SWAP1 SSTORE PUSH32 0xCC914BECFA276BBC067049BF8DB2D34EBBDC1BAFA851E4D4936AAED376C08DBE PUSH1 0x80 PUSH1 0x40 MLOAD DUP5 DUP2 MSTORE CALLER PUSH1 0x20 DUP3 ADD MSTORE PUSH1 0x0 PUSH1 0x40 DUP3 ADD MSTORE PUSH1 0x4 CALLDATALOAD PUSH1 0x60 DUP3 ADD MSTORE LOG1 PUSH1 0x0 DUP1 MLOAD PUSH1 0x20 PUSH2 0x1BD8 DUP4 CODECOPY DUP2 MLOAD SWAP2 MSTORE PUSH1 0x40 DUP1 MLOAD DUP5 DUP2 MSTORE PUSH1 0x2 PUSH1 0x20 DUP3 ADD MSTORE LOG1 DUP3 JUMPDEST DUP2 MLOAD DUP2 LT ISZERO PUSH2 0xB83 JUMPI DUP3 DUP5 MSTORE PUSH1 0x5 PUSH1 0x20 MSTORE PUSH1 0xB PUSH1 0x40 DUP6 KECCAK256 ADD DUP3 MLOAD DUP3 LT ISZERO PUSH2 0xB6F JUMPI PUSH1 0x20 DUP3 PUSH1 0x5 SHL DUP5 ADD ADD MLOAD SWAP1 PUSH1 0x40 MLOAD SWAP2 DUP3 PUSH1 0x80 DUP2 ADD LT PUSH8 0xFFFFFFFFFFFFFFFF PUSH1 0x80 DUP6 ADD GT OR PUSH2 0xB59 JUMPI PUSH1 0x80 DUP4 ADD PUSH1 0x40 MSTORE DUP3 MSTORE DUP6 PUSH1 0x20 DUP4 ADD MSTORE DUP6 PUSH1 0x40 DUP4 ADD MSTORE DUP6 PUSH1 0x60 DUP4 ADD MSTORE DUP1 SLOAD SWAP1 PUSH9 0x10000000000000000 DUP3 LT ISZERO PUSH2 0xB45 JUMPI SWAP1 PUSH2 0xAC8 SWAP2 PUSH1 0x1 DUP3 ADD DUP2 SSTORE PUSH2 0x1806 JUMP JUMPDEST PUSH2 0xB31 JUMPI DUP2 MLOAD DUP2 SSTORE PUSH1 0x20 DUP3 ADD MLOAD SWAP1 PUSH1 0x8 DUP3 LT ISZERO PUSH2 0xB1D JUMPI SWAP1 PUSH1 0x60 PUSH1 0x3 PUSH1 0x1 SWAP6 SWAP5 SWAP4 PUSH1 0xFF NOT DUP8 DUP3 ADD SLOAD AND PUSH1 0xFF DUP1 SWAP6 AND OR DUP8 DUP3 ADD SSTORE PUSH1 0x40 DUP6 ADD MLOAD PUSH1 0x2 DUP3 ADD SSTORE ADD SWAP3 ADD MLOAD ISZERO ISZERO SWAP1 PUSH1 0xFF NOT DUP4 SLOAD AND SWAP2 AND OR SWAP1 SSTORE ADD PUSH2 0xA40 JUMP JUMPDEST PUSH4 0x4E487B71 PUSH1 0xE0 SHL DUP8 MSTORE PUSH1 0x21 PUSH1 0x4 MSTORE PUSH1 0x24 DUP8 REVERT JUMPDEST PUSH4 0x4E487B71 PUSH1 0xE0 SHL DUP7 MSTORE PUSH1 0x4 DUP7 SWAP1 MSTORE PUSH1 0x24 DUP7 REVERT JUMPDEST PUSH4 0x4E487B71 PUSH1 0xE0 SHL DUP8 MSTORE PUSH1 0x41 PUSH1 0x4 MSTORE PUSH1 0x24 DUP8 REVERT JUMPDEST PUSH4 0x4E487B71 PUSH1 0xE0 SHL PUSH1 0x0 MSTORE PUSH1 0x41 PUSH1 0x4 MSTORE PUSH1 0x24 PUSH1 0x0 REVERT JUMPDEST PUSH4 0x4E487B71 PUSH1 0xE0 SHL DUP6 MSTORE PUSH1 0x32 PUSH1 0x4 MSTORE PUSH1 0x24 DUP6 REVERT JUMPDEST DUP4 DUP1 RETURN JUMPDEST PUSH1 0x40 MLOAD PUSH3 0x461BCD PUSH1 0xE5 SHL DUP2 MSTORE PUSH1 0x20 PUSH1 0x4 DUP3 ADD MSTORE PUSH1 0x22 PUSH1 0x24 DUP3 ADD MSTORE PUSH32 0x4174206C65617374206F6E65206D696C6573746F6E6520697320726571756972 PUSH1 0x44 DUP3 ADD MSTORE PUSH2 0x1959 PUSH1 0xF2 SHL PUSH1 0x64 DUP3 ADD MSTORE PUSH1 0x84 SWAP1 REVERT JUMPDEST PUSH2 0x3C2 SWAP2 POP PUSH1 0x20 RETURNDATASIZE PUSH1 0x20 GT PUSH2 0x3C8 JUMPI PUSH2 0x3BA DUP2 DUP4 PUSH2 0x17E4 JUMP JUMPDEST PUSH1 0x40 MLOAD RETURNDATASIZE DUP7 DUP3 RETURNDATACOPY RETURNDATASIZE SWAP1 REVERT JUMPDEST SWAP1 POP PUSH1 0x20 DUP2 RETURNDATASIZE PUSH1 0x20 GT PUSH2 0xC27 JUMPI JUMPDEST DUP2 PUSH2 0xC16 PUSH1 0x20 SWAP4 DUP4 PUSH2 0x17E4 JUMP JUMPDEST DUP2 ADD SUB SLT PUSH2 0x408 JUMPI MLOAD PUSH2 0x904 PUSH2 0x8DB JUMP JUMPDEST RETURNDATASIZE SWAP2 POP PUSH2 0xC09 JUMP JUMPDEST PUSH1 0x40 MLOAD RETURNDATASIZE DUP8 DUP3 RETURNDATACOPY RETURNDATASIZE SWAP1 REVERT JUMPDEST DUP2 CALLDATALOAD DUP2 MSTORE PUSH1 0x20 SWAP2 DUP3 ADD SWAP2 ADD PUSH2 0x89E JUMP JUMPDEST DUP6 DUP1 REVERT JUMPDEST PUSH4 0x4E487B71 PUSH1 0xE0 SHL DUP5 MSTORE PUSH1 0x41 PUSH1 0x4 MSTORE PUSH1 0x24 DUP5 REVERT JUMPDEST DUP3 DUP1 REVERT JUMPDEST POP CALLVALUE PUSH2 0x199 JUMPI DUP1 PUSH1 0x3 NOT CALLDATASIZE ADD SLT PUSH2 0x199 JUMPI PUSH2 0xC7F PUSH2 0x1BAB JUMP JUMPDEST PUSH1 0x0 DUP1 SLOAD PUSH1 0x1 PUSH1 0x1 PUSH1 0xA0 SHL SUB NOT DUP2 AND DUP3 SSTORE PUSH1 0x1 PUSH1 0x1 PUSH1 0xA0 SHL SUB AND PUSH32 0x8BE0079C531659141344CD1FD0A4F28419497F9722A3DAAFE3B4186F6B6457E0 DUP3 DUP1 LOG3 DUP1 RETURN JUMPDEST POP CALLVALUE PUSH2 0x199 JUMPI PUSH1 0x40 CALLDATASIZE PUSH1 0x3 NOT ADD SLT PUSH2 0x199 JUMPI PUSH1 0x4 CALLDATALOAD PUSH1 0x24 DUP1 CALLDATALOAD SWAP1 PUSH2 0xCE2 PUSH2 0x1B88 JUMP JUMPDEST PUSH1 0x2 SLOAD PUSH1 0x40 MLOAD PUSH4 0xA217FDDF PUSH1 0xE0 SHL DUP2 MSTORE PUSH1 0x1 PUSH1 0x1 PUSH1 0xA0 SHL SUB SWAP5 SWAP2 PUSH1 0x20 SWAP2 SWAP1 DUP7 AND SWAP1 DUP3 DUP2 PUSH1 0x4 DUP2 DUP6 GAS STATICCALL DUP1 ISZERO PUSH2 0xFE3 JUMPI DUP4 SWAP2 DUP10 SWAP2 PUSH2 0xFB2 JUMPI JUMPDEST POP PUSH1 0x40 MLOAD PUSH4 0x24745215 PUSH1 0xE2 SHL DUP2 MSTORE PUSH1 0x4 DUP2 ADD SWAP2 SWAP1 SWAP2 MSTORE CALLER PUSH1 0x24 DUP3 ADD MSTORE SWAP2 DUP3 SWAP1 DUP2 DUP1 PUSH1 0x44 DUP2 ADD JUMPDEST SUB SWAP2 GAS STATICCALL DUP1 ISZERO PUSH2 0x548 JUMPI PUSH2 0xD5A SWAP2 DUP9 SWAP2 PUSH2 0xF9B JUMPI POP PUSH2 0x1873 JUMP JUMPDEST DUP2 DUP7 MSTORE PUSH1 0x5 DUP2 MSTORE PUSH1 0x40 DUP7 KECCAK256 SWAP3 PUSH1 0xFF PUSH1 0x1 DUP6 ADD SLOAD AND PUSH2 0xD77 DUP2 PUSH2 0x1784 JUMP JUMPDEST PUSH2 0xF5F JUMPI PUSH1 0xFF PUSH1 0xA DUP6 ADD SLOAD AND PUSH1 0x8 DUP2 LT ISZERO PUSH2 0xF4C JUMPI PUSH1 0x5 SUB PUSH2 0xEFA JUMPI PUSH1 0xC DUP5 ADD SWAP6 PUSH1 0xB DUP8 SLOAD SWAP6 ADD SWAP5 DUP6 SLOAD GT ISZERO PUSH2 0xEB6 JUMPI DUP6 ISZERO PUSH2 0xE72 JUMPI SWAP1 DUP8 SWAP2 PUSH1 0x4 SLOAD AND SWAP1 DUP2 EXTCODESIZE ISZERO PUSH2 0xC62 JUMPI DUP3 SWAP2 DUP3 SWAP2 PUSH1 0x40 MLOAD DUP1 SWAP5 DUP2 SWAP4 PUSH4 0x31C57B1F PUSH1 0xE1 SHL DUP4 MSTORE DUP10 PUSH1 0x4 DUP5 ADD MSTORE GAS CALL DUP1 ISZERO PUSH2 0x414 JUMPI PUSH2 0xE5E JUMPI JUMPDEST POP POP PUSH1 0x40 PUSH32 0xD33FCD27CBFB73A2D9058C968B560CCB306500BF536133802048489ECC7355E9 SWAP2 PUSH2 0xE55 SWAP6 PUSH1 0x2 PUSH2 0xE1B DUP10 SLOAD DUP9 PUSH2 0x1806 JUMP JUMPDEST POP ADD SSTORE PUSH1 0x3 PUSH2 0xE2B DUP9 SLOAD DUP8 PUSH2 0x1806 JUMP JUMPDEST POP ADD PUSH1 0x1 PUSH1 0xFF NOT DUP3 SLOAD AND OR SWAP1 SSTORE PUSH2 0xE44 DUP8 SLOAD DUP1 SWAP7 PUSH2 0x1806 JUMP JUMPDEST POP SLOAD DUP3 MLOAD SWAP2 DUP7 DUP4 MSTORE DUP3 ADD MSTORE LOG2 PUSH2 0x1B2D JUMP JUMPDEST SWAP1 SSTORE PUSH1 0x1 DUP1 SSTORE DUP1 RETURN JUMPDEST PUSH2 0xE67 SWAP1 PUSH2 0x17D0 JUMP JUMPDEST PUSH2 0xC4A JUMPI DUP6 CODESIZE PUSH2 0xDE4 JUMP JUMPDEST PUSH1 0x40 MLOAD PUSH3 0x461BCD PUSH1 0xE5 SHL DUP2 MSTORE PUSH1 0x4 DUP2 ADD DUP5 SWAP1 MSTORE PUSH1 0x19 DUP2 DUP5 ADD MSTORE PUSH32 0x50726F6F6620686173682063616E6E6F74206265207A65726F00000000000000 PUSH1 0x44 DUP3 ADD MSTORE PUSH1 0x64 SWAP1 REVERT JUMPDEST PUSH1 0x40 MLOAD PUSH3 0x461BCD PUSH1 0xE5 SHL DUP2 MSTORE PUSH1 0x4 DUP2 ADD DUP5 SWAP1 MSTORE PUSH1 0x1F DUP2 DUP5 ADD MSTORE PUSH32 0x416C6C206D696C6573746F6E657320616C72656164792072656C656173656400 PUSH1 0x44 DUP3 ADD MSTORE PUSH1 0x64 SWAP1 REVERT JUMPDEST SWAP1 PUSH1 0x26 PUSH1 0x84 SWAP3 PUSH1 0x40 MLOAD SWAP3 PUSH3 0x461BCD PUSH1 0xE5 SHL DUP5 MSTORE PUSH1 0x4 DUP5 ADD MSTORE DUP3 ADD MSTORE PUSH32 0x50726F706F73616C20776173206E6F7420617070726F76656420616E64206578 PUSH1 0x44 DUP3 ADD MSTORE PUSH6 0x1958DD5D1959 PUSH1 0xD2 SHL PUSH1 0x64 DUP3 ADD MSTORE REVERT JUMPDEST POP PUSH4 0x4E487B71 PUSH1 0xE0 SHL DUP8 MSTORE PUSH1 0x21 PUSH1 0x4 MSTORE DUP7 REVERT JUMPDEST SWAP1 PUSH1 0x16 PUSH1 0x64 SWAP3 PUSH1 0x40 MLOAD SWAP3 PUSH3 0x461BCD PUSH1 0xE5 SHL DUP5 MSTORE PUSH1 0x4 DUP5 ADD MSTORE DUP3 ADD MSTORE PUSH22 0x139BDD081848199D5B991A5B99C81C1C9BDC1BDCD85B PUSH1 0x52 SHL PUSH1 0x44 DUP3 ADD MSTORE REVERT JUMPDEST PUSH2 0x3C2 SWAP2 POP DUP4 RETURNDATASIZE DUP6 GT PUSH2 0x3C8 JUMPI PUSH2 0x3BA DUP2 DUP4 PUSH2 0x17E4 JUMP JUMPDEST DUP3 DUP2 SWAP4 SWAP3 POP RETURNDATASIZE DUP4 GT PUSH2 0xFDC JUMPI JUMPDEST PUSH2 0xFC9 DUP2 DUP4 PUSH2 0x17E4 JUMP JUMPDEST DUP2 ADD SUB SLT PUSH2 0x408 JUMPI MLOAD DUP3 SWAP1 PUSH2 0xD40 PUSH2 0xD1A JUMP JUMPDEST POP RETURNDATASIZE PUSH2 0xFBF JUMP JUMPDEST PUSH1 0x40 MLOAD RETURNDATASIZE DUP11 DUP3 RETURNDATACOPY RETURNDATASIZE SWAP1 REVERT JUMPDEST POP CALLVALUE PUSH2 0x199 JUMPI DUP1 PUSH1 0x3 NOT CALLDATASIZE ADD SLT PUSH2 0x199 JUMPI PUSH1 0x20 PUSH1 0xA SLOAD PUSH1 0x40 MLOAD SWAP1 DUP2 MSTORE RETURN JUMPDEST POP CALLVALUE PUSH2 0x199 JUMPI DUP1 PUSH1 0x3 NOT CALLDATASIZE ADD SLT PUSH2 0x199 JUMPI PUSH1 0x20 PUSH1 0xB SLOAD PUSH1 0x40 MLOAD SWAP1 DUP2 MSTORE RETURN JUMPDEST POP CALLVALUE PUSH2 0x199 JUMPI PUSH1 0x20 CALLDATASIZE PUSH1 0x3 NOT ADD SLT PUSH2 0x199 JUMPI PUSH2 0x1047 PUSH1 0x4 CALLDATALOAD PUSH2 0x1936 JUMP JUMPDEST DUP1 RETURN JUMPDEST POP CALLVALUE PUSH2 0x199 JUMPI DUP1 PUSH1 0x3 NOT CALLDATASIZE ADD SLT PUSH2 0x199 JUMPI PUSH1 0x20 PUSH1 0x40 MLOAD PUSH1 0x4B DUP2 MSTORE RETURN JUMPDEST POP CALLVALUE PUSH2 0x199 JUMPI PUSH1 0x40 CALLDATASIZE PUSH1 0x3 NOT ADD SLT PUSH2 0x199 JUMPI PUSH1 0x40 PUSH2 0x1082 PUSH2 0x17BA JUMP JUMPDEST SWAP2 PUSH1 0x4 CALLDATALOAD DUP2 MSTORE PUSH1 0x7 PUSH1 0x20 MSTORE KECCAK256 SWAP1 PUSH1 0x1 DUP1 PUSH1 0xA0 SHL SUB AND PUSH1 0x0 MSTORE PUSH1 0x20 MSTORE PUSH1 0x20 PUSH1 0xFF PUSH1 0x40 PUSH1 0x0 KECCAK256 SLOAD AND PUSH1 0x40 MLOAD SWAP1 ISZERO ISZERO DUP2 MSTORE RETURN JUMPDEST POP CALLVALUE PUSH2 0x199 JUMPI PUSH1 0x20 CALLDATASIZE PUSH1 0x3 NOT ADD SLT PUSH2 0x199 JUMPI PUSH1 0x20 SWAP1 PUSH1 0x40 SWAP1 PUSH1 0x1 PUSH1 0x1 PUSH1 0xA0 SHL SUB PUSH2 0x10DA PUSH2 0x17A4 JUMP JUMPDEST AND DUP2 MSTORE PUSH1 0x8 DUP4 MSTORE KECCAK256 SLOAD PUSH1 0x40 MLOAD SWAP1 DUP2 MSTORE RETURN JUMPDEST POP CALLVALUE PUSH2 0x199 JUMPI DUP1 PUSH1 0x3 NOT CALLDATASIZE ADD SLT PUSH2 0x199 JUMPI PUSH1 0x2 SLOAD PUSH1 0x40 MLOAD PUSH1 0x1 PUSH1 0x1 PUSH1 0xA0 SHL SUB SWAP1 SWAP2 AND DUP2 MSTORE PUSH1 0x20 SWAP1 RETURN JUMPDEST POP CALLVALUE PUSH2 0x199 JUMPI DUP1 PUSH1 0x3 NOT CALLDATASIZE ADD SLT PUSH2 0x199 JUMPI PUSH1 0x20 PUSH1 0x6 SLOAD PUSH1 0x40 MLOAD SWAP1 DUP2 MSTORE RETURN JUMPDEST POP CALLVALUE PUSH2 0x199 JUMPI PUSH1 0x40 CALLDATASIZE PUSH1 0x3 NOT ADD SLT PUSH2 0x199 JUMPI PUSH1 0x2 SLOAD PUSH1 0x40 MLOAD PUSH4 0xC601F7AF PUSH1 0xE0 SHL DUP2 MSTORE PUSH1 0x24 CALLDATALOAD SWAP2 PUSH1 0x20 SWAP2 PUSH1 0x1 PUSH1 0x1 PUSH1 0xA0 SHL SUB SWAP1 SWAP2 AND SWAP1 DUP3 DUP2 PUSH1 0x4 DUP2 DUP6 GAS STATICCALL DUP1 ISZERO PUSH2 0xC2F JUMPI DUP4 SWAP2 DUP7 SWAP2 PUSH2 0x121E JUMPI JUMPDEST POP PUSH1 0x40 MLOAD PUSH4 0x24745215 PUSH1 0xE2 SHL DUP2 MSTORE PUSH1 0x4 DUP2 ADD SWAP2 SWAP1 SWAP2 MSTORE CALLER PUSH1 0x24 DUP3 ADD MSTORE SWAP2 DUP3 SWAP1 DUP2 DUP1 PUSH1 0x44 DUP2 ADD JUMPDEST SUB SWAP2 GAS STATICCALL DUP1 ISZERO PUSH2 0xBF0 JUMPI PUSH2 0x11BE SWAP2 DUP6 SWAP2 PUSH2 0xF9B JUMPI POP PUSH2 0x1873 JUMP JUMPDEST PUSH1 0x64 DUP3 GT PUSH2 0x11DA JUMPI PUSH1 0x5 SWAP1 PUSH1 0x4 CALLDATALOAD DUP5 MSTORE MSTORE PUSH1 0xD PUSH1 0x40 DUP4 KECCAK256 ADD SSTORE DUP1 RETURN JUMPDEST PUSH1 0x64 SWAP1 PUSH1 0x40 MLOAD SWAP1 PUSH3 0x461BCD PUSH1 0xE5 SHL DUP3 MSTORE PUSH1 0x4 DUP3 ADD MSTORE PUSH1 0x1C PUSH1 0x24 DUP3 ADD MSTORE PUSH32 0x5269736B2073636F72652063616E6E6F74206578636565642031303000000000 PUSH1 0x44 DUP3 ADD MSTORE REVERT JUMPDEST DUP3 DUP2 SWAP4 SWAP3 POP RETURNDATASIZE DUP4 GT PUSH2 0x1248 JUMPI JUMPDEST PUSH2 0x1235 DUP2 DUP4 PUSH2 0x17E4 JUMP JUMPDEST DUP2 ADD SUB SLT PUSH2 0x408 JUMPI MLOAD DUP3 SWAP1 PUSH2 0x11A4 PUSH2 0x117E JUMP JUMPDEST POP RETURNDATASIZE PUSH2 0x122B JUMP JUMPDEST POP CALLVALUE PUSH2 0x199 JUMPI PUSH1 0x20 DUP1 PUSH1 0x3 NOT CALLDATASIZE ADD SLT PUSH2 0x1647 JUMPI PUSH1 0x4 CALLDATALOAD SWAP1 PUSH2 0x126E PUSH2 0x1B88 JUMP JUMPDEST DUP2 DUP4 MSTORE PUSH1 0x5 DUP2 MSTORE PUSH1 0x40 DUP4 KECCAK256 PUSH1 0xA DUP2 ADD PUSH1 0xFF SWAP1 DUP2 DUP2 SLOAD AND PUSH1 0x8 DUP2 LT ISZERO PUSH2 0xB1D JUMPI PUSH1 0x2 EQ DUP1 PUSH2 0x163A JUMPI JUMPDEST PUSH2 0x162C JUMPI JUMPDEST DUP1 SLOAD DUP3 DUP2 AND PUSH1 0x8 DUP2 LT ISZERO PUSH2 0x1618 JUMPI PUSH1 0x3 SUB PUSH2 0x15D3 JUMPI DUP3 DUP2 PUSH1 0x8 SHR AND PUSH2 0x158E JUMPI PUSH1 0x4B PUSH1 0xD DUP6 ADD SLOAD GT PUSH2 0x1549 JUMPI PUSH2 0x105 SWAP1 PUSH2 0xFFFF NOT AND OR SWAP1 SSTORE PUSH1 0x1 SWAP2 DUP6 DUP3 PUSH1 0x1 DUP4 ADD SLOAD AND PUSH2 0x12E6 DUP2 PUSH2 0x1784 JUMP JUMPDEST DUP1 PUSH2 0x13E9 JUMPI POP SWAP3 SWAP2 SWAP1 DUP4 SWAP1 DUP5 PUSH1 0xB DUP3 ADD SWAP5 DUP6 SLOAD SWAP6 JUMPDEST DUP7 DUP4 LT PUSH2 0x13BD JUMPI POP POP POP PUSH1 0x1 DUP1 PUSH1 0xA0 SHL SUB PUSH1 0x3 DUP2 PUSH1 0x4 SLOAD AND SWAP3 ADD SLOAD AND DUP2 EXTCODESIZE ISZERO PUSH2 0xC4A JUMPI DUP6 PUSH1 0x84 SWAP3 DUP2 SWAP6 PUSH1 0x40 MLOAD SWAP8 DUP9 SWAP7 DUP8 SWAP6 PUSH4 0xA7932B1 PUSH1 0xE2 SHL DUP8 MSTORE DUP14 PUSH1 0x4 DUP9 ADD MSTORE PUSH1 0x24 DUP8 ADD MSTORE PUSH1 0x44 DUP7 ADD MSTORE AND PUSH1 0x64 DUP5 ADD MSTORE GAS CALL DUP1 ISZERO PUSH2 0x414 JUMPI PUSH2 0x13A9 JUMPI JUMPDEST POP POP PUSH1 0x0 DUP1 MLOAD PUSH1 0x20 PUSH2 0x1BD8 DUP4 CODECOPY DUP2 MLOAD SWAP2 MSTORE SWAP2 PUSH1 0x5 PUSH1 0x40 SWAP3 JUMPDEST PUSH32 0x712AE1383F79AC853F8D882153778E0260EF8F03B504E2866E0593E04D2B291F DUP2 DUP6 MLOAD DUP6 DUP2 MSTORE LOG1 DUP4 MLOAD SWAP3 DUP4 MSTORE DUP3 ADD MSTORE LOG1 PUSH1 0x1 DUP1 SSTORE DUP1 RETURN JUMPDEST PUSH2 0x13B2 SWAP1 PUSH2 0x17D0 JUMP JUMPDEST PUSH2 0xC62 JUMPI DUP3 CODESIZE PUSH2 0x1359 JUMP JUMPDEST SWAP2 SWAP5 SWAP6 SWAP7 POP PUSH2 0x13DA DUP2 SWAP4 SWAP5 PUSH2 0x13D2 DUP8 DUP6 PUSH2 0x1806 JUMP JUMPDEST POP SLOAD SWAP1 PUSH2 0x1838 JUMP JUMPDEST SWAP5 ADD SWAP1 SWAP2 DUP10 SWAP7 SWAP6 SWAP5 SWAP4 SWAP3 PUSH2 0x12FB JUMP JUMPDEST PUSH1 0x1 SWAP2 SWAP5 POP PUSH2 0x13FA DUP2 SWAP5 SWAP4 SWAP5 PUSH2 0x1784 JUMP JUMPDEST EQ PUSH2 0x141D JUMPI JUMPDEST POP POP POP PUSH1 0x0 DUP1 MLOAD PUSH1 0x20 PUSH2 0x1BD8 DUP4 CODECOPY DUP2 MLOAD SWAP2 MSTORE SWAP2 PUSH1 0x5 PUSH1 0x40 SWAP3 PUSH2 0x1371 JUMP JUMPDEST PUSH1 0x5 DUP3 ADD SLOAD AND PUSH2 0x142C DUP2 PUSH2 0x1784 JUMP JUMPDEST PUSH2 0x14B3 JUMPI PUSH1 0x1 DUP1 PUSH1 0xA0 SHL SUB SWAP1 PUSH1 0x4 DUP3 DUP2 SLOAD AND SWAP3 PUSH1 0x3 DUP4 ADD SLOAD AND SWAP2 ADD SLOAD DUP3 EXTCODESIZE ISZERO PUSH2 0x41F JUMPI PUSH1 0x44 DUP5 SWAP3 DUP4 PUSH1 0x40 MLOAD SWAP6 DUP7 SWAP5 DUP6 SWAP4 PUSH4 0xF3FEF3A3 PUSH1 0xE0 SHL DUP6 MSTORE PUSH1 0x4 DUP6 ADD MSTORE PUSH1 0x24 DUP5 ADD MSTORE GAS CALL DUP1 ISZERO PUSH2 0x414 JUMPI PUSH2 0x149F JUMPI JUMPDEST POP POP PUSH1 0x0 DUP1 MLOAD PUSH1 0x20 PUSH2 0x1BD8 DUP4 CODECOPY DUP2 MLOAD SWAP2 MSTORE SWAP2 PUSH1 0x5 PUSH1 0x40 SWAP3 JUMPDEST SWAP3 DUP6 SWAP3 SWAP5 POP PUSH2 0x1400 JUMP JUMPDEST PUSH2 0x14A8 SWAP1 PUSH2 0x17D0 JUMP JUMPDEST PUSH2 0xC62 JUMPI DUP3 CODESIZE PUSH2 0x147D JUMP JUMPDEST PUSH1 0x4 DUP1 SLOAD PUSH1 0x3 DUP4 ADD SLOAD SWAP2 SWAP1 SWAP3 ADD SLOAD PUSH1 0x1 PUSH1 0x1 PUSH1 0xA0 SHL SUB SWAP3 DUP4 AND SWAP4 SWAP3 SWAP1 SWAP2 AND DUP4 EXTCODESIZE ISZERO PUSH2 0xC62 JUMPI PUSH1 0x44 SWAP1 DUP4 PUSH1 0x40 MLOAD SWAP6 DUP7 SWAP5 DUP6 SWAP4 PUSH4 0x6B091F9 PUSH1 0xE0 SHL DUP6 MSTORE PUSH1 0x4 DUP6 ADD MSTORE PUSH1 0x24 DUP5 ADD MSTORE GAS CALL DUP1 ISZERO PUSH2 0xBF0 JUMPI PUSH2 0x1520 JUMPI JUMPDEST POP PUSH1 0x0 DUP1 MLOAD PUSH1 0x20 PUSH2 0x1BD8 DUP4 CODECOPY DUP2 MLOAD SWAP2 MSTORE SWAP2 PUSH1 0x5 PUSH1 0x40 SWAP3 PUSH2 0x1495 JUMP JUMPDEST SWAP2 PUSH1 0x5 PUSH1 0x40 SWAP3 SWAP5 PUSH2 0x153F PUSH1 0x0 DUP1 MLOAD PUSH1 0x20 PUSH2 0x1BD8 DUP4 CODECOPY DUP2 MLOAD SWAP2 MSTORE SWAP6 PUSH2 0x17D0 JUMP JUMPDEST SWAP5 SWAP3 POP POP SWAP2 PUSH2 0x1505 JUMP JUMPDEST PUSH1 0x40 MLOAD PUSH3 0x461BCD PUSH1 0xE5 SHL DUP2 MSTORE PUSH1 0x4 DUP2 ADD DUP7 SWAP1 MSTORE PUSH1 0x19 PUSH1 0x24 DUP3 ADD MSTORE PUSH32 0x4149207269736B2073636F726520697320746F6F206869676800000000000000 PUSH1 0x44 DUP3 ADD MSTORE PUSH1 0x64 SWAP1 REVERT JUMPDEST PUSH1 0x40 MLOAD PUSH3 0x461BCD PUSH1 0xE5 SHL DUP2 MSTORE PUSH1 0x4 DUP2 ADD DUP7 SWAP1 MSTORE PUSH1 0x19 PUSH1 0x24 DUP3 ADD MSTORE PUSH32 0x50726F706F73616C20616C726561647920657865637574656400000000000000 PUSH1 0x44 DUP3 ADD MSTORE PUSH1 0x64 SWAP1 REVERT JUMPDEST PUSH1 0x40 MLOAD PUSH3 0x461BCD PUSH1 0xE5 SHL DUP2 MSTORE PUSH1 0x4 DUP2 ADD DUP7 SWAP1 MSTORE PUSH1 0x18 PUSH1 0x24 DUP3 ADD MSTORE PUSH32 0x50726F706F73616C206973206E6F7420617070726F7665640000000000000000 PUSH1 0x44 DUP3 ADD MSTORE PUSH1 0x64 SWAP1 REVERT JUMPDEST PUSH4 0x4E487B71 PUSH1 0xE0 SHL DUP9 MSTORE PUSH1 0x21 PUSH1 0x4 MSTORE PUSH1 0x24 DUP9 REVERT JUMPDEST PUSH2 0x1635 DUP6 PUSH2 0x1936 JUMP JUMPDEST PUSH2 0x129B JUMP JUMPDEST POP PUSH1 0x7 DUP4 ADD SLOAD TIMESTAMP GT PUSH2 0x1296 JUMP JUMPDEST POP DUP1 REVERT JUMPDEST POP CALLVALUE PUSH2 0x199 JUMPI DUP1 PUSH1 0x3 NOT CALLDATASIZE ADD SLT PUSH2 0x199 JUMPI PUSH1 0x20 PUSH1 0x9 SLOAD PUSH1 0x40 MLOAD SWAP1 DUP2 MSTORE RETURN JUMPDEST POP CALLVALUE PUSH2 0x199 JUMPI PUSH1 0x20 CALLDATASIZE PUSH1 0x3 NOT ADD SLT PUSH2 0x199 JUMPI PUSH1 0x4 CALLDATALOAD DUP2 MSTORE PUSH1 0x5 PUSH1 0x20 MSTORE PUSH1 0x40 DUP2 KECCAK256 DUP1 DUP1 DUP1 SLOAD SWAP4 DUP2 PUSH1 0x1 DUP2 ADD SLOAD PUSH1 0x2 DUP3 ADD SLOAD PUSH1 0x1 DUP1 PUSH1 0xA0 SHL SUB PUSH1 0x3 DUP5 ADD SLOAD AND PUSH1 0x4 DUP5 ADD SLOAD PUSH1 0xFF PUSH1 0x5 DUP7 ADD SLOAD AND SWAP1 PUSH1 0x6 DUP7 ADD SLOAD SWAP3 PUSH1 0x7 DUP8 ADD SLOAD SWAP5 PUSH1 0x8 DUP9 ADD SLOAD SWAP7 PUSH1 0xE PUSH1 0xD PUSH1 0xC PUSH1 0xA PUSH1 0x9 DUP14 ADD SLOAD SWAP13 ADD SLOAD SWAP14 ADD SLOAD SWAP14 ADD SLOAD SWAP14 ADD SLOAD SWAP14 PUSH1 0x80 MSTORE PUSH2 0x16EF PUSH1 0xFF DUP3 AND PUSH2 0x1784 JUMP JUMPDEST PUSH1 0xFF DUP2 AND PUSH1 0xA0 MSTORE PUSH1 0x8 SHR PUSH1 0x1 PUSH1 0x1 PUSH1 0xA0 SHL SUB AND PUSH1 0xC0 MSTORE PUSH1 0xE0 MSTORE PUSH2 0x100 MSTORE PUSH2 0x120 MSTORE PUSH2 0x1719 DUP2 PUSH2 0x1784 JUMP JUMPDEST PUSH2 0x140 MSTORE PUSH2 0x160 MSTORE PUSH2 0x180 MSTORE PUSH2 0x1A0 MSTORE PUSH2 0x1C0 MSTORE PUSH1 0x8 PUSH1 0xFF DUP4 AND LT ISZERO PUSH2 0x1770 JUMPI POP DUP1 PUSH1 0xFF DUP1 SWAP3 AND PUSH2 0x160 PUSH1 0x80 ADD MSTORE PUSH1 0x8 SHR AND ISZERO ISZERO PUSH2 0x180 PUSH1 0x80 ADD MSTORE PUSH2 0x1A0 PUSH1 0x80 ADD MSTORE PUSH2 0x1C0 PUSH1 0x80 ADD MSTORE PUSH2 0x1E0 PUSH1 0x80 ADD MSTORE PUSH2 0x200 PUSH1 0x80 RETURN JUMPDEST PUSH4 0x4E487B71 PUSH1 0xE0 SHL DUP2 MSTORE PUSH1 0x21 PUSH1 0x4 MSTORE PUSH1 0x24 SWAP1 REVERT JUMPDEST PUSH1 0x2 GT ISZERO PUSH2 0x178E JUMPI JUMP JUMPDEST PUSH4 0x4E487B71 PUSH1 0xE0 SHL PUSH1 0x0 MSTORE PUSH1 0x21 PUSH1 0x4 MSTORE PUSH1 0x24 PUSH1 0x0 REVERT JUMPDEST PUSH1 0x4 CALLDATALOAD SWAP1 PUSH1 0x1 PUSH1 0x1 PUSH1 0xA0 SHL SUB DUP3 AND DUP3 SUB PUSH2 0x408 JUMPI JUMP JUMPDEST PUSH1 0x24 CALLDATALOAD SWAP1 PUSH1 0x1 PUSH1 0x1 PUSH1 0xA0 SHL SUB DUP3 AND DUP3 SUB PUSH2 0x408 JUMPI JUMP JUMPDEST PUSH8 0xFFFFFFFFFFFFFFFF DUP2 GT PUSH2 0xB59 JUMPI PUSH1 0x40 MSTORE JUMP JUMPDEST SWAP1 PUSH1 0x1F DUP1 NOT SWAP2 ADD AND DUP2 ADD SWAP1 DUP2 LT PUSH8 0xFFFFFFFFFFFFFFFF DUP3 GT OR PUSH2 0xB59 JUMPI PUSH1 0x40 MSTORE JUMP JUMPDEST DUP1 SLOAD DUP3 LT ISZERO PUSH2 0x1822 JUMPI PUSH1 0x0 MSTORE PUSH1 0x20 PUSH1 0x0 KECCAK256 SWAP1 PUSH1 0x2 SHL ADD SWAP1 PUSH1 0x0 SWAP1 JUMP JUMPDEST PUSH4 0x4E487B71 PUSH1 0xE0 SHL PUSH1 0x0 MSTORE PUSH1 0x32 PUSH1 0x4 MSTORE PUSH1 0x24 PUSH1 0x0 REVERT JUMPDEST SWAP2 SWAP1 DUP3 ADD DUP1 SWAP3 GT PUSH2 0x1845 JUMPI JUMP JUMPDEST PUSH4 0x4E487B71 PUSH1 0xE0 SHL PUSH1 0x0 MSTORE PUSH1 0x11 PUSH1 0x4 MSTORE PUSH1 0x24 PUSH1 0x0 REVERT JUMPDEST SWAP1 DUP2 PUSH1 0x20 SWAP2 SUB SLT PUSH2 0x408 JUMPI MLOAD DUP1 ISZERO ISZERO DUP2 SUB PUSH2 0x408 JUMPI SWAP1 JUMP JUMPDEST ISZERO PUSH2 0x187A JUMPI JUMP JUMPDEST PUSH1 0x40 MLOAD PUSH3 0x461BCD PUSH1 0xE5 SHL DUP2 MSTORE PUSH1 0x20 PUSH1 0x4 DUP3 ADD MSTORE PUSH1 0x22 PUSH1 0x24 DUP3 ADD MSTORE PUSH32 0x43616C6C657220646F6573206E6F74206861766520726571756972656420726F PUSH1 0x44 DUP3 ADD MSTORE PUSH2 0x6C65 PUSH1 0xF0 SHL PUSH1 0x64 DUP3 ADD MSTORE PUSH1 0x84 SWAP1 REVERT JUMPDEST ISZERO PUSH2 0x18D1 JUMPI JUMP JUMPDEST PUSH1 0x40 MLOAD PUSH3 0x461BCD PUSH1 0xE5 SHL DUP2 MSTORE PUSH1 0x20 PUSH1 0x4 DUP3 ADD MSTORE PUSH1 0x1C PUSH1 0x24 DUP3 ADD MSTORE PUSH32 0x50726F706F73616C206E6F7420696E20766F74696E6720737461746500000000 PUSH1 0x44 DUP3 ADD MSTORE PUSH1 0x64 SWAP1 REVERT JUMPDEST DUP2 ISZERO PUSH2 0x1920 JUMPI DIV SWAP1 JUMP JUMPDEST PUSH4 0x4E487B71 PUSH1 0xE0 SHL PUSH1 0x0 MSTORE PUSH1 0x12 PUSH1 0x4 MSTORE PUSH1 0x24 PUSH1 0x0 REVERT JUMPDEST SWAP1 PUSH1 0x0 DUP3 DUP2 MSTORE PUSH1 0x20 SWAP3 PUSH1 0x5 DUP5 MSTORE PUSH1 0x40 SWAP2 DUP3 DUP2 KECCAK256 PUSH1 0xA DUP2 ADD SWAP1 DUP2 SLOAD SWAP3 PUSH1 0xFF DUP5 AND PUSH1 0x8 DUP2 LT ISZERO PUSH2 0x1B19 JUMPI PUSH1 0x2 PUSH2 0x196A SWAP2 EQ PUSH2 0x18CA JUMP JUMPDEST PUSH1 0x7 DUP3 ADD SLOAD TIMESTAMP GT ISZERO PUSH2 0x1AD5 JUMPI PUSH1 0x3 SLOAD DUP7 MLOAD PUSH4 0x18160DDD PUSH1 0xE0 SHL DUP2 MSTORE SWAP9 PUSH1 0x4 SWAP6 SWAP1 SWAP5 SWAP4 SWAP3 SWAP2 DUP6 SWAP1 DUP12 SWAP1 DUP9 SWAP1 DUP3 SWAP1 PUSH1 0x1 PUSH1 0x1 PUSH1 0xA0 SHL SUB AND GAS STATICCALL SWAP10 DUP11 ISZERO PUSH2 0x1ACB JUMPI DUP3 SWAP11 PUSH2 0x1A9C JUMPI JUMPDEST POP PUSH2 0x19C3 PUSH1 0x9 PUSH1 0x8 DUP6 ADD SLOAD SWAP5 ADD SLOAD DUP5 PUSH2 0x1838 JUMP JUMPDEST SWAP10 PUSH1 0x64 DUP12 MUL DUP12 DUP2 DIV PUSH1 0x64 EQ DUP13 ISZERO OR ISZERO PUSH2 0x1A89 JUMPI SWAP1 PUSH2 0x19E0 SWAP2 PUSH2 0x1916 JUMP JUMPDEST PUSH1 0xA SLOAD GT PUSH2 0x1A60 JUMPI POP PUSH1 0x64 DUP3 MUL SWAP2 DUP1 DUP4 DIV PUSH1 0x64 EQ SWAP1 ISZERO OR ISZERO PUSH2 0x1A4D JUMPI POP PUSH1 0x0 DUP1 MLOAD PUSH1 0x20 PUSH2 0x1BD8 DUP4 CODECOPY DUP2 MLOAD SWAP2 MSTORE SWAP7 SWAP8 PUSH2 0x1A17 SWAP2 PUSH2 0x1916 JUMP JUMPDEST PUSH1 0xB SLOAD GT PUSH2 0x1A38 JUMPI PUSH1 0x3 DUP1 SWAP4 POP PUSH1 0xFF NOT DUP3 SLOAD AND OR SWAP1 SSTORE DUP4 MLOAD SWAP3 DUP4 MSTORE DUP3 ADD MSTORE LOG1 JUMP JUMPDEST DUP1 SLOAD PUSH1 0xFF NOT AND DUP4 OR SWAP1 SSTORE DUP4 MLOAD SWAP3 DUP4 MSTORE DUP3 ADD MSTORE LOG1 JUMP JUMPDEST PUSH4 0x4E487B71 PUSH1 0xE0 SHL DUP2 MSTORE PUSH1 0x11 DUP6 MSTORE PUSH1 0x24 SWAP1 REVERT JUMPDEST PUSH1 0xFF NOT AND DUP6 OR SWAP1 SWAP3 SSTORE POP POP DUP4 MLOAD SWAP3 DUP4 MSTORE DUP3 ADD MSTORE SWAP2 SWAP3 POP PUSH1 0x0 DUP1 MLOAD PUSH1 0x20 PUSH2 0x1BD8 DUP4 CODECOPY DUP2 MLOAD SWAP2 MSTORE SWAP2 LOG1 JUMP JUMPDEST PUSH4 0x4E487B71 PUSH1 0xE0 SHL DUP5 MSTORE PUSH1 0x11 DUP9 MSTORE PUSH1 0x24 DUP5 REVERT JUMPDEST SWAP1 SWAP10 POP DUP5 DUP2 DUP2 RETURNDATASIZE DUP4 GT PUSH2 0x1AC4 JUMPI JUMPDEST PUSH2 0x1AB4 DUP2 DUP4 PUSH2 0x17E4 JUMP JUMPDEST DUP2 ADD SUB SLT PUSH2 0x1647 JUMPI MLOAD SWAP9 CODESIZE PUSH2 0x19AF JUMP JUMPDEST POP RETURNDATASIZE PUSH2 0x1AAA JUMP JUMPDEST DUP9 MLOAD RETURNDATASIZE DUP5 DUP3 RETURNDATACOPY RETURNDATASIZE SWAP1 REVERT JUMPDEST DUP6 MLOAD PUSH3 0x461BCD PUSH1 0xE5 SHL DUP2 MSTORE PUSH1 0x4 DUP2 ADD DUP10 SWAP1 MSTORE PUSH1 0x1B PUSH1 0x24 DUP3 ADD MSTORE PUSH32 0x566F74696E6720706572696F64206E6F742079657420656E6465640000000000 PUSH1 0x44 DUP3 ADD MSTORE PUSH1 0x64 SWAP1 REVERT JUMPDEST PUSH4 0x4E487B71 PUSH1 0xE0 SHL DUP3 MSTORE PUSH1 0x21 PUSH1 0x4 MSTORE PUSH1 0x24 DUP3 REVERT JUMPDEST PUSH1 0x0 NOT DUP2 EQ PUSH2 0x1845 JUMPI PUSH1 0x1 ADD SWAP1 JUMP JUMPDEST ISZERO PUSH2 0x1B43 JUMPI JUMP JUMPDEST PUSH1 0x40 MLOAD PUSH3 0x461BCD PUSH1 0xE5 SHL DUP2 MSTORE PUSH1 0x20 PUSH1 0x4 DUP3 ADD MSTORE PUSH1 0x1F PUSH1 0x24 DUP3 ADD MSTORE PUSH32 0x4465736372697074696F6E20686173682063616E6E6F74206265207A65726F00 PUSH1 0x44 DUP3 ADD MSTORE PUSH1 0x64 SWAP1 REVERT JUMPDEST PUSH1 0x2 PUSH1 0x1 SLOAD EQ PUSH2 0x1B99 JUMPI PUSH1 0x2 PUSH1 0x1 SSTORE JUMP JUMPDEST PUSH1 0x40 MLOAD PUSH4 0x3EE5AEB5 PUSH1 0xE0 SHL DUP2 MSTORE PUSH1 0x4 SWAP1 REVERT JUMPDEST PUSH1 0x0 SLOAD PUSH1 0x1 PUSH1 0x1 PUSH1 0xA0 SHL SUB AND CALLER SUB PUSH2 0x1BBF JUMPI JUMP JUMPDEST PUSH1 0x40 MLOAD PUSH4 0x118CDAA7 PUSH1 0xE0 SHL DUP2 MSTORE CALLER PUSH1 0x4 DUP3 ADD MSTORE PUSH1 0x24 SWAP1 REVERT INVALID 0xD6 0xB3 0xA8 SAR 0xD8 0xB7 0xDC COINBASE SWAP14 DUP14 0xF KECCAK256 PUSH26 0x7397EA2EABA914386B89898AA638438803A1ECA2646970667358 0x22 SLT KECCAK256 PUSH31 0x2091989F5570CB3470A1CFE21DB48EAC764A240A80737FF0DCE4D7049BEDF7 PUSH5 0x736F6C6343 STOP ADDMOD XOR STOP CALLER "},"methodIdentifiers":{"MAX_RISK_SCORE()":"45f19131","accControl()":"345c3537","approvalThresholdPercentage()":"4f23c04c","createFundingProposal(bytes32,address,uint256[])":"8158a502","createTreasuryActionProposal(bytes32,address,uint256,uint8)":"c62a441f","executeProposal(uint256)":"0d61b519","financeContract()":"d3396149","hasVoted(uint256,address)":"43859632","nextProposalId()":"2ab09d14","owner()":"8da5cb5b","participationScores(address)":"38add68d","proposals(uint256)":"013cf08b","quorumPercentage()":"4fa76ec9","releaseNextMilestone(uint256,bytes32)":"5f95bfa0","renounceOwnership()":"715018a6","stakingContract()":"ee99205c","tallyVotes(uint256)":"4d318b0e","transferOwnership(address)":"f2fde38b","updateParticipationScore(address,uint256)":"bb1345c9","updateProposalRiskScore(uint256,uint256)":"22005a92","vote(uint256,uint8)":"943e8216","votingPeriod()":"02a251a3"}}}}}