{"src/contracts/RayanChainToken.sol":{"RayanChainToken":{"abi":[{"inputs":[{"internalType":"address","name":"initialOwner","type":"address"},{"internalType":"uint256","name":"initialSupply","type":"uint256"}],"stateMutability":"nonpayable","type":"constructor"},{"inputs":[{"internalType":"address","name":"spender","type":"address"},{"internalType":"uint256","name":"allowance","type":"uint256"},{"internalType":"uint256","name":"needed","type":"uint256"}],"name":"ERC20InsufficientAllowance","type":"error"},{"inputs":[{"internalType":"address","name":"sender","type":"address"},{"internalType":"uint256","name":"balance","type":"uint256"},{"internalType":"uint256","name":"needed","type":"uint256"}],"name":"ERC20InsufficientBalance","type":"error"},{"inputs":[{"internalType":"address","name":"approver","type":"address"}],"name":"ERC20InvalidApprover","type":"error"},{"inputs":[{"internalType":"address","name":"receiver","type":"address"}],"name":"ERC20InvalidReceiver","type":"error"},{"inputs":[{"internalType":"address","name":"sender","type":"address"}],"name":"ERC20InvalidSender","type":"error"},{"inputs":[{"internalType":"address","name":"spender","type":"address"}],"name":"ERC20InvalidSpender","type":"error"},{"inputs":[{"internalType":"address","name":"owner","type":"address"}],"name":"OwnableInvalidOwner","type":"error"},{"inputs":[{"internalType":"address","name":"account","type":"address"}],"name":"OwnableUnauthorizedAccount","type":"error"},{"anonymous":false,"inputs":[{"indexed":true,"internalType":"address","name":"owner","type":"address"},{"indexed":true,"internalType":"address","name":"spender","type":"address"},{"indexed":false,"internalType":"uint256","name":"value","type":"uint256"}],"name":"Approval","type":"event"},{"anonymous":false,"inputs":[{"indexed":true,"internalType":"address","name":"previousOwner","type":"address"},{"indexed":true,"internalType":"address","name":"newOwner","type":"address"}],"name":"OwnershipTransferred","type":"event"},{"anonymous":false,"inputs":[{"indexed":true,"internalType":"address","name":"from","type":"address"},{"indexed":true,"internalType":"address","name":"to","type":"address"},{"indexed":false,"internalType":"uint256","name":"value","type":"uint256"}],"name":"Transfer","type":"event"},{"inputs":[{"internalType":"address","name":"owner","type":"address"},{"internalType":"address","name":"spender","type":"address"}],"name":"allowance","outputs":[{"internalType":"uint256","name":"","type":"uint256"}],"stateMutability":"view","type":"function"},{"inputs":[{"internalType":"address","name":"spender","type":"address"},{"internalType":"uint256","name":"value","type":"uint256"}],"name":"approve","outputs":[{"internalType":"bool","name":"","type":"bool"}],"stateMutability":"nonpayable","type":"function"},{"inputs":[{"internalType":"address","name":"account","type":"address"}],"name":"balanceOf","outputs":[{"internalType":"uint256","name":"","type":"uint256"}],"stateMutability":"view","type":"function"},{"inputs":[],"name":"decimals","outputs":[{"internalType":"uint8","name":"","type":"uint8"}],"stateMutability":"view","type":"function"},{"inputs":[],"name":"name","outputs":[{"internalType":"string","name":"","type":"string"}],"stateMutability":"view","type":"function"},{"inputs":[],"name":"owner","outputs":[{"internalType":"address","name":"","type":"address"}],"stateMutability":"view","type":"function"},{"inputs":[],"name":"renounceOwnership","outputs":[],"stateMutability":"nonpayable","type":"function"},{"inputs":[],"name":"symbol","outputs":[{"internalType":"string","name":"","type":"string"}],"stateMutability":"view","type":"function"},{"inputs":[],"name":"totalSupply","outputs":[{"internalType":"uint256","name":"","type":"uint256"}],"stateMutability":"view","type":"function"},{"inputs":[{"internalType":"address","name":"to","type":"address"},{"internalType":"uint256","name":"value","type":"uint256"}],"name":"transfer","outputs":[{"internalType":"bool","name":"","type":"bool"}],"stateMutability":"nonpayable","type":"function"},{"inputs":[{"internalType":"address","name":"from","type":"address"},{"internalType":"address","name":"to","type":"address"},{"internalType":"uint256","name":"value","type":"uint256"}],"name":"transferFrom","outputs":[{"internalType":"bool","name":"","type":"bool"}],"stateMutability":"nonpayable","type":"function"},{"inputs":[{"internalType":"address","name":"newOwner","type":"address"}],"name":"transferOwnership","outputs":[],"stateMutability":"nonpayable","type":"function"}],"evm":{"bytecode":{"linkReferences":{},"object":"6080346200040c5762000c5390601f19906001600160401b03601f388590038181018516840190838211858310176200030b57808591604098899485528339810103126200040c5782516001600160a01b038082169590918690036200040c57602080950151936200007062000411565b93601085526f2930bcb0b721b430b4b7102a37b5b2b760811b878601526200009762000411565b946003918287526252594360e81b8988015281518481116200030b5783546001938482811c9216801562000401575b8c831014620003eb578b828585941162000392575b50508b908483116001146200032d5760009262000321575b505060001982861b1c191690831b1783555b86519384116200030b5760049687548381811c9116801562000300575b8b821014620002eb57828111620002a0575b50899185116001146200023757849550908492916000956200022b575b50501b92600019911b1c19161782555b84156200021457600580546001600160a01b0319811687179091558591167f8be0079c531659141344cd1fd0a4f28419497f9722a3daafe3b4186f6b6457e0600080a360025490828201809211620001ff575060025560008381528083528481208054830190558451918252917fddf252ad1be2c89b69c2b068fc378daa952ba7f163c4a11628f55a4df523b3ef91a3516108219081620004328239f35b601190634e487b7160e01b6000525260246000fd5b8551631e4fbdf760e01b8152600081840152602490fd5b01519350388062000151565b92919484169287600052848a6000209460005b8c898383106200028857505050106200026d575b50505050811b01825562000161565b01519060f884600019921b161c19169055388080806200025e565b8686015189559097019694850194889350016200024a565b886000528a6000208380880160051c8201928d8910620002e1575b0160051c019084905b828110620002d457505062000134565b60008155018490620002c4565b92508192620002bb565b602289634e487b7160e01b6000525260246000fd5b90607f169062000122565b634e487b7160e01b600052604160045260246000fd5b015190503880620000f3565b908c91898795168860005283600020936000905b8282106200037a575050841162000361575b505050811b01835562000105565b015160001983881b60f8161c1916905538808062000353565b83850151865589979095019493840193018f62000341565b909192508660005284826000209181860160051c8301938610620003e1575b918791869594930160051c01915b828110620003d157508d9150620000db565b60008155859450879101620003bf565b92508192620003b1565b634e487b7160e01b600052602260045260246000fd5b91607f1691620000c6565b600080fd5b60408051919082016001600160401b038111838210176200030b5760405256fe6080604081815260048036101561001557600080fd5b600092833560e01c90816306fdde031461057057508063095ea7b3146104c757806318160ddd146104a857806323b872dd146103b5578063313ce5671461039957806370a0823114610362578063715018a6146103025780638da5cb5b146102d957806395d89b41146101b7578063a9059cbb14610186578063dd62ed3e146101395763f2fde38b146100a757600080fd5b34610135576020366003190112610135576100c06106b0565b906100c96107bf565b6001600160a01b0391821692831561011f575050600554826bffffffffffffffffffffffff60a01b821617600555167f8be0079c531659141344cd1fd0a4f28419497f9722a3daafe3b4186f6b6457e08380a380f35b51631e4fbdf760e01b8152908101849052602490fd5b8280fd5b505034610182578060031936011261018257806020926101576106b0565b61015f6106cb565b6001600160a01b0391821683526001865283832091168252845220549051908152f35b5080fd5b5050346101825780600319360112610182576020906101b06101a66106b0565b60243590336106e1565b5160018152f35b5091903461018257816003193601126101825780519082845460018160011c90600183169283156102cf575b60209384841081146102bc578388529081156102a0575060011461024b575b505050829003601f01601f191682019267ffffffffffffffff8411838510176102385750829182610234925282610667565b0390f35b634e487b7160e01b815260418552602490fd5b8787529192508591837f8a35acfbc15ff81a39ae7d344fd709f28e8600b4aa8c65c6b64bfe7fe36bd19b5b83851061028c5750505050830101388080610202565b805488860183015293019284908201610276565b60ff1916878501525050151560051b8401019050388080610202565b634e487b7160e01b895260228a52602489fd5b91607f16916101e3565b50503461018257816003193601126101825760055490516001600160a01b039091168152602090f35b833461035f578060031936011261035f5761031b6107bf565b600580546001600160a01b0319811690915581906001600160a01b03167f8be0079c531659141344cd1fd0a4f28419497f9722a3daafe3b4186f6b6457e08280a380f35b80fd5b5050346101825760203660031901126101825760209181906001600160a01b0361038a6106b0565b16815280845220549051908152f35b5050346101825781600319360112610182576020905160128152f35b50823461035f57606036600319011261035f576103d06106b0565b6103d86106cb565b916044359360018060a01b038316808352600160205286832033845260205286832054916000198310610414575b6020886101b08989896106e1565b86831061047c57811561046557331561044e575082526001602090815286832033845281529186902090859003905582906101b087610406565b8751634a1406b160e11b8152908101849052602490fd5b875163e602df0560e01b8152908101849052602490fd5b8751637dc7a0d960e11b8152339181019182526020820193909352604081018790528291506060010390fd5b5050346101825781600319360112610182576020906002549051908152f35b50346101355781600319360112610135576104e06106b0565b602435903315610559576001600160a01b031691821561054257508083602095338152600187528181208582528752205582519081527f8c5be1e5ebec7d5bd14f71427d1e84f3dd0314c0f7b2291e5b200ac8c7c3b925843392a35160018152f35b8351634a1406b160e11b8152908101859052602490fd5b835163e602df0560e01b8152808401869052602490fd5b84915083346101355782600319360112610135578260035460018160011c906001831692831561065d575b60209384841081146102bc5783885290811561064157506001146105eb57505050829003601f01601f191682019267ffffffffffffffff8411838510176102385750829182610234925282610667565b600387529192508591837fc2575a0e9e593c00f959f8c92f12db2869c3395a3b0502d05e2516446f71f85b5b83851061062d5750505050830101858080610202565b805488860183015293019284908201610617565b60ff1916878501525050151560051b8401019050858080610202565b91607f169161059b565b6020808252825181830181905290939260005b82811061069c57505060409293506000838284010152601f8019910116010190565b81810186015184820160400152850161067a565b600435906001600160a01b03821682036106c657565b600080fd5b602435906001600160a01b03821682036106c657565b916001600160a01b038084169283156107a6571692831561078d576000908382528160205260408220549083821061075b575091604082827fddf252ad1be2c89b69c2b068fc378daa952ba7f163c4a11628f55a4df523b3ef958760209652828652038282205586815220818154019055604051908152a3565b60405163391434e360e21b81526001600160a01b03919091166004820152602481019190915260448101839052606490fd5b60405163ec442f0560e01b815260006004820152602490fd5b604051634b637e8f60e11b815260006004820152602490fd5b6005546001600160a01b031633036107d357565b60405163118cdaa760e01b8152336004820152602490fdfea2646970667358221220736fbb7ec67031f2019442d2ef98a07cbfbf8bae556d9e50145250ce104ff87164736f6c63430008180033","opcodes":"PUSH1 0x80 CALLVALUE PUSH3 0x40C JUMPI PUSH3 0xC53 SWAP1 PUSH1 0x1F NOT SWAP1 PUSH1 0x1 PUSH1 0x1 PUSH1 0x40 SHL SUB PUSH1 0x1F CODESIZE DUP6 SWAP1 SUB DUP2 DUP2 ADD DUP6 AND DUP5 ADD SWAP1 DUP4 DUP3 GT DUP6 DUP4 LT OR PUSH3 0x30B JUMPI DUP1 DUP6 SWAP2 PUSH1 0x40 SWAP9 DUP10 SWAP5 DUP6 MSTORE DUP4 CODECOPY DUP2 ADD SUB SLT PUSH3 0x40C JUMPI DUP3 MLOAD PUSH1 0x1 PUSH1 0x1 PUSH1 0xA0 SHL SUB DUP1 DUP3 AND SWAP6 SWAP1 SWAP2 DUP7 SWAP1 SUB PUSH3 0x40C JUMPI PUSH1 0x20 DUP1 SWAP6 ADD MLOAD SWAP4 PUSH3 0x70 PUSH3 0x411 JUMP JUMPDEST SWAP4 PUSH1 0x10 DUP6 MSTORE PUSH16 0x2930BCB0B721B430B4B7102A37B5B2B7 PUSH1 0x81 SHL DUP8 DUP7 ADD MSTORE PUSH3 0x97 PUSH3 0x411 JUMP JUMPDEST SWAP5 PUSH1 0x3 SWAP2 DUP3 DUP8 MSTORE PUSH3 0x525943 PUSH1 0xE8 SHL DUP10 DUP9 ADD MSTORE DUP2 MLOAD DUP5 DUP2 GT PUSH3 0x30B JUMPI DUP4 SLOAD PUSH1 0x1 SWAP4 DUP5 DUP3 DUP2 SHR SWAP3 AND DUP1 ISZERO PUSH3 0x401 JUMPI JUMPDEST DUP13 DUP4 LT EQ PUSH3 0x3EB JUMPI DUP12 DUP3 DUP6 DUP6 SWAP5 GT PUSH3 0x392 JUMPI JUMPDEST POP POP DUP12 SWAP1 DUP5 DUP4 GT PUSH1 0x1 EQ PUSH3 0x32D JUMPI PUSH1 0x0 SWAP3 PUSH3 0x321 JUMPI JUMPDEST POP POP PUSH1 0x0 NOT DUP3 DUP7 SHL SHR NOT AND SWAP1 DUP4 SHL OR DUP4 SSTORE JUMPDEST DUP7 MLOAD SWAP4 DUP5 GT PUSH3 0x30B JUMPI PUSH1 0x4 SWAP7 DUP8 SLOAD DUP4 DUP2 DUP2 SHR SWAP2 AND DUP1 ISZERO PUSH3 0x300 JUMPI JUMPDEST DUP12 DUP3 LT EQ PUSH3 0x2EB JUMPI DUP3 DUP2 GT PUSH3 0x2A0 JUMPI JUMPDEST POP DUP10 SWAP2 DUP6 GT PUSH1 0x1 EQ PUSH3 0x237 JUMPI DUP5 SWAP6 POP SWAP1 DUP5 SWAP3 SWAP2 PUSH1 0x0 SWAP6 PUSH3 0x22B JUMPI JUMPDEST POP POP SHL SWAP3 PUSH1 0x0 NOT SWAP2 SHL SHR NOT AND OR DUP3 SSTORE JUMPDEST DUP5 ISZERO PUSH3 0x214 JUMPI PUSH1 0x5 DUP1 SLOAD PUSH1 0x1 PUSH1 0x1 PUSH1 0xA0 SHL SUB NOT DUP2 AND DUP8 OR SWAP1 SWAP2 SSTORE DUP6 SWAP2 AND PUSH32 0x8BE0079C531659141344CD1FD0A4F28419497F9722A3DAAFE3B4186F6B6457E0 PUSH1 0x0 DUP1 LOG3 PUSH1 0x2 SLOAD SWAP1 DUP3 DUP3 ADD DUP1 SWAP3 GT PUSH3 0x1FF JUMPI POP PUSH1 0x2 SSTORE PUSH1 0x0 DUP4 DUP2 MSTORE DUP1 DUP4 MSTORE DUP5 DUP2 KECCAK256 DUP1 SLOAD DUP4 ADD SWAP1 SSTORE DUP5 MLOAD SWAP2 DUP3 MSTORE SWAP2 PUSH32 0xDDF252AD1BE2C89B69C2B068FC378DAA952BA7F163C4A11628F55A4DF523B3EF SWAP2 LOG3 MLOAD PUSH2 0x821 SWAP1 DUP2 PUSH3 0x432 DUP3 CODECOPY RETURN JUMPDEST PUSH1 0x11 SWAP1 PUSH4 0x4E487B71 PUSH1 0xE0 SHL PUSH1 0x0 MSTORE MSTORE PUSH1 0x24 PUSH1 0x0 REVERT JUMPDEST DUP6 MLOAD PUSH4 0x1E4FBDF7 PUSH1 0xE0 SHL DUP2 MSTORE PUSH1 0x0 DUP2 DUP5 ADD MSTORE PUSH1 0x24 SWAP1 REVERT JUMPDEST ADD MLOAD SWAP4 POP CODESIZE DUP1 PUSH3 0x151 JUMP JUMPDEST SWAP3 SWAP2 SWAP5 DUP5 AND SWAP3 DUP8 PUSH1 0x0 MSTORE DUP5 DUP11 PUSH1 0x0 KECCAK256 SWAP5 PUSH1 0x0 JUMPDEST DUP13 DUP10 DUP4 DUP4 LT PUSH3 0x288 JUMPI POP POP POP LT PUSH3 0x26D JUMPI JUMPDEST POP POP POP POP DUP2 SHL ADD DUP3 SSTORE PUSH3 0x161 JUMP JUMPDEST ADD MLOAD SWAP1 PUSH1 0xF8 DUP5 PUSH1 0x0 NOT SWAP3 SHL AND SHR NOT AND SWAP1 SSTORE CODESIZE DUP1 DUP1 DUP1 PUSH3 0x25E JUMP JUMPDEST DUP7 DUP7 ADD MLOAD DUP10 SSTORE SWAP1 SWAP8 ADD SWAP7 SWAP5 DUP6 ADD SWAP5 DUP9 SWAP4 POP ADD PUSH3 0x24A JUMP JUMPDEST DUP9 PUSH1 0x0 MSTORE DUP11 PUSH1 0x0 KECCAK256 DUP4 DUP1 DUP9 ADD PUSH1 0x5 SHR DUP3 ADD SWAP3 DUP14 DUP10 LT PUSH3 0x2E1 JUMPI JUMPDEST ADD PUSH1 0x5 SHR ADD SWAP1 DUP5 SWAP1 JUMPDEST DUP3 DUP2 LT PUSH3 0x2D4 JUMPI POP POP PUSH3 0x134 JUMP JUMPDEST PUSH1 0x0 DUP2 SSTORE ADD DUP5 SWAP1 PUSH3 0x2C4 JUMP JUMPDEST SWAP3 POP DUP2 SWAP3 PUSH3 0x2BB JUMP JUMPDEST PUSH1 0x22 DUP10 PUSH4 0x4E487B71 PUSH1 0xE0 SHL PUSH1 0x0 MSTORE MSTORE PUSH1 0x24 PUSH1 0x0 REVERT JUMPDEST SWAP1 PUSH1 0x7F AND SWAP1 PUSH3 0x122 JUMP JUMPDEST PUSH4 0x4E487B71 PUSH1 0xE0 SHL PUSH1 0x0 MSTORE PUSH1 0x41 PUSH1 0x4 MSTORE PUSH1 0x24 PUSH1 0x0 REVERT JUMPDEST ADD MLOAD SWAP1 POP CODESIZE DUP1 PUSH3 0xF3 JUMP JUMPDEST SWAP1 DUP13 SWAP2 DUP10 DUP8 SWAP6 AND DUP9 PUSH1 0x0 MSTORE DUP4 PUSH1 0x0 KECCAK256 SWAP4 PUSH1 0x0 SWAP1 JUMPDEST DUP3 DUP3 LT PUSH3 0x37A JUMPI POP POP DUP5 GT PUSH3 0x361 JUMPI JUMPDEST POP POP POP DUP2 SHL ADD DUP4 SSTORE PUSH3 0x105 JUMP JUMPDEST ADD MLOAD PUSH1 0x0 NOT DUP4 DUP9 SHL PUSH1 0xF8 AND SHR NOT AND SWAP1 SSTORE CODESIZE DUP1 DUP1 PUSH3 0x353 JUMP JUMPDEST DUP4 DUP6 ADD MLOAD DUP7 SSTORE DUP10 SWAP8 SWAP1 SWAP6 ADD SWAP5 SWAP4 DUP5 ADD SWAP4 ADD DUP16 PUSH3 0x341 JUMP JUMPDEST SWAP1 SWAP2 SWAP3 POP DUP7 PUSH1 0x0 MSTORE DUP5 DUP3 PUSH1 0x0 KECCAK256 SWAP2 DUP2 DUP7 ADD PUSH1 0x5 SHR DUP4 ADD SWAP4 DUP7 LT PUSH3 0x3E1 JUMPI JUMPDEST SWAP2 DUP8 SWAP2 DUP7 SWAP6 SWAP5 SWAP4 ADD PUSH1 0x5 SHR ADD SWAP2 JUMPDEST DUP3 DUP2 LT PUSH3 0x3D1 JUMPI POP DUP14 SWAP2 POP PUSH3 0xDB JUMP JUMPDEST PUSH1 0x0 DUP2 SSTORE DUP6 SWAP5 POP DUP8 SWAP2 ADD PUSH3 0x3BF JUMP JUMPDEST SWAP3 POP DUP2 SWAP3 PUSH3 0x3B1 JUMP JUMPDEST PUSH4 0x4E487B71 PUSH1 0xE0 SHL PUSH1 0x0 MSTORE PUSH1 0x22 PUSH1 0x4 MSTORE PUSH1 0x24 PUSH1 0x0 REVERT JUMPDEST SWAP2 PUSH1 0x7F AND SWAP2 PUSH3 0xC6 JUMP JUMPDEST PUSH1 0x0 DUP1 REVERT JUMPDEST PUSH1 0x40 DUP1 MLOAD SWAP2 SWAP1 DUP3 ADD PUSH1 0x1 PUSH1 0x1 PUSH1 0x40 SHL SUB DUP2 GT DUP4 DUP3 LT OR PUSH3 0x30B JUMPI PUSH1 0x40 MSTORE JUMP INVALID PUSH1 0x80 PUSH1 0x40 DUP2 DUP2 MSTORE PUSH1 0x4 DUP1 CALLDATASIZE LT ISZERO PUSH2 0x15 JUMPI PUSH1 0x0 DUP1 REVERT JUMPDEST PUSH1 0x0 SWAP3 DUP4 CALLDATALOAD PUSH1 0xE0 SHR SWAP1 DUP2 PUSH4 0x6FDDE03 EQ PUSH2 0x570 JUMPI POP DUP1 PUSH4 0x95EA7B3 EQ PUSH2 0x4C7 JUMPI DUP1 PUSH4 0x18160DDD EQ PUSH2 0x4A8 JUMPI DUP1 PUSH4 0x23B872DD EQ PUSH2 0x3B5 JUMPI DUP1 PUSH4 0x313CE567 EQ PUSH2 0x399 JUMPI DUP1 PUSH4 0x70A08231 EQ PUSH2 0x362 JUMPI DUP1 PUSH4 0x715018A6 EQ PUSH2 0x302 JUMPI DUP1 PUSH4 0x8DA5CB5B EQ PUSH2 0x2D9 JUMPI DUP1 PUSH4 0x95D89B41 EQ PUSH2 0x1B7 JUMPI DUP1 PUSH4 0xA9059CBB EQ PUSH2 0x186 JUMPI DUP1 PUSH4 0xDD62ED3E EQ PUSH2 0x139 JUMPI PUSH4 0xF2FDE38B EQ PUSH2 0xA7 JUMPI PUSH1 0x0 DUP1 REVERT JUMPDEST CALLVALUE PUSH2 0x135 JUMPI PUSH1 0x20 CALLDATASIZE PUSH1 0x3 NOT ADD SLT PUSH2 0x135 JUMPI PUSH2 0xC0 PUSH2 0x6B0 JUMP JUMPDEST SWAP1 PUSH2 0xC9 PUSH2 0x7BF JUMP JUMPDEST PUSH1 0x1 PUSH1 0x1 PUSH1 0xA0 SHL SUB SWAP2 DUP3 AND SWAP3 DUP4 ISZERO PUSH2 0x11F JUMPI POP POP PUSH1 0x5 SLOAD DUP3 PUSH12 0xFFFFFFFFFFFFFFFFFFFFFFFF PUSH1 0xA0 SHL DUP3 AND OR PUSH1 0x5 SSTORE AND PUSH32 0x8BE0079C531659141344CD1FD0A4F28419497F9722A3DAAFE3B4186F6B6457E0 DUP4 DUP1 LOG3 DUP1 RETURN JUMPDEST MLOAD PUSH4 0x1E4FBDF7 PUSH1 0xE0 SHL DUP2 MSTORE SWAP1 DUP2 ADD DUP5 SWAP1 MSTORE PUSH1 0x24 SWAP1 REVERT JUMPDEST DUP3 DUP1 REVERT JUMPDEST POP POP CALLVALUE PUSH2 0x182 JUMPI DUP1 PUSH1 0x3 NOT CALLDATASIZE ADD SLT PUSH2 0x182 JUMPI DUP1 PUSH1 0x20 SWAP3 PUSH2 0x157 PUSH2 0x6B0 JUMP JUMPDEST PUSH2 0x15F PUSH2 0x6CB JUMP JUMPDEST PUSH1 0x1 PUSH1 0x1 PUSH1 0xA0 SHL SUB SWAP2 DUP3 AND DUP4 MSTORE PUSH1 0x1 DUP7 MSTORE DUP4 DUP4 KECCAK256 SWAP2 AND DUP3 MSTORE DUP5 MSTORE KECCAK256 SLOAD SWAP1 MLOAD SWAP1 DUP2 MSTORE RETURN JUMPDEST POP DUP1 REVERT JUMPDEST POP POP CALLVALUE PUSH2 0x182 JUMPI DUP1 PUSH1 0x3 NOT CALLDATASIZE ADD SLT PUSH2 0x182 JUMPI PUSH1 0x20 SWAP1 PUSH2 0x1B0 PUSH2 0x1A6 PUSH2 0x6B0 JUMP JUMPDEST PUSH1 0x24 CALLDATALOAD SWAP1 CALLER PUSH2 0x6E1 JUMP JUMPDEST MLOAD PUSH1 0x1 DUP2 MSTORE RETURN JUMPDEST POP SWAP2 SWAP1 CALLVALUE PUSH2 0x182 JUMPI DUP2 PUSH1 0x3 NOT CALLDATASIZE ADD SLT PUSH2 0x182 JUMPI DUP1 MLOAD SWAP1 DUP3 DUP5 SLOAD PUSH1 0x1 DUP2 PUSH1 0x1 SHR SWAP1 PUSH1 0x1 DUP4 AND SWAP3 DUP4 ISZERO PUSH2 0x2CF JUMPI JUMPDEST PUSH1 0x20 SWAP4 DUP5 DUP5 LT DUP2 EQ PUSH2 0x2BC JUMPI DUP4 DUP9 MSTORE SWAP1 DUP2 ISZERO PUSH2 0x2A0 JUMPI POP PUSH1 0x1 EQ PUSH2 0x24B JUMPI JUMPDEST POP POP POP DUP3 SWAP1 SUB PUSH1 0x1F ADD PUSH1 0x1F NOT AND DUP3 ADD SWAP3 PUSH8 0xFFFFFFFFFFFFFFFF DUP5 GT DUP4 DUP6 LT OR PUSH2 0x238 JUMPI POP DUP3 SWAP2 DUP3 PUSH2 0x234 SWAP3 MSTORE DUP3 PUSH2 0x667 JUMP JUMPDEST SUB SWAP1 RETURN JUMPDEST PUSH4 0x4E487B71 PUSH1 0xE0 SHL DUP2 MSTORE PUSH1 0x41 DUP6 MSTORE PUSH1 0x24 SWAP1 REVERT JUMPDEST DUP8 DUP8 MSTORE SWAP2 SWAP3 POP DUP6 SWAP2 DUP4 PUSH32 0x8A35ACFBC15FF81A39AE7D344FD709F28E8600B4AA8C65C6B64BFE7FE36BD19B JUMPDEST DUP4 DUP6 LT PUSH2 0x28C JUMPI POP POP POP POP DUP4 ADD ADD CODESIZE DUP1 DUP1 PUSH2 0x202 JUMP JUMPDEST DUP1 SLOAD DUP9 DUP7 ADD DUP4 ADD MSTORE SWAP4 ADD SWAP3 DUP5 SWAP1 DUP3 ADD PUSH2 0x276 JUMP JUMPDEST PUSH1 0xFF NOT AND DUP8 DUP6 ADD MSTORE POP POP ISZERO ISZERO PUSH1 0x5 SHL DUP5 ADD ADD SWAP1 POP CODESIZE DUP1 DUP1 PUSH2 0x202 JUMP JUMPDEST PUSH4 0x4E487B71 PUSH1 0xE0 SHL DUP10 MSTORE PUSH1 0x22 DUP11 MSTORE PUSH1 0x24 DUP10 REVERT JUMPDEST SWAP2 PUSH1 0x7F AND SWAP2 PUSH2 0x1E3 JUMP JUMPDEST POP POP CALLVALUE PUSH2 0x182 JUMPI DUP2 PUSH1 0x3 NOT CALLDATASIZE ADD SLT PUSH2 0x182 JUMPI PUSH1 0x5 SLOAD SWAP1 MLOAD PUSH1 0x1 PUSH1 0x1 PUSH1 0xA0 SHL SUB SWAP1 SWAP2 AND DUP2 MSTORE PUSH1 0x20 SWAP1 RETURN JUMPDEST DUP4 CALLVALUE PUSH2 0x35F JUMPI DUP1 PUSH1 0x3 NOT CALLDATASIZE ADD SLT PUSH2 0x35F JUMPI PUSH2 0x31B PUSH2 0x7BF JUMP JUMPDEST PUSH1 0x5 DUP1 SLOAD PUSH1 0x1 PUSH1 0x1 PUSH1 0xA0 SHL SUB NOT DUP2 AND SWAP1 SWAP2 SSTORE DUP2 SWAP1 PUSH1 0x1 PUSH1 0x1 PUSH1 0xA0 SHL SUB AND PUSH32 0x8BE0079C531659141344CD1FD0A4F28419497F9722A3DAAFE3B4186F6B6457E0 DUP3 DUP1 LOG3 DUP1 RETURN JUMPDEST DUP1 REVERT JUMPDEST POP POP CALLVALUE PUSH2 0x182 JUMPI PUSH1 0x20 CALLDATASIZE PUSH1 0x3 NOT ADD SLT PUSH2 0x182 JUMPI PUSH1 0x20 SWAP2 DUP2 SWAP1 PUSH1 0x1 PUSH1 0x1 PUSH1 0xA0 SHL SUB PUSH2 0x38A PUSH2 0x6B0 JUMP JUMPDEST AND DUP2 MSTORE DUP1 DUP5 MSTORE KECCAK256 SLOAD SWAP1 MLOAD SWAP1 DUP2 MSTORE RETURN JUMPDEST POP POP CALLVALUE PUSH2 0x182 JUMPI DUP2 PUSH1 0x3 NOT CALLDATASIZE ADD SLT PUSH2 0x182 JUMPI PUSH1 0x20 SWAP1 MLOAD PUSH1 0x12 DUP2 MSTORE RETURN JUMPDEST POP DUP3 CALLVALUE PUSH2 0x35F JUMPI PUSH1 0x60 CALLDATASIZE PUSH1 0x3 NOT ADD SLT PUSH2 0x35F JUMPI PUSH2 0x3D0 PUSH2 0x6B0 JUMP JUMPDEST PUSH2 0x3D8 PUSH2 0x6CB JUMP JUMPDEST SWAP2 PUSH1 0x44 CALLDATALOAD SWAP4 PUSH1 0x1 DUP1 PUSH1 0xA0 SHL SUB DUP4 AND DUP1 DUP4 MSTORE PUSH1 0x1 PUSH1 0x20 MSTORE DUP7 DUP4 KECCAK256 CALLER DUP5 MSTORE PUSH1 0x20 MSTORE DUP7 DUP4 KECCAK256 SLOAD SWAP2 PUSH1 0x0 NOT DUP4 LT PUSH2 0x414 JUMPI JUMPDEST PUSH1 0x20 DUP9 PUSH2 0x1B0 DUP10 DUP10 DUP10 PUSH2 0x6E1 JUMP JUMPDEST DUP7 DUP4 LT PUSH2 0x47C JUMPI DUP2 ISZERO PUSH2 0x465 JUMPI CALLER ISZERO PUSH2 0x44E JUMPI POP DUP3 MSTORE PUSH1 0x1 PUSH1 0x20 SWAP1 DUP2 MSTORE DUP7 DUP4 KECCAK256 CALLER DUP5 MSTORE DUP2 MSTORE SWAP2 DUP7 SWAP1 KECCAK256 SWAP1 DUP6 SWAP1 SUB SWAP1 SSTORE DUP3 SWAP1 PUSH2 0x1B0 DUP8 PUSH2 0x406 JUMP JUMPDEST DUP8 MLOAD PUSH4 0x4A1406B1 PUSH1 0xE1 SHL DUP2 MSTORE SWAP1 DUP2 ADD DUP5 SWAP1 MSTORE PUSH1 0x24 SWAP1 REVERT JUMPDEST DUP8 MLOAD PUSH4 0xE602DF05 PUSH1 0xE0 SHL DUP2 MSTORE SWAP1 DUP2 ADD DUP5 SWAP1 MSTORE PUSH1 0x24 SWAP1 REVERT JUMPDEST DUP8 MLOAD PUSH4 0x7DC7A0D9 PUSH1 0xE1 SHL DUP2 MSTORE CALLER SWAP2 DUP2 ADD SWAP2 DUP3 MSTORE PUSH1 0x20 DUP3 ADD SWAP4 SWAP1 SWAP4 MSTORE PUSH1 0x40 DUP2 ADD DUP8 SWAP1 MSTORE DUP3 SWAP2 POP PUSH1 0x60 ADD SUB SWAP1 REVERT JUMPDEST POP POP CALLVALUE PUSH2 0x182 JUMPI DUP2 PUSH1 0x3 NOT CALLDATASIZE ADD SLT PUSH2 0x182 JUMPI PUSH1 0x20 SWAP1 PUSH1 0x2 SLOAD SWAP1 MLOAD SWAP1 DUP2 MSTORE RETURN JUMPDEST POP CALLVALUE PUSH2 0x135 JUMPI DUP2 PUSH1 0x3 NOT CALLDATASIZE ADD SLT PUSH2 0x135 JUMPI PUSH2 0x4E0 PUSH2 0x6B0 JUMP JUMPDEST PUSH1 0x24 CALLDATALOAD SWAP1 CALLER ISZERO PUSH2 0x559 JUMPI PUSH1 0x1 PUSH1 0x1 PUSH1 0xA0 SHL SUB AND SWAP2 DUP3 ISZERO PUSH2 0x542 JUMPI POP DUP1 DUP4 PUSH1 0x20 SWAP6 CALLER DUP2 MSTORE PUSH1 0x1 DUP8 MSTORE DUP2 DUP2 KECCAK256 DUP6 DUP3 MSTORE DUP8 MSTORE KECCAK256 SSTORE DUP3 MLOAD SWAP1 DUP2 MSTORE PUSH32 0x8C5BE1E5EBEC7D5BD14F71427D1E84F3DD0314C0F7B2291E5B200AC8C7C3B925 DUP5 CALLER SWAP3 LOG3 MLOAD PUSH1 0x1 DUP2 MSTORE RETURN JUMPDEST DUP4 MLOAD PUSH4 0x4A1406B1 PUSH1 0xE1 SHL DUP2 MSTORE SWAP1 DUP2 ADD DUP6 SWAP1 MSTORE PUSH1 0x24 SWAP1 REVERT JUMPDEST DUP4 MLOAD PUSH4 0xE602DF05 PUSH1 0xE0 SHL DUP2 MSTORE DUP1 DUP5 ADD DUP7 SWAP1 MSTORE PUSH1 0x24 SWAP1 REVERT JUMPDEST DUP5 SWAP2 POP DUP4 CALLVALUE PUSH2 0x135 JUMPI DUP3 PUSH1 0x3 NOT CALLDATASIZE ADD SLT PUSH2 0x135 JUMPI DUP3 PUSH1 0x3 SLOAD PUSH1 0x1 DUP2 PUSH1 0x1 SHR SWAP1 PUSH1 0x1 DUP4 AND SWAP3 DUP4 ISZERO PUSH2 0x65D JUMPI JUMPDEST PUSH1 0x20 SWAP4 DUP5 DUP5 LT DUP2 EQ PUSH2 0x2BC JUMPI DUP4 DUP9 MSTORE SWAP1 DUP2 ISZERO PUSH2 0x641 JUMPI POP PUSH1 0x1 EQ PUSH2 0x5EB JUMPI POP POP POP DUP3 SWAP1 SUB PUSH1 0x1F ADD PUSH1 0x1F NOT AND DUP3 ADD SWAP3 PUSH8 0xFFFFFFFFFFFFFFFF DUP5 GT DUP4 DUP6 LT OR PUSH2 0x238 JUMPI POP DUP3 SWAP2 DUP3 PUSH2 0x234 SWAP3 MSTORE DUP3 PUSH2 0x667 JUMP JUMPDEST PUSH1 0x3 DUP8 MSTORE SWAP2 SWAP3 POP DUP6 SWAP2 DUP4 PUSH32 0xC2575A0E9E593C00F959F8C92F12DB2869C3395A3B0502D05E2516446F71F85B JUMPDEST DUP4 DUP6 LT PUSH2 0x62D JUMPI POP POP POP POP DUP4 ADD ADD DUP6 DUP1 DUP1 PUSH2 0x202 JUMP JUMPDEST DUP1 SLOAD DUP9 DUP7 ADD DUP4 ADD MSTORE SWAP4 ADD SWAP3 DUP5 SWAP1 DUP3 ADD PUSH2 0x617 JUMP JUMPDEST PUSH1 0xFF NOT AND DUP8 DUP6 ADD MSTORE POP POP ISZERO ISZERO PUSH1 0x5 SHL DUP5 ADD ADD SWAP1 POP DUP6 DUP1 DUP1 PUSH2 0x202 JUMP JUMPDEST SWAP2 PUSH1 0x7F AND SWAP2 PUSH2 0x59B JUMP JUMPDEST PUSH1 0x20 DUP1 DUP3 MSTORE DUP3 MLOAD DUP2 DUP4 ADD DUP2 SWAP1 MSTORE SWAP1 SWAP4 SWAP3 PUSH1 0x0 JUMPDEST DUP3 DUP2 LT PUSH2 0x69C JUMPI POP POP PUSH1 0x40 SWAP3 SWAP4 POP PUSH1 0x0 DUP4 DUP3 DUP5 ADD ADD MSTORE PUSH1 0x1F DUP1 NOT SWAP2 ADD AND ADD ADD SWAP1 JUMP JUMPDEST DUP2 DUP2 ADD DUP7 ADD MLOAD DUP5 DUP3 ADD PUSH1 0x40 ADD MSTORE DUP6 ADD PUSH2 0x67A JUMP JUMPDEST PUSH1 0x4 CALLDATALOAD SWAP1 PUSH1 0x1 PUSH1 0x1 PUSH1 0xA0 SHL SUB DUP3 AND DUP3 SUB PUSH2 0x6C6 JUMPI JUMP JUMPDEST PUSH1 0x0 DUP1 REVERT JUMPDEST PUSH1 0x24 CALLDATALOAD SWAP1 PUSH1 0x1 PUSH1 0x1 PUSH1 0xA0 SHL SUB DUP3 AND DUP3 SUB PUSH2 0x6C6 JUMPI JUMP JUMPDEST SWAP2 PUSH1 0x1 PUSH1 0x1 PUSH1 0xA0 SHL SUB DUP1 DUP5 AND SWAP3 DUP4 ISZERO PUSH2 0x7A6 JUMPI AND SWAP3 DUP4 ISZERO PUSH2 0x78D JUMPI PUSH1 0x0 SWAP1 DUP4 DUP3 MSTORE DUP2 PUSH1 0x20 MSTORE PUSH1 0x40 DUP3 KECCAK256 SLOAD SWAP1 DUP4 DUP3 LT PUSH2 0x75B JUMPI POP SWAP2 PUSH1 0x40 DUP3 DUP3 PUSH32 0xDDF252AD1BE2C89B69C2B068FC378DAA952BA7F163C4A11628F55A4DF523B3EF SWAP6 DUP8 PUSH1 0x20 SWAP7 MSTORE DUP3 DUP7 MSTORE SUB DUP3 DUP3 KECCAK256 SSTORE DUP7 DUP2 MSTORE KECCAK256 DUP2 DUP2 SLOAD ADD SWAP1 SSTORE PUSH1 0x40 MLOAD SWAP1 DUP2 MSTORE LOG3 JUMP JUMPDEST PUSH1 0x40 MLOAD PUSH4 0x391434E3 PUSH1 0xE2 SHL DUP2 MSTORE PUSH1 0x1 PUSH1 0x1 PUSH1 0xA0 SHL SUB SWAP2 SWAP1 SWAP2 AND PUSH1 0x4 DUP3 ADD MSTORE PUSH1 0x24 DUP2 ADD SWAP2 SWAP1 SWAP2 MSTORE PUSH1 0x44 DUP2 ADD DUP4 SWAP1 MSTORE PUSH1 0x64 SWAP1 REVERT JUMPDEST PUSH1 0x40 MLOAD PUSH4 0xEC442F05 PUSH1 0xE0 SHL DUP2 MSTORE PUSH1 0x0 PUSH1 0x4 DUP3 ADD MSTORE PUSH1 0x24 SWAP1 REVERT JUMPDEST PUSH1 0x40 MLOAD PUSH4 0x4B637E8F PUSH1 0xE1 SHL DUP2 MSTORE PUSH1 0x0 PUSH1 0x4 DUP3 ADD MSTORE PUSH1 0x24 SWAP1 REVERT JUMPDEST PUSH1 0x5 SLOAD PUSH1 0x1 PUSH1 0x1 PUSH1 0xA0 SHL SUB AND CALLER SUB PUSH2 0x7D3 JUMPI JUMP JUMPDEST PUSH1 0x40 MLOAD PUSH4 0x118CDAA7 PUSH1 0xE0 SHL DUP2 MSTORE CALLER PUSH1 0x4 DUP3 ADD MSTORE PUSH1 0x24 SWAP1 REVERT INVALID LOG2 PUSH5 0x6970667358 0x22 SLT KECCAK256 PUSH20 0x6FBB7EC67031F2019442D2EF98A07CBFBF8BAE55 PUSH14 0x9E50145250CE104FF87164736F6C PUSH4 0x43000818 STOP CALLER "},"methodIdentifiers":{"allowance(address,address)":"dd62ed3e","approve(address,uint256)":"095ea7b3","balanceOf(address)":"70a08231","decimals()":"313ce567","name()":"06fdde03","owner()":"8da5cb5b","renounceOwnership()":"715018a6","symbol()":"95d89b41","totalSupply()":"18160ddd","transfer(address,uint256)":"a9059cbb","transferFrom(address,address,uint256)":"23b872dd","transferOwnership(address)":"f2fde38b"}}}}}