{"src/contracts/RayanChainDAO.sol":{"RayanChainDAO":{"abi":[{"inputs":[{"internalType":"address","name":"_accControlAddress","type":"address"},{"internalType":"address","name":"_stakingAddress","type":"address"},{"internalType":"address","name":"_financeAddress","type":"address"},{"internalType":"uint256","name":"_votingPeriod","type":"uint256"},{"internalType":"uint256","name":"_quorumPercentage","type":"uint256"},{"internalType":"uint256","name":"_approvalThreshold","type":"uint256"}],"stateMutability":"nonpayable","type":"constructor"},{"inputs":[{"internalType":"address","name":"owner","type":"address"}],"name":"OwnableInvalidOwner","type":"error"},{"inputs":[{"internalType":"address","name":"account","type":"address"}],"name":"OwnableUnauthorizedAccount","type":"error"},{"inputs":[],"name":"ReentrancyGuardReentrantCall","type":"error"},{"anonymous":false,"inputs":[{"indexed":true,"internalType":"uint256","name":"proposalId","type":"uint256"},{"indexed":false,"internalType":"uint256","name":"milestoneIndex","type":"uint256"},{"indexed":false,"internalType":"uint256","name":"amount","type":"uint256"}],"name":"MilestoneReleased","type":"event"},{"anonymous":false,"inputs":[{"indexed":true,"internalType":"address","name":"previousOwner","type":"address"},{"indexed":true,"internalType":"address","name":"newOwner","type":"address"}],"name":"OwnershipTransferred","type":"event"},{"anonymous":false,"inputs":[{"indexed":true,"internalType":"address","name":"user","type":"address"},{"indexed":false,"internalType":"uint256","name":"newScore","type":"uint256"}],"name":"ParticipationScoreUpdated","type":"event"},{"anonymous":false,"inputs":[{"indexed":false,"internalType":"uint256","name":"id","type":"uint256"},{"indexed":false,"internalType":"address","name":"proposer","type":"address"},{"indexed":false,"internalType":"enum RayanChainDAO.ProposalType","name":"pType","type":"uint8"},{"indexed":false,"internalType":"string","name":"description","type":"string"}],"name":"ProposalCreated","type":"event"},{"anonymous":false,"inputs":[{"indexed":false,"internalType":"uint256","name":"id","type":"uint256"}],"name":"ProposalExecuted","type":"event"},{"anonymous":false,"inputs":[{"indexed":false,"internalType":"uint256","name":"id","type":"uint256"},{"indexed":false,"internalType":"enum RayanChainDAO.ProposalState","name":"newState","type":"uint8"}],"name":"ProposalStateChanged","type":"event"},{"anonymous":false,"inputs":[{"indexed":false,"internalType":"uint256","name":"proposalId","type":"uint256"},{"indexed":false,"internalType":"address","name":"voter","type":"address"},{"indexed":false,"internalType":"enum RayanChainDAO.VoteType","name":"vote","type":"uint8"},{"indexed":false,"internalType":"uint256","name":"weight","type":"uint256"}],"name":"Voted","type":"event"},{"inputs":[],"name":"MAX_RISK_SCORE","outputs":[{"internalType":"uint256","name":"","type":"uint256"}],"stateMutability":"view","type":"function"},{"inputs":[],"name":"accControl","outputs":[{"internalType":"contract AccControl","name":"","type":"address"}],"stateMutability":"view","type":"function"},{"inputs":[],"name":"approvalThresholdPercentage","outputs":[{"internalType":"uint256","name":"","type":"uint256"}],"stateMutability":"view","type":"function"},{"inputs":[{"internalType":"string","name":"_description","type":"string"},{"internalType":"address payable","name":"_recipient","type":"address"},{"internalType":"uint256[]","name":"_milestoneAmounts","type":"uint256[]"}],"name":"createFundingProposal","outputs":[],"stateMutability":"nonpayable","type":"function"},{"inputs":[{"internalType":"string","name":"_description","type":"string"},{"internalType":"address payable","name":"_recipient","type":"address"},{"internalType":"uint256","name":"_amount","type":"uint256"},{"internalType":"enum RayanChainDAO.TokenType","name":"_tokenType","type":"uint8"}],"name":"createTreasuryActionProposal","outputs":[],"stateMutability":"nonpayable","type":"function"},{"inputs":[{"internalType":"uint256","name":"_proposalId","type":"uint256"}],"name":"executeProposal","outputs":[],"stateMutability":"nonpayable","type":"function"},{"inputs":[],"name":"financeContract","outputs":[{"internalType":"contract IFinance","name":"","type":"address"}],"stateMutability":"view","type":"function"},{"inputs":[{"internalType":"uint256","name":"","type":"uint256"},{"internalType":"address","name":"","type":"address"}],"name":"hasVoted","outputs":[{"internalType":"bool","name":"","type":"bool"}],"stateMutability":"view","type":"function"},{"inputs":[],"name":"nextProposalId","outputs":[{"internalType":"uint256","name":"","type":"uint256"}],"stateMutability":"view","type":"function"},{"inputs":[],"name":"owner","outputs":[{"internalType":"address","name":"","type":"address"}],"stateMutability":"view","type":"function"},{"inputs":[{"internalType":"address","name":"","type":"address"}],"name":"participationScores","outputs":[{"internalType":"uint256","name":"","type":"uint256"}],"stateMutability":"view","type":"function"},{"inputs":[{"internalType":"uint256","name":"","type":"uint256"}],"name":"proposals","outputs":[{"internalType":"uint256","name":"id","type":"uint256"},{"internalType":"enum RayanChainDAO.ProposalType","name":"pType","type":"uint8"},{"internalType":"address","name":"proposer","type":"address"},{"internalType":"string","name":"description","type":"string"},{"internalType":"bytes32","name":"descriptionHash","type":"bytes32"},{"internalType":"address payable","name":"recipient","type":"address"},{"internalType":"uint256","name":"amount","type":"uint256"},{"internalType":"enum RayanChainDAO.TokenType","name":"tokenType","type":"uint8"},{"internalType":"uint256","name":"creationTime","type":"uint256"},{"internalType":"uint256","name":"votingDeadline","type":"uint256"},{"internalType":"uint256","name":"forVotes","type":"uint256"},{"internalType":"uint256","name":"againstVotes","type":"uint256"},{"internalType":"enum RayanChainDAO.ProposalState","name":"state","type":"uint8"},{"internalType":"bool","name":"executed","type":"bool"},{"internalType":"uint256","name":"currentMilestoneIndex","type":"uint256"},{"internalType":"uint256","name":"aiRiskScore","type":"uint256"},{"internalType":"uint256","name":"requiredApprovalThreshold","type":"uint256"}],"stateMutability":"view","type":"function"},{"inputs":[],"name":"quorumPercentage","outputs":[{"internalType":"uint256","name":"","type":"uint256"}],"stateMutability":"view","type":"function"},{"inputs":[{"internalType":"uint256","name":"_proposalId","type":"uint256"}],"name":"releaseNextMilestone","outputs":[],"stateMutability":"nonpayable","type":"function"},{"inputs":[],"name":"renounceOwnership","outputs":[],"stateMutability":"nonpayable","type":"function"},{"inputs":[],"name":"stakingContract","outputs":[{"internalType":"contract IStaking","name":"","type":"address"}],"stateMutability":"view","type":"function"},{"inputs":[{"internalType":"uint256","name":"_proposalId","type":"uint256"}],"name":"tallyVotes","outputs":[],"stateMutability":"nonpayable","type":"function"},{"inputs":[{"internalType":"address","name":"newOwner","type":"address"}],"name":"transferOwnership","outputs":[],"stateMutability":"nonpayable","type":"function"},{"inputs":[{"internalType":"address","name":"_user","type":"address"},{"internalType":"uint256","name":"_score","type":"uint256"}],"name":"updateParticipationScore","outputs":[],"stateMutability":"nonpayable","type":"function"},{"inputs":[{"internalType":"uint256","name":"_proposalId","type":"uint256"},{"internalType":"uint256","name":"_riskScore","type":"uint256"}],"name":"updateProposalRiskScore","outputs":[],"stateMutability":"nonpayable","type":"function"},{"inputs":[{"internalType":"uint256","name":"_proposalId","type":"uint256"},{"internalType":"enum RayanChainDAO.VoteType","name":"_voteType","type":"uint8"}],"name":"vote","outputs":[],"stateMutability":"nonpayable","type":"function"},{"inputs":[],"name":"votingPeriod","outputs":[{"internalType":"uint256","name":"","type":"uint256"}],"stateMutability":"view","type":"function"}],"evm":{"bytecode":{"linkReferences":{},"object":"6080346200012e57601f620023f038819003918201601f19168301916001600160401b03831184841017620001335780849260c0946040528339810103126200012e576200004d8162000149565b906200005c6020820162000149565b906200006b6040820162000149565b9260608201519060a060808401519301519333156200011557600080546001600160a01b03198082163390811784556040519991956001600160a01b039592948694859391908416907f8be0079c531659141344cd1fd0a4f28419497f9722a3daafe3b4186f6b6457e09080a360018055168560025416176002551683600354161760035516906004541617600455600955600a55600b55600160065561229190816200015f8239f35b604051631e4fbdf760e01b815260006004820152602490fd5b600080fd5b634e487b7160e01b600052604160045260246000fd5b51906001600160a01b03821682036200012e5756fe6080604052600436101561001257600080fd5b6000803560e01c8063013cf08b14611b5c57806302a251a314611b3e5780630d61b5191461173e57806322005a92146115ff578063263be8d6146112295780632ab09d141461120b578063345c3537146111e257806338add68d146111a9578063438596321461115d57806345f19131146111415780634d318b0e146111215780634f23c04c146111035780634fa76ec9146110e5578063638af63e14610dae57806363b5b8e11461066e578063715018a6146106145780638da5cb5b146105ed578063943e82161461033f578063bb1345c9146101f3578063d3396149146101ca578063ee99205c146101a15763f2fde38b1461010f57600080fd5b3461019e57602036600319011261019e57610128611e80565b6101306121ef565b6001600160a01b0390811690811561018557600054826bffffffffffffffffffffffff60a01b821617600055167f8be0079c531659141344cd1fd0a4f28419497f9722a3daafe3b4186f6b6457e0600080a380f35b604051631e4fbdf760e01b815260048101849052602490fd5b80fd5b503461019e578060031936011261019e576003546040516001600160a01b039091168152602090f35b503461019e578060031936011261019e576004546040516001600160a01b039091168152602090f35b503461019e57604036600319011261019e5761020d611e80565b60025460405163c601f7af60e01b8152602435926001600160a01b03928316926020929091908381600481885afa908115610334578791610300575b50604051632474521560e21b8152600481019190915233602482015293839085908180604481015b03915afa9384156102f5577fbce4be9b5e0540fc5c565cd30c59b6465d9eb0550f7a36a89128eeb8271b6c72946102af9188916102c8575b50611f03565b169283855260088252806040862055604051908152a280f35b6102e89150853d87116102ee575b6102e08183611d89565b810190611eeb565b386102a9565b503d6102d6565b6040513d88823e3d90fd5b90508381813d831161032d575b6103178183611d89565b810103126103285751610271610249565b600080fd5b503d61030d565b6040513d89823e3d90fd5b503461019e57604036600319011261019e576004356024803560028110156105e9576103696121cc565b828452602060058152604085209260ff600b8501541660088110156105d65760026103949114611f5a565b6008840154421161059357848652600782526040862033600052825260ff60406000205416610560576003546040516326d352ab60e11b8152336004820152919083908390839082906001600160a01b03165afa918215610334578792610531575b5081156104ee57338752600883526040872054606401806064116104db57808302928304036104c75750916080939160647f2635c84c3a8027a303ca6d6e90b1c4a9604754040372414d244aadfa647175189694049284885260078252604088203360005282526040600020600160ff1982541617905561047683611dab565b826104b257600901610489848254611ec8565b90555b60405193845233908401526104a081611dab565b60408301526060820152a16001805580f35b600a016104c0848254611ec8565b905561048c565b634e487b7160e01b60009081526011600452fd5b50634e487b7160e01b8752601160045286fd5b82601f6064926040519262461bcd60e51b845260048401528201527f4d7573742068617665207374616b656420746f6b656e7320746f20766f7465006044820152fd5b9091508281813d8311610559575b6105498183611d89565b81010312610328575190386103f6565b503d61053f565b90600d6064926040519262461bcd60e51b845260048401528201526c105b1c9958591e481d9bdd1959609a1b6044820152fd5b9060176064926040519262461bcd60e51b845260048401528201527f566f74696e6720706572696f642068617320656e6465640000000000000000006044820152fd5b50634e487b7160e01b8652602160045285fd5b8380fd5b503461019e578060031936011261019e57546040516001600160a01b039091168152602090f35b503461019e578060031936011261019e5761062d6121ef565b600080546001600160a01b0319811682556001600160a01b03167f8be0079c531659141344cd1fd0a4f28419497f9722a3daafe3b4186f6b6457e08280a380f35b503461019e57606036600319011261019e5760043567ffffffffffffffff8111610daa576106a0903690600401611e13565b6106a8611e6a565b906044359067ffffffffffffffff82116105e957366023830112156105e95781600401359167ffffffffffffffff8311610d96578260051b604051936106f16020830186611d89565b84526024602085019183010191368311610d9257602401905b828210610d825750506002546040516313aa1d4d60e11b81526001600160a01b039091169150602081600481855afa9081156102f5578691610d4e575b50604051632474521560e21b815260048101919091523360248201529060209082908180604481015b03915afa8015610d435761078a918691610d2a5750611f03565b815115610cda576006549261079e846121bd565b60065560405160208101906107cb60208286516107be8187858b01611dcb565b8101038084520182611d89565b61081d6040805180936107e76020830196879251928391611dcb565b81017fb6d2dc83590271a7c0a5ab5fbf6a2dad418bbfd533c253e3d69a6772712809c76020820152036020810184520182611d89565b51902060008581526005602052604090208581556001810180546001600160a81b0319163360081b610100600160a81b031617905583519092919067ffffffffffffffff8111610bd5576108746002850154611d3b565b601f8111610c93575b506020601f8211600114610c0e5792600b928261094d969360008051602061221c8339815191529896600091610c03575b508160011b916000199060031b1c19161760028401555b60038301556004820180546001600160a01b0319166001600160a01b039092169190911790556000600582015560068101805460ff19166001179055426007820181905560095461091591611ec8565b600882015501600260ff1982541617905560405191829186835233602084015260006040840152608060608401526080830190611dee565b0390a160008051602061223c8339815191526040805184815260026020820152a1825b8151811015610bff578284526005602052600c60408520018251821015610beb5760208260051b84010151906040519182608081011067ffffffffffffffff608085011117610bd55760808301604052825285602083015260405180602081011067ffffffffffffffff602083011117610bd55760208101604052868152604083015285606083015280549068010000000000000000821015610bc15790610a1d91600182018155611e96565b610bad578151815560208201516008811015610b995760ff80196001840154169116176001820155604082015180519067ffffffffffffffff8211610b8557610a696002840154611d3b565b601f8111610b41575b50602090601f8311600114610acd57928260609360039360019897968c92610ac2575b505060001982851b1c191690871b1760028201555b01910151151560ff8019835416911617905501610970565b015190503880610a95565b906002840189526020892091895b601f1985168110610b295750836003936001989796938993606097601f19811610610b11575b505050811b016002820155610aaa565b015160001983871b60f8161c19169055388080610b01565b91926020600181928685015181550194019201610adb565b60028401895260208920601f840160051c810160208510610b7e575b601f830160051c82018110610b73575050610a72565b8a8155600101610b5d565b5080610b5d565b634e487b7160e01b88526041600452602488fd5b634e487b7160e01b87526021600452602487fd5b634e487b7160e01b86526004869052602486fd5b634e487b7160e01b87526041600452602487fd5b634e487b7160e01b600052604160045260246000fd5b634e487b7160e01b85526032600452602485fd5b8380f35b9050860151386108ae565b6002850160005260206000209060005b601f1984168110610c7b57509260018360008051602061221c833981519152989693600b9661094d9996601f19811610610c62575b5050811b0160028401556108c5565b88015160001960f88460031b161c191690553880610c53565b9091602060018192858b015181550193019101610c1e565b600285016000526020600020601f830160051c810160208410610cd3575b601f830160051c82018110610cc757505061087d565b60008155600101610cb1565b5080610cb1565b60405162461bcd60e51b815260206004820152602260248201527f4174206c65617374206f6e65206d696c6573746f6e6520697320726571756972604482015261195960f21b6064820152608490fd5b6102e8915060203d6020116102ee576102e08183611d89565b6040513d87823e3d90fd5b90506020813d602011610d7a575b81610d6960209383611d89565b810103126103285751610770610747565b3d9150610d5c565b813581526020918201910161070a565b8680fd5b634e487b7160e01b85526041600452602485fd5b5080fd5b503461019e57602080600319360112610daa5760043590610dcd6121cc565b60025460405163a217fddf60e01b81526001600160a01b0393918416908381600481855afa80156102f557849187916110b4575b50604051632474521560e21b815260048101919091523360248201529182908180604481015b03915afa8015610d4357610e4191869161109d5750611f03565b80845260058252604084209060ff600183015416610e5e81611dab565b61105f5760ff600b83015416600881101561104b57600503610ff757600d820193600c85549301928354811015610fb2576002610e9e610ea69286611e96565b500154611d3b565b15610f6d57859060045416803b15610daa578180916024604051809481936331c57b1f60e11b83528860048401525af18015610f6257610f4a575b50507fd33fcd27cbfb73a2d9058c968b560ccb306500bf536133802048489ecc7355e96040610f41946003610f17885487611e96565b5001600160ff19825416179055610f3087548096611e96565b5054825191868352820152a26121bd565b90556001805580f35b610f5390611d75565b610f5e578438610ee1565b8480fd5b6040513d84823e3d90fd5b60405162461bcd60e51b815260048101859052601f60248201527f50726f6f66206f662070726f6772657373206e6f74207375626d6974746564006044820152606490fd5b60405162461bcd60e51b815260048101869052601f60248201527f416c6c206d696c6573746f6e657320616c72656164792072656c6561736564006044820152606490fd5b60405162461bcd60e51b815260048101849052602660248201527f50726f706f73616c20776173206e6f7420617070726f76656420616e642065786044820152651958dd5d195960d21b6064820152608490fd5b634e487b7160e01b86526021600452602486fd5b60405162461bcd60e51b8152600481018490526016602482015275139bdd081848199d5b991a5b99c81c1c9bdc1bdcd85b60521b6044820152606490fd5b6102e89150843d86116102ee576102e08183611d89565b82819392503d83116110de575b6110cb8183611d89565b8101031261032857518390610e27610e01565b503d6110c1565b503461019e578060031936011261019e576020600a54604051908152f35b503461019e578060031936011261019e576020600b54604051908152f35b503461019e57602036600319011261019e5761113e600435611fc6565b80f35b503461019e578060031936011261019e576020604051604b8152f35b503461019e57604036600319011261019e576040611179611e6a565b9160043581526007602052209060018060a01b0316600052602052602060ff604060002054166040519015158152f35b503461019e57602036600319011261019e576020906040906001600160a01b036111d1611e80565b168152600883522054604051908152f35b503461019e578060031936011261019e576002546040516001600160a01b039091168152602090f35b503461019e578060031936011261019e576020600654604051908152f35b503461019e57608036600319011261019e5767ffffffffffffffff6004358181116115fb5761125c903690600401611e13565b90611265611e6a565b91606435916002831015610f5e5760025460405163a217fddf60e01b8152602094916001600160a01b0391908216908681600481855afa80156115f05787918a916115bf575b50604051632474521560e21b815260048101919091523360248201529182908180604481015b03915afa80156115b4576112eb91899161159d5750611f03565b600654956112f8876121bd565b600655604051868101906113188882816107be8b87815193849201611dcb565b6113676040805180936113338c830196879251928391611dcb565b81017fb6d2dc83590271a7c0a5ab5fbf6a2dad418bbfd533c253e3d69a6772712809c78c820152038a810184520182611d89565b51902060008881526005885260409020888155600180820180546001600160a81b0319163360081b610100600160a81b0316178217905587519096919492916002860191908111610bd5576113bc8254611d3b565b601f8111611554575b5089601f82116001146114c2579560008051602061223c8339815191529b99956002999560409c99958b9585600b9660008051602061221c8339815191529c6000916114b7575b50600019600383901b1c1916908a1b1790555b60038401556004830191166bffffffffffffffffffffffff60a01b82541617905560443560058201556006810161145585611dab565b60ff199460ff86835416911617905542600782015561147660095442611ec8565b600882015501918254161790556114a88751928392888452338785015289840152608060608401526080830190611dee565b0390a18351928352820152a180f35b90508b01513861140c565b601f19821690836000528b6000209160005b81811061153f57509560409c999560029b979560008051602061223c8339815191529f9d99938660008051602061221c8339815191529c968f9992600b998d9410611526575b5050811b01905561141f565b8d015160001960f88460031b161c19169055388061151a565b8c8301518455928b0192918d01918d016114d4565b826000528a600020601f830160051c8101918c8410611593575b601f0160051c019089905b8281106115875750506113c5565b60008155018990611579565b909150819061156e565b6102e89150873d89116102ee576102e08183611d89565b6040513d8a823e3d90fd5b82819392503d83116115e9575b6115d68183611d89565b81010312610328575186906112d16112ab565b503d6115cc565b6040513d8b823e3d90fd5b8280fd5b503461019e57604036600319011261019e5760025460405163c601f7af60e01b8152602435916020916001600160a01b03909116908281600481855afa8015610d43578391869161170d575b50604051632474521560e21b815260048101919091523360248201529182908180604481015b03915afa80156117025761168b9185916116eb5750611f03565b606482116116a757600590600435845252600e60408320015580f35b6064906040519062461bcd60e51b82526004820152601c60248201527f5269736b2073636f72652063616e6e6f742065786365656420313030000000006044820152fd5b6102e89150833d85116102ee576102e08183611d89565b6040513d86823e3d90fd5b82819392503d8311611737575b6117248183611d89565b810103126103285751829061167161164b565b503d61171a565b503461019e57602080600319360112610daa576004359061175d6121cc565b8183526005815260408320600b810160ff90818154166008811015610b995760021480611b31575b611b23575b80548281166008811015611b0f57600303611aca57828160081c16611a8557604b600e85015411611a40576101059061ffff191617905560019185826001830154166117d581611dab565b806118df5750929190839084600c8201948554955b8683106118b3575050600480549201546001600160a01b0392831692169050813b156118af578560849281956040519788968795630a7932b160e21b87528d6004880152602487015260448601521660648401525af18015610f625761189b575b505060008051602061223c8339815191529160056040925b7f712ae1383f79ac853f8d882153778e0260ef8f03b504e2866e0593e04d2b291f818551858152a18351928352820152a16001805580f35b6118a490611d75565b6115fb57823861184b565b8580fd5b91949596506118d08193946118c88785611e96565b505490611ec8565b940190918996959493926117ea565b60019194506118f081949394611dab565b14611913575b50505060008051602061223c833981519152916005604092611863565b60068201541661192281611dab565b6119aa5760018060a01b03906005826004541692600483015416910154823b156105e9576044849283604051958694859363f3fef3a360e01b8552600485015260248401525af18015610f6257611996575b505060008051602061223c8339815191529160056040925b92859294506118f6565b61199f90611d75565b6115fb578238611974565b60048054908201546005909201546001600160a01b039182169392909116833b156115fb576044908360405195869485936306b091f960e01b8552600485015260248401525af1801561170257611a17575b5060008051602061223c83398151915291600560409261198c565b91600560409294611a3660008051602061223c83398151915295611d75565b94925050916119fc565b60405162461bcd60e51b815260048101869052601960248201527f4149207269736b2073636f726520697320746f6f2068696768000000000000006044820152606490fd5b60405162461bcd60e51b815260048101869052601960248201527f50726f706f73616c20616c7265616479206578656375746564000000000000006044820152606490fd5b60405162461bcd60e51b815260048101869052601860248201527f50726f706f73616c206973206e6f7420617070726f76656400000000000000006044820152606490fd5b634e487b7160e01b88526021600452602488fd5b611b2c85611fc6565b61178a565b5060088301544211611785565b503461019e578060031936011261019e576020600954604051908152f35b503461019e57602036600319011261019e5760043581526005602052604081208054600191600181015492600282018591815491611b9983611d3b565b9283608052600181169081600014611d195750600114611ce3575b50505060809003608090611bc791611d89565b600381015490600160a01b60019003600482015416600582015495600683015460ff1660078401546008850154600986015491600a87015493600b8801549b600d89015497600e8a015499600f01549a6040519d8e9d8e610220928392825260ff8116611c3390611dab565b60ff8116602083015260081c6001600160a01b0316604082015260600152611c5e908e016080611dee565b9c6080015260a08d015260c08c0152611c7681611dab565b60e08b01526101008a015261012089015261014088015261016087015260ff871660081115611ccf575060ff868187981661018088015260081c1615156101a08601526101c08501526101e08401526102008301520390f35b634e487b7160e01b81526021600452602490fd5b87526020872091925086915b838310611d0557505060a0019050388080611bb4565b805460a08401526020909201918101611cef565b925050506020925060ff19168260800152151560051b60800101388080611bb4565b90600182811c92168015611d6b575b6020831014611d5557565b634e487b7160e01b600052602260045260246000fd5b91607f1691611d4a565b67ffffffffffffffff8111610bd557604052565b90601f8019910116810190811067ffffffffffffffff821117610bd557604052565b60021115611db557565b634e487b7160e01b600052602160045260246000fd5b60005b838110611dde5750506000910152565b8181015183820152602001611dce565b90602091611e0781518092818552858086019101611dcb565b601f01601f1916010190565b81601f820112156103285780359067ffffffffffffffff8211610bd55760405192611e48601f8401601f191660200185611d89565b8284526020838301011161032857816000926020809301838601378301015290565b602435906001600160a01b038216820361032857565b600435906001600160a01b038216820361032857565b8054821015611eb25760005260206000209060021b0190600090565b634e487b7160e01b600052603260045260246000fd5b91908201809211611ed557565b634e487b7160e01b600052601160045260246000fd5b90816020910312610328575180151581036103285790565b15611f0a57565b60405162461bcd60e51b815260206004820152602260248201527f43616c6c657220646f6573206e6f74206861766520726571756972656420726f6044820152616c6560f01b6064820152608490fd5b15611f6157565b60405162461bcd60e51b815260206004820152601c60248201527f50726f706f73616c206e6f7420696e20766f74696e67207374617465000000006044820152606490fd5b8115611fb0570490565b634e487b7160e01b600052601260045260246000fd5b90600082815260209260058452604091828120600b81019081549260ff841660088110156121a9576002611ffa9114611f5a565b60088201544211156121655760035486516318160ddd60e01b815298600495909493929185908b90889082906001600160a01b03165afa998a1561215b57829a61212c575b50612053600a600985015494015484611ec8565b9960648b028b81046064148c151715612119579061207091611fa6565b600a54116120f057506064820291808304606414901517156120dd575060008051602061223c83398151915296976120a791611fa6565b600b54116120c857600380935060ff198254161790558351928352820152a1565b805460ff1916831790558351928352820152a1565b634e487b7160e01b815260118552602490fd5b60ff191685179092555050835192835282015291925060008051602061223c83398151915291a1565b634e487b7160e01b845260118852602484fd5b9099508481813d8311612154575b6121448183611d89565b81010312610daa5751983861203f565b503d61213a565b88513d84823e3d90fd5b855162461bcd60e51b815260048101899052601b60248201527f566f74696e6720706572696f64206e6f742079657420656e64656400000000006044820152606490fd5b634e487b7160e01b82526021600452602482fd5b6000198114611ed55760010190565b6002600154146121dd576002600155565b604051633ee5aeb560e01b8152600490fd5b6000546001600160a01b0316330361220357565b60405163118cdaa760e01b8152336004820152602490fdfe8356bc5007056a642094f44da4e8e22469db3e8a36b5811c0f91f735f1491c79d6b3a81dd8b7dc419d8d0f20797397ea2eaba914386b89898aa638438803a1eca2646970667358221220f3d0d5f61cd3f5100e0fca995f012ff7abb5a24f62e2717e5d04472bb8c5d80164736f6c63430008180033","opcodes":"PUSH1 0x80 CALLVALUE PUSH3 0x12E JUMPI PUSH1 0x1F PUSH3 0x23F0 CODESIZE DUP2 SWAP1 SUB SWAP2 DUP3 ADD PUSH1 0x1F NOT AND DUP4 ADD SWAP2 PUSH1 0x1 PUSH1 0x1 PUSH1 0x40 SHL SUB DUP4 GT DUP5 DUP5 LT OR PUSH3 0x133 JUMPI DUP1 DUP5 SWAP3 PUSH1 0xC0 SWAP5 PUSH1 0x40 MSTORE DUP4 CODECOPY DUP2 ADD SUB SLT PUSH3 0x12E JUMPI PUSH3 0x4D DUP2 PUSH3 0x149 JUMP JUMPDEST SWAP1 PUSH3 0x5C PUSH1 0x20 DUP3 ADD PUSH3 0x149 JUMP JUMPDEST SWAP1 PUSH3 0x6B PUSH1 0x40 DUP3 ADD PUSH3 0x149 JUMP JUMPDEST SWAP3 PUSH1 0x60 DUP3 ADD MLOAD SWAP1 PUSH1 0xA0 PUSH1 0x80 DUP5 ADD MLOAD SWAP4 ADD MLOAD SWAP4 CALLER ISZERO PUSH3 0x115 JUMPI PUSH1 0x0 DUP1 SLOAD PUSH1 0x1 PUSH1 0x1 PUSH1 0xA0 SHL SUB NOT DUP1 DUP3 AND CALLER SWAP1 DUP2 OR DUP5 SSTORE PUSH1 0x40 MLOAD SWAP10 SWAP2 SWAP6 PUSH1 0x1 PUSH1 0x1 PUSH1 0xA0 SHL SUB SWAP6 SWAP3 SWAP5 DUP7 SWAP5 DUP6 SWAP4 SWAP2 SWAP1 DUP5 AND SWAP1 PUSH32 0x8BE0079C531659141344CD1FD0A4F28419497F9722A3DAAFE3B4186F6B6457E0 SWAP1 DUP1 LOG3 PUSH1 0x1 DUP1 SSTORE AND DUP6 PUSH1 0x2 SLOAD AND OR PUSH1 0x2 SSTORE AND DUP4 PUSH1 0x3 SLOAD AND OR PUSH1 0x3 SSTORE AND SWAP1 PUSH1 0x4 SLOAD AND OR PUSH1 0x4 SSTORE PUSH1 0x9 SSTORE PUSH1 0xA SSTORE PUSH1 0xB SSTORE PUSH1 0x1 PUSH1 0x6 SSTORE PUSH2 0x2291 SWAP1 DUP2 PUSH3 0x15F DUP3 CODECOPY RETURN JUMPDEST PUSH1 0x40 MLOAD PUSH4 0x1E4FBDF7 PUSH1 0xE0 SHL DUP2 MSTORE PUSH1 0x0 PUSH1 0x4 DUP3 ADD MSTORE PUSH1 0x24 SWAP1 REVERT JUMPDEST PUSH1 0x0 DUP1 REVERT JUMPDEST PUSH4 0x4E487B71 PUSH1 0xE0 SHL PUSH1 0x0 MSTORE PUSH1 0x41 PUSH1 0x4 MSTORE PUSH1 0x24 PUSH1 0x0 REVERT JUMPDEST MLOAD SWAP1 PUSH1 0x1 PUSH1 0x1 PUSH1 0xA0 SHL SUB DUP3 AND DUP3 SUB PUSH3 0x12E JUMPI JUMP INVALID PUSH1 0x80 PUSH1 0x40 MSTORE PUSH1 0x4 CALLDATASIZE LT ISZERO PUSH2 0x12 JUMPI PUSH1 0x0 DUP1 REVERT JUMPDEST PUSH1 0x0 DUP1 CALLDATALOAD PUSH1 0xE0 SHR DUP1 PUSH4 0x13CF08B EQ PUSH2 0x1B5C JUMPI DUP1 PUSH4 0x2A251A3 EQ PUSH2 0x1B3E JUMPI DUP1 PUSH4 0xD61B519 EQ PUSH2 0x173E JUMPI DUP1 PUSH4 0x22005A92 EQ PUSH2 0x15FF JUMPI DUP1 PUSH4 0x263BE8D6 EQ PUSH2 0x1229 JUMPI DUP1 PUSH4 0x2AB09D14 EQ PUSH2 0x120B JUMPI DUP1 PUSH4 0x345C3537 EQ PUSH2 0x11E2 JUMPI DUP1 PUSH4 0x38ADD68D EQ PUSH2 0x11A9 JUMPI DUP1 PUSH4 0x43859632 EQ PUSH2 0x115D JUMPI DUP1 PUSH4 0x45F19131 EQ PUSH2 0x1141 JUMPI DUP1 PUSH4 0x4D318B0E EQ PUSH2 0x1121 JUMPI DUP1 PUSH4 0x4F23C04C EQ PUSH2 0x1103 JUMPI DUP1 PUSH4 0x4FA76EC9 EQ PUSH2 0x10E5 JUMPI DUP1 PUSH4 0x638AF63E EQ PUSH2 0xDAE JUMPI DUP1 PUSH4 0x63B5B8E1 EQ PUSH2 0x66E JUMPI DUP1 PUSH4 0x715018A6 EQ PUSH2 0x614 JUMPI DUP1 PUSH4 0x8DA5CB5B EQ PUSH2 0x5ED JUMPI DUP1 PUSH4 0x943E8216 EQ PUSH2 0x33F JUMPI DUP1 PUSH4 0xBB1345C9 EQ PUSH2 0x1F3 JUMPI DUP1 PUSH4 0xD3396149 EQ PUSH2 0x1CA JUMPI DUP1 PUSH4 0xEE99205C EQ PUSH2 0x1A1 JUMPI PUSH4 0xF2FDE38B EQ PUSH2 0x10F JUMPI PUSH1 0x0 DUP1 REVERT JUMPDEST CALLVALUE PUSH2 0x19E JUMPI PUSH1 0x20 CALLDATASIZE PUSH1 0x3 NOT ADD SLT PUSH2 0x19E JUMPI PUSH2 0x128 PUSH2 0x1E80 JUMP JUMPDEST PUSH2 0x130 PUSH2 0x21EF JUMP JUMPDEST PUSH1 0x1 PUSH1 0x1 PUSH1 0xA0 SHL SUB SWAP1 DUP2 AND SWAP1 DUP2 ISZERO PUSH2 0x185 JUMPI PUSH1 0x0 SLOAD DUP3 PUSH12 0xFFFFFFFFFFFFFFFFFFFFFFFF PUSH1 0xA0 SHL DUP3 AND OR PUSH1 0x0 SSTORE AND PUSH32 0x8BE0079C531659141344CD1FD0A4F28419497F9722A3DAAFE3B4186F6B6457E0 PUSH1 0x0 DUP1 LOG3 DUP1 RETURN JUMPDEST PUSH1 0x40 MLOAD PUSH4 0x1E4FBDF7 PUSH1 0xE0 SHL DUP2 MSTORE PUSH1 0x4 DUP2 ADD DUP5 SWAP1 MSTORE PUSH1 0x24 SWAP1 REVERT JUMPDEST DUP1 REVERT JUMPDEST POP CALLVALUE PUSH2 0x19E JUMPI DUP1 PUSH1 0x3 NOT CALLDATASIZE ADD SLT PUSH2 0x19E JUMPI PUSH1 0x3 SLOAD PUSH1 0x40 MLOAD PUSH1 0x1 PUSH1 0x1 PUSH1 0xA0 SHL SUB SWAP1 SWAP2 AND DUP2 MSTORE PUSH1 0x20 SWAP1 RETURN JUMPDEST POP CALLVALUE PUSH2 0x19E JUMPI DUP1 PUSH1 0x3 NOT CALLDATASIZE ADD SLT PUSH2 0x19E JUMPI PUSH1 0x4 SLOAD PUSH1 0x40 MLOAD PUSH1 0x1 PUSH1 0x1 PUSH1 0xA0 SHL SUB SWAP1 SWAP2 AND DUP2 MSTORE PUSH1 0x20 SWAP1 RETURN JUMPDEST POP CALLVALUE PUSH2 0x19E JUMPI PUSH1 0x40 CALLDATASIZE PUSH1 0x3 NOT ADD SLT PUSH2 0x19E JUMPI PUSH2 0x20D PUSH2 0x1E80 JUMP JUMPDEST PUSH1 0x2 SLOAD PUSH1 0x40 MLOAD PUSH4 0xC601F7AF PUSH1 0xE0 SHL DUP2 MSTORE PUSH1 0x24 CALLDATALOAD SWAP3 PUSH1 0x1 PUSH1 0x1 PUSH1 0xA0 SHL SUB SWAP3 DUP4 AND SWAP3 PUSH1 0x20 SWAP3 SWAP1 SWAP2 SWAP1 DUP4 DUP2 PUSH1 0x4 DUP2 DUP9 GAS STATICCALL SWAP1 DUP2 ISZERO PUSH2 0x334 JUMPI DUP8 SWAP2 PUSH2 0x300 JUMPI JUMPDEST POP PUSH1 0x40 MLOAD PUSH4 0x24745215 PUSH1 0xE2 SHL DUP2 MSTORE PUSH1 0x4 DUP2 ADD SWAP2 SWAP1 SWAP2 MSTORE CALLER PUSH1 0x24 DUP3 ADD MSTORE SWAP4 DUP4 SWAP1 DUP6 SWAP1 DUP2 DUP1 PUSH1 0x44 DUP2 ADD JUMPDEST SUB SWAP2 GAS STATICCALL SWAP4 DUP5 ISZERO PUSH2 0x2F5 JUMPI PUSH32 0xBCE4BE9B5E0540FC5C565CD30C59B6465D9EB0550F7A36A89128EEB8271B6C72 SWAP5 PUSH2 0x2AF SWAP2 DUP9 SWAP2 PUSH2 0x2C8 JUMPI JUMPDEST POP PUSH2 0x1F03 JUMP JUMPDEST AND SWAP3 DUP4 DUP6 MSTORE PUSH1 0x8 DUP3 MSTORE DUP1 PUSH1 0x40 DUP7 KECCAK256 SSTORE PUSH1 0x40 MLOAD SWAP1 DUP2 MSTORE LOG2 DUP1 RETURN JUMPDEST PUSH2 0x2E8 SWAP2 POP DUP6 RETURNDATASIZE DUP8 GT PUSH2 0x2EE JUMPI JUMPDEST PUSH2 0x2E0 DUP2 DUP4 PUSH2 0x1D89 JUMP JUMPDEST DUP2 ADD SWAP1 PUSH2 0x1EEB JUMP JUMPDEST CODESIZE PUSH2 0x2A9 JUMP JUMPDEST POP RETURNDATASIZE PUSH2 0x2D6 JUMP JUMPDEST PUSH1 0x40 MLOAD RETURNDATASIZE DUP9 DUP3 RETURNDATACOPY RETURNDATASIZE SWAP1 REVERT JUMPDEST SWAP1 POP DUP4 DUP2 DUP2 RETURNDATASIZE DUP4 GT PUSH2 0x32D JUMPI JUMPDEST PUSH2 0x317 DUP2 DUP4 PUSH2 0x1D89 JUMP JUMPDEST DUP2 ADD SUB SLT PUSH2 0x328 JUMPI MLOAD PUSH2 0x271 PUSH2 0x249 JUMP JUMPDEST PUSH1 0x0 DUP1 REVERT JUMPDEST POP RETURNDATASIZE PUSH2 0x30D JUMP JUMPDEST PUSH1 0x40 MLOAD RETURNDATASIZE DUP10 DUP3 RETURNDATACOPY RETURNDATASIZE SWAP1 REVERT JUMPDEST POP CALLVALUE PUSH2 0x19E JUMPI PUSH1 0x40 CALLDATASIZE PUSH1 0x3 NOT ADD SLT PUSH2 0x19E JUMPI PUSH1 0x4 CALLDATALOAD PUSH1 0x24 DUP1 CALLDATALOAD PUSH1 0x2 DUP2 LT ISZERO PUSH2 0x5E9 JUMPI PUSH2 0x369 PUSH2 0x21CC JUMP JUMPDEST DUP3 DUP5 MSTORE PUSH1 0x20 PUSH1 0x5 DUP2 MSTORE PUSH1 0x40 DUP6 KECCAK256 SWAP3 PUSH1 0xFF PUSH1 0xB DUP6 ADD SLOAD AND PUSH1 0x8 DUP2 LT ISZERO PUSH2 0x5D6 JUMPI PUSH1 0x2 PUSH2 0x394 SWAP2 EQ PUSH2 0x1F5A JUMP JUMPDEST PUSH1 0x8 DUP5 ADD SLOAD TIMESTAMP GT PUSH2 0x593 JUMPI DUP5 DUP7 MSTORE PUSH1 0x7 DUP3 MSTORE PUSH1 0x40 DUP7 KECCAK256 CALLER PUSH1 0x0 MSTORE DUP3 MSTORE PUSH1 0xFF PUSH1 0x40 PUSH1 0x0 KECCAK256 SLOAD AND PUSH2 0x560 JUMPI PUSH1 0x3 SLOAD PUSH1 0x40 MLOAD PUSH4 0x26D352AB PUSH1 0xE1 SHL DUP2 MSTORE CALLER PUSH1 0x4 DUP3 ADD MSTORE SWAP2 SWAP1 DUP4 SWAP1 DUP4 SWAP1 DUP4 SWAP1 DUP3 SWAP1 PUSH1 0x1 PUSH1 0x1 PUSH1 0xA0 SHL SUB AND GAS STATICCALL SWAP2 DUP3 ISZERO PUSH2 0x334 JUMPI DUP8 SWAP3 PUSH2 0x531 JUMPI JUMPDEST POP DUP2 ISZERO PUSH2 0x4EE JUMPI CALLER DUP8 MSTORE PUSH1 0x8 DUP4 MSTORE PUSH1 0x40 DUP8 KECCAK256 SLOAD PUSH1 0x64 ADD DUP1 PUSH1 0x64 GT PUSH2 0x4DB JUMPI DUP1 DUP4 MUL SWAP3 DUP4 DIV SUB PUSH2 0x4C7 JUMPI POP SWAP2 PUSH1 0x80 SWAP4 SWAP2 PUSH1 0x64 PUSH32 0x2635C84C3A8027A303CA6D6E90B1C4A9604754040372414D244AADFA64717518 SWAP7 SWAP5 DIV SWAP3 DUP5 DUP9 MSTORE PUSH1 0x7 DUP3 MSTORE PUSH1 0x40 DUP9 KECCAK256 CALLER PUSH1 0x0 MSTORE DUP3 MSTORE PUSH1 0x40 PUSH1 0x0 KECCAK256 PUSH1 0x1 PUSH1 0xFF NOT DUP3 SLOAD AND OR SWAP1 SSTORE PUSH2 0x476 DUP4 PUSH2 0x1DAB JUMP JUMPDEST DUP3 PUSH2 0x4B2 JUMPI PUSH1 0x9 ADD PUSH2 0x489 DUP5 DUP3 SLOAD PUSH2 0x1EC8 JUMP JUMPDEST SWAP1 SSTORE JUMPDEST PUSH1 0x40 MLOAD SWAP4 DUP5 MSTORE CALLER SWAP1 DUP5 ADD MSTORE PUSH2 0x4A0 DUP2 PUSH2 0x1DAB JUMP JUMPDEST PUSH1 0x40 DUP4 ADD MSTORE PUSH1 0x60 DUP3 ADD MSTORE LOG1 PUSH1 0x1 DUP1 SSTORE DUP1 RETURN JUMPDEST PUSH1 0xA ADD PUSH2 0x4C0 DUP5 DUP3 SLOAD PUSH2 0x1EC8 JUMP JUMPDEST SWAP1 SSTORE PUSH2 0x48C JUMP JUMPDEST PUSH4 0x4E487B71 PUSH1 0xE0 SHL PUSH1 0x0 SWAP1 DUP2 MSTORE PUSH1 0x11 PUSH1 0x4 MSTORE REVERT JUMPDEST POP PUSH4 0x4E487B71 PUSH1 0xE0 SHL DUP8 MSTORE PUSH1 0x11 PUSH1 0x4 MSTORE DUP7 REVERT JUMPDEST DUP3 PUSH1 0x1F PUSH1 0x64 SWAP3 PUSH1 0x40 MLOAD SWAP3 PUSH3 0x461BCD PUSH1 0xE5 SHL DUP5 MSTORE PUSH1 0x4 DUP5 ADD MSTORE DUP3 ADD MSTORE PUSH32 0x4D7573742068617665207374616B656420746F6B656E7320746F20766F746500 PUSH1 0x44 DUP3 ADD MSTORE REVERT JUMPDEST SWAP1 SWAP2 POP DUP3 DUP2 DUP2 RETURNDATASIZE DUP4 GT PUSH2 0x559 JUMPI JUMPDEST PUSH2 0x549 DUP2 DUP4 PUSH2 0x1D89 JUMP JUMPDEST DUP2 ADD SUB SLT PUSH2 0x328 JUMPI MLOAD SWAP1 CODESIZE PUSH2 0x3F6 JUMP JUMPDEST POP RETURNDATASIZE PUSH2 0x53F JUMP JUMPDEST SWAP1 PUSH1 0xD PUSH1 0x64 SWAP3 PUSH1 0x40 MLOAD SWAP3 PUSH3 0x461BCD PUSH1 0xE5 SHL DUP5 MSTORE PUSH1 0x4 DUP5 ADD MSTORE DUP3 ADD MSTORE PUSH13 0x105B1C9958591E481D9BDD1959 PUSH1 0x9A SHL PUSH1 0x44 DUP3 ADD MSTORE REVERT JUMPDEST SWAP1 PUSH1 0x17 PUSH1 0x64 SWAP3 PUSH1 0x40 MLOAD SWAP3 PUSH3 0x461BCD PUSH1 0xE5 SHL DUP5 MSTORE PUSH1 0x4 DUP5 ADD MSTORE DUP3 ADD MSTORE PUSH32 0x566F74696E6720706572696F642068617320656E646564000000000000000000 PUSH1 0x44 DUP3 ADD MSTORE REVERT JUMPDEST POP PUSH4 0x4E487B71 PUSH1 0xE0 SHL DUP7 MSTORE PUSH1 0x21 PUSH1 0x4 MSTORE DUP6 REVERT JUMPDEST DUP4 DUP1 REVERT JUMPDEST POP CALLVALUE PUSH2 0x19E JUMPI DUP1 PUSH1 0x3 NOT CALLDATASIZE ADD SLT PUSH2 0x19E JUMPI SLOAD PUSH1 0x40 MLOAD PUSH1 0x1 PUSH1 0x1 PUSH1 0xA0 SHL SUB SWAP1 SWAP2 AND DUP2 MSTORE PUSH1 0x20 SWAP1 RETURN JUMPDEST POP CALLVALUE PUSH2 0x19E JUMPI DUP1 PUSH1 0x3 NOT CALLDATASIZE ADD SLT PUSH2 0x19E JUMPI PUSH2 0x62D PUSH2 0x21EF JUMP JUMPDEST PUSH1 0x0 DUP1 SLOAD PUSH1 0x1 PUSH1 0x1 PUSH1 0xA0 SHL SUB NOT DUP2 AND DUP3 SSTORE PUSH1 0x1 PUSH1 0x1 PUSH1 0xA0 SHL SUB AND PUSH32 0x8BE0079C531659141344CD1FD0A4F28419497F9722A3DAAFE3B4186F6B6457E0 DUP3 DUP1 LOG3 DUP1 RETURN JUMPDEST POP CALLVALUE PUSH2 0x19E JUMPI PUSH1 0x60 CALLDATASIZE PUSH1 0x3 NOT ADD SLT PUSH2 0x19E JUMPI PUSH1 0x4 CALLDATALOAD PUSH8 0xFFFFFFFFFFFFFFFF DUP2 GT PUSH2 0xDAA JUMPI PUSH2 0x6A0 SWAP1 CALLDATASIZE SWAP1 PUSH1 0x4 ADD PUSH2 0x1E13 JUMP JUMPDEST PUSH2 0x6A8 PUSH2 0x1E6A JUMP JUMPDEST SWAP1 PUSH1 0x44 CALLDATALOAD SWAP1 PUSH8 0xFFFFFFFFFFFFFFFF DUP3 GT PUSH2 0x5E9 JUMPI CALLDATASIZE PUSH1 0x23 DUP4 ADD SLT ISZERO PUSH2 0x5E9 JUMPI DUP2 PUSH1 0x4 ADD CALLDATALOAD SWAP2 PUSH8 0xFFFFFFFFFFFFFFFF DUP4 GT PUSH2 0xD96 JUMPI DUP3 PUSH1 0x5 SHL PUSH1 0x40 MLOAD SWAP4 PUSH2 0x6F1 PUSH1 0x20 DUP4 ADD DUP7 PUSH2 0x1D89 JUMP JUMPDEST DUP5 MSTORE PUSH1 0x24 PUSH1 0x20 DUP6 ADD SWAP2 DUP4 ADD ADD SWAP2 CALLDATASIZE DUP4 GT PUSH2 0xD92 JUMPI PUSH1 0x24 ADD SWAP1 JUMPDEST DUP3 DUP3 LT PUSH2 0xD82 JUMPI POP POP PUSH1 0x2 SLOAD PUSH1 0x40 MLOAD PUSH4 0x13AA1D4D PUSH1 0xE1 SHL DUP2 MSTORE PUSH1 0x1 PUSH1 0x1 PUSH1 0xA0 SHL SUB SWAP1 SWAP2 AND SWAP2 POP PUSH1 0x20 DUP2 PUSH1 0x4 DUP2 DUP6 GAS STATICCALL SWAP1 DUP2 ISZERO PUSH2 0x2F5 JUMPI DUP7 SWAP2 PUSH2 0xD4E JUMPI JUMPDEST POP PUSH1 0x40 MLOAD PUSH4 0x24745215 PUSH1 0xE2 SHL DUP2 MSTORE PUSH1 0x4 DUP2 ADD SWAP2 SWAP1 SWAP2 MSTORE CALLER PUSH1 0x24 DUP3 ADD MSTORE SWAP1 PUSH1 0x20 SWAP1 DUP3 SWAP1 DUP2 DUP1 PUSH1 0x44 DUP2 ADD JUMPDEST SUB SWAP2 GAS STATICCALL DUP1 ISZERO PUSH2 0xD43 JUMPI PUSH2 0x78A SWAP2 DUP7 SWAP2 PUSH2 0xD2A JUMPI POP PUSH2 0x1F03 JUMP JUMPDEST DUP2 MLOAD ISZERO PUSH2 0xCDA JUMPI PUSH1 0x6 SLOAD SWAP3 PUSH2 0x79E DUP5 PUSH2 0x21BD JUMP JUMPDEST PUSH1 0x6 SSTORE PUSH1 0x40 MLOAD PUSH1 0x20 DUP2 ADD SWAP1 PUSH2 0x7CB PUSH1 0x20 DUP3 DUP7 MLOAD PUSH2 0x7BE DUP2 DUP8 DUP6 DUP12 ADD PUSH2 0x1DCB JUMP JUMPDEST DUP2 ADD SUB DUP1 DUP5 MSTORE ADD DUP3 PUSH2 0x1D89 JUMP JUMPDEST PUSH2 0x81D PUSH1 0x40 DUP1 MLOAD DUP1 SWAP4 PUSH2 0x7E7 PUSH1 0x20 DUP4 ADD SWAP7 DUP8 SWAP3 MLOAD SWAP3 DUP4 SWAP2 PUSH2 0x1DCB JUMP JUMPDEST DUP2 ADD PUSH32 0xB6D2DC83590271A7C0A5AB5FBF6A2DAD418BBFD533C253E3D69A6772712809C7 PUSH1 0x20 DUP3 ADD MSTORE SUB PUSH1 0x20 DUP2 ADD DUP5 MSTORE ADD DUP3 PUSH2 0x1D89 JUMP JUMPDEST MLOAD SWAP1 KECCAK256 PUSH1 0x0 DUP6 DUP2 MSTORE PUSH1 0x5 PUSH1 0x20 MSTORE PUSH1 0x40 SWAP1 KECCAK256 DUP6 DUP2 SSTORE PUSH1 0x1 DUP2 ADD DUP1 SLOAD PUSH1 0x1 PUSH1 0x1 PUSH1 0xA8 SHL SUB NOT AND CALLER PUSH1 0x8 SHL PUSH2 0x100 PUSH1 0x1 PUSH1 0xA8 SHL SUB AND OR SWAP1 SSTORE DUP4 MLOAD SWAP1 SWAP3 SWAP2 SWAP1 PUSH8 0xFFFFFFFFFFFFFFFF DUP2 GT PUSH2 0xBD5 JUMPI PUSH2 0x874 PUSH1 0x2 DUP6 ADD SLOAD PUSH2 0x1D3B JUMP JUMPDEST PUSH1 0x1F DUP2 GT PUSH2 0xC93 JUMPI JUMPDEST POP PUSH1 0x20 PUSH1 0x1F DUP3 GT PUSH1 0x1 EQ PUSH2 0xC0E JUMPI SWAP3 PUSH1 0xB SWAP3 DUP3 PUSH2 0x94D SWAP7 SWAP4 PUSH1 0x0 DUP1 MLOAD PUSH1 0x20 PUSH2 0x221C DUP4 CODECOPY DUP2 MLOAD SWAP2 MSTORE SWAP9 SWAP7 PUSH1 0x0 SWAP2 PUSH2 0xC03 JUMPI JUMPDEST POP DUP2 PUSH1 0x1 SHL SWAP2 PUSH1 0x0 NOT SWAP1 PUSH1 0x3 SHL SHR NOT AND OR PUSH1 0x2 DUP5 ADD SSTORE JUMPDEST PUSH1 0x3 DUP4 ADD SSTORE PUSH1 0x4 DUP3 ADD DUP1 SLOAD PUSH1 0x1 PUSH1 0x1 PUSH1 0xA0 SHL SUB NOT AND PUSH1 0x1 PUSH1 0x1 PUSH1 0xA0 SHL SUB SWAP1 SWAP3 AND SWAP2 SWAP1 SWAP2 OR SWAP1 SSTORE PUSH1 0x0 PUSH1 0x5 DUP3 ADD SSTORE PUSH1 0x6 DUP2 ADD DUP1 SLOAD PUSH1 0xFF NOT AND PUSH1 0x1 OR SWAP1 SSTORE TIMESTAMP PUSH1 0x7 DUP3 ADD DUP2 SWAP1 SSTORE PUSH1 0x9 SLOAD PUSH2 0x915 SWAP2 PUSH2 0x1EC8 JUMP JUMPDEST PUSH1 0x8 DUP3 ADD SSTORE ADD PUSH1 0x2 PUSH1 0xFF NOT DUP3 SLOAD AND OR SWAP1 SSTORE PUSH1 0x40 MLOAD SWAP2 DUP3 SWAP2 DUP7 DUP4 MSTORE CALLER PUSH1 0x20 DUP5 ADD MSTORE PUSH1 0x0 PUSH1 0x40 DUP5 ADD MSTORE PUSH1 0x80 PUSH1 0x60 DUP5 ADD MSTORE PUSH1 0x80 DUP4 ADD SWAP1 PUSH2 0x1DEE JUMP JUMPDEST SUB SWAP1 LOG1 PUSH1 0x0 DUP1 MLOAD PUSH1 0x20 PUSH2 0x223C DUP4 CODECOPY DUP2 MLOAD SWAP2 MSTORE PUSH1 0x40 DUP1 MLOAD DUP5 DUP2 MSTORE PUSH1 0x2 PUSH1 0x20 DUP3 ADD MSTORE LOG1 DUP3 JUMPDEST DUP2 MLOAD DUP2 LT ISZERO PUSH2 0xBFF JUMPI DUP3 DUP5 MSTORE PUSH1 0x5 PUSH1 0x20 MSTORE PUSH1 0xC PUSH1 0x40 DUP6 KECCAK256 ADD DUP3 MLOAD DUP3 LT ISZERO PUSH2 0xBEB JUMPI PUSH1 0x20 DUP3 PUSH1 0x5 SHL DUP5 ADD ADD MLOAD SWAP1 PUSH1 0x40 MLOAD SWAP2 DUP3 PUSH1 0x80 DUP2 ADD LT PUSH8 0xFFFFFFFFFFFFFFFF PUSH1 0x80 DUP6 ADD GT OR PUSH2 0xBD5 JUMPI PUSH1 0x80 DUP4 ADD PUSH1 0x40 MSTORE DUP3 MSTORE DUP6 PUSH1 0x20 DUP4 ADD MSTORE PUSH1 0x40 MLOAD DUP1 PUSH1 0x20 DUP2 ADD LT PUSH8 0xFFFFFFFFFFFFFFFF PUSH1 0x20 DUP4 ADD GT OR PUSH2 0xBD5 JUMPI PUSH1 0x20 DUP2 ADD PUSH1 0x40 MSTORE DUP7 DUP2 MSTORE PUSH1 0x40 DUP4 ADD MSTORE DUP6 PUSH1 0x60 DUP4 ADD MSTORE DUP1 SLOAD SWAP1 PUSH9 0x10000000000000000 DUP3 LT ISZERO PUSH2 0xBC1 JUMPI SWAP1 PUSH2 0xA1D SWAP2 PUSH1 0x1 DUP3 ADD DUP2 SSTORE PUSH2 0x1E96 JUMP JUMPDEST PUSH2 0xBAD JUMPI DUP2 MLOAD DUP2 SSTORE PUSH1 0x20 DUP3 ADD MLOAD PUSH1 0x8 DUP2 LT ISZERO PUSH2 0xB99 JUMPI PUSH1 0xFF DUP1 NOT PUSH1 0x1 DUP5 ADD SLOAD AND SWAP2 AND OR PUSH1 0x1 DUP3 ADD SSTORE PUSH1 0x40 DUP3 ADD MLOAD DUP1 MLOAD SWAP1 PUSH8 0xFFFFFFFFFFFFFFFF DUP3 GT PUSH2 0xB85 JUMPI PUSH2 0xA69 PUSH1 0x2 DUP5 ADD SLOAD PUSH2 0x1D3B JUMP JUMPDEST PUSH1 0x1F DUP2 GT PUSH2 0xB41 JUMPI JUMPDEST POP PUSH1 0x20 SWAP1 PUSH1 0x1F DUP4 GT PUSH1 0x1 EQ PUSH2 0xACD JUMPI SWAP3 DUP3 PUSH1 0x60 SWAP4 PUSH1 0x3 SWAP4 PUSH1 0x1 SWAP9 SWAP8 SWAP7 DUP13 SWAP3 PUSH2 0xAC2 JUMPI JUMPDEST POP POP PUSH1 0x0 NOT DUP3 DUP6 SHL SHR NOT AND SWAP1 DUP8 SHL OR PUSH1 0x2 DUP3 ADD SSTORE JUMPDEST ADD SWAP2 ADD MLOAD ISZERO ISZERO PUSH1 0xFF DUP1 NOT DUP4 SLOAD AND SWAP2 AND OR SWAP1 SSTORE ADD PUSH2 0x970 JUMP JUMPDEST ADD MLOAD SWAP1 POP CODESIZE DUP1 PUSH2 0xA95 JUMP JUMPDEST SWAP1 PUSH1 0x2 DUP5 ADD DUP10 MSTORE PUSH1 0x20 DUP10 KECCAK256 SWAP2 DUP10 JUMPDEST PUSH1 0x1F NOT DUP6 AND DUP2 LT PUSH2 0xB29 JUMPI POP DUP4 PUSH1 0x3 SWAP4 PUSH1 0x1 SWAP9 SWAP8 SWAP7 SWAP4 DUP10 SWAP4 PUSH1 0x60 SWAP8 PUSH1 0x1F NOT DUP2 AND LT PUSH2 0xB11 JUMPI JUMPDEST POP POP POP DUP2 SHL ADD PUSH1 0x2 DUP3 ADD SSTORE PUSH2 0xAAA JUMP JUMPDEST ADD MLOAD PUSH1 0x0 NOT DUP4 DUP8 SHL PUSH1 0xF8 AND SHR NOT AND SWAP1 SSTORE CODESIZE DUP1 DUP1 PUSH2 0xB01 JUMP JUMPDEST SWAP2 SWAP3 PUSH1 0x20 PUSH1 0x1 DUP2 SWAP3 DUP7 DUP6 ADD MLOAD DUP2 SSTORE ADD SWAP5 ADD SWAP3 ADD PUSH2 0xADB JUMP JUMPDEST PUSH1 0x2 DUP5 ADD DUP10 MSTORE PUSH1 0x20 DUP10 KECCAK256 PUSH1 0x1F DUP5 ADD PUSH1 0x5 SHR DUP2 ADD PUSH1 0x20 DUP6 LT PUSH2 0xB7E JUMPI JUMPDEST PUSH1 0x1F DUP4 ADD PUSH1 0x5 SHR DUP3 ADD DUP2 LT PUSH2 0xB73 JUMPI POP POP PUSH2 0xA72 JUMP JUMPDEST DUP11 DUP2 SSTORE PUSH1 0x1 ADD PUSH2 0xB5D JUMP JUMPDEST POP DUP1 PUSH2 0xB5D JUMP JUMPDEST PUSH4 0x4E487B71 PUSH1 0xE0 SHL DUP9 MSTORE PUSH1 0x41 PUSH1 0x4 MSTORE PUSH1 0x24 DUP9 REVERT JUMPDEST PUSH4 0x4E487B71 PUSH1 0xE0 SHL DUP8 MSTORE PUSH1 0x21 PUSH1 0x4 MSTORE PUSH1 0x24 DUP8 REVERT JUMPDEST PUSH4 0x4E487B71 PUSH1 0xE0 SHL DUP7 MSTORE PUSH1 0x4 DUP7 SWAP1 MSTORE PUSH1 0x24 DUP7 REVERT JUMPDEST PUSH4 0x4E487B71 PUSH1 0xE0 SHL DUP8 MSTORE PUSH1 0x41 PUSH1 0x4 MSTORE PUSH1 0x24 DUP8 REVERT JUMPDEST PUSH4 0x4E487B71 PUSH1 0xE0 SHL PUSH1 0x0 MSTORE PUSH1 0x41 PUSH1 0x4 MSTORE PUSH1 0x24 PUSH1 0x0 REVERT JUMPDEST PUSH4 0x4E487B71 PUSH1 0xE0 SHL DUP6 MSTORE PUSH1 0x32 PUSH1 0x4 MSTORE PUSH1 0x24 DUP6 REVERT JUMPDEST DUP4 DUP1 RETURN JUMPDEST SWAP1 POP DUP7 ADD MLOAD CODESIZE PUSH2 0x8AE JUMP JUMPDEST PUSH1 0x2 DUP6 ADD PUSH1 0x0 MSTORE PUSH1 0x20 PUSH1 0x0 KECCAK256 SWAP1 PUSH1 0x0 JUMPDEST PUSH1 0x1F NOT DUP5 AND DUP2 LT PUSH2 0xC7B JUMPI POP SWAP3 PUSH1 0x1 DUP4 PUSH1 0x0 DUP1 MLOAD PUSH1 0x20 PUSH2 0x221C DUP4 CODECOPY DUP2 MLOAD SWAP2 MSTORE SWAP9 SWAP7 SWAP4 PUSH1 0xB SWAP7 PUSH2 0x94D SWAP10 SWAP7 PUSH1 0x1F NOT DUP2 AND LT PUSH2 0xC62 JUMPI JUMPDEST POP POP DUP2 SHL ADD PUSH1 0x2 DUP5 ADD SSTORE PUSH2 0x8C5 JUMP JUMPDEST DUP9 ADD MLOAD PUSH1 0x0 NOT PUSH1 0xF8 DUP5 PUSH1 0x3 SHL AND SHR NOT AND SWAP1 SSTORE CODESIZE DUP1 PUSH2 0xC53 JUMP JUMPDEST SWAP1 SWAP2 PUSH1 0x20 PUSH1 0x1 DUP2 SWAP3 DUP6 DUP12 ADD MLOAD DUP2 SSTORE ADD SWAP4 ADD SWAP2 ADD PUSH2 0xC1E JUMP JUMPDEST PUSH1 0x2 DUP6 ADD PUSH1 0x0 MSTORE PUSH1 0x20 PUSH1 0x0 KECCAK256 PUSH1 0x1F DUP4 ADD PUSH1 0x5 SHR DUP2 ADD PUSH1 0x20 DUP5 LT PUSH2 0xCD3 JUMPI JUMPDEST PUSH1 0x1F DUP4 ADD PUSH1 0x5 SHR DUP3 ADD DUP2 LT PUSH2 0xCC7 JUMPI POP POP PUSH2 0x87D JUMP JUMPDEST PUSH1 0x0 DUP2 SSTORE PUSH1 0x1 ADD PUSH2 0xCB1 JUMP JUMPDEST POP DUP1 PUSH2 0xCB1 JUMP JUMPDEST PUSH1 0x40 MLOAD PUSH3 0x461BCD PUSH1 0xE5 SHL DUP2 MSTORE PUSH1 0x20 PUSH1 0x4 DUP3 ADD MSTORE PUSH1 0x22 PUSH1 0x24 DUP3 ADD MSTORE PUSH32 0x4174206C65617374206F6E65206D696C6573746F6E6520697320726571756972 PUSH1 0x44 DUP3 ADD MSTORE PUSH2 0x1959 PUSH1 0xF2 SHL PUSH1 0x64 DUP3 ADD MSTORE PUSH1 0x84 SWAP1 REVERT JUMPDEST PUSH2 0x2E8 SWAP2 POP PUSH1 0x20 RETURNDATASIZE PUSH1 0x20 GT PUSH2 0x2EE JUMPI PUSH2 0x2E0 DUP2 DUP4 PUSH2 0x1D89 JUMP JUMPDEST PUSH1 0x40 MLOAD RETURNDATASIZE DUP8 DUP3 RETURNDATACOPY RETURNDATASIZE SWAP1 REVERT JUMPDEST SWAP1 POP PUSH1 0x20 DUP2 RETURNDATASIZE PUSH1 0x20 GT PUSH2 0xD7A JUMPI JUMPDEST DUP2 PUSH2 0xD69 PUSH1 0x20 SWAP4 DUP4 PUSH2 0x1D89 JUMP JUMPDEST DUP2 ADD SUB SLT PUSH2 0x328 JUMPI MLOAD PUSH2 0x770 PUSH2 0x747 JUMP JUMPDEST RETURNDATASIZE SWAP2 POP PUSH2 0xD5C JUMP JUMPDEST DUP2 CALLDATALOAD DUP2 MSTORE PUSH1 0x20 SWAP2 DUP3 ADD SWAP2 ADD PUSH2 0x70A JUMP JUMPDEST DUP7 DUP1 REVERT JUMPDEST PUSH4 0x4E487B71 PUSH1 0xE0 SHL DUP6 MSTORE PUSH1 0x41 PUSH1 0x4 MSTORE PUSH1 0x24 DUP6 REVERT JUMPDEST POP DUP1 REVERT JUMPDEST POP CALLVALUE PUSH2 0x19E JUMPI PUSH1 0x20 DUP1 PUSH1 0x3 NOT CALLDATASIZE ADD SLT PUSH2 0xDAA JUMPI PUSH1 0x4 CALLDATALOAD SWAP1 PUSH2 0xDCD PUSH2 0x21CC JUMP JUMPDEST PUSH1 0x2 SLOAD PUSH1 0x40 MLOAD PUSH4 0xA217FDDF PUSH1 0xE0 SHL DUP2 MSTORE PUSH1 0x1 PUSH1 0x1 PUSH1 0xA0 SHL SUB SWAP4 SWAP2 DUP5 AND SWAP1 DUP4 DUP2 PUSH1 0x4 DUP2 DUP6 GAS STATICCALL DUP1 ISZERO PUSH2 0x2F5 JUMPI DUP5 SWAP2 DUP8 SWAP2 PUSH2 0x10B4 JUMPI JUMPDEST POP PUSH1 0x40 MLOAD PUSH4 0x24745215 PUSH1 0xE2 SHL DUP2 MSTORE PUSH1 0x4 DUP2 ADD SWAP2 SWAP1 SWAP2 MSTORE CALLER PUSH1 0x24 DUP3 ADD MSTORE SWAP2 DUP3 SWAP1 DUP2 DUP1 PUSH1 0x44 DUP2 ADD JUMPDEST SUB SWAP2 GAS STATICCALL DUP1 ISZERO PUSH2 0xD43 JUMPI PUSH2 0xE41 SWAP2 DUP7 SWAP2 PUSH2 0x109D JUMPI POP PUSH2 0x1F03 JUMP JUMPDEST DUP1 DUP5 MSTORE PUSH1 0x5 DUP3 MSTORE PUSH1 0x40 DUP5 KECCAK256 SWAP1 PUSH1 0xFF PUSH1 0x1 DUP4 ADD SLOAD AND PUSH2 0xE5E DUP2 PUSH2 0x1DAB JUMP JUMPDEST PUSH2 0x105F JUMPI PUSH1 0xFF PUSH1 0xB DUP4 ADD SLOAD AND PUSH1 0x8 DUP2 LT ISZERO PUSH2 0x104B JUMPI PUSH1 0x5 SUB PUSH2 0xFF7 JUMPI PUSH1 0xD DUP3 ADD SWAP4 PUSH1 0xC DUP6 SLOAD SWAP4 ADD SWAP3 DUP4 SLOAD DUP2 LT ISZERO PUSH2 0xFB2 JUMPI PUSH1 0x2 PUSH2 0xE9E PUSH2 0xEA6 SWAP3 DUP7 PUSH2 0x1E96 JUMP JUMPDEST POP ADD SLOAD PUSH2 0x1D3B JUMP JUMPDEST ISZERO PUSH2 0xF6D JUMPI DUP6 SWAP1 PUSH1 0x4 SLOAD AND DUP1 EXTCODESIZE ISZERO PUSH2 0xDAA JUMPI DUP2 DUP1 SWAP2 PUSH1 0x24 PUSH1 0x40 MLOAD DUP1 SWAP5 DUP2 SWAP4 PUSH4 0x31C57B1F PUSH1 0xE1 SHL DUP4 MSTORE DUP9 PUSH1 0x4 DUP5 ADD MSTORE GAS CALL DUP1 ISZERO PUSH2 0xF62 JUMPI PUSH2 0xF4A JUMPI JUMPDEST POP POP PUSH32 0xD33FCD27CBFB73A2D9058C968B560CCB306500BF536133802048489ECC7355E9 PUSH1 0x40 PUSH2 0xF41 SWAP5 PUSH1 0x3 PUSH2 0xF17 DUP9 SLOAD DUP8 PUSH2 0x1E96 JUMP JUMPDEST POP ADD PUSH1 0x1 PUSH1 0xFF NOT DUP3 SLOAD AND OR SWAP1 SSTORE PUSH2 0xF30 DUP8 SLOAD DUP1 SWAP7 PUSH2 0x1E96 JUMP JUMPDEST POP SLOAD DUP3 MLOAD SWAP2 DUP7 DUP4 MSTORE DUP3 ADD MSTORE LOG2 PUSH2 0x21BD JUMP JUMPDEST SWAP1 SSTORE PUSH1 0x1 DUP1 SSTORE DUP1 RETURN JUMPDEST PUSH2 0xF53 SWAP1 PUSH2 0x1D75 JUMP JUMPDEST PUSH2 0xF5E JUMPI DUP5 CODESIZE PUSH2 0xEE1 JUMP JUMPDEST DUP5 DUP1 REVERT JUMPDEST PUSH1 0x40 MLOAD RETURNDATASIZE DUP5 DUP3 RETURNDATACOPY RETURNDATASIZE SWAP1 REVERT JUMPDEST PUSH1 0x40 MLOAD PUSH3 0x461BCD PUSH1 0xE5 SHL DUP2 MSTORE PUSH1 0x4 DUP2 ADD DUP6 SWAP1 MSTORE PUSH1 0x1F PUSH1 0x24 DUP3 ADD MSTORE PUSH32 0x50726F6F66206F662070726F6772657373206E6F74207375626D697474656400 PUSH1 0x44 DUP3 ADD MSTORE PUSH1 0x64 SWAP1 REVERT JUMPDEST PUSH1 0x40 MLOAD PUSH3 0x461BCD PUSH1 0xE5 SHL DUP2 MSTORE PUSH1 0x4 DUP2 ADD DUP7 SWAP1 MSTORE PUSH1 0x1F PUSH1 0x24 DUP3 ADD MSTORE PUSH32 0x416C6C206D696C6573746F6E657320616C72656164792072656C656173656400 PUSH1 0x44 DUP3 ADD MSTORE PUSH1 0x64 SWAP1 REVERT JUMPDEST PUSH1 0x40 MLOAD PUSH3 0x461BCD PUSH1 0xE5 SHL DUP2 MSTORE PUSH1 0x4 DUP2 ADD DUP5 SWAP1 MSTORE PUSH1 0x26 PUSH1 0x24 DUP3 ADD MSTORE PUSH32 0x50726F706F73616C20776173206E6F7420617070726F76656420616E64206578 PUSH1 0x44 DUP3 ADD MSTORE PUSH6 0x1958DD5D1959 PUSH1 0xD2 SHL PUSH1 0x64 DUP3 ADD MSTORE PUSH1 0x84 SWAP1 REVERT JUMPDEST PUSH4 0x4E487B71 PUSH1 0xE0 SHL DUP7 MSTORE PUSH1 0x21 PUSH1 0x4 MSTORE PUSH1 0x24 DUP7 REVERT JUMPDEST PUSH1 0x40 MLOAD PUSH3 0x461BCD PUSH1 0xE5 SHL DUP2 MSTORE PUSH1 0x4 DUP2 ADD DUP5 SWAP1 MSTORE PUSH1 0x16 PUSH1 0x24 DUP3 ADD MSTORE PUSH22 0x139BDD081848199D5B991A5B99C81C1C9BDC1BDCD85B PUSH1 0x52 SHL PUSH1 0x44 DUP3 ADD MSTORE PUSH1 0x64 SWAP1 REVERT JUMPDEST PUSH2 0x2E8 SWAP2 POP DUP5 RETURNDATASIZE DUP7 GT PUSH2 0x2EE JUMPI PUSH2 0x2E0 DUP2 DUP4 PUSH2 0x1D89 JUMP JUMPDEST DUP3 DUP2 SWAP4 SWAP3 POP RETURNDATASIZE DUP4 GT PUSH2 0x10DE JUMPI JUMPDEST PUSH2 0x10CB DUP2 DUP4 PUSH2 0x1D89 JUMP JUMPDEST DUP2 ADD SUB SLT PUSH2 0x328 JUMPI MLOAD DUP4 SWAP1 PUSH2 0xE27 PUSH2 0xE01 JUMP JUMPDEST POP RETURNDATASIZE PUSH2 0x10C1 JUMP JUMPDEST POP CALLVALUE PUSH2 0x19E JUMPI DUP1 PUSH1 0x3 NOT CALLDATASIZE ADD SLT PUSH2 0x19E JUMPI PUSH1 0x20 PUSH1 0xA SLOAD PUSH1 0x40 MLOAD SWAP1 DUP2 MSTORE RETURN JUMPDEST POP CALLVALUE PUSH2 0x19E JUMPI DUP1 PUSH1 0x3 NOT CALLDATASIZE ADD SLT PUSH2 0x19E JUMPI PUSH1 0x20 PUSH1 0xB SLOAD PUSH1 0x40 MLOAD SWAP1 DUP2 MSTORE RETURN JUMPDEST POP CALLVALUE PUSH2 0x19E JUMPI PUSH1 0x20 CALLDATASIZE PUSH1 0x3 NOT ADD SLT PUSH2 0x19E JUMPI PUSH2 0x113E PUSH1 0x4 CALLDATALOAD PUSH2 0x1FC6 JUMP JUMPDEST DUP1 RETURN JUMPDEST POP CALLVALUE PUSH2 0x19E JUMPI DUP1 PUSH1 0x3 NOT CALLDATASIZE ADD SLT PUSH2 0x19E JUMPI PUSH1 0x20 PUSH1 0x40 MLOAD PUSH1 0x4B DUP2 MSTORE RETURN JUMPDEST POP CALLVALUE PUSH2 0x19E JUMPI PUSH1 0x40 CALLDATASIZE PUSH1 0x3 NOT ADD SLT PUSH2 0x19E JUMPI PUSH1 0x40 PUSH2 0x1179 PUSH2 0x1E6A JUMP JUMPDEST SWAP2 PUSH1 0x4 CALLDATALOAD DUP2 MSTORE PUSH1 0x7 PUSH1 0x20 MSTORE KECCAK256 SWAP1 PUSH1 0x1 DUP1 PUSH1 0xA0 SHL SUB AND PUSH1 0x0 MSTORE PUSH1 0x20 MSTORE PUSH1 0x20 PUSH1 0xFF PUSH1 0x40 PUSH1 0x0 KECCAK256 SLOAD AND PUSH1 0x40 MLOAD SWAP1 ISZERO ISZERO DUP2 MSTORE RETURN JUMPDEST POP CALLVALUE PUSH2 0x19E JUMPI PUSH1 0x20 CALLDATASIZE PUSH1 0x3 NOT ADD SLT PUSH2 0x19E JUMPI PUSH1 0x20 SWAP1 PUSH1 0x40 SWAP1 PUSH1 0x1 PUSH1 0x1 PUSH1 0xA0 SHL SUB PUSH2 0x11D1 PUSH2 0x1E80 JUMP JUMPDEST AND DUP2 MSTORE PUSH1 0x8 DUP4 MSTORE KECCAK256 SLOAD PUSH1 0x40 MLOAD SWAP1 DUP2 MSTORE RETURN JUMPDEST POP CALLVALUE PUSH2 0x19E JUMPI DUP1 PUSH1 0x3 NOT CALLDATASIZE ADD SLT PUSH2 0x19E JUMPI PUSH1 0x2 SLOAD PUSH1 0x40 MLOAD PUSH1 0x1 PUSH1 0x1 PUSH1 0xA0 SHL SUB SWAP1 SWAP2 AND DUP2 MSTORE PUSH1 0x20 SWAP1 RETURN JUMPDEST POP CALLVALUE PUSH2 0x19E JUMPI DUP1 PUSH1 0x3 NOT CALLDATASIZE ADD SLT PUSH2 0x19E JUMPI PUSH1 0x20 PUSH1 0x6 SLOAD PUSH1 0x40 MLOAD SWAP1 DUP2 MSTORE RETURN JUMPDEST POP CALLVALUE PUSH2 0x19E JUMPI PUSH1 0x80 CALLDATASIZE PUSH1 0x3 NOT ADD SLT PUSH2 0x19E JUMPI PUSH8 0xFFFFFFFFFFFFFFFF PUSH1 0x4 CALLDATALOAD DUP2 DUP2 GT PUSH2 0x15FB JUMPI PUSH2 0x125C SWAP1 CALLDATASIZE SWAP1 PUSH1 0x4 ADD PUSH2 0x1E13 JUMP JUMPDEST SWAP1 PUSH2 0x1265 PUSH2 0x1E6A JUMP JUMPDEST SWAP2 PUSH1 0x64 CALLDATALOAD SWAP2 PUSH1 0x2 DUP4 LT ISZERO PUSH2 0xF5E JUMPI PUSH1 0x2 SLOAD PUSH1 0x40 MLOAD PUSH4 0xA217FDDF PUSH1 0xE0 SHL DUP2 MSTORE PUSH1 0x20 SWAP5 SWAP2 PUSH1 0x1 PUSH1 0x1 PUSH1 0xA0 SHL SUB SWAP2 SWAP1 DUP3 AND SWAP1 DUP7 DUP2 PUSH1 0x4 DUP2 DUP6 GAS STATICCALL DUP1 ISZERO PUSH2 0x15F0 JUMPI DUP8 SWAP2 DUP11 SWAP2 PUSH2 0x15BF JUMPI JUMPDEST POP PUSH1 0x40 MLOAD PUSH4 0x24745215 PUSH1 0xE2 SHL DUP2 MSTORE PUSH1 0x4 DUP2 ADD SWAP2 SWAP1 SWAP2 MSTORE CALLER PUSH1 0x24 DUP3 ADD MSTORE SWAP2 DUP3 SWAP1 DUP2 DUP1 PUSH1 0x44 DUP2 ADD JUMPDEST SUB SWAP2 GAS STATICCALL DUP1 ISZERO PUSH2 0x15B4 JUMPI PUSH2 0x12EB SWAP2 DUP10 SWAP2 PUSH2 0x159D JUMPI POP PUSH2 0x1F03 JUMP JUMPDEST PUSH1 0x6 SLOAD SWAP6 PUSH2 0x12F8 DUP8 PUSH2 0x21BD JUMP JUMPDEST PUSH1 0x6 SSTORE PUSH1 0x40 MLOAD DUP7 DUP2 ADD SWAP1 PUSH2 0x1318 DUP9 DUP3 DUP2 PUSH2 0x7BE DUP12 DUP8 DUP2 MLOAD SWAP4 DUP5 SWAP3 ADD PUSH2 0x1DCB JUMP JUMPDEST PUSH2 0x1367 PUSH1 0x40 DUP1 MLOAD DUP1 SWAP4 PUSH2 0x1333 DUP13 DUP4 ADD SWAP7 DUP8 SWAP3 MLOAD SWAP3 DUP4 SWAP2 PUSH2 0x1DCB JUMP JUMPDEST DUP2 ADD PUSH32 0xB6D2DC83590271A7C0A5AB5FBF6A2DAD418BBFD533C253E3D69A6772712809C7 DUP13 DUP3 ADD MSTORE SUB DUP11 DUP2 ADD DUP5 MSTORE ADD DUP3 PUSH2 0x1D89 JUMP JUMPDEST MLOAD SWAP1 KECCAK256 PUSH1 0x0 DUP9 DUP2 MSTORE PUSH1 0x5 DUP9 MSTORE PUSH1 0x40 SWAP1 KECCAK256 DUP9 DUP2 SSTORE PUSH1 0x1 DUP1 DUP3 ADD DUP1 SLOAD PUSH1 0x1 PUSH1 0x1 PUSH1 0xA8 SHL SUB NOT AND CALLER PUSH1 0x8 SHL PUSH2 0x100 PUSH1 0x1 PUSH1 0xA8 SHL SUB AND OR DUP3 OR SWAP1 SSTORE DUP8 MLOAD SWAP1 SWAP7 SWAP2 SWAP5 SWAP3 SWAP2 PUSH1 0x2 DUP7 ADD SWAP2 SWAP1 DUP2 GT PUSH2 0xBD5 JUMPI PUSH2 0x13BC DUP3 SLOAD PUSH2 0x1D3B JUMP JUMPDEST PUSH1 0x1F DUP2 GT PUSH2 0x1554 JUMPI JUMPDEST POP DUP10 PUSH1 0x1F DUP3 GT PUSH1 0x1 EQ PUSH2 0x14C2 JUMPI SWAP6 PUSH1 0x0 DUP1 MLOAD PUSH1 0x20 PUSH2 0x223C DUP4 CODECOPY DUP2 MLOAD SWAP2 MSTORE SWAP12 SWAP10 SWAP6 PUSH1 0x2 SWAP10 SWAP6 PUSH1 0x40 SWAP13 SWAP10 SWAP6 DUP12 SWAP6 DUP6 PUSH1 0xB SWAP7 PUSH1 0x0 DUP1 MLOAD PUSH1 0x20 PUSH2 0x221C DUP4 CODECOPY DUP2 MLOAD SWAP2 MSTORE SWAP13 PUSH1 0x0 SWAP2 PUSH2 0x14B7 JUMPI JUMPDEST POP PUSH1 0x0 NOT PUSH1 0x3 DUP4 SWAP1 SHL SHR NOT AND SWAP1 DUP11 SHL OR SWAP1 SSTORE JUMPDEST PUSH1 0x3 DUP5 ADD SSTORE PUSH1 0x4 DUP4 ADD SWAP2 AND PUSH12 0xFFFFFFFFFFFFFFFFFFFFFFFF PUSH1 0xA0 SHL DUP3 SLOAD AND OR SWAP1 SSTORE PUSH1 0x44 CALLDATALOAD PUSH1 0x5 DUP3 ADD SSTORE PUSH1 0x6 DUP2 ADD PUSH2 0x1455 DUP6 PUSH2 0x1DAB JUMP JUMPDEST PUSH1 0xFF NOT SWAP5 PUSH1 0xFF DUP7 DUP4 SLOAD AND SWAP2 AND OR SWAP1 SSTORE TIMESTAMP PUSH1 0x7 DUP3 ADD SSTORE PUSH2 0x1476 PUSH1 0x9 SLOAD TIMESTAMP PUSH2 0x1EC8 JUMP JUMPDEST PUSH1 0x8 DUP3 ADD SSTORE ADD SWAP2 DUP3 SLOAD AND OR SWAP1 SSTORE PUSH2 0x14A8 DUP8 MLOAD SWAP3 DUP4 SWAP3 DUP9 DUP5 MSTORE CALLER DUP8 DUP6 ADD MSTORE DUP10 DUP5 ADD MSTORE PUSH1 0x80 PUSH1 0x60 DUP5 ADD MSTORE PUSH1 0x80 DUP4 ADD SWAP1 PUSH2 0x1DEE JUMP JUMPDEST SUB SWAP1 LOG1 DUP4 MLOAD SWAP3 DUP4 MSTORE DUP3 ADD MSTORE LOG1 DUP1 RETURN JUMPDEST SWAP1 POP DUP12 ADD MLOAD CODESIZE PUSH2 0x140C JUMP JUMPDEST PUSH1 0x1F NOT DUP3 AND SWAP1 DUP4 PUSH1 0x0 MSTORE DUP12 PUSH1 0x0 KECCAK256 SWAP2 PUSH1 0x0 JUMPDEST DUP2 DUP2 LT PUSH2 0x153F JUMPI POP SWAP6 PUSH1 0x40 SWAP13 SWAP10 SWAP6 PUSH1 0x2 SWAP12 SWAP8 SWAP6 PUSH1 0x0 DUP1 MLOAD PUSH1 0x20 PUSH2 0x223C DUP4 CODECOPY DUP2 MLOAD SWAP2 MSTORE SWAP16 SWAP14 SWAP10 SWAP4 DUP7 PUSH1 0x0 DUP1 MLOAD PUSH1 0x20 PUSH2 0x221C DUP4 CODECOPY DUP2 MLOAD SWAP2 MSTORE SWAP13 SWAP7 DUP16 SWAP10 SWAP3 PUSH1 0xB SWAP10 DUP14 SWAP5 LT PUSH2 0x1526 JUMPI JUMPDEST POP POP DUP2 SHL ADD SWAP1 SSTORE PUSH2 0x141F JUMP JUMPDEST DUP14 ADD MLOAD PUSH1 0x0 NOT PUSH1 0xF8 DUP5 PUSH1 0x3 SHL AND SHR NOT AND SWAP1 SSTORE CODESIZE DUP1 PUSH2 0x151A JUMP JUMPDEST DUP13 DUP4 ADD MLOAD DUP5 SSTORE SWAP3 DUP12 ADD SWAP3 SWAP2 DUP14 ADD SWAP2 DUP14 ADD PUSH2 0x14D4 JUMP JUMPDEST DUP3 PUSH1 0x0 MSTORE DUP11 PUSH1 0x0 KECCAK256 PUSH1 0x1F DUP4 ADD PUSH1 0x5 SHR DUP2 ADD SWAP2 DUP13 DUP5 LT PUSH2 0x1593 JUMPI JUMPDEST PUSH1 0x1F ADD PUSH1 0x5 SHR ADD SWAP1 DUP10 SWAP1 JUMPDEST DUP3 DUP2 LT PUSH2 0x1587 JUMPI POP POP PUSH2 0x13C5 JUMP JUMPDEST PUSH1 0x0 DUP2 SSTORE ADD DUP10 SWAP1 PUSH2 0x1579 JUMP JUMPDEST SWAP1 SWAP2 POP DUP2 SWAP1 PUSH2 0x156E JUMP JUMPDEST PUSH2 0x2E8 SWAP2 POP DUP8 RETURNDATASIZE DUP10 GT PUSH2 0x2EE JUMPI PUSH2 0x2E0 DUP2 DUP4 PUSH2 0x1D89 JUMP JUMPDEST PUSH1 0x40 MLOAD RETURNDATASIZE DUP11 DUP3 RETURNDATACOPY RETURNDATASIZE SWAP1 REVERT JUMPDEST DUP3 DUP2 SWAP4 SWAP3 POP RETURNDATASIZE DUP4 GT PUSH2 0x15E9 JUMPI JUMPDEST PUSH2 0x15D6 DUP2 DUP4 PUSH2 0x1D89 JUMP JUMPDEST DUP2 ADD SUB SLT PUSH2 0x328 JUMPI MLOAD DUP7 SWAP1 PUSH2 0x12D1 PUSH2 0x12AB JUMP JUMPDEST POP RETURNDATASIZE PUSH2 0x15CC JUMP JUMPDEST PUSH1 0x40 MLOAD RETURNDATASIZE DUP12 DUP3 RETURNDATACOPY RETURNDATASIZE SWAP1 REVERT JUMPDEST DUP3 DUP1 REVERT JUMPDEST POP CALLVALUE PUSH2 0x19E JUMPI PUSH1 0x40 CALLDATASIZE PUSH1 0x3 NOT ADD SLT PUSH2 0x19E JUMPI PUSH1 0x2 SLOAD PUSH1 0x40 MLOAD PUSH4 0xC601F7AF PUSH1 0xE0 SHL DUP2 MSTORE PUSH1 0x24 CALLDATALOAD SWAP2 PUSH1 0x20 SWAP2 PUSH1 0x1 PUSH1 0x1 PUSH1 0xA0 SHL SUB SWAP1 SWAP2 AND SWAP1 DUP3 DUP2 PUSH1 0x4 DUP2 DUP6 GAS STATICCALL DUP1 ISZERO PUSH2 0xD43 JUMPI DUP4 SWAP2 DUP7 SWAP2 PUSH2 0x170D JUMPI JUMPDEST POP PUSH1 0x40 MLOAD PUSH4 0x24745215 PUSH1 0xE2 SHL DUP2 MSTORE PUSH1 0x4 DUP2 ADD SWAP2 SWAP1 SWAP2 MSTORE CALLER PUSH1 0x24 DUP3 ADD MSTORE SWAP2 DUP3 SWAP1 DUP2 DUP1 PUSH1 0x44 DUP2 ADD JUMPDEST SUB SWAP2 GAS STATICCALL DUP1 ISZERO PUSH2 0x1702 JUMPI PUSH2 0x168B SWAP2 DUP6 SWAP2 PUSH2 0x16EB JUMPI POP PUSH2 0x1F03 JUMP JUMPDEST PUSH1 0x64 DUP3 GT PUSH2 0x16A7 JUMPI PUSH1 0x5 SWAP1 PUSH1 0x4 CALLDATALOAD DUP5 MSTORE MSTORE PUSH1 0xE PUSH1 0x40 DUP4 KECCAK256 ADD SSTORE DUP1 RETURN JUMPDEST PUSH1 0x64 SWAP1 PUSH1 0x40 MLOAD SWAP1 PUSH3 0x461BCD PUSH1 0xE5 SHL DUP3 MSTORE PUSH1 0x4 DUP3 ADD MSTORE PUSH1 0x1C PUSH1 0x24 DUP3 ADD MSTORE PUSH32 0x5269736B2073636F72652063616E6E6F74206578636565642031303000000000 PUSH1 0x44 DUP3 ADD MSTORE REVERT JUMPDEST PUSH2 0x2E8 SWAP2 POP DUP4 RETURNDATASIZE DUP6 GT PUSH2 0x2EE JUMPI PUSH2 0x2E0 DUP2 DUP4 PUSH2 0x1D89 JUMP JUMPDEST PUSH1 0x40 MLOAD RETURNDATASIZE DUP7 DUP3 RETURNDATACOPY RETURNDATASIZE SWAP1 REVERT JUMPDEST DUP3 DUP2 SWAP4 SWAP3 POP RETURNDATASIZE DUP4 GT PUSH2 0x1737 JUMPI JUMPDEST PUSH2 0x1724 DUP2 DUP4 PUSH2 0x1D89 JUMP JUMPDEST DUP2 ADD SUB SLT PUSH2 0x328 JUMPI MLOAD DUP3 SWAP1 PUSH2 0x1671 PUSH2 0x164B JUMP JUMPDEST POP RETURNDATASIZE PUSH2 0x171A JUMP JUMPDEST POP CALLVALUE PUSH2 0x19E JUMPI PUSH1 0x20 DUP1 PUSH1 0x3 NOT CALLDATASIZE ADD SLT PUSH2 0xDAA JUMPI PUSH1 0x4 CALLDATALOAD SWAP1 PUSH2 0x175D PUSH2 0x21CC JUMP JUMPDEST DUP2 DUP4 MSTORE PUSH1 0x5 DUP2 MSTORE PUSH1 0x40 DUP4 KECCAK256 PUSH1 0xB DUP2 ADD PUSH1 0xFF SWAP1 DUP2 DUP2 SLOAD AND PUSH1 0x8 DUP2 LT ISZERO PUSH2 0xB99 JUMPI PUSH1 0x2 EQ DUP1 PUSH2 0x1B31 JUMPI JUMPDEST PUSH2 0x1B23 JUMPI JUMPDEST DUP1 SLOAD DUP3 DUP2 AND PUSH1 0x8 DUP2 LT ISZERO PUSH2 0x1B0F JUMPI PUSH1 0x3 SUB PUSH2 0x1ACA JUMPI DUP3 DUP2 PUSH1 0x8 SHR AND PUSH2 0x1A85 JUMPI PUSH1 0x4B PUSH1 0xE DUP6 ADD SLOAD GT PUSH2 0x1A40 JUMPI PUSH2 0x105 SWAP1 PUSH2 0xFFFF NOT AND OR SWAP1 SSTORE PUSH1 0x1 SWAP2 DUP6 DUP3 PUSH1 0x1 DUP4 ADD SLOAD AND PUSH2 0x17D5 DUP2 PUSH2 0x1DAB JUMP JUMPDEST DUP1 PUSH2 0x18DF JUMPI POP SWAP3 SWAP2 SWAP1 DUP4 SWAP1 DUP5 PUSH1 0xC DUP3 ADD SWAP5 DUP6 SLOAD SWAP6 JUMPDEST DUP7 DUP4 LT PUSH2 0x18B3 JUMPI POP POP PUSH1 0x4 DUP1 SLOAD SWAP3 ADD SLOAD PUSH1 0x1 PUSH1 0x1 PUSH1 0xA0 SHL SUB SWAP3 DUP4 AND SWAP3 AND SWAP1 POP DUP2 EXTCODESIZE ISZERO PUSH2 0x18AF JUMPI DUP6 PUSH1 0x84 SWAP3 DUP2 SWAP6 PUSH1 0x40 MLOAD SWAP8 DUP9 SWAP7 DUP8 SWAP6 PUSH4 0xA7932B1 PUSH1 0xE2 SHL DUP8 MSTORE DUP14 PUSH1 0x4 DUP9 ADD MSTORE PUSH1 0x24 DUP8 ADD MSTORE PUSH1 0x44 DUP7 ADD MSTORE AND PUSH1 0x64 DUP5 ADD MSTORE GAS CALL DUP1 ISZERO PUSH2 0xF62 JUMPI PUSH2 0x189B JUMPI JUMPDEST POP POP PUSH1 0x0 DUP1 MLOAD PUSH1 0x20 PUSH2 0x223C DUP4 CODECOPY DUP2 MLOAD SWAP2 MSTORE SWAP2 PUSH1 0x5 PUSH1 0x40 SWAP3 JUMPDEST PUSH32 0x712AE1383F79AC853F8D882153778E0260EF8F03B504E2866E0593E04D2B291F DUP2 DUP6 MLOAD DUP6 DUP2 MSTORE LOG1 DUP4 MLOAD SWAP3 DUP4 MSTORE DUP3 ADD MSTORE LOG1 PUSH1 0x1 DUP1 SSTORE DUP1 RETURN JUMPDEST PUSH2 0x18A4 SWAP1 PUSH2 0x1D75 JUMP JUMPDEST PUSH2 0x15FB JUMPI DUP3 CODESIZE PUSH2 0x184B JUMP JUMPDEST DUP6 DUP1 REVERT JUMPDEST SWAP2 SWAP5 SWAP6 SWAP7 POP PUSH2 0x18D0 DUP2 SWAP4 SWAP5 PUSH2 0x18C8 DUP8 DUP6 PUSH2 0x1E96 JUMP JUMPDEST POP SLOAD SWAP1 PUSH2 0x1EC8 JUMP JUMPDEST SWAP5 ADD SWAP1 SWAP2 DUP10 SWAP7 SWAP6 SWAP5 SWAP4 SWAP3 PUSH2 0x17EA JUMP JUMPDEST PUSH1 0x1 SWAP2 SWAP5 POP PUSH2 0x18F0 DUP2 SWAP5 SWAP4 SWAP5 PUSH2 0x1DAB JUMP JUMPDEST EQ PUSH2 0x1913 JUMPI JUMPDEST POP POP POP PUSH1 0x0 DUP1 MLOAD PUSH1 0x20 PUSH2 0x223C DUP4 CODECOPY DUP2 MLOAD SWAP2 MSTORE SWAP2 PUSH1 0x5 PUSH1 0x40 SWAP3 PUSH2 0x1863 JUMP JUMPDEST PUSH1 0x6 DUP3 ADD SLOAD AND PUSH2 0x1922 DUP2 PUSH2 0x1DAB JUMP JUMPDEST PUSH2 0x19AA JUMPI PUSH1 0x1 DUP1 PUSH1 0xA0 SHL SUB SWAP1 PUSH1 0x5 DUP3 PUSH1 0x4 SLOAD AND SWAP3 PUSH1 0x4 DUP4 ADD SLOAD AND SWAP2 ADD SLOAD DUP3 EXTCODESIZE ISZERO PUSH2 0x5E9 JUMPI PUSH1 0x44 DUP5 SWAP3 DUP4 PUSH1 0x40 MLOAD SWAP6 DUP7 SWAP5 DUP6 SWAP4 PUSH4 0xF3FEF3A3 PUSH1 0xE0 SHL DUP6 MSTORE PUSH1 0x4 DUP6 ADD MSTORE PUSH1 0x24 DUP5 ADD MSTORE GAS CALL DUP1 ISZERO PUSH2 0xF62 JUMPI PUSH2 0x1996 JUMPI JUMPDEST POP POP PUSH1 0x0 DUP1 MLOAD PUSH1 0x20 PUSH2 0x223C DUP4 CODECOPY DUP2 MLOAD SWAP2 MSTORE SWAP2 PUSH1 0x5 PUSH1 0x40 SWAP3 JUMPDEST SWAP3 DUP6 SWAP3 SWAP5 POP PUSH2 0x18F6 JUMP JUMPDEST PUSH2 0x199F SWAP1 PUSH2 0x1D75 JUMP JUMPDEST PUSH2 0x15FB JUMPI DUP3 CODESIZE PUSH2 0x1974 JUMP JUMPDEST PUSH1 0x4 DUP1 SLOAD SWAP1 DUP3 ADD SLOAD PUSH1 0x5 SWAP1 SWAP3 ADD SLOAD PUSH1 0x1 PUSH1 0x1 PUSH1 0xA0 SHL SUB SWAP2 DUP3 AND SWAP4 SWAP3 SWAP1 SWAP2 AND DUP4 EXTCODESIZE ISZERO PUSH2 0x15FB JUMPI PUSH1 0x44 SWAP1 DUP4 PUSH1 0x40 MLOAD SWAP6 DUP7 SWAP5 DUP6 SWAP4 PUSH4 0x6B091F9 PUSH1 0xE0 SHL DUP6 MSTORE PUSH1 0x4 DUP6 ADD MSTORE PUSH1 0x24 DUP5 ADD MSTORE GAS CALL DUP1 ISZERO PUSH2 0x1702 JUMPI PUSH2 0x1A17 JUMPI JUMPDEST POP PUSH1 0x0 DUP1 MLOAD PUSH1 0x20 PUSH2 0x223C DUP4 CODECOPY DUP2 MLOAD SWAP2 MSTORE SWAP2 PUSH1 0x5 PUSH1 0x40 SWAP3 PUSH2 0x198C JUMP JUMPDEST SWAP2 PUSH1 0x5 PUSH1 0x40 SWAP3 SWAP5 PUSH2 0x1A36 PUSH1 0x0 DUP1 MLOAD PUSH1 0x20 PUSH2 0x223C DUP4 CODECOPY DUP2 MLOAD SWAP2 MSTORE SWAP6 PUSH2 0x1D75 JUMP JUMPDEST SWAP5 SWAP3 POP POP SWAP2 PUSH2 0x19FC JUMP JUMPDEST PUSH1 0x40 MLOAD PUSH3 0x461BCD PUSH1 0xE5 SHL DUP2 MSTORE PUSH1 0x4 DUP2 ADD DUP7 SWAP1 MSTORE PUSH1 0x19 PUSH1 0x24 DUP3 ADD MSTORE PUSH32 0x4149207269736B2073636F726520697320746F6F206869676800000000000000 PUSH1 0x44 DUP3 ADD MSTORE PUSH1 0x64 SWAP1 REVERT JUMPDEST PUSH1 0x40 MLOAD PUSH3 0x461BCD PUSH1 0xE5 SHL DUP2 MSTORE PUSH1 0x4 DUP2 ADD DUP7 SWAP1 MSTORE PUSH1 0x19 PUSH1 0x24 DUP3 ADD MSTORE PUSH32 0x50726F706F73616C20616C726561647920657865637574656400000000000000 PUSH1 0x44 DUP3 ADD MSTORE PUSH1 0x64 SWAP1 REVERT JUMPDEST PUSH1 0x40 MLOAD PUSH3 0x461BCD PUSH1 0xE5 SHL DUP2 MSTORE PUSH1 0x4 DUP2 ADD DUP7 SWAP1 MSTORE PUSH1 0x18 PUSH1 0x24 DUP3 ADD MSTORE PUSH32 0x50726F706F73616C206973206E6F7420617070726F7665640000000000000000 PUSH1 0x44 DUP3 ADD MSTORE PUSH1 0x64 SWAP1 REVERT JUMPDEST PUSH4 0x4E487B71 PUSH1 0xE0 SHL DUP9 MSTORE PUSH1 0x21 PUSH1 0x4 MSTORE PUSH1 0x24 DUP9 REVERT JUMPDEST PUSH2 0x1B2C DUP6 PUSH2 0x1FC6 JUMP JUMPDEST PUSH2 0x178A JUMP JUMPDEST POP PUSH1 0x8 DUP4 ADD SLOAD TIMESTAMP GT PUSH2 0x1785 JUMP JUMPDEST POP CALLVALUE PUSH2 0x19E JUMPI DUP1 PUSH1 0x3 NOT CALLDATASIZE ADD SLT PUSH2 0x19E JUMPI PUSH1 0x20 PUSH1 0x9 SLOAD PUSH1 0x40 MLOAD SWAP1 DUP2 MSTORE RETURN JUMPDEST POP CALLVALUE PUSH2 0x19E JUMPI PUSH1 0x20 CALLDATASIZE PUSH1 0x3 NOT ADD SLT PUSH2 0x19E JUMPI PUSH1 0x4 CALLDATALOAD DUP2 MSTORE PUSH1 0x5 PUSH1 0x20 MSTORE PUSH1 0x40 DUP2 KECCAK256 DUP1 SLOAD PUSH1 0x1 SWAP2 PUSH1 0x1 DUP2 ADD SLOAD SWAP3 PUSH1 0x2 DUP3 ADD DUP6 SWAP2 DUP2 SLOAD SWAP2 PUSH2 0x1B99 DUP4 PUSH2 0x1D3B JUMP JUMPDEST SWAP3 DUP4 PUSH1 0x80 MSTORE PUSH1 0x1 DUP2 AND SWAP1 DUP2 PUSH1 0x0 EQ PUSH2 0x1D19 JUMPI POP PUSH1 0x1 EQ PUSH2 0x1CE3 JUMPI JUMPDEST POP POP POP PUSH1 0x80 SWAP1 SUB PUSH1 0x80 SWAP1 PUSH2 0x1BC7 SWAP2 PUSH2 0x1D89 JUMP JUMPDEST PUSH1 0x3 DUP2 ADD SLOAD SWAP1 PUSH1 0x1 PUSH1 0xA0 SHL PUSH1 0x1 SWAP1 SUB PUSH1 0x4 DUP3 ADD SLOAD AND PUSH1 0x5 DUP3 ADD SLOAD SWAP6 PUSH1 0x6 DUP4 ADD SLOAD PUSH1 0xFF AND PUSH1 0x7 DUP5 ADD SLOAD PUSH1 0x8 DUP6 ADD SLOAD PUSH1 0x9 DUP7 ADD SLOAD SWAP2 PUSH1 0xA DUP8 ADD SLOAD SWAP4 PUSH1 0xB DUP9 ADD SLOAD SWAP12 PUSH1 0xD DUP10 ADD SLOAD SWAP8 PUSH1 0xE DUP11 ADD SLOAD SWAP10 PUSH1 0xF ADD SLOAD SWAP11 PUSH1 0x40 MLOAD SWAP14 DUP15 SWAP14 DUP15 PUSH2 0x220 SWAP3 DUP4 SWAP3 DUP3 MSTORE PUSH1 0xFF DUP2 AND PUSH2 0x1C33 SWAP1 PUSH2 0x1DAB JUMP JUMPDEST PUSH1 0xFF DUP2 AND PUSH1 0x20 DUP4 ADD MSTORE PUSH1 0x8 SHR PUSH1 0x1 PUSH1 0x1 PUSH1 0xA0 SHL SUB AND PUSH1 0x40 DUP3 ADD MSTORE PUSH1 0x60 ADD MSTORE PUSH2 0x1C5E SWAP1 DUP15 ADD PUSH1 0x80 PUSH2 0x1DEE JUMP JUMPDEST SWAP13 PUSH1 0x80 ADD MSTORE PUSH1 0xA0 DUP14 ADD MSTORE PUSH1 0xC0 DUP13 ADD MSTORE PUSH2 0x1C76 DUP2 PUSH2 0x1DAB JUMP JUMPDEST PUSH1 0xE0 DUP12 ADD MSTORE PUSH2 0x100 DUP11 ADD MSTORE PUSH2 0x120 DUP10 ADD MSTORE PUSH2 0x140 DUP9 ADD MSTORE PUSH2 0x160 DUP8 ADD MSTORE PUSH1 0xFF DUP8 AND PUSH1 0x8 GT ISZERO PUSH2 0x1CCF JUMPI POP PUSH1 0xFF DUP7 DUP2 DUP8 SWAP9 AND PUSH2 0x180 DUP9 ADD MSTORE PUSH1 0x8 SHR AND ISZERO ISZERO PUSH2 0x1A0 DUP7 ADD MSTORE PUSH2 0x1C0 DUP6 ADD MSTORE PUSH2 0x1E0 DUP5 ADD MSTORE PUSH2 0x200 DUP4 ADD MSTORE SUB SWAP1 RETURN JUMPDEST PUSH4 0x4E487B71 PUSH1 0xE0 SHL DUP2 MSTORE PUSH1 0x21 PUSH1 0x4 MSTORE PUSH1 0x24 SWAP1 REVERT JUMPDEST DUP8 MSTORE PUSH1 0x20 DUP8 KECCAK256 SWAP2 SWAP3 POP DUP7 SWAP2 JUMPDEST DUP4 DUP4 LT PUSH2 0x1D05 JUMPI POP POP PUSH1 0xA0 ADD SWAP1 POP CODESIZE DUP1 DUP1 PUSH2 0x1BB4 JUMP JUMPDEST DUP1 SLOAD PUSH1 0xA0 DUP5 ADD MSTORE PUSH1 0x20 SWAP1 SWAP3 ADD SWAP2 DUP2 ADD PUSH2 0x1CEF JUMP JUMPDEST SWAP3 POP POP POP PUSH1 0x20 SWAP3 POP PUSH1 0xFF NOT AND DUP3 PUSH1 0x80 ADD MSTORE ISZERO ISZERO PUSH1 0x5 SHL PUSH1 0x80 ADD ADD CODESIZE DUP1 DUP1 PUSH2 0x1BB4 JUMP JUMPDEST SWAP1 PUSH1 0x1 DUP3 DUP2 SHR SWAP3 AND DUP1 ISZERO PUSH2 0x1D6B JUMPI JUMPDEST PUSH1 0x20 DUP4 LT EQ PUSH2 0x1D55 JUMPI JUMP JUMPDEST PUSH4 0x4E487B71 PUSH1 0xE0 SHL PUSH1 0x0 MSTORE PUSH1 0x22 PUSH1 0x4 MSTORE PUSH1 0x24 PUSH1 0x0 REVERT JUMPDEST SWAP2 PUSH1 0x7F AND SWAP2 PUSH2 0x1D4A JUMP JUMPDEST PUSH8 0xFFFFFFFFFFFFFFFF DUP2 GT PUSH2 0xBD5 JUMPI PUSH1 0x40 MSTORE JUMP JUMPDEST SWAP1 PUSH1 0x1F DUP1 NOT SWAP2 ADD AND DUP2 ADD SWAP1 DUP2 LT PUSH8 0xFFFFFFFFFFFFFFFF DUP3 GT OR PUSH2 0xBD5 JUMPI PUSH1 0x40 MSTORE JUMP JUMPDEST PUSH1 0x2 GT ISZERO PUSH2 0x1DB5 JUMPI JUMP JUMPDEST PUSH4 0x4E487B71 PUSH1 0xE0 SHL PUSH1 0x0 MSTORE PUSH1 0x21 PUSH1 0x4 MSTORE PUSH1 0x24 PUSH1 0x0 REVERT JUMPDEST PUSH1 0x0 JUMPDEST DUP4 DUP2 LT PUSH2 0x1DDE JUMPI POP POP PUSH1 0x0 SWAP2 ADD MSTORE JUMP JUMPDEST DUP2 DUP2 ADD MLOAD DUP4 DUP3 ADD MSTORE PUSH1 0x20 ADD PUSH2 0x1DCE JUMP JUMPDEST SWAP1 PUSH1 0x20 SWAP2 PUSH2 0x1E07 DUP2 MLOAD DUP1 SWAP3 DUP2 DUP6 MSTORE DUP6 DUP1 DUP7 ADD SWAP2 ADD PUSH2 0x1DCB JUMP JUMPDEST PUSH1 0x1F ADD PUSH1 0x1F NOT AND ADD ADD SWAP1 JUMP JUMPDEST DUP2 PUSH1 0x1F DUP3 ADD SLT ISZERO PUSH2 0x328 JUMPI DUP1 CALLDATALOAD SWAP1 PUSH8 0xFFFFFFFFFFFFFFFF DUP3 GT PUSH2 0xBD5 JUMPI PUSH1 0x40 MLOAD SWAP3 PUSH2 0x1E48 PUSH1 0x1F DUP5 ADD PUSH1 0x1F NOT AND PUSH1 0x20 ADD DUP6 PUSH2 0x1D89 JUMP JUMPDEST DUP3 DUP5 MSTORE PUSH1 0x20 DUP4 DUP4 ADD ADD GT PUSH2 0x328 JUMPI DUP2 PUSH1 0x0 SWAP3 PUSH1 0x20 DUP1 SWAP4 ADD DUP4 DUP7 ADD CALLDATACOPY DUP4 ADD ADD MSTORE SWAP1 JUMP JUMPDEST PUSH1 0x24 CALLDATALOAD SWAP1 PUSH1 0x1 PUSH1 0x1 PUSH1 0xA0 SHL SUB DUP3 AND DUP3 SUB PUSH2 0x328 JUMPI JUMP JUMPDEST PUSH1 0x4 CALLDATALOAD SWAP1 PUSH1 0x1 PUSH1 0x1 PUSH1 0xA0 SHL SUB DUP3 AND DUP3 SUB PUSH2 0x328 JUMPI JUMP JUMPDEST DUP1 SLOAD DUP3 LT ISZERO PUSH2 0x1EB2 JUMPI PUSH1 0x0 MSTORE PUSH1 0x20 PUSH1 0x0 KECCAK256 SWAP1 PUSH1 0x2 SHL ADD SWAP1 PUSH1 0x0 SWAP1 JUMP JUMPDEST PUSH4 0x4E487B71 PUSH1 0xE0 SHL PUSH1 0x0 MSTORE PUSH1 0x32 PUSH1 0x4 MSTORE PUSH1 0x24 PUSH1 0x0 REVERT JUMPDEST SWAP2 SWAP1 DUP3 ADD DUP1 SWAP3 GT PUSH2 0x1ED5 JUMPI JUMP JUMPDEST PUSH4 0x4E487B71 PUSH1 0xE0 SHL PUSH1 0x0 MSTORE PUSH1 0x11 PUSH1 0x4 MSTORE PUSH1 0x24 PUSH1 0x0 REVERT JUMPDEST SWAP1 DUP2 PUSH1 0x20 SWAP2 SUB SLT PUSH2 0x328 JUMPI MLOAD DUP1 ISZERO ISZERO DUP2 SUB PUSH2 0x328 JUMPI SWAP1 JUMP JUMPDEST ISZERO PUSH2 0x1F0A JUMPI JUMP JUMPDEST PUSH1 0x40 MLOAD PUSH3 0x461BCD PUSH1 0xE5 SHL DUP2 MSTORE PUSH1 0x20 PUSH1 0x4 DUP3 ADD MSTORE PUSH1 0x22 PUSH1 0x24 DUP3 ADD MSTORE PUSH32 0x43616C6C657220646F6573206E6F74206861766520726571756972656420726F PUSH1 0x44 DUP3 ADD MSTORE PUSH2 0x6C65 PUSH1 0xF0 SHL PUSH1 0x64 DUP3 ADD MSTORE PUSH1 0x84 SWAP1 REVERT JUMPDEST ISZERO PUSH2 0x1F61 JUMPI JUMP JUMPDEST PUSH1 0x40 MLOAD PUSH3 0x461BCD PUSH1 0xE5 SHL DUP2 MSTORE PUSH1 0x20 PUSH1 0x4 DUP3 ADD MSTORE PUSH1 0x1C PUSH1 0x24 DUP3 ADD MSTORE PUSH32 0x50726F706F73616C206E6F7420696E20766F74696E6720737461746500000000 PUSH1 0x44 DUP3 ADD MSTORE PUSH1 0x64 SWAP1 REVERT JUMPDEST DUP2 ISZERO PUSH2 0x1FB0 JUMPI DIV SWAP1 JUMP JUMPDEST PUSH4 0x4E487B71 PUSH1 0xE0 SHL PUSH1 0x0 MSTORE PUSH1 0x12 PUSH1 0x4 MSTORE PUSH1 0x24 PUSH1 0x0 REVERT JUMPDEST SWAP1 PUSH1 0x0 DUP3 DUP2 MSTORE PUSH1 0x20 SWAP3 PUSH1 0x5 DUP5 MSTORE PUSH1 0x40 SWAP2 DUP3 DUP2 KECCAK256 PUSH1 0xB DUP2 ADD SWAP1 DUP2 SLOAD SWAP3 PUSH1 0xFF DUP5 AND PUSH1 0x8 DUP2 LT ISZERO PUSH2 0x21A9 JUMPI PUSH1 0x2 PUSH2 0x1FFA SWAP2 EQ PUSH2 0x1F5A JUMP JUMPDEST PUSH1 0x8 DUP3 ADD SLOAD TIMESTAMP GT ISZERO PUSH2 0x2165 JUMPI PUSH1 0x3 SLOAD DUP7 MLOAD PUSH4 0x18160DDD PUSH1 0xE0 SHL DUP2 MSTORE SWAP9 PUSH1 0x4 SWAP6 SWAP1 SWAP5 SWAP4 SWAP3 SWAP2 DUP6 SWAP1 DUP12 SWAP1 DUP9 SWAP1 DUP3 SWAP1 PUSH1 0x1 PUSH1 0x1 PUSH1 0xA0 SHL SUB AND GAS STATICCALL SWAP10 DUP11 ISZERO PUSH2 0x215B JUMPI DUP3 SWAP11 PUSH2 0x212C JUMPI JUMPDEST POP PUSH2 0x2053 PUSH1 0xA PUSH1 0x9 DUP6 ADD SLOAD SWAP5 ADD SLOAD DUP5 PUSH2 0x1EC8 JUMP JUMPDEST SWAP10 PUSH1 0x64 DUP12 MUL DUP12 DUP2 DIV PUSH1 0x64 EQ DUP13 ISZERO OR ISZERO PUSH2 0x2119 JUMPI SWAP1 PUSH2 0x2070 SWAP2 PUSH2 0x1FA6 JUMP JUMPDEST PUSH1 0xA SLOAD GT PUSH2 0x20F0 JUMPI POP PUSH1 0x64 DUP3 MUL SWAP2 DUP1 DUP4 DIV PUSH1 0x64 EQ SWAP1 ISZERO OR ISZERO PUSH2 0x20DD JUMPI POP PUSH1 0x0 DUP1 MLOAD PUSH1 0x20 PUSH2 0x223C DUP4 CODECOPY DUP2 MLOAD SWAP2 MSTORE SWAP7 SWAP8 PUSH2 0x20A7 SWAP2 PUSH2 0x1FA6 JUMP JUMPDEST PUSH1 0xB SLOAD GT PUSH2 0x20C8 JUMPI PUSH1 0x3 DUP1 SWAP4 POP PUSH1 0xFF NOT DUP3 SLOAD AND OR SWAP1 SSTORE DUP4 MLOAD SWAP3 DUP4 MSTORE DUP3 ADD MSTORE LOG1 JUMP JUMPDEST DUP1 SLOAD PUSH1 0xFF NOT AND DUP4 OR SWAP1 SSTORE DUP4 MLOAD SWAP3 DUP4 MSTORE DUP3 ADD MSTORE LOG1 JUMP JUMPDEST PUSH4 0x4E487B71 PUSH1 0xE0 SHL DUP2 MSTORE PUSH1 0x11 DUP6 MSTORE PUSH1 0x24 SWAP1 REVERT JUMPDEST PUSH1 0xFF NOT AND DUP6 OR SWAP1 SWAP3 SSTORE POP POP DUP4 MLOAD SWAP3 DUP4 MSTORE DUP3 ADD MSTORE SWAP2 SWAP3 POP PUSH1 0x0 DUP1 MLOAD PUSH1 0x20 PUSH2 0x223C DUP4 CODECOPY DUP2 MLOAD SWAP2 MSTORE SWAP2 LOG1 JUMP JUMPDEST PUSH4 0x4E487B71 PUSH1 0xE0 SHL DUP5 MSTORE PUSH1 0x11 DUP9 MSTORE PUSH1 0x24 DUP5 REVERT JUMPDEST SWAP1 SWAP10 POP DUP5 DUP2 DUP2 RETURNDATASIZE DUP4 GT PUSH2 0x2154 JUMPI JUMPDEST PUSH2 0x2144 DUP2 DUP4 PUSH2 0x1D89 JUMP JUMPDEST DUP2 ADD SUB SLT PUSH2 0xDAA JUMPI MLOAD SWAP9 CODESIZE PUSH2 0x203F JUMP JUMPDEST POP RETURNDATASIZE PUSH2 0x213A JUMP JUMPDEST DUP9 MLOAD RETURNDATASIZE DUP5 DUP3 RETURNDATACOPY RETURNDATASIZE SWAP1 REVERT JUMPDEST DUP6 MLOAD PUSH3 0x461BCD PUSH1 0xE5 SHL DUP2 MSTORE PUSH1 0x4 DUP2 ADD DUP10 SWAP1 MSTORE PUSH1 0x1B PUSH1 0x24 DUP3 ADD MSTORE PUSH32 0x566F74696E6720706572696F64206E6F742079657420656E6465640000000000 PUSH1 0x44 DUP3 ADD MSTORE PUSH1 0x64 SWAP1 REVERT JUMPDEST PUSH4 0x4E487B71 PUSH1 0xE0 SHL DUP3 MSTORE PUSH1 0x21 PUSH1 0x4 MSTORE PUSH1 0x24 DUP3 REVERT JUMPDEST PUSH1 0x0 NOT DUP2 EQ PUSH2 0x1ED5 JUMPI PUSH1 0x1 ADD SWAP1 JUMP JUMPDEST PUSH1 0x2 PUSH1 0x1 SLOAD EQ PUSH2 0x21DD JUMPI PUSH1 0x2 PUSH1 0x1 SSTORE JUMP JUMPDEST PUSH1 0x40 MLOAD PUSH4 0x3EE5AEB5 PUSH1 0xE0 SHL DUP2 MSTORE PUSH1 0x4 SWAP1 REVERT JUMPDEST PUSH1 0x0 SLOAD PUSH1 0x1 PUSH1 0x1 PUSH1 0xA0 SHL SUB AND CALLER SUB PUSH2 0x2203 JUMPI JUMP JUMPDEST PUSH1 0x40 MLOAD PUSH4 0x118CDAA7 PUSH1 0xE0 SHL DUP2 MSTORE CALLER PUSH1 0x4 DUP3 ADD MSTORE PUSH1 0x24 SWAP1 REVERT INVALID DUP4 JUMP 0xBC POP SMOD SDIV PUSH11 0x642094F44DA4E8E22469DB RETURNDATACOPY DUP11 CALLDATASIZE 0xB5 DUP2 SHR 0xF SWAP2 0xF7 CALLDATALOAD CALL BLOBHASH SHR PUSH26 0xD6B3A81DD8B7DC419D8D0F20797397EA2EABA914386B89898AA6 CODESIZE NUMBER DUP9 SUB LOG1 0xEC LOG2 PUSH5 0x6970667358 0x22 SLT KECCAK256 RETURN 0xD0 0xD5 0xF6 SHR 0xD3 CREATE2 LT 0xE 0xF 0xCA SWAP10 PUSH0 ADD 0x2F 0xF7 0xAB 0xB5 LOG2 0x4F PUSH3 0xE2717E TSTORE DIV SELFBALANCE 0x2B 0xB8 0xC5 0xD8 ADD PUSH5 0x736F6C6343 STOP ADDMOD XOR STOP CALLER "},"methodIdentifiers":{"MAX_RISK_SCORE()":"45f19131","accControl()":"345c3537","approvalThresholdPercentage()":"4f23c04c","createFundingProposal(string,address,uint256[])":"63b5b8e1","createTreasuryActionProposal(string,address,uint256,uint8)":"263be8d6","executeProposal(uint256)":"0d61b519","financeContract()":"d3396149","hasVoted(uint256,address)":"43859632","nextProposalId()":"2ab09d14","owner()":"8da5cb5b","participationScores(address)":"38add68d","proposals(uint256)":"013cf08b","quorumPercentage()":"4fa76ec9","releaseNextMilestone(uint256)":"638af63e","renounceOwnership()":"715018a6","stakingContract()":"ee99205c","tallyVotes(uint256)":"4d318b0e","transferOwnership(address)":"f2fde38b","updateParticipationScore(address,uint256)":"bb1345c9","updateProposalRiskScore(uint256,uint256)":"22005a92","vote(uint256,uint8)":"943e8216","votingPeriod()":"02a251a3"}}}}}