{"src/contracts/UserProfile.sol":{"UserProfile":{"abi":[{"inputs":[{"internalType":"address","name":"initialOwner","type":"address"}],"stateMutability":"nonpayable","type":"constructor"},{"inputs":[{"internalType":"address","name":"owner","type":"address"}],"name":"OwnableInvalidOwner","type":"error"},{"inputs":[{"internalType":"address","name":"account","type":"address"}],"name":"OwnableUnauthorizedAccount","type":"error"},{"anonymous":false,"inputs":[{"indexed":true,"internalType":"address","name":"previousOwner","type":"address"},{"indexed":true,"internalType":"address","name":"newOwner","type":"address"}],"name":"OwnershipTransferred","type":"event"},{"anonymous":false,"inputs":[{"indexed":true,"internalType":"address","name":"user","type":"address"},{"indexed":false,"internalType":"string","name":"newURI","type":"string"}],"name":"ProfileUpdated","type":"event"},{"inputs":[{"internalType":"address","name":"","type":"address"}],"name":"metadataURIs","outputs":[{"internalType":"string","name":"","type":"string"}],"stateMutability":"view","type":"function"},{"inputs":[],"name":"owner","outputs":[{"internalType":"address","name":"","type":"address"}],"stateMutability":"view","type":"function"},{"inputs":[],"name":"renounceOwnership","outputs":[],"stateMutability":"nonpayable","type":"function"},{"inputs":[{"internalType":"string","name":"uri","type":"string"}],"name":"setProfileURI","outputs":[],"stateMutability":"nonpayable","type":"function"},{"inputs":[{"internalType":"address","name":"user","type":"address"},{"internalType":"string","name":"uri","type":"string"}],"name":"setProfileURIFor","outputs":[],"stateMutability":"nonpayable","type":"function"},{"inputs":[{"internalType":"address","name":"newOwner","type":"address"}],"name":"transferOwnership","outputs":[],"stateMutability":"nonpayable","type":"function"}],"evm":{"bytecode":{"linkReferences":{},"object":"6080346100bb57601f6107d338819003918201601f19168301916001600160401b038311848410176100c0578084926020946040528339810103126100bb57516001600160a01b0390818116908190036100bb5780156100a257600080546001600160a01b03198116831782556040519316907f8be0079c531659141344cd1fd0a4f28419497f9722a3daafe3b4186f6b6457e09080a36106fc90816100d78239f35b604051631e4fbdf760e01b815260006004820152602490fd5b600080fd5b634e487b7160e01b600052604160045260246000fdfe6040608081526004908136101561001557600080fd5b600091823560e01c8063715018a614610575578063786d6b97146103fc5780638da5cb5b146103d4578063b861f06014610229578063ca10bc8e146100ec5763f2fde38b1461006357600080fd5b346100e85760203660031901126100e85761007c610602565b9061008561067a565b6001600160a01b039182169283156100d257505082546001600160a01b0319811683178455167f8be0079c531659141344cd1fd0a4f28419497f9722a3daafe3b4186f6b6457e08380a380f35b51631e4fbdf760e01b8152908101849052602490fd5b8280fd5b50913461022657602080600319360112610222576001600160a01b03610110610602565b16825260019160018252838120918451938493839181549161013183610618565b92838852856001821691826000146102045750506001146101cf575b505050601f801995869203011683019583871067ffffffffffffffff8811176101bc575085929391838652818452845191828186015281955b8387106101a45750508394508582601f949501015201168101030190f35b86810182015189880189015295810195889550610186565b634e487b7160e01b835260419052602482fd5b85528385208593505b8284106101ee575050508301810138808061014d565b80548885018601528796509284019281016101d8565b93509450505060ff191682860152151560051b84010138808061014d565b5080fd5b80fd5b50829034610222578260031936011261022257610244610602565b67ffffffffffffffff906024358281116103d05761026590369085016105cf565b92909161027061067a565b60018060a01b0316938486526001906020908282528888209386116103bd575061029a8354610618565b601f8111610377575b508690601f86116001146102ff57509184808899936102ee956000805160206106a7833981519152999a936102f4575b501b906000198760031b1c19161790555b5192839283610652565b0390a280f35b87013592508b6102d3565b90601f1986168489528289209289905b828210610360575050916000805160206106a78339815191529798999391876102ee969410610346575b505085811b0190556102e4565b860135600019600389901b60f8161c191690558980610339565b808685968294968b0135815501950193019061030f565b838852818820601f870160051c8101918388106103b3575b601f0160051c019083905b8281106103a85750506102a3565b89815501839061039a565b909150819061038f565b634e487b7160e01b885260419052602487fd5b8480fd5b505034610222578160031936011261022257905490516001600160a01b039091168152602090f35b50346100e857602091826003193601126105715767ffffffffffffffff823581811161056d5761042f90369085016105cf565b9390943387526001918282528488209386116103bd57506104508354610618565b601f8111610527575b508690601f86116001146104b057509184806102ee95936000805160206106a783398151915297958a936104a5575b501b906000198560031b1c19161790555b51918291339583610652565b890135925038610488565b90601f1986168489528289209289905b828210610510575050916102ee959391876000805160206106a7833981519152989694106104f6575b505083811b019055610499565b880135600019600387901b60f8161c1916905538806104e9565b808685968294968d013581550195019301906104c0565b838852818820601f870160051c810191838810610563575b601f0160051c019083905b828110610558575050610459565b89815501839061054a565b909150819061053f565b8580fd5b8380fd5b833461022657806003193601126102265761058e61067a565b80546001600160a01b03198116825581906001600160a01b03167f8be0079c531659141344cd1fd0a4f28419497f9722a3daafe3b4186f6b6457e08280a380f35b9181601f840112156105fd5782359167ffffffffffffffff83116105fd57602083818601950101116105fd57565b600080fd5b600435906001600160a01b03821682036105fd57565b90600182811c92168015610648575b602083101461063257565b634e487b7160e01b600052602260045260246000fd5b91607f1691610627565b90918060409360208452816020850152848401376000828201840152601f01601f1916010190565b6000546001600160a01b0316330361068e57565b60405163118cdaa760e01b8152336004820152602490fdfedd635a4cd84864e37e4479dbfc2ec667acfa473c83c8422a8ac9d9d07599b01ca2646970667358221220a034ff2b5bbbe48d816681d333ee9326cf864c875a7e15f8630b469d084e664664736f6c63430008180033","opcodes":"PUSH1 0x80 CALLVALUE PUSH2 0xBB JUMPI PUSH1 0x1F PUSH2 0x7D3 CODESIZE DUP2 SWAP1 SUB SWAP2 DUP3 ADD PUSH1 0x1F NOT AND DUP4 ADD SWAP2 PUSH1 0x1 PUSH1 0x1 PUSH1 0x40 SHL SUB DUP4 GT DUP5 DUP5 LT OR PUSH2 0xC0 JUMPI DUP1 DUP5 SWAP3 PUSH1 0x20 SWAP5 PUSH1 0x40 MSTORE DUP4 CODECOPY DUP2 ADD SUB SLT PUSH2 0xBB JUMPI MLOAD PUSH1 0x1 PUSH1 0x1 PUSH1 0xA0 SHL SUB SWAP1 DUP2 DUP2 AND SWAP1 DUP2 SWAP1 SUB PUSH2 0xBB JUMPI DUP1 ISZERO PUSH2 0xA2 JUMPI PUSH1 0x0 DUP1 SLOAD PUSH1 0x1 PUSH1 0x1 PUSH1 0xA0 SHL SUB NOT DUP2 AND DUP4 OR DUP3 SSTORE PUSH1 0x40 MLOAD SWAP4 AND SWAP1 PUSH32 0x8BE0079C531659141344CD1FD0A4F28419497F9722A3DAAFE3B4186F6B6457E0 SWAP1 DUP1 LOG3 PUSH2 0x6FC SWAP1 DUP2 PUSH2 0xD7 DUP3 CODECOPY RETURN JUMPDEST PUSH1 0x40 MLOAD PUSH4 0x1E4FBDF7 PUSH1 0xE0 SHL DUP2 MSTORE PUSH1 0x0 PUSH1 0x4 DUP3 ADD MSTORE PUSH1 0x24 SWAP1 REVERT JUMPDEST PUSH1 0x0 DUP1 REVERT JUMPDEST PUSH4 0x4E487B71 PUSH1 0xE0 SHL PUSH1 0x0 MSTORE PUSH1 0x41 PUSH1 0x4 MSTORE PUSH1 0x24 PUSH1 0x0 REVERT INVALID PUSH1 0x40 PUSH1 0x80 DUP2 MSTORE PUSH1 0x4 SWAP1 DUP2 CALLDATASIZE LT ISZERO PUSH2 0x15 JUMPI PUSH1 0x0 DUP1 REVERT JUMPDEST PUSH1 0x0 SWAP2 DUP3 CALLDATALOAD PUSH1 0xE0 SHR DUP1 PUSH4 0x715018A6 EQ PUSH2 0x575 JUMPI DUP1 PUSH4 0x786D6B97 EQ PUSH2 0x3FC JUMPI DUP1 PUSH4 0x8DA5CB5B EQ PUSH2 0x3D4 JUMPI DUP1 PUSH4 0xB861F060 EQ PUSH2 0x229 JUMPI DUP1 PUSH4 0xCA10BC8E EQ PUSH2 0xEC JUMPI PUSH4 0xF2FDE38B EQ PUSH2 0x63 JUMPI PUSH1 0x0 DUP1 REVERT JUMPDEST CALLVALUE PUSH2 0xE8 JUMPI PUSH1 0x20 CALLDATASIZE PUSH1 0x3 NOT ADD SLT PUSH2 0xE8 JUMPI PUSH2 0x7C PUSH2 0x602 JUMP JUMPDEST SWAP1 PUSH2 0x85 PUSH2 0x67A JUMP JUMPDEST PUSH1 0x1 PUSH1 0x1 PUSH1 0xA0 SHL SUB SWAP2 DUP3 AND SWAP3 DUP4 ISZERO PUSH2 0xD2 JUMPI POP POP DUP3 SLOAD PUSH1 0x1 PUSH1 0x1 PUSH1 0xA0 SHL SUB NOT DUP2 AND DUP4 OR DUP5 SSTORE AND PUSH32 0x8BE0079C531659141344CD1FD0A4F28419497F9722A3DAAFE3B4186F6B6457E0 DUP4 DUP1 LOG3 DUP1 RETURN JUMPDEST MLOAD PUSH4 0x1E4FBDF7 PUSH1 0xE0 SHL DUP2 MSTORE SWAP1 DUP2 ADD DUP5 SWAP1 MSTORE PUSH1 0x24 SWAP1 REVERT JUMPDEST DUP3 DUP1 REVERT JUMPDEST POP SWAP2 CALLVALUE PUSH2 0x226 JUMPI PUSH1 0x20 DUP1 PUSH1 0x3 NOT CALLDATASIZE ADD SLT PUSH2 0x222 JUMPI PUSH1 0x1 PUSH1 0x1 PUSH1 0xA0 SHL SUB PUSH2 0x110 PUSH2 0x602 JUMP JUMPDEST AND DUP3 MSTORE PUSH1 0x1 SWAP2 PUSH1 0x1 DUP3 MSTORE DUP4 DUP2 KECCAK256 SWAP2 DUP5 MLOAD SWAP4 DUP5 SWAP4 DUP4 SWAP2 DUP2 SLOAD SWAP2 PUSH2 0x131 DUP4 PUSH2 0x618 JUMP JUMPDEST SWAP3 DUP4 DUP9 MSTORE DUP6 PUSH1 0x1 DUP3 AND SWAP2 DUP3 PUSH1 0x0 EQ PUSH2 0x204 JUMPI POP POP PUSH1 0x1 EQ PUSH2 0x1CF JUMPI JUMPDEST POP POP POP PUSH1 0x1F DUP1 NOT SWAP6 DUP7 SWAP3 SUB ADD AND DUP4 ADD SWAP6 DUP4 DUP8 LT PUSH8 0xFFFFFFFFFFFFFFFF DUP9 GT OR PUSH2 0x1BC JUMPI POP DUP6 SWAP3 SWAP4 SWAP2 DUP4 DUP7 MSTORE DUP2 DUP5 MSTORE DUP5 MLOAD SWAP2 DUP3 DUP2 DUP7 ADD MSTORE DUP2 SWAP6 JUMPDEST DUP4 DUP8 LT PUSH2 0x1A4 JUMPI POP POP DUP4 SWAP5 POP DUP6 DUP3 PUSH1 0x1F SWAP5 SWAP6 ADD ADD MSTORE ADD AND DUP2 ADD SUB ADD SWAP1 RETURN JUMPDEST DUP7 DUP2 ADD DUP3 ADD MLOAD DUP10 DUP9 ADD DUP10 ADD MSTORE SWAP6 DUP2 ADD SWAP6 DUP9 SWAP6 POP PUSH2 0x186 JUMP JUMPDEST PUSH4 0x4E487B71 PUSH1 0xE0 SHL DUP4 MSTORE PUSH1 0x41 SWAP1 MSTORE PUSH1 0x24 DUP3 REVERT JUMPDEST DUP6 MSTORE DUP4 DUP6 KECCAK256 DUP6 SWAP4 POP JUMPDEST DUP3 DUP5 LT PUSH2 0x1EE JUMPI POP POP POP DUP4 ADD DUP2 ADD CODESIZE DUP1 DUP1 PUSH2 0x14D JUMP JUMPDEST DUP1 SLOAD DUP9 DUP6 ADD DUP7 ADD MSTORE DUP8 SWAP7 POP SWAP3 DUP5 ADD SWAP3 DUP2 ADD PUSH2 0x1D8 JUMP JUMPDEST SWAP4 POP SWAP5 POP POP POP PUSH1 0xFF NOT AND DUP3 DUP7 ADD MSTORE ISZERO ISZERO PUSH1 0x5 SHL DUP5 ADD ADD CODESIZE DUP1 DUP1 PUSH2 0x14D JUMP JUMPDEST POP DUP1 REVERT JUMPDEST DUP1 REVERT JUMPDEST POP DUP3 SWAP1 CALLVALUE PUSH2 0x222 JUMPI DUP3 PUSH1 0x3 NOT CALLDATASIZE ADD SLT PUSH2 0x222 JUMPI PUSH2 0x244 PUSH2 0x602 JUMP JUMPDEST PUSH8 0xFFFFFFFFFFFFFFFF SWAP1 PUSH1 0x24 CALLDATALOAD DUP3 DUP2 GT PUSH2 0x3D0 JUMPI PUSH2 0x265 SWAP1 CALLDATASIZE SWAP1 DUP6 ADD PUSH2 0x5CF JUMP JUMPDEST SWAP3 SWAP1 SWAP2 PUSH2 0x270 PUSH2 0x67A JUMP JUMPDEST PUSH1 0x1 DUP1 PUSH1 0xA0 SHL SUB AND SWAP4 DUP5 DUP7 MSTORE PUSH1 0x1 SWAP1 PUSH1 0x20 SWAP1 DUP3 DUP3 MSTORE DUP9 DUP9 KECCAK256 SWAP4 DUP7 GT PUSH2 0x3BD JUMPI POP PUSH2 0x29A DUP4 SLOAD PUSH2 0x618 JUMP JUMPDEST PUSH1 0x1F DUP2 GT PUSH2 0x377 JUMPI JUMPDEST POP DUP7 SWAP1 PUSH1 0x1F DUP7 GT PUSH1 0x1 EQ PUSH2 0x2FF JUMPI POP SWAP2 DUP5 DUP1 DUP9 SWAP10 SWAP4 PUSH2 0x2EE SWAP6 PUSH1 0x0 DUP1 MLOAD PUSH1 0x20 PUSH2 0x6A7 DUP4 CODECOPY DUP2 MLOAD SWAP2 MSTORE SWAP10 SWAP11 SWAP4 PUSH2 0x2F4 JUMPI JUMPDEST POP SHL SWAP1 PUSH1 0x0 NOT DUP8 PUSH1 0x3 SHL SHR NOT AND OR SWAP1 SSTORE JUMPDEST MLOAD SWAP3 DUP4 SWAP3 DUP4 PUSH2 0x652 JUMP JUMPDEST SUB SWAP1 LOG2 DUP1 RETURN JUMPDEST DUP8 ADD CALLDATALOAD SWAP3 POP DUP12 PUSH2 0x2D3 JUMP JUMPDEST SWAP1 PUSH1 0x1F NOT DUP7 AND DUP5 DUP10 MSTORE DUP3 DUP10 KECCAK256 SWAP3 DUP10 SWAP1 JUMPDEST DUP3 DUP3 LT PUSH2 0x360 JUMPI POP POP SWAP2 PUSH1 0x0 DUP1 MLOAD PUSH1 0x20 PUSH2 0x6A7 DUP4 CODECOPY DUP2 MLOAD SWAP2 MSTORE SWAP8 SWAP9 SWAP10 SWAP4 SWAP2 DUP8 PUSH2 0x2EE SWAP7 SWAP5 LT PUSH2 0x346 JUMPI JUMPDEST POP POP DUP6 DUP2 SHL ADD SWAP1 SSTORE PUSH2 0x2E4 JUMP JUMPDEST DUP7 ADD CALLDATALOAD PUSH1 0x0 NOT PUSH1 0x3 DUP10 SWAP1 SHL PUSH1 0xF8 AND SHR NOT AND SWAP1 SSTORE DUP10 DUP1 PUSH2 0x339 JUMP JUMPDEST DUP1 DUP7 DUP6 SWAP7 DUP3 SWAP5 SWAP7 DUP12 ADD CALLDATALOAD DUP2 SSTORE ADD SWAP6 ADD SWAP4 ADD SWAP1 PUSH2 0x30F JUMP JUMPDEST DUP4 DUP9 MSTORE DUP2 DUP9 KECCAK256 PUSH1 0x1F DUP8 ADD PUSH1 0x5 SHR DUP2 ADD SWAP2 DUP4 DUP9 LT PUSH2 0x3B3 JUMPI JUMPDEST PUSH1 0x1F ADD PUSH1 0x5 SHR ADD SWAP1 DUP4 SWAP1 JUMPDEST DUP3 DUP2 LT PUSH2 0x3A8 JUMPI POP POP PUSH2 0x2A3 JUMP JUMPDEST DUP10 DUP2 SSTORE ADD DUP4 SWAP1 PUSH2 0x39A JUMP JUMPDEST SWAP1 SWAP2 POP DUP2 SWAP1 PUSH2 0x38F JUMP JUMPDEST PUSH4 0x4E487B71 PUSH1 0xE0 SHL DUP9 MSTORE PUSH1 0x41 SWAP1 MSTORE PUSH1 0x24 DUP8 REVERT JUMPDEST DUP5 DUP1 REVERT JUMPDEST POP POP CALLVALUE PUSH2 0x222 JUMPI DUP2 PUSH1 0x3 NOT CALLDATASIZE ADD SLT PUSH2 0x222 JUMPI SWAP1 SLOAD SWAP1 MLOAD PUSH1 0x1 PUSH1 0x1 PUSH1 0xA0 SHL SUB SWAP1 SWAP2 AND DUP2 MSTORE PUSH1 0x20 SWAP1 RETURN JUMPDEST POP CALLVALUE PUSH2 0xE8 JUMPI PUSH1 0x20 SWAP2 DUP3 PUSH1 0x3 NOT CALLDATASIZE ADD SLT PUSH2 0x571 JUMPI PUSH8 0xFFFFFFFFFFFFFFFF DUP3 CALLDATALOAD DUP2 DUP2 GT PUSH2 0x56D JUMPI PUSH2 0x42F SWAP1 CALLDATASIZE SWAP1 DUP6 ADD PUSH2 0x5CF JUMP JUMPDEST SWAP4 SWAP1 SWAP5 CALLER DUP8 MSTORE PUSH1 0x1 SWAP2 DUP3 DUP3 MSTORE DUP5 DUP9 KECCAK256 SWAP4 DUP7 GT PUSH2 0x3BD JUMPI POP PUSH2 0x450 DUP4 SLOAD PUSH2 0x618 JUMP JUMPDEST PUSH1 0x1F DUP2 GT PUSH2 0x527 JUMPI JUMPDEST POP DUP7 SWAP1 PUSH1 0x1F DUP7 GT PUSH1 0x1 EQ PUSH2 0x4B0 JUMPI POP SWAP2 DUP5 DUP1 PUSH2 0x2EE SWAP6 SWAP4 PUSH1 0x0 DUP1 MLOAD PUSH1 0x20 PUSH2 0x6A7 DUP4 CODECOPY DUP2 MLOAD SWAP2 MSTORE SWAP8 SWAP6 DUP11 SWAP4 PUSH2 0x4A5 JUMPI JUMPDEST POP SHL SWAP1 PUSH1 0x0 NOT DUP6 PUSH1 0x3 SHL SHR NOT AND OR SWAP1 SSTORE JUMPDEST MLOAD SWAP2 DUP3 SWAP2 CALLER SWAP6 DUP4 PUSH2 0x652 JUMP JUMPDEST DUP10 ADD CALLDATALOAD SWAP3 POP CODESIZE PUSH2 0x488 JUMP JUMPDEST SWAP1 PUSH1 0x1F NOT DUP7 AND DUP5 DUP10 MSTORE DUP3 DUP10 KECCAK256 SWAP3 DUP10 SWAP1 JUMPDEST DUP3 DUP3 LT PUSH2 0x510 JUMPI POP POP SWAP2 PUSH2 0x2EE SWAP6 SWAP4 SWAP2 DUP8 PUSH1 0x0 DUP1 MLOAD PUSH1 0x20 PUSH2 0x6A7 DUP4 CODECOPY DUP2 MLOAD SWAP2 MSTORE SWAP9 SWAP7 SWAP5 LT PUSH2 0x4F6 JUMPI JUMPDEST POP POP DUP4 DUP2 SHL ADD SWAP1 SSTORE PUSH2 0x499 JUMP JUMPDEST DUP9 ADD CALLDATALOAD PUSH1 0x0 NOT PUSH1 0x3 DUP8 SWAP1 SHL PUSH1 0xF8 AND SHR NOT AND SWAP1 SSTORE CODESIZE DUP1 PUSH2 0x4E9 JUMP JUMPDEST DUP1 DUP7 DUP6 SWAP7 DUP3 SWAP5 SWAP7 DUP14 ADD CALLDATALOAD DUP2 SSTORE ADD SWAP6 ADD SWAP4 ADD SWAP1 PUSH2 0x4C0 JUMP JUMPDEST DUP4 DUP9 MSTORE DUP2 DUP9 KECCAK256 PUSH1 0x1F DUP8 ADD PUSH1 0x5 SHR DUP2 ADD SWAP2 DUP4 DUP9 LT PUSH2 0x563 JUMPI JUMPDEST PUSH1 0x1F ADD PUSH1 0x5 SHR ADD SWAP1 DUP4 SWAP1 JUMPDEST DUP3 DUP2 LT PUSH2 0x558 JUMPI POP POP PUSH2 0x459 JUMP JUMPDEST DUP10 DUP2 SSTORE ADD DUP4 SWAP1 PUSH2 0x54A JUMP JUMPDEST SWAP1 SWAP2 POP DUP2 SWAP1 PUSH2 0x53F JUMP JUMPDEST DUP6 DUP1 REVERT JUMPDEST DUP4 DUP1 REVERT JUMPDEST DUP4 CALLVALUE PUSH2 0x226 JUMPI DUP1 PUSH1 0x3 NOT CALLDATASIZE ADD SLT PUSH2 0x226 JUMPI PUSH2 0x58E PUSH2 0x67A JUMP JUMPDEST DUP1 SLOAD PUSH1 0x1 PUSH1 0x1 PUSH1 0xA0 SHL SUB NOT DUP2 AND DUP3 SSTORE DUP2 SWAP1 PUSH1 0x1 PUSH1 0x1 PUSH1 0xA0 SHL SUB AND PUSH32 0x8BE0079C531659141344CD1FD0A4F28419497F9722A3DAAFE3B4186F6B6457E0 DUP3 DUP1 LOG3 DUP1 RETURN JUMPDEST SWAP2 DUP2 PUSH1 0x1F DUP5 ADD SLT ISZERO PUSH2 0x5FD JUMPI DUP3 CALLDATALOAD SWAP2 PUSH8 0xFFFFFFFFFFFFFFFF DUP4 GT PUSH2 0x5FD JUMPI PUSH1 0x20 DUP4 DUP2 DUP7 ADD SWAP6 ADD ADD GT PUSH2 0x5FD JUMPI JUMP JUMPDEST PUSH1 0x0 DUP1 REVERT JUMPDEST PUSH1 0x4 CALLDATALOAD SWAP1 PUSH1 0x1 PUSH1 0x1 PUSH1 0xA0 SHL SUB DUP3 AND DUP3 SUB PUSH2 0x5FD JUMPI JUMP JUMPDEST SWAP1 PUSH1 0x1 DUP3 DUP2 SHR SWAP3 AND DUP1 ISZERO PUSH2 0x648 JUMPI JUMPDEST PUSH1 0x20 DUP4 LT EQ PUSH2 0x632 JUMPI JUMP JUMPDEST PUSH4 0x4E487B71 PUSH1 0xE0 SHL PUSH1 0x0 MSTORE PUSH1 0x22 PUSH1 0x4 MSTORE PUSH1 0x24 PUSH1 0x0 REVERT JUMPDEST SWAP2 PUSH1 0x7F AND SWAP2 PUSH2 0x627 JUMP JUMPDEST SWAP1 SWAP2 DUP1 PUSH1 0x40 SWAP4 PUSH1 0x20 DUP5 MSTORE DUP2 PUSH1 0x20 DUP6 ADD MSTORE DUP5 DUP5 ADD CALLDATACOPY PUSH1 0x0 DUP3 DUP3 ADD DUP5 ADD MSTORE PUSH1 0x1F ADD PUSH1 0x1F NOT AND ADD ADD SWAP1 JUMP JUMPDEST PUSH1 0x0 SLOAD PUSH1 0x1 PUSH1 0x1 PUSH1 0xA0 SHL SUB AND CALLER SUB PUSH2 0x68E JUMPI JUMP JUMPDEST PUSH1 0x40 MLOAD PUSH4 0x118CDAA7 PUSH1 0xE0 SHL DUP2 MSTORE CALLER PUSH1 0x4 DUP3 ADD MSTORE PUSH1 0x24 SWAP1 REVERT INVALID 0xDD PUSH4 0x5A4CD848 PUSH5 0xE37E4479DB 0xFC 0x2E 0xC6 PUSH8 0xACFA473C83C8422A DUP11 0xC9 0xD9 0xD0 PUSH22 0x99B01CA2646970667358221220A034FF2B5BBBE48D81 PUSH7 0x81D333EE9326CF DUP7 0x4C DUP8 GAS PUSH31 0x15F8630B469D084E664664736F6C6343000818003300000000000000000000 "},"methodIdentifiers":{"metadataURIs(address)":"ca10bc8e","owner()":"8da5cb5b","renounceOwnership()":"715018a6","setProfileURI(string)":"786d6b97","setProfileURIFor(address,string)":"b861f060","transferOwnership(address)":"f2fde38b"}}}}}