{"src/contracts/Staking.sol":{"Staking":{"abi":[{"inputs":[{"internalType":"address","name":"_tokenAddress","type":"address"},{"internalType":"address","name":"_initialOwner","type":"address"}],"stateMutability":"nonpayable","type":"constructor"},{"inputs":[{"internalType":"address","name":"owner","type":"address"}],"name":"OwnableInvalidOwner","type":"error"},{"inputs":[{"internalType":"address","name":"account","type":"address"}],"name":"OwnableUnauthorizedAccount","type":"error"},{"inputs":[],"name":"ReentrancyGuardReentrantCall","type":"error"},{"anonymous":false,"inputs":[{"indexed":true,"internalType":"address","name":"previousOwner","type":"address"},{"indexed":true,"internalType":"address","name":"newOwner","type":"address"}],"name":"OwnershipTransferred","type":"event"},{"anonymous":false,"inputs":[{"indexed":true,"internalType":"address","name":"user","type":"address"},{"indexed":false,"internalType":"uint256","name":"reward","type":"uint256"}],"name":"RewardClaimed","type":"event"},{"anonymous":false,"inputs":[{"indexed":false,"internalType":"uint256","name":"totalReward","type":"uint256"}],"name":"RewardDistributed","type":"event"},{"anonymous":false,"inputs":[{"indexed":true,"internalType":"address","name":"funder","type":"address"},{"indexed":false,"internalType":"uint256","name":"amount","type":"uint256"}],"name":"RewardFunded","type":"event"},{"anonymous":false,"inputs":[{"indexed":false,"internalType":"uint256","name":"newRate","type":"uint256"}],"name":"RewardRateSet","type":"event"},{"anonymous":false,"inputs":[{"indexed":true,"internalType":"address","name":"user","type":"address"},{"indexed":false,"internalType":"uint256","name":"amount","type":"uint256"}],"name":"Staked","type":"event"},{"anonymous":false,"inputs":[{"indexed":true,"internalType":"address","name":"user","type":"address"},{"indexed":false,"internalType":"uint256","name":"amount","type":"uint256"}],"name":"Unstaked","type":"event"},{"inputs":[],"name":"claimReward","outputs":[],"stateMutability":"nonpayable","type":"function"},{"inputs":[{"internalType":"uint256","name":"","type":"uint256"}],"name":"distributeRewards","outputs":[],"stateMutability":"pure","type":"function"},{"inputs":[{"internalType":"address","name":"account","type":"address"}],"name":"earned","outputs":[{"internalType":"uint256","name":"","type":"uint256"}],"stateMutability":"view","type":"function"},{"inputs":[{"internalType":"uint256","name":"amount","type":"uint256"}],"name":"fundRewards","outputs":[],"stateMutability":"nonpayable","type":"function"},{"inputs":[{"internalType":"address","name":"user","type":"address"}],"name":"getStakedAmount","outputs":[{"internalType":"uint256","name":"","type":"uint256"}],"stateMutability":"view","type":"function"},{"inputs":[],"name":"lastUpdateTime","outputs":[{"internalType":"uint256","name":"","type":"uint256"}],"stateMutability":"view","type":"function"},{"inputs":[],"name":"owner","outputs":[{"internalType":"address","name":"","type":"address"}],"stateMutability":"view","type":"function"},{"inputs":[],"name":"renounceOwnership","outputs":[],"stateMutability":"nonpayable","type":"function"},{"inputs":[],"name":"rewardPerToken","outputs":[{"internalType":"uint256","name":"","type":"uint256"}],"stateMutability":"view","type":"function"},{"inputs":[],"name":"rewardPerTokenStored","outputs":[{"internalType":"uint256","name":"","type":"uint256"}],"stateMutability":"view","type":"function"},{"inputs":[],"name":"rewardRate","outputs":[{"internalType":"uint256","name":"","type":"uint256"}],"stateMutability":"view","type":"function"},{"inputs":[{"internalType":"address","name":"","type":"address"}],"name":"rewards","outputs":[{"internalType":"uint256","name":"","type":"uint256"}],"stateMutability":"view","type":"function"},{"inputs":[],"name":"rycToken","outputs":[{"internalType":"contract IERC20","name":"","type":"address"}],"stateMutability":"view","type":"function"},{"inputs":[{"internalType":"uint256","name":"_rewardRate","type":"uint256"}],"name":"setRewardRate","outputs":[],"stateMutability":"nonpayable","type":"function"},{"inputs":[{"internalType":"uint256","name":"amount","type":"uint256"}],"name":"stake","outputs":[],"stateMutability":"nonpayable","type":"function"},{"inputs":[],"name":"totalSupply","outputs":[{"internalType":"uint256","name":"","type":"uint256"}],"stateMutability":"view","type":"function"},{"inputs":[{"internalType":"address","name":"newOwner","type":"address"}],"name":"transferOwnership","outputs":[],"stateMutability":"nonpayable","type":"function"},{"inputs":[{"internalType":"uint256","name":"amount","type":"uint256"}],"name":"unstake","outputs":[],"stateMutability":"nonpayable","type":"function"},{"inputs":[{"internalType":"address","name":"","type":"address"}],"name":"userRewardPerTokenPaid","outputs":[{"internalType":"uint256","name":"","type":"uint256"}],"stateMutability":"view","type":"function"}],"evm":{"bytecode":{"linkReferences":{},"object":"60a0346100f857601f610ce138819003918201601f19168301916001600160401b038311848410176100fd5780849260409485528339810103126100f857602061004882610113565b916001600160a01b0391829161005e9101610113565b169182156100df57600080546001600160a01b03198116851782556040519491908416907f8be0079c531659141344cd1fd0a4f28419497f9722a3daafe3b4186f6b6457e09080a36001805516608052610bb990816101288239608051818181610195015281816102a0015281816104060152818161059001526108610152f35b604051631e4fbdf760e01b815260006004820152602490fd5b600080fd5b634e487b7160e01b600052604160045260246000fd5b51906001600160a01b03821682036100f85756fe60406080815260048036101561001457600080fd5b600091823560e01c80628cc262146109ba5780630700037d1461098057806318160ddd146109615780632e17de78146107b95780634da6a5561461077f57806359974e38146106ef578063715018a6146106925780637b0a47ee146106745780638b8763471461063a5780638da5cb5b1461061257806393707a191461054a5780639e447fc6146104ef578063a694fc3a14610369578063b88a802f1461022a578063c8f33c911461020b578063cd3daf9d146101e7578063df136d65146101c8578063e7499b7d146101805763f2fde38b146100f057600080fd5b3461017c57602036600319011261017c576001600160a01b0382358181169391929084900361017857610121610b57565b831561016257505082546001600160a01b0319811683178455167f8be0079c531659141344cd1fd0a4f28419497f9722a3daafe3b4186f6b6457e08380a380f35b51631e4fbdf760e01b8152908101849052602490fd5b8480fd5b8280fd5b8382346101c457816003193601126101c457517f00000000000000000000000000000000000000000000000000000000000000006001600160a01b03168152602090f35b5080fd5b8382346101c457816003193601126101c4576020906006549051908152f35b8382346101c457816003193601126101c457602090610204610ae2565b9051908152f35b8382346101c457816003193601126101c4576020906005549051908152f35b503461017c578260031936011261017c57610243610b34565b61024b610ae2565b6006554260055533610343575b3383526008602052808320918383549384610276575b506001805580f35b55815163a9059cbb60e01b81523391810191825260208281018590529091829081906040010381877f00000000000000000000000000000000000000000000000000000000000000006001600160a01b03165af180156103395761030a575b50519081527f106f923f993c2149d49b4255ff723acafa1f2d94393f561d3eda32ae348f724160203392a2388080838161026e565b61032b9060203d602011610332575b6103238183610a8d565b810190610ac5565b50386102d5565b503d610319565b82513d86823e3d90fd5b61034c33610a2e565b338452600860205281842055600654600760205281842055610258565b503461017c57602090816003193601126104eb57823592610388610b34565b610390610ae2565b60065542600555336104c7575b8315610495579082848094936103b861040197600254610a21565b600255338852600383528388206103d0838254610a21565b905583516323b872dd60e01b8152339181019182523060208301526040820192909252909586918291606090910190565b0381887f00000000000000000000000000000000000000000000000000000000000000006001600160a01b03165af193841561048b577f9e71bc8eea02a63969f509818f2dafb9254532904319f9dbda79b67bd34a5f3d939461046e575b50519283523392a26001805580f35b61048490833d8511610332576103238183610a8d565b503861045f565b81513d87823e3d90fd5b82606492519162461bcd60e51b8352820152600e60248201526d043616e6e6f74207374616b6520360941b6044820152fd5b6104d033610a2e565b3386526008845282862055600654600784528286205561039d565b8380fd5b503461017c57602036600319011261017c57816020917f8cbfafc8e0d9c5c81401c4b9c6e7d201198adc7eb8f8f1556c195ecd4c0a0e7b93358092610532610b57565b61053a610ae2565b600655426005555551908152a180f35b503461017c57602036600319011261017c5780516323b872dd60e01b815233818401908152306020828101919091529335604082018190529390829081906060010381877f00000000000000000000000000000000000000000000000000000000000000006001600160a01b03165af18015610339576105f3575b50519081527f525b74a34fa7d280989782ff88faded7890117edd2a674614497b9ed45b4598860203392a280f35b61060b9060203d602011610332576103238183610a8d565b50386105c5565b8382346101c457816003193601126101c457905490516001600160a01b039091168152602090f35b50903461017c57602036600319011261017c57356001600160a01b0381169081900361017c57828291602094526007845220549051908152f35b50903461017c578260031936011261017c5760209250549051908152f35b83346106ec57806003193601126106ec576106ab610b57565b80546001600160a01b03198116825581906001600160a01b03167f8be0079c531659141344cd1fd0a4f28419497f9722a3daafe3b4186f6b6457e08280a380f35b80fd5b5091346106ec5760203660031901126106ec5750602060a492519162461bcd60e51b8352820152604b60248201527f646973747269627574655265776172647320697320646570726563617465642e60448201527f20557365207365745265776172645261746520616e642066756e64526577617260648201526a32399034b739ba32b0b21760a91b6084820152fd5b50903461017c57602036600319011261017c57356001600160a01b0381169081900361017c57828291602094526003845220549051908152f35b503461017c57602090816003193601126104eb578235926107d8610b34565b6107e0610ae2565b600655426005553361093d575b831561090957338552600383528382862054106108c85790828480949361081961085c976002546109eb565b600255338852600383528388206108318382546109eb565b9055835163a9059cbb60e01b8152339181019182526020820192909252909586918291604090910190565b0381887f00000000000000000000000000000000000000000000000000000000000000006001600160a01b03165af193841561048b577f0f5bb82176feb1b5e747e28471aa92156a04d9f3ab9f45f28e2d704232b93f75939461046e5750519283523392a26001805580f35b82606492519162461bcd60e51b8352820152601e60248201527f556e7374616b6520616d6f756e7420657863656564732062616c616e636500006044820152fd5b82606492519162461bcd60e51b8352820152601060248201526f043616e6e6f7420756e7374616b6520360841b6044820152fd5b61094633610a2e565b338652600884528286205560065460078452828620556107ed565b8382346101c457816003193601126101c4576020906002549051908152f35b50903461017c57602036600319011261017c57356001600160a01b0381169081900361017c57828291602094526008845220549051908152f35b50903461017c57602036600319011261017c5735916001600160a01b03831683036106ec5750610204602092610a2e565b919082039182116109f857565b634e487b7160e01b600052601160045260246000fd5b818102929181159184041417156109f857565b919082018092116109f857565b610a8a9060018060a01b0316604060008281526003602052670de0b6b3a7640000610a7983832054610a73610a61610ae2565b878652600760205286862054906109eb565b90610a0e565b049281526008602052205490610a21565b90565b90601f8019910116810190811067ffffffffffffffff821117610aaf57604052565b634e487b7160e01b600052604160045260246000fd5b90816020910312610add57518015158103610add5790565b600080fd5b6002548015610b2d57610af7600554426109eb565b610b076006549160045490610a0e565b91670de0b6b3a7640000928381029381850414901517156109f857610a8a920490610a21565b5060065490565b600260015414610b45576002600155565b604051633ee5aeb560e01b8152600490fd5b6000546001600160a01b03163303610b6b57565b60405163118cdaa760e01b8152336004820152602490fdfea2646970667358221220cc87df3a3dd1fcdd147bb0d3f62b4894950af45c4a0d35accf5705c50e352ed564736f6c63430008180033","opcodes":"PUSH1 0xA0 CALLVALUE PUSH2 0xF8 JUMPI PUSH1 0x1F PUSH2 0xCE1 CODESIZE DUP2 SWAP1 SUB SWAP2 DUP3 ADD PUSH1 0x1F NOT AND DUP4 ADD SWAP2 PUSH1 0x1 PUSH1 0x1 PUSH1 0x40 SHL SUB DUP4 GT DUP5 DUP5 LT OR PUSH2 0xFD JUMPI DUP1 DUP5 SWAP3 PUSH1 0x40 SWAP5 DUP6 MSTORE DUP4 CODECOPY DUP2 ADD SUB SLT PUSH2 0xF8 JUMPI PUSH1 0x20 PUSH2 0x48 DUP3 PUSH2 0x113 JUMP JUMPDEST SWAP2 PUSH1 0x1 PUSH1 0x1 PUSH1 0xA0 SHL SUB SWAP2 DUP3 SWAP2 PUSH2 0x5E SWAP2 ADD PUSH2 0x113 JUMP JUMPDEST AND SWAP2 DUP3 ISZERO PUSH2 0xDF JUMPI PUSH1 0x0 DUP1 SLOAD PUSH1 0x1 PUSH1 0x1 PUSH1 0xA0 SHL SUB NOT DUP2 AND DUP6 OR DUP3 SSTORE PUSH1 0x40 MLOAD SWAP5 SWAP2 SWAP1 DUP5 AND SWAP1 PUSH32 0x8BE0079C531659141344CD1FD0A4F28419497F9722A3DAAFE3B4186F6B6457E0 SWAP1 DUP1 LOG3 PUSH1 0x1 DUP1 SSTORE AND PUSH1 0x80 MSTORE PUSH2 0xBB9 SWAP1 DUP2 PUSH2 0x128 DUP3 CODECOPY PUSH1 0x80 MLOAD DUP2 DUP2 DUP2 PUSH2 0x195 ADD MSTORE DUP2 DUP2 PUSH2 0x2A0 ADD MSTORE DUP2 DUP2 PUSH2 0x406 ADD MSTORE DUP2 DUP2 PUSH2 0x590 ADD MSTORE PUSH2 0x861 ADD MSTORE RETURN JUMPDEST PUSH1 0x40 MLOAD PUSH4 0x1E4FBDF7 PUSH1 0xE0 SHL DUP2 MSTORE PUSH1 0x0 PUSH1 0x4 DUP3 ADD MSTORE PUSH1 0x24 SWAP1 REVERT JUMPDEST PUSH1 0x0 DUP1 REVERT JUMPDEST PUSH4 0x4E487B71 PUSH1 0xE0 SHL PUSH1 0x0 MSTORE PUSH1 0x41 PUSH1 0x4 MSTORE PUSH1 0x24 PUSH1 0x0 REVERT JUMPDEST MLOAD SWAP1 PUSH1 0x1 PUSH1 0x1 PUSH1 0xA0 SHL SUB DUP3 AND DUP3 SUB PUSH2 0xF8 JUMPI JUMP INVALID PUSH1 0x40 PUSH1 0x80 DUP2 MSTORE PUSH1 0x4 DUP1 CALLDATASIZE LT ISZERO PUSH2 0x14 JUMPI PUSH1 0x0 DUP1 REVERT JUMPDEST PUSH1 0x0 SWAP2 DUP3 CALLDATALOAD PUSH1 0xE0 SHR DUP1 PUSH3 0x8CC262 EQ PUSH2 0x9BA JUMPI DUP1 PUSH4 0x700037D EQ PUSH2 0x980 JUMPI DUP1 PUSH4 0x18160DDD EQ PUSH2 0x961 JUMPI DUP1 PUSH4 0x2E17DE78 EQ PUSH2 0x7B9 JUMPI DUP1 PUSH4 0x4DA6A556 EQ PUSH2 0x77F JUMPI DUP1 PUSH4 0x59974E38 EQ PUSH2 0x6EF JUMPI DUP1 PUSH4 0x715018A6 EQ PUSH2 0x692 JUMPI DUP1 PUSH4 0x7B0A47EE EQ PUSH2 0x674 JUMPI DUP1 PUSH4 0x8B876347 EQ PUSH2 0x63A JUMPI DUP1 PUSH4 0x8DA5CB5B EQ PUSH2 0x612 JUMPI DUP1 PUSH4 0x93707A19 EQ PUSH2 0x54A JUMPI DUP1 PUSH4 0x9E447FC6 EQ PUSH2 0x4EF JUMPI DUP1 PUSH4 0xA694FC3A EQ PUSH2 0x369 JUMPI DUP1 PUSH4 0xB88A802F EQ PUSH2 0x22A JUMPI DUP1 PUSH4 0xC8F33C91 EQ PUSH2 0x20B JUMPI DUP1 PUSH4 0xCD3DAF9D EQ PUSH2 0x1E7 JUMPI DUP1 PUSH4 0xDF136D65 EQ PUSH2 0x1C8 JUMPI DUP1 PUSH4 0xE7499B7D EQ PUSH2 0x180 JUMPI PUSH4 0xF2FDE38B EQ PUSH2 0xF0 JUMPI PUSH1 0x0 DUP1 REVERT JUMPDEST CALLVALUE PUSH2 0x17C JUMPI PUSH1 0x20 CALLDATASIZE PUSH1 0x3 NOT ADD SLT PUSH2 0x17C JUMPI PUSH1 0x1 PUSH1 0x1 PUSH1 0xA0 SHL SUB DUP3 CALLDATALOAD DUP2 DUP2 AND SWAP4 SWAP2 SWAP3 SWAP1 DUP5 SWAP1 SUB PUSH2 0x178 JUMPI PUSH2 0x121 PUSH2 0xB57 JUMP JUMPDEST DUP4 ISZERO PUSH2 0x162 JUMPI POP POP DUP3 SLOAD PUSH1 0x1 PUSH1 0x1 PUSH1 0xA0 SHL SUB NOT DUP2 AND DUP4 OR DUP5 SSTORE AND PUSH32 0x8BE0079C531659141344CD1FD0A4F28419497F9722A3DAAFE3B4186F6B6457E0 DUP4 DUP1 LOG3 DUP1 RETURN JUMPDEST MLOAD PUSH4 0x1E4FBDF7 PUSH1 0xE0 SHL DUP2 MSTORE SWAP1 DUP2 ADD DUP5 SWAP1 MSTORE PUSH1 0x24 SWAP1 REVERT JUMPDEST DUP5 DUP1 REVERT JUMPDEST DUP3 DUP1 REVERT JUMPDEST DUP4 DUP3 CALLVALUE PUSH2 0x1C4 JUMPI DUP2 PUSH1 0x3 NOT CALLDATASIZE ADD SLT PUSH2 0x1C4 JUMPI MLOAD PUSH32 0x0 PUSH1 0x1 PUSH1 0x1 PUSH1 0xA0 SHL SUB AND DUP2 MSTORE PUSH1 0x20 SWAP1 RETURN JUMPDEST POP DUP1 REVERT JUMPDEST DUP4 DUP3 CALLVALUE PUSH2 0x1C4 JUMPI DUP2 PUSH1 0x3 NOT CALLDATASIZE ADD SLT PUSH2 0x1C4 JUMPI PUSH1 0x20 SWAP1 PUSH1 0x6 SLOAD SWAP1 MLOAD SWAP1 DUP2 MSTORE RETURN JUMPDEST DUP4 DUP3 CALLVALUE PUSH2 0x1C4 JUMPI DUP2 PUSH1 0x3 NOT CALLDATASIZE ADD SLT PUSH2 0x1C4 JUMPI PUSH1 0x20 SWAP1 PUSH2 0x204 PUSH2 0xAE2 JUMP JUMPDEST SWAP1 MLOAD SWAP1 DUP2 MSTORE RETURN JUMPDEST DUP4 DUP3 CALLVALUE PUSH2 0x1C4 JUMPI DUP2 PUSH1 0x3 NOT CALLDATASIZE ADD SLT PUSH2 0x1C4 JUMPI PUSH1 0x20 SWAP1 PUSH1 0x5 SLOAD SWAP1 MLOAD SWAP1 DUP2 MSTORE RETURN JUMPDEST POP CALLVALUE PUSH2 0x17C JUMPI DUP3 PUSH1 0x3 NOT CALLDATASIZE ADD SLT PUSH2 0x17C JUMPI PUSH2 0x243 PUSH2 0xB34 JUMP JUMPDEST PUSH2 0x24B PUSH2 0xAE2 JUMP JUMPDEST PUSH1 0x6 SSTORE TIMESTAMP PUSH1 0x5 SSTORE CALLER PUSH2 0x343 JUMPI JUMPDEST CALLER DUP4 MSTORE PUSH1 0x8 PUSH1 0x20 MSTORE DUP1 DUP4 KECCAK256 SWAP2 DUP4 DUP4 SLOAD SWAP4 DUP5 PUSH2 0x276 JUMPI JUMPDEST POP PUSH1 0x1 DUP1 SSTORE DUP1 RETURN JUMPDEST SSTORE DUP2 MLOAD PUSH4 0xA9059CBB PUSH1 0xE0 SHL DUP2 MSTORE CALLER SWAP2 DUP2 ADD SWAP2 DUP3 MSTORE PUSH1 0x20 DUP3 DUP2 ADD DUP6 SWAP1 MSTORE SWAP1 SWAP2 DUP3 SWAP1 DUP2 SWAP1 PUSH1 0x40 ADD SUB DUP2 DUP8 PUSH32 0x0 PUSH1 0x1 PUSH1 0x1 PUSH1 0xA0 SHL SUB AND GAS CALL DUP1 ISZERO PUSH2 0x339 JUMPI PUSH2 0x30A JUMPI JUMPDEST POP MLOAD SWAP1 DUP2 MSTORE PUSH32 0x106F923F993C2149D49B4255FF723ACAFA1F2D94393F561D3EDA32AE348F7241 PUSH1 0x20 CALLER SWAP3 LOG2 CODESIZE DUP1 DUP1 DUP4 DUP2 PUSH2 0x26E JUMP JUMPDEST PUSH2 0x32B SWAP1 PUSH1 0x20 RETURNDATASIZE PUSH1 0x20 GT PUSH2 0x332 JUMPI JUMPDEST PUSH2 0x323 DUP2 DUP4 PUSH2 0xA8D JUMP JUMPDEST DUP2 ADD SWAP1 PUSH2 0xAC5 JUMP JUMPDEST POP CODESIZE PUSH2 0x2D5 JUMP JUMPDEST POP RETURNDATASIZE PUSH2 0x319 JUMP JUMPDEST DUP3 MLOAD RETURNDATASIZE DUP7 DUP3 RETURNDATACOPY RETURNDATASIZE SWAP1 REVERT JUMPDEST PUSH2 0x34C CALLER PUSH2 0xA2E JUMP JUMPDEST CALLER DUP5 MSTORE PUSH1 0x8 PUSH1 0x20 MSTORE DUP2 DUP5 KECCAK256 SSTORE PUSH1 0x6 SLOAD PUSH1 0x7 PUSH1 0x20 MSTORE DUP2 DUP5 KECCAK256 SSTORE PUSH2 0x258 JUMP JUMPDEST POP CALLVALUE PUSH2 0x17C JUMPI PUSH1 0x20 SWAP1 DUP2 PUSH1 0x3 NOT CALLDATASIZE ADD SLT PUSH2 0x4EB JUMPI DUP3 CALLDATALOAD SWAP3 PUSH2 0x388 PUSH2 0xB34 JUMP JUMPDEST PUSH2 0x390 PUSH2 0xAE2 JUMP JUMPDEST PUSH1 0x6 SSTORE TIMESTAMP PUSH1 0x5 SSTORE CALLER PUSH2 0x4C7 JUMPI JUMPDEST DUP4 ISZERO PUSH2 0x495 JUMPI SWAP1 DUP3 DUP5 DUP1 SWAP5 SWAP4 PUSH2 0x3B8 PUSH2 0x401 SWAP8 PUSH1 0x2 SLOAD PUSH2 0xA21 JUMP JUMPDEST PUSH1 0x2 SSTORE CALLER DUP9 MSTORE PUSH1 0x3 DUP4 MSTORE DUP4 DUP9 KECCAK256 PUSH2 0x3D0 DUP4 DUP3 SLOAD PUSH2 0xA21 JUMP JUMPDEST SWAP1 SSTORE DUP4 MLOAD PUSH4 0x23B872DD PUSH1 0xE0 SHL DUP2 MSTORE CALLER SWAP2 DUP2 ADD SWAP2 DUP3 MSTORE ADDRESS PUSH1 0x20 DUP4 ADD MSTORE PUSH1 0x40 DUP3 ADD SWAP3 SWAP1 SWAP3 MSTORE SWAP1 SWAP6 DUP7 SWAP2 DUP3 SWAP2 PUSH1 0x60 SWAP1 SWAP2 ADD SWAP1 JUMP JUMPDEST SUB DUP2 DUP9 PUSH32 0x0 PUSH1 0x1 PUSH1 0x1 PUSH1 0xA0 SHL SUB AND GAS CALL SWAP4 DUP5 ISZERO PUSH2 0x48B JUMPI PUSH32 0x9E71BC8EEA02A63969F509818F2DAFB9254532904319F9DBDA79B67BD34A5F3D SWAP4 SWAP5 PUSH2 0x46E JUMPI JUMPDEST POP MLOAD SWAP3 DUP4 MSTORE CALLER SWAP3 LOG2 PUSH1 0x1 DUP1 SSTORE DUP1 RETURN JUMPDEST PUSH2 0x484 SWAP1 DUP4 RETURNDATASIZE DUP6 GT PUSH2 0x332 JUMPI PUSH2 0x323 DUP2 DUP4 PUSH2 0xA8D JUMP JUMPDEST POP CODESIZE PUSH2 0x45F JUMP JUMPDEST DUP2 MLOAD RETURNDATASIZE DUP8 DUP3 RETURNDATACOPY RETURNDATASIZE SWAP1 REVERT JUMPDEST DUP3 PUSH1 0x64 SWAP3 MLOAD SWAP2 PUSH3 0x461BCD PUSH1 0xE5 SHL DUP4 MSTORE DUP3 ADD MSTORE PUSH1 0xE PUSH1 0x24 DUP3 ADD MSTORE PUSH14 0x43616E6E6F74207374616B65203 PUSH1 0x94 SHL PUSH1 0x44 DUP3 ADD MSTORE REVERT JUMPDEST PUSH2 0x4D0 CALLER PUSH2 0xA2E JUMP JUMPDEST CALLER DUP7 MSTORE PUSH1 0x8 DUP5 MSTORE DUP3 DUP7 KECCAK256 SSTORE PUSH1 0x6 SLOAD PUSH1 0x7 DUP5 MSTORE DUP3 DUP7 KECCAK256 SSTORE PUSH2 0x39D JUMP JUMPDEST DUP4 DUP1 REVERT JUMPDEST POP CALLVALUE PUSH2 0x17C JUMPI PUSH1 0x20 CALLDATASIZE PUSH1 0x3 NOT ADD SLT PUSH2 0x17C JUMPI DUP2 PUSH1 0x20 SWAP2 PUSH32 0x8CBFAFC8E0D9C5C81401C4B9C6E7D201198ADC7EB8F8F1556C195ECD4C0A0E7B SWAP4 CALLDATALOAD DUP1 SWAP3 PUSH2 0x532 PUSH2 0xB57 JUMP JUMPDEST PUSH2 0x53A PUSH2 0xAE2 JUMP JUMPDEST PUSH1 0x6 SSTORE TIMESTAMP PUSH1 0x5 SSTORE SSTORE MLOAD SWAP1 DUP2 MSTORE LOG1 DUP1 RETURN JUMPDEST POP CALLVALUE PUSH2 0x17C JUMPI PUSH1 0x20 CALLDATASIZE PUSH1 0x3 NOT ADD SLT PUSH2 0x17C JUMPI DUP1 MLOAD PUSH4 0x23B872DD PUSH1 0xE0 SHL DUP2 MSTORE CALLER DUP2 DUP5 ADD SWAP1 DUP2 MSTORE ADDRESS PUSH1 0x20 DUP3 DUP2 ADD SWAP2 SWAP1 SWAP2 MSTORE SWAP4 CALLDATALOAD PUSH1 0x40 DUP3 ADD DUP2 SWAP1 MSTORE SWAP4 SWAP1 DUP3 SWAP1 DUP2 SWAP1 PUSH1 0x60 ADD SUB DUP2 DUP8 PUSH32 0x0 PUSH1 0x1 PUSH1 0x1 PUSH1 0xA0 SHL SUB AND GAS CALL DUP1 ISZERO PUSH2 0x339 JUMPI PUSH2 0x5F3 JUMPI JUMPDEST POP MLOAD SWAP1 DUP2 MSTORE PUSH32 0x525B74A34FA7D280989782FF88FADED7890117EDD2A674614497B9ED45B45988 PUSH1 0x20 CALLER SWAP3 LOG2 DUP1 RETURN JUMPDEST PUSH2 0x60B SWAP1 PUSH1 0x20 RETURNDATASIZE PUSH1 0x20 GT PUSH2 0x332 JUMPI PUSH2 0x323 DUP2 DUP4 PUSH2 0xA8D JUMP JUMPDEST POP CODESIZE PUSH2 0x5C5 JUMP JUMPDEST DUP4 DUP3 CALLVALUE PUSH2 0x1C4 JUMPI DUP2 PUSH1 0x3 NOT CALLDATASIZE ADD SLT PUSH2 0x1C4 JUMPI SWAP1 SLOAD SWAP1 MLOAD PUSH1 0x1 PUSH1 0x1 PUSH1 0xA0 SHL SUB SWAP1 SWAP2 AND DUP2 MSTORE PUSH1 0x20 SWAP1 RETURN JUMPDEST POP SWAP1 CALLVALUE PUSH2 0x17C JUMPI PUSH1 0x20 CALLDATASIZE PUSH1 0x3 NOT ADD SLT PUSH2 0x17C JUMPI CALLDATALOAD PUSH1 0x1 PUSH1 0x1 PUSH1 0xA0 SHL SUB DUP2 AND SWAP1 DUP2 SWAP1 SUB PUSH2 0x17C JUMPI DUP3 DUP3 SWAP2 PUSH1 0x20 SWAP5 MSTORE PUSH1 0x7 DUP5 MSTORE KECCAK256 SLOAD SWAP1 MLOAD SWAP1 DUP2 MSTORE RETURN JUMPDEST POP SWAP1 CALLVALUE PUSH2 0x17C JUMPI DUP3 PUSH1 0x3 NOT CALLDATASIZE ADD SLT PUSH2 0x17C JUMPI PUSH1 0x20 SWAP3 POP SLOAD SWAP1 MLOAD SWAP1 DUP2 MSTORE RETURN JUMPDEST DUP4 CALLVALUE PUSH2 0x6EC JUMPI DUP1 PUSH1 0x3 NOT CALLDATASIZE ADD SLT PUSH2 0x6EC JUMPI PUSH2 0x6AB PUSH2 0xB57 JUMP JUMPDEST DUP1 SLOAD PUSH1 0x1 PUSH1 0x1 PUSH1 0xA0 SHL SUB NOT DUP2 AND DUP3 SSTORE DUP2 SWAP1 PUSH1 0x1 PUSH1 0x1 PUSH1 0xA0 SHL SUB AND PUSH32 0x8BE0079C531659141344CD1FD0A4F28419497F9722A3DAAFE3B4186F6B6457E0 DUP3 DUP1 LOG3 DUP1 RETURN JUMPDEST DUP1 REVERT JUMPDEST POP SWAP2 CALLVALUE PUSH2 0x6EC JUMPI PUSH1 0x20 CALLDATASIZE PUSH1 0x3 NOT ADD SLT PUSH2 0x6EC JUMPI POP PUSH1 0x20 PUSH1 0xA4 SWAP3 MLOAD SWAP2 PUSH3 0x461BCD PUSH1 0xE5 SHL DUP4 MSTORE DUP3 ADD MSTORE PUSH1 0x4B PUSH1 0x24 DUP3 ADD MSTORE PUSH32 0x646973747269627574655265776172647320697320646570726563617465642E PUSH1 0x44 DUP3 ADD MSTORE PUSH32 0x20557365207365745265776172645261746520616E642066756E645265776172 PUSH1 0x64 DUP3 ADD MSTORE PUSH11 0x32399034B739BA32B0B217 PUSH1 0xA9 SHL PUSH1 0x84 DUP3 ADD MSTORE REVERT JUMPDEST POP SWAP1 CALLVALUE PUSH2 0x17C JUMPI PUSH1 0x20 CALLDATASIZE PUSH1 0x3 NOT ADD SLT PUSH2 0x17C JUMPI CALLDATALOAD PUSH1 0x1 PUSH1 0x1 PUSH1 0xA0 SHL SUB DUP2 AND SWAP1 DUP2 SWAP1 SUB PUSH2 0x17C JUMPI DUP3 DUP3 SWAP2 PUSH1 0x20 SWAP5 MSTORE PUSH1 0x3 DUP5 MSTORE KECCAK256 SLOAD SWAP1 MLOAD SWAP1 DUP2 MSTORE RETURN JUMPDEST POP CALLVALUE PUSH2 0x17C JUMPI PUSH1 0x20 SWAP1 DUP2 PUSH1 0x3 NOT CALLDATASIZE ADD SLT PUSH2 0x4EB JUMPI DUP3 CALLDATALOAD SWAP3 PUSH2 0x7D8 PUSH2 0xB34 JUMP JUMPDEST PUSH2 0x7E0 PUSH2 0xAE2 JUMP JUMPDEST PUSH1 0x6 SSTORE TIMESTAMP PUSH1 0x5 SSTORE CALLER PUSH2 0x93D JUMPI JUMPDEST DUP4 ISZERO PUSH2 0x909 JUMPI CALLER DUP6 MSTORE PUSH1 0x3 DUP4 MSTORE DUP4 DUP3 DUP7 KECCAK256 SLOAD LT PUSH2 0x8C8 JUMPI SWAP1 DUP3 DUP5 DUP1 SWAP5 SWAP4 PUSH2 0x819 PUSH2 0x85C SWAP8 PUSH1 0x2 SLOAD PUSH2 0x9EB JUMP JUMPDEST PUSH1 0x2 SSTORE CALLER DUP9 MSTORE PUSH1 0x3 DUP4 MSTORE DUP4 DUP9 KECCAK256 PUSH2 0x831 DUP4 DUP3 SLOAD PUSH2 0x9EB JUMP JUMPDEST SWAP1 SSTORE DUP4 MLOAD PUSH4 0xA9059CBB PUSH1 0xE0 SHL DUP2 MSTORE CALLER SWAP2 DUP2 ADD SWAP2 DUP3 MSTORE PUSH1 0x20 DUP3 ADD SWAP3 SWAP1 SWAP3 MSTORE SWAP1 SWAP6 DUP7 SWAP2 DUP3 SWAP2 PUSH1 0x40 SWAP1 SWAP2 ADD SWAP1 JUMP JUMPDEST SUB DUP2 DUP9 PUSH32 0x0 PUSH1 0x1 PUSH1 0x1 PUSH1 0xA0 SHL SUB AND GAS CALL SWAP4 DUP5 ISZERO PUSH2 0x48B JUMPI PUSH32 0xF5BB82176FEB1B5E747E28471AA92156A04D9F3AB9F45F28E2D704232B93F75 SWAP4 SWAP5 PUSH2 0x46E JUMPI POP MLOAD SWAP3 DUP4 MSTORE CALLER SWAP3 LOG2 PUSH1 0x1 DUP1 SSTORE DUP1 RETURN JUMPDEST DUP3 PUSH1 0x64 SWAP3 MLOAD SWAP2 PUSH3 0x461BCD PUSH1 0xE5 SHL DUP4 MSTORE DUP3 ADD MSTORE PUSH1 0x1E PUSH1 0x24 DUP3 ADD MSTORE PUSH32 0x556E7374616B6520616D6F756E7420657863656564732062616C616E63650000 PUSH1 0x44 DUP3 ADD MSTORE REVERT JUMPDEST DUP3 PUSH1 0x64 SWAP3 MLOAD SWAP2 PUSH3 0x461BCD PUSH1 0xE5 SHL DUP4 MSTORE DUP3 ADD MSTORE PUSH1 0x10 PUSH1 0x24 DUP3 ADD MSTORE PUSH16 0x43616E6E6F7420756E7374616B65203 PUSH1 0x84 SHL PUSH1 0x44 DUP3 ADD MSTORE REVERT JUMPDEST PUSH2 0x946 CALLER PUSH2 0xA2E JUMP JUMPDEST CALLER DUP7 MSTORE PUSH1 0x8 DUP5 MSTORE DUP3 DUP7 KECCAK256 SSTORE PUSH1 0x6 SLOAD PUSH1 0x7 DUP5 MSTORE DUP3 DUP7 KECCAK256 SSTORE PUSH2 0x7ED JUMP JUMPDEST DUP4 DUP3 CALLVALUE PUSH2 0x1C4 JUMPI DUP2 PUSH1 0x3 NOT CALLDATASIZE ADD SLT PUSH2 0x1C4 JUMPI PUSH1 0x20 SWAP1 PUSH1 0x2 SLOAD SWAP1 MLOAD SWAP1 DUP2 MSTORE RETURN JUMPDEST POP SWAP1 CALLVALUE PUSH2 0x17C JUMPI PUSH1 0x20 CALLDATASIZE PUSH1 0x3 NOT ADD SLT PUSH2 0x17C JUMPI CALLDATALOAD PUSH1 0x1 PUSH1 0x1 PUSH1 0xA0 SHL SUB DUP2 AND SWAP1 DUP2 SWAP1 SUB PUSH2 0x17C JUMPI DUP3 DUP3 SWAP2 PUSH1 0x20 SWAP5 MSTORE PUSH1 0x8 DUP5 MSTORE KECCAK256 SLOAD SWAP1 MLOAD SWAP1 DUP2 MSTORE RETURN JUMPDEST POP SWAP1 CALLVALUE PUSH2 0x17C JUMPI PUSH1 0x20 CALLDATASIZE PUSH1 0x3 NOT ADD SLT PUSH2 0x17C JUMPI CALLDATALOAD SWAP2 PUSH1 0x1 PUSH1 0x1 PUSH1 0xA0 SHL SUB DUP4 AND DUP4 SUB PUSH2 0x6EC JUMPI POP PUSH2 0x204 PUSH1 0x20 SWAP3 PUSH2 0xA2E JUMP JUMPDEST SWAP2 SWAP1 DUP3 SUB SWAP2 DUP3 GT PUSH2 0x9F8 JUMPI JUMP JUMPDEST PUSH4 0x4E487B71 PUSH1 0xE0 SHL PUSH1 0x0 MSTORE PUSH1 0x11 PUSH1 0x4 MSTORE PUSH1 0x24 PUSH1 0x0 REVERT JUMPDEST DUP2 DUP2 MUL SWAP3 SWAP2 DUP2 ISZERO SWAP2 DUP5 DIV EQ OR ISZERO PUSH2 0x9F8 JUMPI JUMP JUMPDEST SWAP2 SWAP1 DUP3 ADD DUP1 SWAP3 GT PUSH2 0x9F8 JUMPI JUMP JUMPDEST PUSH2 0xA8A SWAP1 PUSH1 0x1 DUP1 PUSH1 0xA0 SHL SUB AND PUSH1 0x40 PUSH1 0x0 DUP3 DUP2 MSTORE PUSH1 0x3 PUSH1 0x20 MSTORE PUSH8 0xDE0B6B3A7640000 PUSH2 0xA79 DUP4 DUP4 KECCAK256 SLOAD PUSH2 0xA73 PUSH2 0xA61 PUSH2 0xAE2 JUMP JUMPDEST DUP8 DUP7 MSTORE PUSH1 0x7 PUSH1 0x20 MSTORE DUP7 DUP7 KECCAK256 SLOAD SWAP1 PUSH2 0x9EB JUMP JUMPDEST SWAP1 PUSH2 0xA0E JUMP JUMPDEST DIV SWAP3 DUP2 MSTORE PUSH1 0x8 PUSH1 0x20 MSTORE KECCAK256 SLOAD SWAP1 PUSH2 0xA21 JUMP JUMPDEST SWAP1 JUMP JUMPDEST SWAP1 PUSH1 0x1F DUP1 NOT SWAP2 ADD AND DUP2 ADD SWAP1 DUP2 LT PUSH8 0xFFFFFFFFFFFFFFFF DUP3 GT OR PUSH2 0xAAF JUMPI PUSH1 0x40 MSTORE JUMP JUMPDEST PUSH4 0x4E487B71 PUSH1 0xE0 SHL PUSH1 0x0 MSTORE PUSH1 0x41 PUSH1 0x4 MSTORE PUSH1 0x24 PUSH1 0x0 REVERT JUMPDEST SWAP1 DUP2 PUSH1 0x20 SWAP2 SUB SLT PUSH2 0xADD JUMPI MLOAD DUP1 ISZERO ISZERO DUP2 SUB PUSH2 0xADD JUMPI SWAP1 JUMP JUMPDEST PUSH1 0x0 DUP1 REVERT JUMPDEST PUSH1 0x2 SLOAD DUP1 ISZERO PUSH2 0xB2D JUMPI PUSH2 0xAF7 PUSH1 0x5 SLOAD TIMESTAMP PUSH2 0x9EB JUMP JUMPDEST PUSH2 0xB07 PUSH1 0x6 SLOAD SWAP2 PUSH1 0x4 SLOAD SWAP1 PUSH2 0xA0E JUMP JUMPDEST SWAP2 PUSH8 0xDE0B6B3A7640000 SWAP3 DUP4 DUP2 MUL SWAP4 DUP2 DUP6 DIV EQ SWAP1 ISZERO OR ISZERO PUSH2 0x9F8 JUMPI PUSH2 0xA8A SWAP3 DIV SWAP1 PUSH2 0xA21 JUMP JUMPDEST POP PUSH1 0x6 SLOAD SWAP1 JUMP JUMPDEST PUSH1 0x2 PUSH1 0x1 SLOAD EQ PUSH2 0xB45 JUMPI PUSH1 0x2 PUSH1 0x1 SSTORE JUMP JUMPDEST PUSH1 0x40 MLOAD PUSH4 0x3EE5AEB5 PUSH1 0xE0 SHL DUP2 MSTORE PUSH1 0x4 SWAP1 REVERT JUMPDEST PUSH1 0x0 SLOAD PUSH1 0x1 PUSH1 0x1 PUSH1 0xA0 SHL SUB AND CALLER SUB PUSH2 0xB6B JUMPI JUMP JUMPDEST PUSH1 0x40 MLOAD PUSH4 0x118CDAA7 PUSH1 0xE0 SHL DUP2 MSTORE CALLER PUSH1 0x4 DUP3 ADD MSTORE PUSH1 0x24 SWAP1 REVERT INVALID LOG2 PUSH5 0x6970667358 0x22 SLT KECCAK256 0xCC DUP8 0xDF GASPRICE RETURNDATASIZE 0xD1 0xFC 0xDD EQ PUSH28 0xB0D3F62B4894950AF45C4A0D35ACCF5705C50E352ED564736F6C6343 STOP ADDMOD XOR STOP CALLER "},"methodIdentifiers":{"claimReward()":"b88a802f","distributeRewards(uint256)":"59974e38","earned(address)":"008cc262","fundRewards(uint256)":"93707a19","getStakedAmount(address)":"4da6a556","lastUpdateTime()":"c8f33c91","owner()":"8da5cb5b","renounceOwnership()":"715018a6","rewardPerToken()":"cd3daf9d","rewardPerTokenStored()":"df136d65","rewardRate()":"7b0a47ee","rewards(address)":"0700037d","rycToken()":"e7499b7d","setRewardRate(uint256)":"9e447fc6","stake(uint256)":"a694fc3a","totalSupply()":"18160ddd","transferOwnership(address)":"f2fde38b","unstake(uint256)":"2e17de78","userRewardPerTokenPaid(address)":"8b876347"}}}}}