{"src/contracts/DAORegistry.sol":{"DAORegistry":{"abi":[{"inputs":[{"internalType":"address","name":"initialOwner","type":"address"}],"stateMutability":"nonpayable","type":"constructor"},{"inputs":[{"internalType":"address","name":"owner","type":"address"}],"name":"OwnableInvalidOwner","type":"error"},{"inputs":[{"internalType":"address","name":"account","type":"address"}],"name":"OwnableUnauthorizedAccount","type":"error"},{"anonymous":false,"inputs":[{"indexed":true,"internalType":"bytes32","name":"key","type":"bytes32"},{"indexed":false,"internalType":"address","name":"newAddress","type":"address"}],"name":"AddressSet","type":"event"},{"anonymous":false,"inputs":[{"indexed":true,"internalType":"address","name":"previousOwner","type":"address"},{"indexed":true,"internalType":"address","name":"newOwner","type":"address"}],"name":"OwnershipTransferred","type":"event"},{"inputs":[],"name":"ACC_CONTROL","outputs":[{"internalType":"bytes32","name":"","type":"bytes32"}],"stateMutability":"view","type":"function"},{"inputs":[],"name":"FINANCE","outputs":[{"internalType":"bytes32","name":"","type":"bytes32"}],"stateMutability":"view","type":"function"},{"inputs":[],"name":"RAYAN_CHAIN_DAO","outputs":[{"internalType":"bytes32","name":"","type":"bytes32"}],"stateMutability":"view","type":"function"},{"inputs":[],"name":"RAYAN_CHAIN_TOKEN","outputs":[{"internalType":"bytes32","name":"","type":"bytes32"}],"stateMutability":"view","type":"function"},{"inputs":[],"name":"STAKING","outputs":[{"internalType":"bytes32","name":"","type":"bytes32"}],"stateMutability":"view","type":"function"},{"inputs":[],"name":"USER_PROFILE","outputs":[{"internalType":"bytes32","name":"","type":"bytes32"}],"stateMutability":"view","type":"function"},{"inputs":[{"internalType":"bytes32","name":"_key","type":"bytes32"}],"name":"getAddress","outputs":[{"internalType":"address","name":"","type":"address"}],"stateMutability":"view","type":"function"},{"inputs":[],"name":"owner","outputs":[{"internalType":"address","name":"","type":"address"}],"stateMutability":"view","type":"function"},{"inputs":[],"name":"renounceOwnership","outputs":[],"stateMutability":"nonpayable","type":"function"},{"inputs":[{"internalType":"bytes32","name":"_key","type":"bytes32"},{"internalType":"address","name":"_address","type":"address"}],"name":"setAddress","outputs":[],"stateMutability":"nonpayable","type":"function"},{"inputs":[{"internalType":"address","name":"newOwner","type":"address"}],"name":"transferOwnership","outputs":[],"stateMutability":"nonpayable","type":"function"}],"evm":{"bytecode":{"linkReferences":{},"object":"6080346100bb57601f61055738819003918201601f19168301916001600160401b038311848410176100c0578084926020946040528339810103126100bb57516001600160a01b0390818116908190036100bb5780156100a257600080546001600160a01b03198116831782556040519316907f8be0079c531659141344cd1fd0a4f28419497f9722a3daafe3b4186f6b6457e09080a361048090816100d78239f35b604051631e4fbdf760e01b815260006004820152602490fd5b600080fd5b634e487b7160e01b600052604160045260246000fdfe608060408181526004918236101561001657600080fd5b600092833560e01c918263049ba670146103e45750816321f8a721146103b1578163715018a6146103545781638486902d146103195781638da5cb5b146102f15781638fe1db3e146102b657816397610f301461027b578163a797e59414610240578163ca446dd91461016e578163f2fde38b146100db575063f85ec6961461009e57600080fd5b346100d757816003193601126100d757602090517f9619ff105aad40d59361cd856f607d46c195aed5598b859545f531d68191e8728152f35b5080fd5b9190503461016a57602036600319011261016a576001600160a01b038235818116939192908490036101665761010f61041e565b831561015057505082546001600160a01b0319811683178455167f8be0079c531659141344cd1fd0a4f28419497f9722a3daafe3b4186f6b6457e08380a380f35b51631e4fbdf760e01b8152908101849052602490fd5b8480fd5b8280fd5b90503461016a578160031936011261016a578035916024356001600160a01b0381169290839003610166576101a161041e565b82156101f057508284526001602090815281852080546001600160a01b0319168417905590519182527fb37614c7d254ea8d16eb81fa11dddaeb266aa8ba4917980859c7740aff30c69191a280f35b6020608492519162461bcd60e51b8352820152602560248201527f52656769737472793a205a65726f2061646472657373206973206e6f7420616c6044820152641b1bddd95960da1b6064820152fd5b5050346100d757816003193601126100d757602090517f2a3b0ee7bd526d7b828265caf340b39316e9879eb6bbe2cbfbbd337b465be9e98152f35b5050346100d757816003193601126100d757602090517f080909c18c958ce5a2d36481697824e477319323d03154ceba3b78f28a61887b8152f35b5050346100d757816003193601126100d757602090517f36512993acd336097d949a4478961f799de73ee0af350081d8de038d6e4ab7e48152f35b5050346100d757816003193601126100d757905490516001600160a01b039091168152602090f35b5050346100d757816003193601126100d757602090517fe91e69686af56c584e188c4128cbaf29402b5eceaf4d71f2e4497f57e80dea828152f35b83346103ae57806003193601126103ae5761036d61041e565b80546001600160a01b03198116825581906001600160a01b03167f8be0079c531659141344cd1fd0a4f28419497f9722a3daafe3b4186f6b6457e08280a380f35b80fd5b90503461016a57602036600319011261016a5735825260016020908152918190205490516001600160a01b039091168152f35b8490346100d757816003193601126100d757807fc611fdf155bb51222185506f1efb3e8afbb6baae6cfa75519f32d468bb6d7eec60209252f35b6000546001600160a01b0316330361043257565b60405163118cdaa760e01b8152336004820152602490fdfea2646970667358221220638d12795b99e59b87d219828a971a686286a79f91392ee9257013fbf51f2ff964736f6c63430008180033","opcodes":"PUSH1 0x80 CALLVALUE PUSH2 0xBB JUMPI PUSH1 0x1F PUSH2 0x557 CODESIZE DUP2 SWAP1 SUB SWAP2 DUP3 ADD PUSH1 0x1F NOT AND DUP4 ADD SWAP2 PUSH1 0x1 PUSH1 0x1 PUSH1 0x40 SHL SUB DUP4 GT DUP5 DUP5 LT OR PUSH2 0xC0 JUMPI DUP1 DUP5 SWAP3 PUSH1 0x20 SWAP5 PUSH1 0x40 MSTORE DUP4 CODECOPY DUP2 ADD SUB SLT PUSH2 0xBB JUMPI MLOAD PUSH1 0x1 PUSH1 0x1 PUSH1 0xA0 SHL SUB SWAP1 DUP2 DUP2 AND SWAP1 DUP2 SWAP1 SUB PUSH2 0xBB JUMPI DUP1 ISZERO PUSH2 0xA2 JUMPI PUSH1 0x0 DUP1 SLOAD PUSH1 0x1 PUSH1 0x1 PUSH1 0xA0 SHL SUB NOT DUP2 AND DUP4 OR DUP3 SSTORE PUSH1 0x40 MLOAD SWAP4 AND SWAP1 PUSH32 0x8BE0079C531659141344CD1FD0A4F28419497F9722A3DAAFE3B4186F6B6457E0 SWAP1 DUP1 LOG3 PUSH2 0x480 SWAP1 DUP2 PUSH2 0xD7 DUP3 CODECOPY RETURN JUMPDEST PUSH1 0x40 MLOAD PUSH4 0x1E4FBDF7 PUSH1 0xE0 SHL DUP2 MSTORE PUSH1 0x0 PUSH1 0x4 DUP3 ADD MSTORE PUSH1 0x24 SWAP1 REVERT JUMPDEST PUSH1 0x0 DUP1 REVERT JUMPDEST PUSH4 0x4E487B71 PUSH1 0xE0 SHL PUSH1 0x0 MSTORE PUSH1 0x41 PUSH1 0x4 MSTORE PUSH1 0x24 PUSH1 0x0 REVERT INVALID PUSH1 0x80 PUSH1 0x40 DUP2 DUP2 MSTORE PUSH1 0x4 SWAP2 DUP3 CALLDATASIZE LT ISZERO PUSH2 0x16 JUMPI PUSH1 0x0 DUP1 REVERT JUMPDEST PUSH1 0x0 SWAP3 DUP4 CALLDATALOAD PUSH1 0xE0 SHR SWAP2 DUP3 PUSH4 0x49BA670 EQ PUSH2 0x3E4 JUMPI POP DUP2 PUSH4 0x21F8A721 EQ PUSH2 0x3B1 JUMPI DUP2 PUSH4 0x715018A6 EQ PUSH2 0x354 JUMPI DUP2 PUSH4 0x8486902D EQ PUSH2 0x319 JUMPI DUP2 PUSH4 0x8DA5CB5B EQ PUSH2 0x2F1 JUMPI DUP2 PUSH4 0x8FE1DB3E EQ PUSH2 0x2B6 JUMPI DUP2 PUSH4 0x97610F30 EQ PUSH2 0x27B JUMPI DUP2 PUSH4 0xA797E594 EQ PUSH2 0x240 JUMPI DUP2 PUSH4 0xCA446DD9 EQ PUSH2 0x16E JUMPI DUP2 PUSH4 0xF2FDE38B EQ PUSH2 0xDB JUMPI POP PUSH4 0xF85EC696 EQ PUSH2 0x9E JUMPI PUSH1 0x0 DUP1 REVERT JUMPDEST CALLVALUE PUSH2 0xD7 JUMPI DUP2 PUSH1 0x3 NOT CALLDATASIZE ADD SLT PUSH2 0xD7 JUMPI PUSH1 0x20 SWAP1 MLOAD PUSH32 0x9619FF105AAD40D59361CD856F607D46C195AED5598B859545F531D68191E872 DUP2 MSTORE RETURN JUMPDEST POP DUP1 REVERT JUMPDEST SWAP2 SWAP1 POP CALLVALUE PUSH2 0x16A JUMPI PUSH1 0x20 CALLDATASIZE PUSH1 0x3 NOT ADD SLT PUSH2 0x16A JUMPI PUSH1 0x1 PUSH1 0x1 PUSH1 0xA0 SHL SUB DUP3 CALLDATALOAD DUP2 DUP2 AND SWAP4 SWAP2 SWAP3 SWAP1 DUP5 SWAP1 SUB PUSH2 0x166 JUMPI PUSH2 0x10F PUSH2 0x41E JUMP JUMPDEST DUP4 ISZERO PUSH2 0x150 JUMPI POP POP DUP3 SLOAD PUSH1 0x1 PUSH1 0x1 PUSH1 0xA0 SHL SUB NOT DUP2 AND DUP4 OR DUP5 SSTORE AND PUSH32 0x8BE0079C531659141344CD1FD0A4F28419497F9722A3DAAFE3B4186F6B6457E0 DUP4 DUP1 LOG3 DUP1 RETURN JUMPDEST MLOAD PUSH4 0x1E4FBDF7 PUSH1 0xE0 SHL DUP2 MSTORE SWAP1 DUP2 ADD DUP5 SWAP1 MSTORE PUSH1 0x24 SWAP1 REVERT JUMPDEST DUP5 DUP1 REVERT JUMPDEST DUP3 DUP1 REVERT JUMPDEST SWAP1 POP CALLVALUE PUSH2 0x16A JUMPI DUP2 PUSH1 0x3 NOT CALLDATASIZE ADD SLT PUSH2 0x16A JUMPI DUP1 CALLDATALOAD SWAP2 PUSH1 0x24 CALLDATALOAD PUSH1 0x1 PUSH1 0x1 PUSH1 0xA0 SHL SUB DUP2 AND SWAP3 SWAP1 DUP4 SWAP1 SUB PUSH2 0x166 JUMPI PUSH2 0x1A1 PUSH2 0x41E JUMP JUMPDEST DUP3 ISZERO PUSH2 0x1F0 JUMPI POP DUP3 DUP5 MSTORE PUSH1 0x1 PUSH1 0x20 SWAP1 DUP2 MSTORE DUP2 DUP6 KECCAK256 DUP1 SLOAD PUSH1 0x1 PUSH1 0x1 PUSH1 0xA0 SHL SUB NOT AND DUP5 OR SWAP1 SSTORE SWAP1 MLOAD SWAP2 DUP3 MSTORE PUSH32 0xB37614C7D254EA8D16EB81FA11DDDAEB266AA8BA4917980859C7740AFF30C691 SWAP2 LOG2 DUP1 RETURN JUMPDEST PUSH1 0x20 PUSH1 0x84 SWAP3 MLOAD SWAP2 PUSH3 0x461BCD PUSH1 0xE5 SHL DUP4 MSTORE DUP3 ADD MSTORE PUSH1 0x25 PUSH1 0x24 DUP3 ADD MSTORE PUSH32 0x52656769737472793A205A65726F2061646472657373206973206E6F7420616C PUSH1 0x44 DUP3 ADD MSTORE PUSH5 0x1B1BDDD959 PUSH1 0xDA SHL PUSH1 0x64 DUP3 ADD MSTORE REVERT JUMPDEST POP POP CALLVALUE PUSH2 0xD7 JUMPI DUP2 PUSH1 0x3 NOT CALLDATASIZE ADD SLT PUSH2 0xD7 JUMPI PUSH1 0x20 SWAP1 MLOAD PUSH32 0x2A3B0EE7BD526D7B828265CAF340B39316E9879EB6BBE2CBFBBD337B465BE9E9 DUP2 MSTORE RETURN JUMPDEST POP POP CALLVALUE PUSH2 0xD7 JUMPI DUP2 PUSH1 0x3 NOT CALLDATASIZE ADD SLT PUSH2 0xD7 JUMPI PUSH1 0x20 SWAP1 MLOAD PUSH32 0x80909C18C958CE5A2D36481697824E477319323D03154CEBA3B78F28A61887B DUP2 MSTORE RETURN JUMPDEST POP POP CALLVALUE PUSH2 0xD7 JUMPI DUP2 PUSH1 0x3 NOT CALLDATASIZE ADD SLT PUSH2 0xD7 JUMPI PUSH1 0x20 SWAP1 MLOAD PUSH32 0x36512993ACD336097D949A4478961F799DE73EE0AF350081D8DE038D6E4AB7E4 DUP2 MSTORE RETURN JUMPDEST POP POP CALLVALUE PUSH2 0xD7 JUMPI DUP2 PUSH1 0x3 NOT CALLDATASIZE ADD SLT PUSH2 0xD7 JUMPI SWAP1 SLOAD SWAP1 MLOAD PUSH1 0x1 PUSH1 0x1 PUSH1 0xA0 SHL SUB SWAP1 SWAP2 AND DUP2 MSTORE PUSH1 0x20 SWAP1 RETURN JUMPDEST POP POP CALLVALUE PUSH2 0xD7 JUMPI DUP2 PUSH1 0x3 NOT CALLDATASIZE ADD SLT PUSH2 0xD7 JUMPI PUSH1 0x20 SWAP1 MLOAD PUSH32 0xE91E69686AF56C584E188C4128CBAF29402B5ECEAF4D71F2E4497F57E80DEA82 DUP2 MSTORE RETURN JUMPDEST DUP4 CALLVALUE PUSH2 0x3AE JUMPI DUP1 PUSH1 0x3 NOT CALLDATASIZE ADD SLT PUSH2 0x3AE JUMPI PUSH2 0x36D PUSH2 0x41E JUMP JUMPDEST DUP1 SLOAD PUSH1 0x1 PUSH1 0x1 PUSH1 0xA0 SHL SUB NOT DUP2 AND DUP3 SSTORE DUP2 SWAP1 PUSH1 0x1 PUSH1 0x1 PUSH1 0xA0 SHL SUB AND PUSH32 0x8BE0079C531659141344CD1FD0A4F28419497F9722A3DAAFE3B4186F6B6457E0 DUP3 DUP1 LOG3 DUP1 RETURN JUMPDEST DUP1 REVERT JUMPDEST SWAP1 POP CALLVALUE PUSH2 0x16A JUMPI PUSH1 0x20 CALLDATASIZE PUSH1 0x3 NOT ADD SLT PUSH2 0x16A JUMPI CALLDATALOAD DUP3 MSTORE PUSH1 0x1 PUSH1 0x20 SWAP1 DUP2 MSTORE SWAP2 DUP2 SWAP1 KECCAK256 SLOAD SWAP1 MLOAD PUSH1 0x1 PUSH1 0x1 PUSH1 0xA0 SHL SUB SWAP1 SWAP2 AND DUP2 MSTORE RETURN JUMPDEST DUP5 SWAP1 CALLVALUE PUSH2 0xD7 JUMPI DUP2 PUSH1 0x3 NOT CALLDATASIZE ADD SLT PUSH2 0xD7 JUMPI DUP1 PUSH32 0xC611FDF155BB51222185506F1EFB3E8AFBB6BAAE6CFA75519F32D468BB6D7EEC PUSH1 0x20 SWAP3 MSTORE RETURN JUMPDEST PUSH1 0x0 SLOAD PUSH1 0x1 PUSH1 0x1 PUSH1 0xA0 SHL SUB AND CALLER SUB PUSH2 0x432 JUMPI JUMP JUMPDEST PUSH1 0x40 MLOAD PUSH4 0x118CDAA7 PUSH1 0xE0 SHL DUP2 MSTORE CALLER PUSH1 0x4 DUP3 ADD MSTORE PUSH1 0x24 SWAP1 REVERT INVALID LOG2 PUSH5 0x6970667358 0x22 SLT KECCAK256 PUSH4 0x8D12795B SWAP10 0xE5 SWAP12 DUP8 0xD2 NOT DUP3 DUP11 SWAP8 BYTE PUSH9 0x6286A79F91392EE925 PUSH17 0x13FBF51F2FF964736F6C63430008180033 "},"methodIdentifiers":{"ACC_CONTROL()":"a797e594","FINANCE()":"8486902d","RAYAN_CHAIN_DAO()":"049ba670","RAYAN_CHAIN_TOKEN()":"f85ec696","STAKING()":"97610f30","USER_PROFILE()":"8fe1db3e","getAddress(bytes32)":"21f8a721","owner()":"8da5cb5b","renounceOwnership()":"715018a6","setAddress(bytes32,address)":"ca446dd9","transferOwnership(address)":"f2fde38b"}}}}}