{"src/contracts/Finance.sol":{"Finance":{"abi":[{"inputs":[{"internalType":"address","name":"_initialOwner","type":"address"},{"internalType":"address","name":"_tokenAddress","type":"address"},{"internalType":"uint256","name":"_platformFeeBps","type":"uint256"}],"stateMutability":"nonpayable","type":"constructor"},{"inputs":[{"internalType":"address","name":"owner","type":"address"}],"name":"OwnableInvalidOwner","type":"error"},{"inputs":[{"internalType":"address","name":"account","type":"address"}],"name":"OwnableUnauthorizedAccount","type":"error"},{"inputs":[],"name":"ReentrancyGuardReentrantCall","type":"error"},{"anonymous":false,"inputs":[{"indexed":true,"internalType":"address","name":"newDaoAddress","type":"address"}],"name":"DaoAddressSet","type":"event"},{"anonymous":false,"inputs":[{"indexed":true,"internalType":"address","name":"from","type":"address"},{"indexed":false,"internalType":"uint256","name":"amount","type":"uint256"}],"name":"FundsDeposited","type":"event"},{"anonymous":false,"inputs":[{"indexed":true,"internalType":"address","name":"recipient","type":"address"},{"indexed":false,"internalType":"uint256","name":"amount","type":"uint256"}],"name":"FundsReleased","type":"event"},{"anonymous":false,"inputs":[{"indexed":true,"internalType":"uint256","name":"proposalId","type":"uint256"}],"name":"InvestmentCancelled","type":"event"},{"anonymous":false,"inputs":[{"indexed":true,"internalType":"uint256","name":"proposalId","type":"uint256"},{"indexed":true,"internalType":"address","name":"recipient","type":"address"},{"indexed":false,"internalType":"uint256","name":"totalAmount","type":"uint256"},{"indexed":false,"internalType":"uint8","name":"milestoneCount","type":"uint8"}],"name":"InvestmentRegistered","type":"event"},{"anonymous":false,"inputs":[{"indexed":true,"internalType":"uint256","name":"proposalId","type":"uint256"},{"indexed":false,"internalType":"uint256","name":"amount","type":"uint256"},{"indexed":false,"internalType":"uint8","name":"milestoneNumber","type":"uint8"}],"name":"MilestoneReleased","type":"event"},{"anonymous":false,"inputs":[{"indexed":true,"internalType":"address","name":"to","type":"address"},{"indexed":false,"internalType":"uint256","name":"amount","type":"uint256"}],"name":"NativeFundsWithdrawn","type":"event"},{"anonymous":false,"inputs":[{"indexed":true,"internalType":"address","name":"previousOwner","type":"address"},{"indexed":true,"internalType":"address","name":"newOwner","type":"address"}],"name":"OwnershipTransferred","type":"event"},{"anonymous":false,"inputs":[{"indexed":true,"internalType":"uint256","name":"proposalId","type":"uint256"},{"indexed":false,"internalType":"uint256","name":"feeAmount","type":"uint256"}],"name":"PlatformFeeTaken","type":"event"},{"anonymous":false,"inputs":[{"indexed":true,"internalType":"address","name":"to","type":"address"},{"indexed":false,"internalType":"uint256","name":"amount","type":"uint256"}],"name":"TokenFundsWithdrawn","type":"event"},{"inputs":[],"name":"daoAddress","outputs":[{"internalType":"address","name":"","type":"address"}],"stateMutability":"view","type":"function"},{"inputs":[{"internalType":"uint256","name":"","type":"uint256"}],"name":"investments","outputs":[{"internalType":"address","name":"recipient","type":"address"},{"internalType":"uint256","name":"totalAmount","type":"uint256"},{"internalType":"uint256","name":"releasedAmount","type":"uint256"},{"internalType":"uint8","name":"milestoneCount","type":"uint8"},{"internalType":"uint8","name":"currentMilestone","type":"uint8"},{"internalType":"bool","name":"isActive","type":"bool"}],"stateMutability":"view","type":"function"},{"inputs":[],"name":"owner","outputs":[{"internalType":"address","name":"","type":"address"}],"stateMutability":"view","type":"function"},{"inputs":[],"name":"platformFeeBps","outputs":[{"internalType":"uint256","name":"","type":"uint256"}],"stateMutability":"view","type":"function"},{"inputs":[{"internalType":"uint256","name":"_proposalId","type":"uint256"},{"internalType":"address","name":"_recipient","type":"address"},{"internalType":"uint256","name":"_totalAmount","type":"uint256"},{"internalType":"uint8","name":"_milestoneCount","type":"uint8"}],"name":"registerInvestment","outputs":[],"stateMutability":"nonpayable","type":"function"},{"inputs":[{"internalType":"address payable","name":"","type":"address"},{"internalType":"uint256","name":"","type":"uint256"}],"name":"releaseFunds","outputs":[],"stateMutability":"view","type":"function"},{"inputs":[{"internalType":"uint256","name":"_proposalId","type":"uint256"}],"name":"releaseNextMilestone","outputs":[],"stateMutability":"nonpayable","type":"function"},{"inputs":[],"name":"renounceOwnership","outputs":[],"stateMutability":"nonpayable","type":"function"},{"inputs":[{"internalType":"address","name":"_daoAddress","type":"address"}],"name":"setDaoAddress","outputs":[],"stateMutability":"nonpayable","type":"function"},{"inputs":[],"name":"token","outputs":[{"internalType":"contract IERC20","name":"","type":"address"}],"stateMutability":"view","type":"function"},{"inputs":[{"internalType":"address","name":"newOwner","type":"address"}],"name":"transferOwnership","outputs":[],"stateMutability":"nonpayable","type":"function"},{"inputs":[{"internalType":"address payable","name":"to","type":"address"},{"internalType":"uint256","name":"amount","type":"uint256"}],"name":"withdraw","outputs":[],"stateMutability":"nonpayable","type":"function"},{"inputs":[{"internalType":"address","name":"to","type":"address"},{"internalType":"uint256","name":"amount","type":"uint256"}],"name":"withdrawTokens","outputs":[],"stateMutability":"nonpayable","type":"function"},{"stateMutability":"payable","type":"receive"}],"evm":{"bytecode":{"linkReferences":{},"object":"60a03461018557601f61116838819003918201601f191683019291906001600160401b0384118385101761018a5781606092849260409687528339810103126101855761004b816101a0565b82610058602084016101a0565b920151916001600160a01b03918216801561016d57600080546001600160a01b03198116831782558416907f8be0079c531659141344cd1fd0a4f28419497f9722a3daafe3b4186f6b6457e09080a360018055168015610129576103e882116100e55760805260035551610fb390816101b58239608051818181610169015281816105fc0152610ce70152f35b825162461bcd60e51b815260206004820152601560248201527f4665652063616e6e6f74206578636565642031302500000000000000000000006044820152606490fd5b825162461bcd60e51b815260206004820152601c60248201527f546f6b656e2063616e6e6f74206265207a65726f2061646472657373000000006044820152606490fd5b8451631e4fbdf760e01b815260006004820152602490fd5b600080fd5b634e487b7160e01b600052604160045260246000fd5b51906001600160a01b03821682036101855756fe604060808152600480361015610048575b50361561001c57600080fd5b513481527f543ba50a5eec5e6178218e364b1d0f396157b3c8fa278522c2cb7fd99407d47460203392a2005b90600091823560e01c806306b091f914610c975780632131c68c14610c6e57806322dcd13e14610c4f57806329e4cac41461098d578063638af63e14610559578063715018a6146104ff5780638da5cb5b146104d75780639a3cac6a1461041b578063d6e982e514610385578063f2fde38b146102ff578063f3fef3a31461019c578063fc0c546a146101545763fd345c8a146100e6575090610010565b34610150576020366003190112610150578160c0938260ff93358252602052209160018060a01b03835416926001810154916003600283015492015492815195865260208601528401528181166060840152818160081c16608084015260101c16151560a0820152f35b8280fd5b505034610198578160031936011261019857517f00000000000000000000000000000000000000000000000000000000000000006001600160a01b03168152602090f35b5080fd5b509034610150576101ac36610eb8565b91906101b6610f2e565b6101be610f5a565b8247106102b0576001600160a01b0316928480808086885af13d156102ab573d67ffffffffffffffff811161029857835190610204601f8201601f191660200183610ede565b81528660203d92013e5b1561024557507fd50b71a2790ecccf5881141fe9ae079e17c66aace5d50ba383d443ecd398ffa59160209151908152a26001805580f35b6020608492519162461bcd60e51b8352820152602860248201527f46696e616e63653a204e61746976652063757272656e6379207472616e7366656044820152671c8819985a5b195960c21b6064820152fd5b634e487b7160e01b875260418352602487fd5b61020e565b815162461bcd60e51b81526020818601526024808201527f46696e616e63653a20496e73756666696369656e74206e61746976652062616c604482015263616e636560e01b6064820152608490fd5b503461015057602036600319011261015057610319610e9d565b90610322610f2e565b6001600160a01b0391821692831561036f57505082546001600160a01b0319811683178455167f8be0079c531659141344cd1fd0a4f28419497f9722a3daafe3b4186f6b6457e08380a380f35b51631e4fbdf760e01b8152908101849052602490fd5b5082346104185750602060a49261039b36610eb8565b50506103a5610f2e565b5162461bcd60e51b815291820152604760248201527f46696e616e63653a20546869732066756e6374696f6e2069732064657072656360448201527f617465642e205573652072656c656173654e6578744d696c6573746f6e6520696064820152663739ba32b0b21760c91b6084820152fd5b80fd5b503461015057602036600319011261015057610435610e9d565b61043d610f2e565b6001600160a01b0316918215610488575050600280546001600160a01b031916821790557ff1034ad6b4d45dc33a4142b9c51c2b7f89bf4a410696e426cc0f3224869e0aca8280a280f35b906020608492519162461bcd60e51b8352820152602360248201527f46696e616e63653a2044414f20616464726573732063616e6e6f74206265207a60448201526265726f60e81b6064820152fd5b505034610198578160031936011261019857905490516001600160a01b039091168152602090f35b8334610418578060031936011261041857610518610f2e565b80546001600160a01b03198116825581906001600160a01b03167f8be0079c531659141344cd1fd0a4f28419497f9722a3daafe3b4186f6b6457e08280a380f35b5091903461019857602090816003193601126101505783359161057a610f5a565b610582610f2e565b8284528481528184206003810180549160ff92838160101c161561094a578381169060081c84168111156108fd57600182015481156108ea5704906003548083029083820414831517156108d757612710900494858303958387116108c45787516370a0823160e01b8152308c8201526001600160a01b037f000000000000000000000000000000000000000000000000000000000000000081169290918481602481875afa9081156108ba579087918e91610885575b501061082b57610689928d8d86948e8e878f97806107fb575b50505050885416918d519687958694859363a9059cbb60e01b8552840160209093929193604081019460018060a01b031681520152565b03925af19081156107f1578a916107c4575b501561076e5750600201805491820180921161075b575581815460081c1682811461074857815461ff001916600190910160081b61ff00161781557f39f915d515e1ad5b9681b432c41d1a92bddd82df2fbb529c8b424bde672607ec939291610730918054828116838260081c161461073a575b505460081c1692519283928390929160ff6020916040840195845216910152565b0390a26001805580f35b62ff0000191681558861070f565b634e487b7160e01b875260118852602487fd5b634e487b7160e01b885260118952602488fd5b8960849188519162461bcd60e51b8352820152602b60248201527f46696e616e63653a20546f6b656e207472616e7366657220746f20726563697060448201526a1a595b9d0819985a5b195960aa1b6064820152fd5b6107e49150823d84116107ea575b6107dc8183610ede565b810190610f16565b3861069b565b503d6107d2565b88513d8c823e3d90fd5b7f88b2acb95aa96593aaef36316ea22270c9bf94cf087ca55246c0dc22c5a5199e9251908152a28e8e8738610652565b895162461bcd60e51b8152808e01859052602e60248201527f46696e616e63653a20496e73756666696369656e742066756e647320666f722060448201526d74686973206d696c6573746f6e6560901b6064820152608490fd5b809250868092503d83116108b3575b61089e8183610ede565b810103126108af5786905138610639565b8c80fd5b503d610894565b8b513d8f823e3d90fd5b634e487b7160e01b8a5260118b5260248afd5b634e487b7160e01b895260118a52602489fd5b634e487b7160e01b895260128a52602489fd5b855162461bcd60e51b8152808a01869052602160248201527f416c6c206d696c6573746f6e65732068617665206265656e2072656c656173656044820152601960fa1b6064820152608490fd5b855162461bcd60e51b8152808a01869052601860248201527f496e766573746d656e74206973206e6f742061637469766500000000000000006044820152606490fd5b50829034610198576080366003190112610198576001600160a01b03926024803585811693803593909291859003610c4b57604435916064359360ff851698898603610c47576109db610f2e565b8715610c06578415610bb5578915610b74578689528160205260ff6003858b20015460101c16610b1e5783519260c084019084821067ffffffffffffffff831117610b0d575060ff8881600388978e9f978e9f7f9965c2d68d7ba3300ad3d4b4549699d007476cb578988093b8c911c37e8bef519e9f988b8e9260019b610b079f9b610ad89c5286526020860193845281860194818652606087019d8e526080870199828b5260a088019d8e528252602052209351166bffffffffffffffffffffffff60a01b8454161783555160018301555160028201550195511682198654161785555116839061ff0082549160081b169061ff001916179055565b51815462ff0000191690151560101b62ff0000161790555191825260ff90921660208201529081906040820190565b0390a380f35b634e487b7160e01b8b52604184528afd5b50602b608492602085519362461bcd60e51b85528401528201527f496e766573746d656e7420666f7220746869732070726f706f73616c20616c7260448201526a656164792065786973747360a81b6064820152fd5b5060206064928185519362461bcd60e51b85528401528201527f4d7573742068617665206174206c65617374206f6e65206d696c6573746f6e656044820152fd5b506026608492602085519362461bcd60e51b85528401528201527f546f74616c20616d6f756e74206d7573742062652067726561746572207468616044820152656e207a65726f60d01b6064820152fd5b5060206064928185519362461bcd60e51b85528401528201527f526563697069656e742063616e6e6f74206265207a65726f20616464726573736044820152fd5b8880fd5b8580fd5b5050346101985781600319360112610198576020906003549051908152f35b50503461019857816003193601126101985760025490516001600160a01b039091168152602090f35b50829034610198578260031936011261019857610cb2610e9d565b9060243591610cbf610f2e565b610cc7610f5a565b84516370a0823160e01b815230818401526020926001600160a01b0392917f00000000000000000000000000000000000000000000000000000000000000008416908581602481855afa908115610e93579087918991610e5e575b5010610e1b57875163a9059cbb60e01b81526001600160a01b038416838201908152602081018890529091869183919082908b90829060400103925af1908115610e11578791610df4575b5015610da657507f1321d2e7f45f7db82b8674b3b205b2d394b8d5096118ff08373ec5394f2d24a1939495519485521692a26001805580f35b865162461bcd60e51b8152908101849052602260248201527f46696e616e63653a2052594320746f6b656e207472616e73666572206661696c604482015261195960f21b6064820152608490fd5b610e0b9150853d87116107ea576107dc8183610ede565b88610d6d565b88513d89823e3d90fd5b875162461bcd60e51b8152808301869052601f60248201527f46696e616e63653a20496e73756666696369656e74205259432066756e6473006044820152606490fd5b809250878092503d8311610e8c575b610e778183610ede565b81010312610e88578690518a610d22565b8780fd5b503d610e6d565b89513d8a823e3d90fd5b600435906001600160a01b0382168203610eb357565b600080fd5b6040906003190112610eb3576004356001600160a01b0381168103610eb3579060243590565b90601f8019910116810190811067ffffffffffffffff821117610f0057604052565b634e487b7160e01b600052604160045260246000fd5b90816020910312610eb357518015158103610eb35790565b6000546001600160a01b03163303610f4257565b60405163118cdaa760e01b8152336004820152602490fd5b600260015414610f6b576002600155565b604051633ee5aeb560e01b8152600490fdfea2646970667358221220347e01669381ff97f232ee2fd2fef03cc6881857c43db3541ec5443fa5158ffe64736f6c63430008180033","opcodes":"PUSH1 0xA0 CALLVALUE PUSH2 0x185 JUMPI PUSH1 0x1F PUSH2 0x1168 CODESIZE DUP2 SWAP1 SUB SWAP2 DUP3 ADD PUSH1 0x1F NOT AND DUP4 ADD SWAP3 SWAP2 SWAP1 PUSH1 0x1 PUSH1 0x1 PUSH1 0x40 SHL SUB DUP5 GT DUP4 DUP6 LT OR PUSH2 0x18A JUMPI DUP2 PUSH1 0x60 SWAP3 DUP5 SWAP3 PUSH1 0x40 SWAP7 DUP8 MSTORE DUP4 CODECOPY DUP2 ADD SUB SLT PUSH2 0x185 JUMPI PUSH2 0x4B DUP2 PUSH2 0x1A0 JUMP JUMPDEST DUP3 PUSH2 0x58 PUSH1 0x20 DUP5 ADD PUSH2 0x1A0 JUMP JUMPDEST SWAP3 ADD MLOAD SWAP2 PUSH1 0x1 PUSH1 0x1 PUSH1 0xA0 SHL SUB SWAP2 DUP3 AND DUP1 ISZERO PUSH2 0x16D JUMPI PUSH1 0x0 DUP1 SLOAD PUSH1 0x1 PUSH1 0x1 PUSH1 0xA0 SHL SUB NOT DUP2 AND DUP4 OR DUP3 SSTORE DUP5 AND SWAP1 PUSH32 0x8BE0079C531659141344CD1FD0A4F28419497F9722A3DAAFE3B4186F6B6457E0 SWAP1 DUP1 LOG3 PUSH1 0x1 DUP1 SSTORE AND DUP1 ISZERO PUSH2 0x129 JUMPI PUSH2 0x3E8 DUP3 GT PUSH2 0xE5 JUMPI PUSH1 0x80 MSTORE PUSH1 0x3 SSTORE MLOAD PUSH2 0xFB3 SWAP1 DUP2 PUSH2 0x1B5 DUP3 CODECOPY PUSH1 0x80 MLOAD DUP2 DUP2 DUP2 PUSH2 0x169 ADD MSTORE DUP2 DUP2 PUSH2 0x5FC ADD MSTORE PUSH2 0xCE7 ADD MSTORE RETURN JUMPDEST DUP3 MLOAD PUSH3 0x461BCD PUSH1 0xE5 SHL DUP2 MSTORE PUSH1 0x20 PUSH1 0x4 DUP3 ADD MSTORE PUSH1 0x15 PUSH1 0x24 DUP3 ADD MSTORE PUSH32 0x4665652063616E6E6F7420657863656564203130250000000000000000000000 PUSH1 0x44 DUP3 ADD MSTORE PUSH1 0x64 SWAP1 REVERT JUMPDEST DUP3 MLOAD PUSH3 0x461BCD PUSH1 0xE5 SHL DUP2 MSTORE PUSH1 0x20 PUSH1 0x4 DUP3 ADD MSTORE PUSH1 0x1C PUSH1 0x24 DUP3 ADD MSTORE PUSH32 0x546F6B656E2063616E6E6F74206265207A65726F206164647265737300000000 PUSH1 0x44 DUP3 ADD MSTORE PUSH1 0x64 SWAP1 REVERT JUMPDEST DUP5 MLOAD PUSH4 0x1E4FBDF7 PUSH1 0xE0 SHL DUP2 MSTORE PUSH1 0x0 PUSH1 0x4 DUP3 ADD MSTORE PUSH1 0x24 SWAP1 REVERT JUMPDEST PUSH1 0x0 DUP1 REVERT JUMPDEST PUSH4 0x4E487B71 PUSH1 0xE0 SHL PUSH1 0x0 MSTORE PUSH1 0x41 PUSH1 0x4 MSTORE PUSH1 0x24 PUSH1 0x0 REVERT JUMPDEST MLOAD SWAP1 PUSH1 0x1 PUSH1 0x1 PUSH1 0xA0 SHL SUB DUP3 AND DUP3 SUB PUSH2 0x185 JUMPI JUMP INVALID PUSH1 0x40 PUSH1 0x80 DUP2 MSTORE PUSH1 0x4 DUP1 CALLDATASIZE LT ISZERO PUSH2 0x48 JUMPI JUMPDEST POP CALLDATASIZE ISZERO PUSH2 0x1C JUMPI PUSH1 0x0 DUP1 REVERT JUMPDEST MLOAD CALLVALUE DUP2 MSTORE PUSH32 0x543BA50A5EEC5E6178218E364B1D0F396157B3C8FA278522C2CB7FD99407D474 PUSH1 0x20 CALLER SWAP3 LOG2 STOP JUMPDEST SWAP1 PUSH1 0x0 SWAP2 DUP3 CALLDATALOAD PUSH1 0xE0 SHR DUP1 PUSH4 0x6B091F9 EQ PUSH2 0xC97 JUMPI DUP1 PUSH4 0x2131C68C EQ PUSH2 0xC6E JUMPI DUP1 PUSH4 0x22DCD13E EQ PUSH2 0xC4F JUMPI DUP1 PUSH4 0x29E4CAC4 EQ PUSH2 0x98D JUMPI DUP1 PUSH4 0x638AF63E EQ PUSH2 0x559 JUMPI DUP1 PUSH4 0x715018A6 EQ PUSH2 0x4FF JUMPI DUP1 PUSH4 0x8DA5CB5B EQ PUSH2 0x4D7 JUMPI DUP1 PUSH4 0x9A3CAC6A EQ PUSH2 0x41B JUMPI DUP1 PUSH4 0xD6E982E5 EQ PUSH2 0x385 JUMPI DUP1 PUSH4 0xF2FDE38B EQ PUSH2 0x2FF JUMPI DUP1 PUSH4 0xF3FEF3A3 EQ PUSH2 0x19C JUMPI DUP1 PUSH4 0xFC0C546A EQ PUSH2 0x154 JUMPI PUSH4 0xFD345C8A EQ PUSH2 0xE6 JUMPI POP SWAP1 PUSH2 0x10 JUMP JUMPDEST CALLVALUE PUSH2 0x150 JUMPI PUSH1 0x20 CALLDATASIZE PUSH1 0x3 NOT ADD SLT PUSH2 0x150 JUMPI DUP2 PUSH1 0xC0 SWAP4 DUP3 PUSH1 0xFF SWAP4 CALLDATALOAD DUP3 MSTORE PUSH1 0x20 MSTORE KECCAK256 SWAP2 PUSH1 0x1 DUP1 PUSH1 0xA0 SHL SUB DUP4 SLOAD AND SWAP3 PUSH1 0x1 DUP2 ADD SLOAD SWAP2 PUSH1 0x3 PUSH1 0x2 DUP4 ADD SLOAD SWAP3 ADD SLOAD SWAP3 DUP2 MLOAD SWAP6 DUP7 MSTORE PUSH1 0x20 DUP7 ADD MSTORE DUP5 ADD MSTORE DUP2 DUP2 AND PUSH1 0x60 DUP5 ADD MSTORE DUP2 DUP2 PUSH1 0x8 SHR AND PUSH1 0x80 DUP5 ADD MSTORE PUSH1 0x10 SHR AND ISZERO ISZERO PUSH1 0xA0 DUP3 ADD MSTORE RETURN JUMPDEST DUP3 DUP1 REVERT JUMPDEST POP POP CALLVALUE PUSH2 0x198 JUMPI DUP2 PUSH1 0x3 NOT CALLDATASIZE ADD SLT PUSH2 0x198 JUMPI MLOAD PUSH32 0x0 PUSH1 0x1 PUSH1 0x1 PUSH1 0xA0 SHL SUB AND DUP2 MSTORE PUSH1 0x20 SWAP1 RETURN JUMPDEST POP DUP1 REVERT JUMPDEST POP SWAP1 CALLVALUE PUSH2 0x150 JUMPI PUSH2 0x1AC CALLDATASIZE PUSH2 0xEB8 JUMP JUMPDEST SWAP2 SWAP1 PUSH2 0x1B6 PUSH2 0xF2E JUMP JUMPDEST PUSH2 0x1BE PUSH2 0xF5A JUMP JUMPDEST DUP3 SELFBALANCE LT PUSH2 0x2B0 JUMPI PUSH1 0x1 PUSH1 0x1 PUSH1 0xA0 SHL SUB AND SWAP3 DUP5 DUP1 DUP1 DUP1 DUP7 DUP9 GAS CALL RETURNDATASIZE ISZERO PUSH2 0x2AB JUMPI RETURNDATASIZE PUSH8 0xFFFFFFFFFFFFFFFF DUP2 GT PUSH2 0x298 JUMPI DUP4 MLOAD SWAP1 PUSH2 0x204 PUSH1 0x1F DUP3 ADD PUSH1 0x1F NOT AND PUSH1 0x20 ADD DUP4 PUSH2 0xEDE JUMP JUMPDEST DUP2 MSTORE DUP7 PUSH1 0x20 RETURNDATASIZE SWAP3 ADD RETURNDATACOPY JUMPDEST ISZERO PUSH2 0x245 JUMPI POP PUSH32 0xD50B71A2790ECCCF5881141FE9AE079E17C66AACE5D50BA383D443ECD398FFA5 SWAP2 PUSH1 0x20 SWAP2 MLOAD SWAP1 DUP2 MSTORE LOG2 PUSH1 0x1 DUP1 SSTORE DUP1 RETURN JUMPDEST PUSH1 0x20 PUSH1 0x84 SWAP3 MLOAD SWAP2 PUSH3 0x461BCD PUSH1 0xE5 SHL DUP4 MSTORE DUP3 ADD MSTORE PUSH1 0x28 PUSH1 0x24 DUP3 ADD MSTORE PUSH32 0x46696E616E63653A204E61746976652063757272656E6379207472616E736665 PUSH1 0x44 DUP3 ADD MSTORE PUSH8 0x1C8819985A5B1959 PUSH1 0xC2 SHL PUSH1 0x64 DUP3 ADD MSTORE REVERT JUMPDEST PUSH4 0x4E487B71 PUSH1 0xE0 SHL DUP8 MSTORE PUSH1 0x41 DUP4 MSTORE PUSH1 0x24 DUP8 REVERT JUMPDEST PUSH2 0x20E JUMP JUMPDEST DUP2 MLOAD PUSH3 0x461BCD PUSH1 0xE5 SHL DUP2 MSTORE PUSH1 0x20 DUP2 DUP7 ADD MSTORE PUSH1 0x24 DUP1 DUP3 ADD MSTORE PUSH32 0x46696E616E63653A20496E73756666696369656E74206E61746976652062616C PUSH1 0x44 DUP3 ADD MSTORE PUSH4 0x616E6365 PUSH1 0xE0 SHL PUSH1 0x64 DUP3 ADD MSTORE PUSH1 0x84 SWAP1 REVERT JUMPDEST POP CALLVALUE PUSH2 0x150 JUMPI PUSH1 0x20 CALLDATASIZE PUSH1 0x3 NOT ADD SLT PUSH2 0x150 JUMPI PUSH2 0x319 PUSH2 0xE9D JUMP JUMPDEST SWAP1 PUSH2 0x322 PUSH2 0xF2E JUMP JUMPDEST PUSH1 0x1 PUSH1 0x1 PUSH1 0xA0 SHL SUB SWAP2 DUP3 AND SWAP3 DUP4 ISZERO PUSH2 0x36F JUMPI POP POP DUP3 SLOAD PUSH1 0x1 PUSH1 0x1 PUSH1 0xA0 SHL SUB NOT DUP2 AND DUP4 OR DUP5 SSTORE AND PUSH32 0x8BE0079C531659141344CD1FD0A4F28419497F9722A3DAAFE3B4186F6B6457E0 DUP4 DUP1 LOG3 DUP1 RETURN JUMPDEST MLOAD PUSH4 0x1E4FBDF7 PUSH1 0xE0 SHL DUP2 MSTORE SWAP1 DUP2 ADD DUP5 SWAP1 MSTORE PUSH1 0x24 SWAP1 REVERT JUMPDEST POP DUP3 CALLVALUE PUSH2 0x418 JUMPI POP PUSH1 0x20 PUSH1 0xA4 SWAP3 PUSH2 0x39B CALLDATASIZE PUSH2 0xEB8 JUMP JUMPDEST POP POP PUSH2 0x3A5 PUSH2 0xF2E JUMP JUMPDEST MLOAD PUSH3 0x461BCD PUSH1 0xE5 SHL DUP2 MSTORE SWAP2 DUP3 ADD MSTORE PUSH1 0x47 PUSH1 0x24 DUP3 ADD MSTORE PUSH32 0x46696E616E63653A20546869732066756E6374696F6E20697320646570726563 PUSH1 0x44 DUP3 ADD MSTORE PUSH32 0x617465642E205573652072656C656173654E6578744D696C6573746F6E652069 PUSH1 0x64 DUP3 ADD MSTORE PUSH7 0x3739BA32B0B217 PUSH1 0xC9 SHL PUSH1 0x84 DUP3 ADD MSTORE REVERT JUMPDEST DUP1 REVERT JUMPDEST POP CALLVALUE PUSH2 0x150 JUMPI PUSH1 0x20 CALLDATASIZE PUSH1 0x3 NOT ADD SLT PUSH2 0x150 JUMPI PUSH2 0x435 PUSH2 0xE9D JUMP JUMPDEST PUSH2 0x43D PUSH2 0xF2E JUMP JUMPDEST PUSH1 0x1 PUSH1 0x1 PUSH1 0xA0 SHL SUB AND SWAP2 DUP3 ISZERO PUSH2 0x488 JUMPI POP POP PUSH1 0x2 DUP1 SLOAD PUSH1 0x1 PUSH1 0x1 PUSH1 0xA0 SHL SUB NOT AND DUP3 OR SWAP1 SSTORE PUSH32 0xF1034AD6B4D45DC33A4142B9C51C2B7F89BF4A410696E426CC0F3224869E0ACA DUP3 DUP1 LOG2 DUP1 RETURN JUMPDEST SWAP1 PUSH1 0x20 PUSH1 0x84 SWAP3 MLOAD SWAP2 PUSH3 0x461BCD PUSH1 0xE5 SHL DUP4 MSTORE DUP3 ADD MSTORE PUSH1 0x23 PUSH1 0x24 DUP3 ADD MSTORE PUSH32 0x46696E616E63653A2044414F20616464726573732063616E6E6F74206265207A PUSH1 0x44 DUP3 ADD MSTORE PUSH3 0x65726F PUSH1 0xE8 SHL PUSH1 0x64 DUP3 ADD MSTORE REVERT JUMPDEST POP POP CALLVALUE PUSH2 0x198 JUMPI DUP2 PUSH1 0x3 NOT CALLDATASIZE ADD SLT PUSH2 0x198 JUMPI SWAP1 SLOAD SWAP1 MLOAD PUSH1 0x1 PUSH1 0x1 PUSH1 0xA0 SHL SUB SWAP1 SWAP2 AND DUP2 MSTORE PUSH1 0x20 SWAP1 RETURN JUMPDEST DUP4 CALLVALUE PUSH2 0x418 JUMPI DUP1 PUSH1 0x3 NOT CALLDATASIZE ADD SLT PUSH2 0x418 JUMPI PUSH2 0x518 PUSH2 0xF2E JUMP JUMPDEST DUP1 SLOAD PUSH1 0x1 PUSH1 0x1 PUSH1 0xA0 SHL SUB NOT DUP2 AND DUP3 SSTORE DUP2 SWAP1 PUSH1 0x1 PUSH1 0x1 PUSH1 0xA0 SHL SUB AND PUSH32 0x8BE0079C531659141344CD1FD0A4F28419497F9722A3DAAFE3B4186F6B6457E0 DUP3 DUP1 LOG3 DUP1 RETURN JUMPDEST POP SWAP2 SWAP1 CALLVALUE PUSH2 0x198 JUMPI PUSH1 0x20 SWAP1 DUP2 PUSH1 0x3 NOT CALLDATASIZE ADD SLT PUSH2 0x150 JUMPI DUP4 CALLDATALOAD SWAP2 PUSH2 0x57A PUSH2 0xF5A JUMP JUMPDEST PUSH2 0x582 PUSH2 0xF2E JUMP JUMPDEST DUP3 DUP5 MSTORE DUP5 DUP2 MSTORE DUP2 DUP5 KECCAK256 PUSH1 0x3 DUP2 ADD DUP1 SLOAD SWAP2 PUSH1 0xFF SWAP3 DUP4 DUP2 PUSH1 0x10 SHR AND ISZERO PUSH2 0x94A JUMPI DUP4 DUP2 AND SWAP1 PUSH1 0x8 SHR DUP5 AND DUP2 GT ISZERO PUSH2 0x8FD JUMPI PUSH1 0x1 DUP3 ADD SLOAD DUP2 ISZERO PUSH2 0x8EA JUMPI DIV SWAP1 PUSH1 0x3 SLOAD DUP1 DUP4 MUL SWAP1 DUP4 DUP3 DIV EQ DUP4 ISZERO OR ISZERO PUSH2 0x8D7 JUMPI PUSH2 0x2710 SWAP1 DIV SWAP5 DUP6 DUP4 SUB SWAP6 DUP4 DUP8 GT PUSH2 0x8C4 JUMPI DUP8 MLOAD PUSH4 0x70A08231 PUSH1 0xE0 SHL DUP2 MSTORE ADDRESS DUP13 DUP3 ADD MSTORE PUSH1 0x1 PUSH1 0x1 PUSH1 0xA0 SHL SUB PUSH32 0x0 DUP2 AND SWAP3 SWAP1 SWAP2 DUP5 DUP2 PUSH1 0x24 DUP2 DUP8 GAS STATICCALL SWAP1 DUP2 ISZERO PUSH2 0x8BA JUMPI SWAP1 DUP8 SWAP2 DUP15 SWAP2 PUSH2 0x885 JUMPI JUMPDEST POP LT PUSH2 0x82B JUMPI PUSH2 0x689 SWAP3 DUP14 DUP14 DUP7 SWAP5 DUP15 DUP15 DUP8 DUP16 SWAP8 DUP1 PUSH2 0x7FB JUMPI JUMPDEST POP POP POP POP DUP9 SLOAD AND SWAP2 DUP14 MLOAD SWAP7 DUP8 SWAP6 DUP7 SWAP5 DUP6 SWAP4 PUSH4 0xA9059CBB PUSH1 0xE0 SHL DUP6 MSTORE DUP5 ADD PUSH1 0x20 SWAP1 SWAP4 SWAP3 SWAP2 SWAP4 PUSH1 0x40 DUP2 ADD SWAP5 PUSH1 0x1 DUP1 PUSH1 0xA0 SHL SUB AND DUP2 MSTORE ADD MSTORE JUMP JUMPDEST SUB SWAP3 GAS CALL SWAP1 DUP2 ISZERO PUSH2 0x7F1 JUMPI DUP11 SWAP2 PUSH2 0x7C4 JUMPI JUMPDEST POP ISZERO PUSH2 0x76E JUMPI POP PUSH1 0x2 ADD DUP1 SLOAD SWAP2 DUP3 ADD DUP1 SWAP3 GT PUSH2 0x75B JUMPI SSTORE DUP2 DUP2 SLOAD PUSH1 0x8 SHR AND DUP3 DUP2 EQ PUSH2 0x748 JUMPI DUP2 SLOAD PUSH2 0xFF00 NOT AND PUSH1 0x1 SWAP1 SWAP2 ADD PUSH1 0x8 SHL PUSH2 0xFF00 AND OR DUP2 SSTORE PUSH32 0x39F915D515E1AD5B9681B432C41D1A92BDDD82DF2FBB529C8B424BDE672607EC SWAP4 SWAP3 SWAP2 PUSH2 0x730 SWAP2 DUP1 SLOAD DUP3 DUP2 AND DUP4 DUP3 PUSH1 0x8 SHR AND EQ PUSH2 0x73A JUMPI JUMPDEST POP SLOAD PUSH1 0x8 SHR AND SWAP3 MLOAD SWAP3 DUP4 SWAP3 DUP4 SWAP1 SWAP3 SWAP2 PUSH1 0xFF PUSH1 0x20 SWAP2 PUSH1 0x40 DUP5 ADD SWAP6 DUP5 MSTORE AND SWAP2 ADD MSTORE JUMP JUMPDEST SUB SWAP1 LOG2 PUSH1 0x1 DUP1 SSTORE DUP1 RETURN JUMPDEST PUSH3 0xFF0000 NOT AND DUP2 SSTORE DUP9 PUSH2 0x70F JUMP JUMPDEST PUSH4 0x4E487B71 PUSH1 0xE0 SHL DUP8 MSTORE PUSH1 0x11 DUP9 MSTORE PUSH1 0x24 DUP8 REVERT JUMPDEST PUSH4 0x4E487B71 PUSH1 0xE0 SHL DUP9 MSTORE PUSH1 0x11 DUP10 MSTORE PUSH1 0x24 DUP9 REVERT JUMPDEST DUP10 PUSH1 0x84 SWAP2 DUP9 MLOAD SWAP2 PUSH3 0x461BCD PUSH1 0xE5 SHL DUP4 MSTORE DUP3 ADD MSTORE PUSH1 0x2B PUSH1 0x24 DUP3 ADD MSTORE PUSH32 0x46696E616E63653A20546F6B656E207472616E7366657220746F207265636970 PUSH1 0x44 DUP3 ADD MSTORE PUSH11 0x1A595B9D0819985A5B1959 PUSH1 0xAA SHL PUSH1 0x64 DUP3 ADD MSTORE REVERT JUMPDEST PUSH2 0x7E4 SWAP2 POP DUP3 RETURNDATASIZE DUP5 GT PUSH2 0x7EA JUMPI JUMPDEST PUSH2 0x7DC DUP2 DUP4 PUSH2 0xEDE JUMP JUMPDEST DUP2 ADD SWAP1 PUSH2 0xF16 JUMP JUMPDEST CODESIZE PUSH2 0x69B JUMP JUMPDEST POP RETURNDATASIZE PUSH2 0x7D2 JUMP JUMPDEST DUP9 MLOAD RETURNDATASIZE DUP13 DUP3 RETURNDATACOPY RETURNDATASIZE SWAP1 REVERT JUMPDEST PUSH32 0x88B2ACB95AA96593AAEF36316EA22270C9BF94CF087CA55246C0DC22C5A5199E SWAP3 MLOAD SWAP1 DUP2 MSTORE LOG2 DUP15 DUP15 DUP8 CODESIZE PUSH2 0x652 JUMP JUMPDEST DUP10 MLOAD PUSH3 0x461BCD PUSH1 0xE5 SHL DUP2 MSTORE DUP1 DUP15 ADD DUP6 SWAP1 MSTORE PUSH1 0x2E PUSH1 0x24 DUP3 ADD MSTORE PUSH32 0x46696E616E63653A20496E73756666696369656E742066756E647320666F7220 PUSH1 0x44 DUP3 ADD MSTORE PUSH14 0x74686973206D696C6573746F6E65 PUSH1 0x90 SHL PUSH1 0x64 DUP3 ADD MSTORE PUSH1 0x84 SWAP1 REVERT JUMPDEST DUP1 SWAP3 POP DUP7 DUP1 SWAP3 POP RETURNDATASIZE DUP4 GT PUSH2 0x8B3 JUMPI JUMPDEST PUSH2 0x89E DUP2 DUP4 PUSH2 0xEDE JUMP JUMPDEST DUP2 ADD SUB SLT PUSH2 0x8AF JUMPI DUP7 SWAP1 MLOAD CODESIZE PUSH2 0x639 JUMP JUMPDEST DUP13 DUP1 REVERT JUMPDEST POP RETURNDATASIZE PUSH2 0x894 JUMP JUMPDEST DUP12 MLOAD RETURNDATASIZE DUP16 DUP3 RETURNDATACOPY RETURNDATASIZE SWAP1 REVERT JUMPDEST PUSH4 0x4E487B71 PUSH1 0xE0 SHL DUP11 MSTORE PUSH1 0x11 DUP12 MSTORE PUSH1 0x24 DUP11 REVERT JUMPDEST PUSH4 0x4E487B71 PUSH1 0xE0 SHL DUP10 MSTORE PUSH1 0x11 DUP11 MSTORE PUSH1 0x24 DUP10 REVERT JUMPDEST PUSH4 0x4E487B71 PUSH1 0xE0 SHL DUP10 MSTORE PUSH1 0x12 DUP11 MSTORE PUSH1 0x24 DUP10 REVERT JUMPDEST DUP6 MLOAD PUSH3 0x461BCD PUSH1 0xE5 SHL DUP2 MSTORE DUP1 DUP11 ADD DUP7 SWAP1 MSTORE PUSH1 0x21 PUSH1 0x24 DUP3 ADD MSTORE PUSH32 0x416C6C206D696C6573746F6E65732068617665206265656E2072656C65617365 PUSH1 0x44 DUP3 ADD MSTORE PUSH1 0x19 PUSH1 0xFA SHL PUSH1 0x64 DUP3 ADD MSTORE PUSH1 0x84 SWAP1 REVERT JUMPDEST DUP6 MLOAD PUSH3 0x461BCD PUSH1 0xE5 SHL DUP2 MSTORE DUP1 DUP11 ADD DUP7 SWAP1 MSTORE PUSH1 0x18 PUSH1 0x24 DUP3 ADD MSTORE PUSH32 0x496E766573746D656E74206973206E6F74206163746976650000000000000000 PUSH1 0x44 DUP3 ADD MSTORE PUSH1 0x64 SWAP1 REVERT JUMPDEST POP DUP3 SWAP1 CALLVALUE PUSH2 0x198 JUMPI PUSH1 0x80 CALLDATASIZE PUSH1 0x3 NOT ADD SLT PUSH2 0x198 JUMPI PUSH1 0x1 PUSH1 0x1 PUSH1 0xA0 SHL SUB SWAP3 PUSH1 0x24 DUP1 CALLDATALOAD DUP6 DUP2 AND SWAP4 DUP1 CALLDATALOAD SWAP4 SWAP1 SWAP3 SWAP2 DUP6 SWAP1 SUB PUSH2 0xC4B JUMPI PUSH1 0x44 CALLDATALOAD SWAP2 PUSH1 0x64 CALLDATALOAD SWAP4 PUSH1 0xFF DUP6 AND SWAP9 DUP10 DUP7 SUB PUSH2 0xC47 JUMPI PUSH2 0x9DB PUSH2 0xF2E JUMP JUMPDEST DUP8 ISZERO PUSH2 0xC06 JUMPI DUP5 ISZERO PUSH2 0xBB5 JUMPI DUP10 ISZERO PUSH2 0xB74 JUMPI DUP7 DUP10 MSTORE DUP2 PUSH1 0x20 MSTORE PUSH1 0xFF PUSH1 0x3 DUP6 DUP12 KECCAK256 ADD SLOAD PUSH1 0x10 SHR AND PUSH2 0xB1E JUMPI DUP4 MLOAD SWAP3 PUSH1 0xC0 DUP5 ADD SWAP1 DUP5 DUP3 LT PUSH8 0xFFFFFFFFFFFFFFFF DUP4 GT OR PUSH2 0xB0D JUMPI POP PUSH1 0xFF DUP9 DUP2 PUSH1 0x3 DUP9 SWAP8 DUP15 SWAP16 SWAP8 DUP15 SWAP16 PUSH32 0x9965C2D68D7BA3300AD3D4B4549699D007476CB578988093B8C911C37E8BEF51 SWAP15 SWAP16 SWAP9 DUP12 DUP15 SWAP3 PUSH1 0x1 SWAP12 PUSH2 0xB07 SWAP16 SWAP12 PUSH2 0xAD8 SWAP13 MSTORE DUP7 MSTORE PUSH1 0x20 DUP7 ADD SWAP4 DUP5 MSTORE DUP2 DUP7 ADD SWAP5 DUP2 DUP7 MSTORE PUSH1 0x60 DUP8 ADD SWAP14 DUP15 MSTORE PUSH1 0x80 DUP8 ADD SWAP10 DUP3 DUP12 MSTORE PUSH1 0xA0 DUP9 ADD SWAP14 DUP15 MSTORE DUP3 MSTORE PUSH1 0x20 MSTORE KECCAK256 SWAP4 MLOAD AND PUSH12 0xFFFFFFFFFFFFFFFFFFFFFFFF PUSH1 0xA0 SHL DUP5 SLOAD AND OR DUP4 SSTORE MLOAD PUSH1 0x1 DUP4 ADD SSTORE MLOAD PUSH1 0x2 DUP3 ADD SSTORE ADD SWAP6 MLOAD AND DUP3 NOT DUP7 SLOAD AND OR DUP6 SSTORE MLOAD AND DUP4 SWAP1 PUSH2 0xFF00 DUP3 SLOAD SWAP2 PUSH1 0x8 SHL AND SWAP1 PUSH2 0xFF00 NOT AND OR SWAP1 SSTORE JUMP JUMPDEST MLOAD DUP2 SLOAD PUSH3 0xFF0000 NOT AND SWAP1 ISZERO ISZERO PUSH1 0x10 SHL PUSH3 0xFF0000 AND OR SWAP1 SSTORE MLOAD SWAP2 DUP3 MSTORE PUSH1 0xFF SWAP1 SWAP3 AND PUSH1 0x20 DUP3 ADD MSTORE SWAP1 DUP2 SWAP1 PUSH1 0x40 DUP3 ADD SWAP1 JUMP JUMPDEST SUB SWAP1 LOG3 DUP1 RETURN JUMPDEST PUSH4 0x4E487B71 PUSH1 0xE0 SHL DUP12 MSTORE PUSH1 0x41 DUP5 MSTORE DUP11 REVERT JUMPDEST POP PUSH1 0x2B PUSH1 0x84 SWAP3 PUSH1 0x20 DUP6 MLOAD SWAP4 PUSH3 0x461BCD PUSH1 0xE5 SHL DUP6 MSTORE DUP5 ADD MSTORE DUP3 ADD MSTORE PUSH32 0x496E766573746D656E7420666F7220746869732070726F706F73616C20616C72 PUSH1 0x44 DUP3 ADD MSTORE PUSH11 0x6561647920657869737473 PUSH1 0xA8 SHL PUSH1 0x64 DUP3 ADD MSTORE REVERT JUMPDEST POP PUSH1 0x20 PUSH1 0x64 SWAP3 DUP2 DUP6 MLOAD SWAP4 PUSH3 0x461BCD PUSH1 0xE5 SHL DUP6 MSTORE DUP5 ADD MSTORE DUP3 ADD MSTORE PUSH32 0x4D7573742068617665206174206C65617374206F6E65206D696C6573746F6E65 PUSH1 0x44 DUP3 ADD MSTORE REVERT JUMPDEST POP PUSH1 0x26 PUSH1 0x84 SWAP3 PUSH1 0x20 DUP6 MLOAD SWAP4 PUSH3 0x461BCD PUSH1 0xE5 SHL DUP6 MSTORE DUP5 ADD MSTORE DUP3 ADD MSTORE PUSH32 0x546F74616C20616D6F756E74206D757374206265206772656174657220746861 PUSH1 0x44 DUP3 ADD MSTORE PUSH6 0x6E207A65726F PUSH1 0xD0 SHL PUSH1 0x64 DUP3 ADD MSTORE REVERT JUMPDEST POP PUSH1 0x20 PUSH1 0x64 SWAP3 DUP2 DUP6 MLOAD SWAP4 PUSH3 0x461BCD PUSH1 0xE5 SHL DUP6 MSTORE DUP5 ADD MSTORE DUP3 ADD MSTORE PUSH32 0x526563697069656E742063616E6E6F74206265207A65726F2061646472657373 PUSH1 0x44 DUP3 ADD MSTORE REVERT JUMPDEST DUP9 DUP1 REVERT JUMPDEST DUP6 DUP1 REVERT JUMPDEST POP POP CALLVALUE PUSH2 0x198 JUMPI DUP2 PUSH1 0x3 NOT CALLDATASIZE ADD SLT PUSH2 0x198 JUMPI PUSH1 0x20 SWAP1 PUSH1 0x3 SLOAD SWAP1 MLOAD SWAP1 DUP2 MSTORE RETURN JUMPDEST POP POP CALLVALUE PUSH2 0x198 JUMPI DUP2 PUSH1 0x3 NOT CALLDATASIZE ADD SLT PUSH2 0x198 JUMPI PUSH1 0x2 SLOAD SWAP1 MLOAD PUSH1 0x1 PUSH1 0x1 PUSH1 0xA0 SHL SUB SWAP1 SWAP2 AND DUP2 MSTORE PUSH1 0x20 SWAP1 RETURN JUMPDEST POP DUP3 SWAP1 CALLVALUE PUSH2 0x198 JUMPI DUP3 PUSH1 0x3 NOT CALLDATASIZE ADD SLT PUSH2 0x198 JUMPI PUSH2 0xCB2 PUSH2 0xE9D JUMP JUMPDEST SWAP1 PUSH1 0x24 CALLDATALOAD SWAP2 PUSH2 0xCBF PUSH2 0xF2E JUMP JUMPDEST PUSH2 0xCC7 PUSH2 0xF5A JUMP JUMPDEST DUP5 MLOAD PUSH4 0x70A08231 PUSH1 0xE0 SHL DUP2 MSTORE ADDRESS DUP2 DUP5 ADD MSTORE PUSH1 0x20 SWAP3 PUSH1 0x1 PUSH1 0x1 PUSH1 0xA0 SHL SUB SWAP3 SWAP2 PUSH32 0x0 DUP5 AND SWAP1 DUP6 DUP2 PUSH1 0x24 DUP2 DUP6 GAS STATICCALL SWAP1 DUP2 ISZERO PUSH2 0xE93 JUMPI SWAP1 DUP8 SWAP2 DUP10 SWAP2 PUSH2 0xE5E JUMPI JUMPDEST POP LT PUSH2 0xE1B JUMPI DUP8 MLOAD PUSH4 0xA9059CBB PUSH1 0xE0 SHL DUP2 MSTORE PUSH1 0x1 PUSH1 0x1 PUSH1 0xA0 SHL SUB DUP5 AND DUP4 DUP3 ADD SWAP1 DUP2 MSTORE PUSH1 0x20 DUP2 ADD DUP9 SWAP1 MSTORE SWAP1 SWAP2 DUP7 SWAP2 DUP4 SWAP2 SWAP1 DUP3 SWAP1 DUP12 SWAP1 DUP3 SWAP1 PUSH1 0x40 ADD SUB SWAP3 GAS CALL SWAP1 DUP2 ISZERO PUSH2 0xE11 JUMPI DUP8 SWAP2 PUSH2 0xDF4 JUMPI JUMPDEST POP ISZERO PUSH2 0xDA6 JUMPI POP PUSH32 0x1321D2E7F45F7DB82B8674B3B205B2D394B8D5096118FF08373EC5394F2D24A1 SWAP4 SWAP5 SWAP6 MLOAD SWAP5 DUP6 MSTORE AND SWAP3 LOG2 PUSH1 0x1 DUP1 SSTORE DUP1 RETURN JUMPDEST DUP7 MLOAD PUSH3 0x461BCD PUSH1 0xE5 SHL DUP2 MSTORE SWAP1 DUP2 ADD DUP5 SWAP1 MSTORE PUSH1 0x22 PUSH1 0x24 DUP3 ADD MSTORE PUSH32 0x46696E616E63653A2052594320746F6B656E207472616E73666572206661696C PUSH1 0x44 DUP3 ADD MSTORE PUSH2 0x1959 PUSH1 0xF2 SHL PUSH1 0x64 DUP3 ADD MSTORE PUSH1 0x84 SWAP1 REVERT JUMPDEST PUSH2 0xE0B SWAP2 POP DUP6 RETURNDATASIZE DUP8 GT PUSH2 0x7EA JUMPI PUSH2 0x7DC DUP2 DUP4 PUSH2 0xEDE JUMP JUMPDEST DUP9 PUSH2 0xD6D JUMP JUMPDEST DUP9 MLOAD RETURNDATASIZE DUP10 DUP3 RETURNDATACOPY RETURNDATASIZE SWAP1 REVERT JUMPDEST DUP8 MLOAD PUSH3 0x461BCD PUSH1 0xE5 SHL DUP2 MSTORE DUP1 DUP4 ADD DUP7 SWAP1 MSTORE PUSH1 0x1F PUSH1 0x24 DUP3 ADD MSTORE PUSH32 0x46696E616E63653A20496E73756666696369656E74205259432066756E647300 PUSH1 0x44 DUP3 ADD MSTORE PUSH1 0x64 SWAP1 REVERT JUMPDEST DUP1 SWAP3 POP DUP8 DUP1 SWAP3 POP RETURNDATASIZE DUP4 GT PUSH2 0xE8C JUMPI JUMPDEST PUSH2 0xE77 DUP2 DUP4 PUSH2 0xEDE JUMP JUMPDEST DUP2 ADD SUB SLT PUSH2 0xE88 JUMPI DUP7 SWAP1 MLOAD DUP11 PUSH2 0xD22 JUMP JUMPDEST DUP8 DUP1 REVERT JUMPDEST POP RETURNDATASIZE PUSH2 0xE6D JUMP JUMPDEST DUP10 MLOAD RETURNDATASIZE DUP11 DUP3 RETURNDATACOPY RETURNDATASIZE SWAP1 REVERT JUMPDEST PUSH1 0x4 CALLDATALOAD SWAP1 PUSH1 0x1 PUSH1 0x1 PUSH1 0xA0 SHL SUB DUP3 AND DUP3 SUB PUSH2 0xEB3 JUMPI JUMP JUMPDEST PUSH1 0x0 DUP1 REVERT JUMPDEST PUSH1 0x40 SWAP1 PUSH1 0x3 NOT ADD SLT PUSH2 0xEB3 JUMPI PUSH1 0x4 CALLDATALOAD PUSH1 0x1 PUSH1 0x1 PUSH1 0xA0 SHL SUB DUP2 AND DUP2 SUB PUSH2 0xEB3 JUMPI SWAP1 PUSH1 0x24 CALLDATALOAD SWAP1 JUMP JUMPDEST SWAP1 PUSH1 0x1F DUP1 NOT SWAP2 ADD AND DUP2 ADD SWAP1 DUP2 LT PUSH8 0xFFFFFFFFFFFFFFFF DUP3 GT OR PUSH2 0xF00 JUMPI PUSH1 0x40 MSTORE JUMP JUMPDEST PUSH4 0x4E487B71 PUSH1 0xE0 SHL PUSH1 0x0 MSTORE PUSH1 0x41 PUSH1 0x4 MSTORE PUSH1 0x24 PUSH1 0x0 REVERT JUMPDEST SWAP1 DUP2 PUSH1 0x20 SWAP2 SUB SLT PUSH2 0xEB3 JUMPI MLOAD DUP1 ISZERO ISZERO DUP2 SUB PUSH2 0xEB3 JUMPI SWAP1 JUMP JUMPDEST PUSH1 0x0 SLOAD PUSH1 0x1 PUSH1 0x1 PUSH1 0xA0 SHL SUB AND CALLER SUB PUSH2 0xF42 JUMPI JUMP JUMPDEST PUSH1 0x40 MLOAD PUSH4 0x118CDAA7 PUSH1 0xE0 SHL DUP2 MSTORE CALLER PUSH1 0x4 DUP3 ADD MSTORE PUSH1 0x24 SWAP1 REVERT JUMPDEST PUSH1 0x2 PUSH1 0x1 SLOAD EQ PUSH2 0xF6B JUMPI PUSH1 0x2 PUSH1 0x1 SSTORE JUMP JUMPDEST PUSH1 0x40 MLOAD PUSH4 0x3EE5AEB5 PUSH1 0xE0 SHL DUP2 MSTORE PUSH1 0x4 SWAP1 REVERT INVALID LOG2 PUSH5 0x6970667358 0x22 SLT KECCAK256 CALLVALUE PUSH31 0x1669381FF97F232EE2FD2FEF03CC6881857C43DB3541EC5443FA5158FFE64 PUSH20 0x6F6C634300081800330000000000000000000000 "},"methodIdentifiers":{"daoAddress()":"2131c68c","investments(uint256)":"fd345c8a","owner()":"8da5cb5b","platformFeeBps()":"22dcd13e","registerInvestment(uint256,address,uint256,uint8)":"29e4cac4","releaseFunds(address,uint256)":"d6e982e5","releaseNextMilestone(uint256)":"638af63e","renounceOwnership()":"715018a6","setDaoAddress(address)":"9a3cac6a","token()":"fc0c546a","transferOwnership(address)":"f2fde38b","withdraw(address,uint256)":"f3fef3a3","withdrawTokens(address,uint256)":"06b091f9"}}}}}