{"src/contracts/Staking.sol":{"Staking":{"abi":[{"inputs":[{"internalType":"address","name":"_tokenAddress","type":"address"},{"internalType":"address","name":"_initialOwner","type":"address"}],"stateMutability":"nonpayable","type":"constructor"},{"inputs":[{"internalType":"address","name":"owner","type":"address"}],"name":"OwnableInvalidOwner","type":"error"},{"inputs":[{"internalType":"address","name":"account","type":"address"}],"name":"OwnableUnauthorizedAccount","type":"error"},{"inputs":[],"name":"ReentrancyGuardReentrantCall","type":"error"},{"anonymous":false,"inputs":[{"indexed":true,"internalType":"address","name":"delegator","type":"address"},{"indexed":true,"internalType":"address","name":"delegatee","type":"address"},{"indexed":false,"internalType":"uint256","name":"power","type":"uint256"}],"name":"Delegated","type":"event"},{"anonymous":false,"inputs":[{"indexed":true,"internalType":"address","name":"previousOwner","type":"address"},{"indexed":true,"internalType":"address","name":"newOwner","type":"address"}],"name":"OwnershipTransferred","type":"event"},{"anonymous":false,"inputs":[{"indexed":true,"internalType":"address","name":"user","type":"address"},{"indexed":false,"internalType":"uint256","name":"reward","type":"uint256"}],"name":"RewardClaimed","type":"event"},{"anonymous":false,"inputs":[{"indexed":false,"internalType":"uint256","name":"totalReward","type":"uint256"}],"name":"RewardDistributed","type":"event"},{"anonymous":false,"inputs":[{"indexed":true,"internalType":"address","name":"funder","type":"address"},{"indexed":false,"internalType":"uint256","name":"amount","type":"uint256"}],"name":"RewardFunded","type":"event"},{"anonymous":false,"inputs":[{"indexed":false,"internalType":"uint256","name":"newRate","type":"uint256"}],"name":"RewardRateSet","type":"event"},{"anonymous":false,"inputs":[{"indexed":true,"internalType":"address","name":"user","type":"address"},{"indexed":false,"internalType":"uint256","name":"amount","type":"uint256"}],"name":"Staked","type":"event"},{"anonymous":false,"inputs":[{"indexed":true,"internalType":"address","name":"delegator","type":"address"},{"indexed":true,"internalType":"address","name":"previousDelegatee","type":"address"},{"indexed":false,"internalType":"uint256","name":"power","type":"uint256"}],"name":"Undelegated","type":"event"},{"anonymous":false,"inputs":[{"indexed":true,"internalType":"address","name":"user","type":"address"},{"indexed":false,"internalType":"uint256","name":"amount","type":"uint256"}],"name":"Unstaked","type":"event"},{"inputs":[],"name":"claimReward","outputs":[],"stateMutability":"nonpayable","type":"function"},{"inputs":[{"internalType":"address","name":"_delegatee","type":"address"}],"name":"delegate","outputs":[],"stateMutability":"nonpayable","type":"function"},{"inputs":[{"internalType":"address","name":"","type":"address"}],"name":"delegatedPower","outputs":[{"internalType":"uint256","name":"","type":"uint256"}],"stateMutability":"view","type":"function"},{"inputs":[{"internalType":"address","name":"","type":"address"}],"name":"delegates","outputs":[{"internalType":"address","name":"","type":"address"}],"stateMutability":"view","type":"function"},{"inputs":[{"internalType":"uint256","name":"","type":"uint256"}],"name":"distributeRewards","outputs":[],"stateMutability":"pure","type":"function"},{"inputs":[{"internalType":"address","name":"account","type":"address"}],"name":"earned","outputs":[{"internalType":"uint256","name":"","type":"uint256"}],"stateMutability":"view","type":"function"},{"inputs":[{"internalType":"uint256","name":"amount","type":"uint256"}],"name":"fundRewards","outputs":[],"stateMutability":"nonpayable","type":"function"},{"inputs":[{"internalType":"address","name":"user","type":"address"}],"name":"getStakedAmount","outputs":[{"internalType":"uint256","name":"","type":"uint256"}],"stateMutability":"view","type":"function"},{"inputs":[],"name":"lastUpdateTime","outputs":[{"internalType":"uint256","name":"","type":"uint256"}],"stateMutability":"view","type":"function"},{"inputs":[],"name":"owner","outputs":[{"internalType":"address","name":"","type":"address"}],"stateMutability":"view","type":"function"},{"inputs":[],"name":"renounceOwnership","outputs":[],"stateMutability":"nonpayable","type":"function"},{"inputs":[],"name":"rewardPerToken","outputs":[{"internalType":"uint256","name":"","type":"uint256"}],"stateMutability":"view","type":"function"},{"inputs":[],"name":"rewardPerTokenStored","outputs":[{"internalType":"uint256","name":"","type":"uint256"}],"stateMutability":"view","type":"function"},{"inputs":[],"name":"rewardRate","outputs":[{"internalType":"uint256","name":"","type":"uint256"}],"stateMutability":"view","type":"function"},{"inputs":[{"internalType":"address","name":"","type":"address"}],"name":"rewards","outputs":[{"internalType":"uint256","name":"","type":"uint256"}],"stateMutability":"view","type":"function"},{"inputs":[],"name":"rycToken","outputs":[{"internalType":"contract IERC20","name":"","type":"address"}],"stateMutability":"view","type":"function"},{"inputs":[{"internalType":"uint256","name":"_rewardRate","type":"uint256"}],"name":"setRewardRate","outputs":[],"stateMutability":"nonpayable","type":"function"},{"inputs":[{"internalType":"uint256","name":"amount","type":"uint256"}],"name":"stake","outputs":[],"stateMutability":"nonpayable","type":"function"},{"inputs":[],"name":"totalSupply","outputs":[{"internalType":"uint256","name":"","type":"uint256"}],"stateMutability":"view","type":"function"},{"inputs":[{"internalType":"address","name":"newOwner","type":"address"}],"name":"transferOwnership","outputs":[],"stateMutability":"nonpayable","type":"function"},{"inputs":[],"name":"undelegate","outputs":[],"stateMutability":"nonpayable","type":"function"},{"inputs":[{"internalType":"uint256","name":"amount","type":"uint256"}],"name":"unstake","outputs":[],"stateMutability":"nonpayable","type":"function"},{"inputs":[{"internalType":"address","name":"","type":"address"}],"name":"userRewardPerTokenPaid","outputs":[{"internalType":"uint256","name":"","type":"uint256"}],"stateMutability":"view","type":"function"}],"evm":{"bytecode":{"linkReferences":{},"object":"60a0346100f857601f6111dc38819003918201601f19168301916001600160401b038311848410176100fd5780849260409485528339810103126100f857602061004882610113565b916001600160a01b0391829161005e9101610113565b169182156100df57600080546001600160a01b03198116851782556040519491908416907f8be0079c531659141344cd1fd0a4f28419497f9722a3daafe3b4186f6b6457e09080a360018055166080526110b4908161012882396080518181816101c1015281816102cc0152818161044f0152818161065b0152610c890152f35b604051631e4fbdf760e01b815260006004820152602490fd5b600080fd5b634e487b7160e01b600052604160045260246000fd5b51906001600160a01b03821682036100f85756fe60406080815260048036101561001457600080fd5b600091823560e01c80628cc26214610e585780630700037d14610e1e578063169df06414610de457806318160ddd14610dc55780632e17de7814610bc05780634da6a55614610b8f578063587cde1e14610b5257806359974e3814610ac25780635c19a95c146108d5578063715018a6146108785780637b0a47ee146108595780638b8763471461081f5780638da5cb5b146107f757806392ab89bb146106dd57806393707a19146106155780639e447fc6146105b8578063a694fc3a14610395578063b88a802f14610256578063c8f33c9114610237578063cd3daf9d14610213578063df136d65146101f4578063e7499b7d146101ac5763f2fde38b1461011c57600080fd5b346101a85760203660031901126101a8576001600160a01b038235818116939192908490036101a45761014d611052565b831561018e57505082546001600160a01b0319811683178455167f8be0079c531659141344cd1fd0a4f28419497f9722a3daafe3b4186f6b6457e08380a380f35b51631e4fbdf760e01b8152908101849052602490fd5b8480fd5b8280fd5b8382346101f057816003193601126101f057517f00000000000000000000000000000000000000000000000000000000000000006001600160a01b03168152602090f35b5080fd5b8382346101f057816003193601126101f0576020906008549051908152f35b8382346101f057816003193601126101f057602090610230610fdd565b9051908152f35b8382346101f057816003193601126101f0576020906007549051908152f35b50346101a857826003193601126101a85761026f61102f565b610277610fdd565b600855426007553361036f575b338352600a6020528083209183835493846102a2575b506001805580f35b55815163a9059cbb60e01b81523391810191825260208281018590529091829081906040010381877f00000000000000000000000000000000000000000000000000000000000000006001600160a01b03165af1801561036557610336575b50519081527f106f923f993c2149d49b4255ff723acafa1f2d94393f561d3eda32ae348f724160203392a2388080838161029a565b6103579060203d60201161035e575b61034f8183610f2b565b810190610f63565b5038610301565b503d610345565b82513d86823e3d90fd5b61037833610ecc565b338452600a60205281842055600854600960205281842055610284565b50346101a8576020806003193601126105b4578235926103b361102f565b6103bb610fdd565b6008554260075533610590575b831561055e576103da84600254610ebf565b60025533855280825260018060a01b039361044b838287878a20541697881515958661053a575b338b5260038452888b20610416848254610ebf565b905588516323b872dd60e01b81523391810191825230602083015260408201939093529193849283918c918391606090910190565b03927f0000000000000000000000000000000000000000000000000000000000000000165af1801561053057610513575b5083519081527f9e71bc8eea02a63969f509818f2dafb9254532904319f9dbda79b67bd34a5f3d833392a26104b4575b836001805580f35b7fe5541a6b6103d4fa7e021ed54fad39c66f27a76bd13d374cf6240ae6bd0bb72b903385526003815282852054848652600582526104f6848720918254610ebf565b9055338552600381528285205492519283523392a33880806104ac565b61052990843d861161035e5761034f8183610f2b565b503861047c565b85513d89823e3d90fd5b60038452888b20548a8c52600585526105578a8d20918254610e89565b9055610401565b915162461bcd60e51b815291820152600e60248201526d043616e6e6f74207374616b6520360941b6044820152606490fd5b61059933610ecc565b338652600a83528386205560085460098352838620556103c8565b8380fd5b5090346101a85760203660031901126101a8577f8cbfafc8e0d9c5c81401c4b9c6e7d201198adc7eb8f8f1556c195ecd4c0a0e7b9160209135906105fa611052565b610602610fdd565b600855426007558160065551908152a180f35b50346101a85760203660031901126101a85780516323b872dd60e01b815233818401908152306020828101919091529335604082018190529390829081906060010381877f00000000000000000000000000000000000000000000000000000000000000006001600160a01b03165af18015610365576106be575b50519081527f525b74a34fa7d280989782ff88faded7890117edd2a674614497b9ed45b4598860203392a280f35b6106d69060203d60201161035e5761034f8183610f2b565b5038610690565b5090346101a857826003193601126101a8576106f761102f565b6106ff610fdd565b60085542600755336107d1575b3383526020818152828420546001600160a01b031692831561079957907f4d10bd049775c77bd7f255195afba5088028ecb3c7c277d393ccff7934f2f92c913386526003825280862054938587526005835281872061076c868254610e89565b905533875282528086206bffffffffffffffffffffffff60a01b8154169055519283523392a36001805580f35b5162461bcd60e51b815291820152601460248201527327379030b1ba34bb32903232b632b3b0ba34b7b760611b604482015260649150fd5b6107da33610ecc565b338452600a6020528284205560085460096020528284205561070c565b8382346101f057816003193601126101f057905490516001600160a01b039091168152602090f35b5090346101a85760203660031901126101a857356001600160a01b038116908190036101a857828291602094526009845220549051908152f35b8382346101f057816003193601126101f0576020906006549051908152f35b83346108d257806003193601126108d257610891611052565b80546001600160a01b03198116825581906001600160a01b03167f8be0079c531659141344cd1fd0a4f28419497f9722a3daafe3b4186f6b6457e08280a380f35b80fd5b5090346101a8576020806003193601126105b4576001600160a01b03823581811694919390859003610abe5761090961102f565b610911610fdd565b6008554260075533610a9a575b338514610a59573386526003835281862054938415610a0b57907fe5541a6b6103d4fa7e021ed54fad39c66f27a76bd13d374cf6240ae6bd0bb72b939291338852818452828820541680151580610a01575b6109ba575b503387528252808620856bffffffffffffffffffffffff60a01b825416179055848652600582528086206109aa858254610ebf565b9055519283523392a36001805580f35b808852600584528288206109cf878254610e89565b905582518681527f4d10bd049775c77bd7f255195afba5088028ecb3c7c277d393ccff7934f2f92c853392a338610975565b5086811415610970565b5082608492519162461bcd60e51b8352820152602360248201527f4d7573742068617665207374616b656420746f6b656e7320746f2064656c656760448201526261746560e81b6064820152fd5b82606492519162461bcd60e51b8352820152601b60248201527f43616e6e6f742064656c656761746520746f20796f757273656c6600000000006044820152fd5b610aa333610ecc565b338752600a845282872055600854600984528287205561091e565b8580fd5b5091346108d25760203660031901126108d25750602060a492519162461bcd60e51b8352820152604b60248201527f646973747269627574655265776172647320697320646570726563617465642e60448201527f20557365207365745265776172645261746520616e642066756e64526577617260648201526a32399034b739ba32b0b21760a91b6084820152fd5b5090346101a85760203660031901126101a8576001600160a01b03908035828116908190036101a457938391602095825285522054169051908152f35b5090346101a85760203660031901126101a85735916001600160a01b03831683036108d25750610230602092610f80565b50346101a857602090816003193601126105b457823592610bdf61102f565b610be7610fdd565b6008554260075533610da1575b8315610d6d5733855260038352838286205410610d2c5733855280835281852054610c8594939291839185916001600160a01b0391821680610d10575b50610c3e83600254610e89565b60025533895260038452848920610c56848254610e89565b9055845163a9059cbb60e01b81523391810191825260208201939093529196879283918a918391604090910190565b03927f0000000000000000000000000000000000000000000000000000000000000000165af1938415610d06577f0f5bb82176feb1b5e747e28471aa92156a04d9f3ab9f45f28e2d704232b93f759394610ce9575b50519283523392a26001805580f35b610cff90833d851161035e5761034f8183610f2b565b5038610cda565b81513d87823e3d90fd5b895260058452848920610d24848254610e89565b905538610c31565b82606492519162461bcd60e51b8352820152601e60248201527f556e7374616b6520616d6f756e7420657863656564732062616c616e636500006044820152fd5b82606492519162461bcd60e51b8352820152601060248201526f043616e6e6f7420756e7374616b6520360841b6044820152fd5b610daa33610ecc565b338652600a8452828620556008546009845282862055610bf4565b8382346101f057816003193601126101f0576020906002549051908152f35b5090346101a85760203660031901126101a857356001600160a01b038116908190036101a857828291602094526005845220549051908152f35b5090346101a85760203660031901126101a857356001600160a01b038116908190036101a85782829160209452600a845220549051908152f35b5090346101a85760203660031901126101a85735916001600160a01b03831683036108d25750610230602092610ecc565b91908203918211610e9657565b634e487b7160e01b600052601160045260246000fd5b81810292918115918404141715610e9657565b91908201809211610e9657565b610f289060018060a01b0316604060008281526003602052670de0b6b3a7640000610f1783832054610f11610eff610fdd565b87865260096020528686205490610e89565b90610eac565b04928152600a602052205490610ebf565b90565b90601f8019910116810190811067ffffffffffffffff821117610f4d57604052565b634e487b7160e01b600052604160045260246000fd5b90816020910312610f7b57518015158103610f7b5790565b600080fd5b6001600160a01b03908116600081815260046020526040902054909116801515919082610fd2575b5050610fcd576003602052610f28604060002054600560205260406000205490610ebf565b600090565b141590503880610fa8565b600254801561102857610ff260075442610e89565b6110026008549160065490610eac565b91670de0b6b3a764000092838102938185041490151715610e9657610f28920490610ebf565b5060085490565b600260015414611040576002600155565b604051633ee5aeb560e01b8152600490fd5b6000546001600160a01b0316330361106657565b60405163118cdaa760e01b8152336004820152602490fdfea26469706673582212209dea7a44d489e93d36cf1303876270ae7e55508b157bd9c8c9da9bfa0f0c2a7864736f6c63430008180033","opcodes":"PUSH1 0xA0 CALLVALUE PUSH2 0xF8 JUMPI PUSH1 0x1F PUSH2 0x11DC CODESIZE DUP2 SWAP1 SUB SWAP2 DUP3 ADD PUSH1 0x1F NOT AND DUP4 ADD SWAP2 PUSH1 0x1 PUSH1 0x1 PUSH1 0x40 SHL SUB DUP4 GT DUP5 DUP5 LT OR PUSH2 0xFD JUMPI DUP1 DUP5 SWAP3 PUSH1 0x40 SWAP5 DUP6 MSTORE DUP4 CODECOPY DUP2 ADD SUB SLT PUSH2 0xF8 JUMPI PUSH1 0x20 PUSH2 0x48 DUP3 PUSH2 0x113 JUMP JUMPDEST SWAP2 PUSH1 0x1 PUSH1 0x1 PUSH1 0xA0 SHL SUB SWAP2 DUP3 SWAP2 PUSH2 0x5E SWAP2 ADD PUSH2 0x113 JUMP JUMPDEST AND SWAP2 DUP3 ISZERO PUSH2 0xDF JUMPI PUSH1 0x0 DUP1 SLOAD PUSH1 0x1 PUSH1 0x1 PUSH1 0xA0 SHL SUB NOT DUP2 AND DUP6 OR DUP3 SSTORE PUSH1 0x40 MLOAD SWAP5 SWAP2 SWAP1 DUP5 AND SWAP1 PUSH32 0x8BE0079C531659141344CD1FD0A4F28419497F9722A3DAAFE3B4186F6B6457E0 SWAP1 DUP1 LOG3 PUSH1 0x1 DUP1 SSTORE AND PUSH1 0x80 MSTORE PUSH2 0x10B4 SWAP1 DUP2 PUSH2 0x128 DUP3 CODECOPY PUSH1 0x80 MLOAD DUP2 DUP2 DUP2 PUSH2 0x1C1 ADD MSTORE DUP2 DUP2 PUSH2 0x2CC ADD MSTORE DUP2 DUP2 PUSH2 0x44F ADD MSTORE DUP2 DUP2 PUSH2 0x65B ADD MSTORE PUSH2 0xC89 ADD MSTORE RETURN JUMPDEST PUSH1 0x40 MLOAD PUSH4 0x1E4FBDF7 PUSH1 0xE0 SHL DUP2 MSTORE PUSH1 0x0 PUSH1 0x4 DUP3 ADD MSTORE PUSH1 0x24 SWAP1 REVERT JUMPDEST PUSH1 0x0 DUP1 REVERT JUMPDEST PUSH4 0x4E487B71 PUSH1 0xE0 SHL PUSH1 0x0 MSTORE PUSH1 0x41 PUSH1 0x4 MSTORE PUSH1 0x24 PUSH1 0x0 REVERT JUMPDEST MLOAD SWAP1 PUSH1 0x1 PUSH1 0x1 PUSH1 0xA0 SHL SUB DUP3 AND DUP3 SUB PUSH2 0xF8 JUMPI JUMP INVALID PUSH1 0x40 PUSH1 0x80 DUP2 MSTORE PUSH1 0x4 DUP1 CALLDATASIZE LT ISZERO PUSH2 0x14 JUMPI PUSH1 0x0 DUP1 REVERT JUMPDEST PUSH1 0x0 SWAP2 DUP3 CALLDATALOAD PUSH1 0xE0 SHR DUP1 PUSH3 0x8CC262 EQ PUSH2 0xE58 JUMPI DUP1 PUSH4 0x700037D EQ PUSH2 0xE1E JUMPI DUP1 PUSH4 0x169DF064 EQ PUSH2 0xDE4 JUMPI DUP1 PUSH4 0x18160DDD EQ PUSH2 0xDC5 JUMPI DUP1 PUSH4 0x2E17DE78 EQ PUSH2 0xBC0 JUMPI DUP1 PUSH4 0x4DA6A556 EQ PUSH2 0xB8F JUMPI DUP1 PUSH4 0x587CDE1E EQ PUSH2 0xB52 JUMPI DUP1 PUSH4 0x59974E38 EQ PUSH2 0xAC2 JUMPI DUP1 PUSH4 0x5C19A95C EQ PUSH2 0x8D5 JUMPI DUP1 PUSH4 0x715018A6 EQ PUSH2 0x878 JUMPI DUP1 PUSH4 0x7B0A47EE EQ PUSH2 0x859 JUMPI DUP1 PUSH4 0x8B876347 EQ PUSH2 0x81F JUMPI DUP1 PUSH4 0x8DA5CB5B EQ PUSH2 0x7F7 JUMPI DUP1 PUSH4 0x92AB89BB EQ PUSH2 0x6DD JUMPI DUP1 PUSH4 0x93707A19 EQ PUSH2 0x615 JUMPI DUP1 PUSH4 0x9E447FC6 EQ PUSH2 0x5B8 JUMPI DUP1 PUSH4 0xA694FC3A EQ PUSH2 0x395 JUMPI DUP1 PUSH4 0xB88A802F EQ PUSH2 0x256 JUMPI DUP1 PUSH4 0xC8F33C91 EQ PUSH2 0x237 JUMPI DUP1 PUSH4 0xCD3DAF9D EQ PUSH2 0x213 JUMPI DUP1 PUSH4 0xDF136D65 EQ PUSH2 0x1F4 JUMPI DUP1 PUSH4 0xE7499B7D EQ PUSH2 0x1AC JUMPI PUSH4 0xF2FDE38B EQ PUSH2 0x11C JUMPI PUSH1 0x0 DUP1 REVERT JUMPDEST CALLVALUE PUSH2 0x1A8 JUMPI PUSH1 0x20 CALLDATASIZE PUSH1 0x3 NOT ADD SLT PUSH2 0x1A8 JUMPI PUSH1 0x1 PUSH1 0x1 PUSH1 0xA0 SHL SUB DUP3 CALLDATALOAD DUP2 DUP2 AND SWAP4 SWAP2 SWAP3 SWAP1 DUP5 SWAP1 SUB PUSH2 0x1A4 JUMPI PUSH2 0x14D PUSH2 0x1052 JUMP JUMPDEST DUP4 ISZERO PUSH2 0x18E JUMPI POP POP DUP3 SLOAD PUSH1 0x1 PUSH1 0x1 PUSH1 0xA0 SHL SUB NOT DUP2 AND DUP4 OR DUP5 SSTORE AND PUSH32 0x8BE0079C531659141344CD1FD0A4F28419497F9722A3DAAFE3B4186F6B6457E0 DUP4 DUP1 LOG3 DUP1 RETURN JUMPDEST MLOAD PUSH4 0x1E4FBDF7 PUSH1 0xE0 SHL DUP2 MSTORE SWAP1 DUP2 ADD DUP5 SWAP1 MSTORE PUSH1 0x24 SWAP1 REVERT JUMPDEST DUP5 DUP1 REVERT JUMPDEST DUP3 DUP1 REVERT JUMPDEST DUP4 DUP3 CALLVALUE PUSH2 0x1F0 JUMPI DUP2 PUSH1 0x3 NOT CALLDATASIZE ADD SLT PUSH2 0x1F0 JUMPI MLOAD PUSH32 0x0 PUSH1 0x1 PUSH1 0x1 PUSH1 0xA0 SHL SUB AND DUP2 MSTORE PUSH1 0x20 SWAP1 RETURN JUMPDEST POP DUP1 REVERT JUMPDEST DUP4 DUP3 CALLVALUE PUSH2 0x1F0 JUMPI DUP2 PUSH1 0x3 NOT CALLDATASIZE ADD SLT PUSH2 0x1F0 JUMPI PUSH1 0x20 SWAP1 PUSH1 0x8 SLOAD SWAP1 MLOAD SWAP1 DUP2 MSTORE RETURN JUMPDEST DUP4 DUP3 CALLVALUE PUSH2 0x1F0 JUMPI DUP2 PUSH1 0x3 NOT CALLDATASIZE ADD SLT PUSH2 0x1F0 JUMPI PUSH1 0x20 SWAP1 PUSH2 0x230 PUSH2 0xFDD JUMP JUMPDEST SWAP1 MLOAD SWAP1 DUP2 MSTORE RETURN JUMPDEST DUP4 DUP3 CALLVALUE PUSH2 0x1F0 JUMPI DUP2 PUSH1 0x3 NOT CALLDATASIZE ADD SLT PUSH2 0x1F0 JUMPI PUSH1 0x20 SWAP1 PUSH1 0x7 SLOAD SWAP1 MLOAD SWAP1 DUP2 MSTORE RETURN JUMPDEST POP CALLVALUE PUSH2 0x1A8 JUMPI DUP3 PUSH1 0x3 NOT CALLDATASIZE ADD SLT PUSH2 0x1A8 JUMPI PUSH2 0x26F PUSH2 0x102F JUMP JUMPDEST PUSH2 0x277 PUSH2 0xFDD JUMP JUMPDEST PUSH1 0x8 SSTORE TIMESTAMP PUSH1 0x7 SSTORE CALLER PUSH2 0x36F JUMPI JUMPDEST CALLER DUP4 MSTORE PUSH1 0xA PUSH1 0x20 MSTORE DUP1 DUP4 KECCAK256 SWAP2 DUP4 DUP4 SLOAD SWAP4 DUP5 PUSH2 0x2A2 JUMPI JUMPDEST POP PUSH1 0x1 DUP1 SSTORE DUP1 RETURN JUMPDEST SSTORE DUP2 MLOAD PUSH4 0xA9059CBB PUSH1 0xE0 SHL DUP2 MSTORE CALLER SWAP2 DUP2 ADD SWAP2 DUP3 MSTORE PUSH1 0x20 DUP3 DUP2 ADD DUP6 SWAP1 MSTORE SWAP1 SWAP2 DUP3 SWAP1 DUP2 SWAP1 PUSH1 0x40 ADD SUB DUP2 DUP8 PUSH32 0x0 PUSH1 0x1 PUSH1 0x1 PUSH1 0xA0 SHL SUB AND GAS CALL DUP1 ISZERO PUSH2 0x365 JUMPI PUSH2 0x336 JUMPI JUMPDEST POP MLOAD SWAP1 DUP2 MSTORE PUSH32 0x106F923F993C2149D49B4255FF723ACAFA1F2D94393F561D3EDA32AE348F7241 PUSH1 0x20 CALLER SWAP3 LOG2 CODESIZE DUP1 DUP1 DUP4 DUP2 PUSH2 0x29A JUMP JUMPDEST PUSH2 0x357 SWAP1 PUSH1 0x20 RETURNDATASIZE PUSH1 0x20 GT PUSH2 0x35E JUMPI JUMPDEST PUSH2 0x34F DUP2 DUP4 PUSH2 0xF2B JUMP JUMPDEST DUP2 ADD SWAP1 PUSH2 0xF63 JUMP JUMPDEST POP CODESIZE PUSH2 0x301 JUMP JUMPDEST POP RETURNDATASIZE PUSH2 0x345 JUMP JUMPDEST DUP3 MLOAD RETURNDATASIZE DUP7 DUP3 RETURNDATACOPY RETURNDATASIZE SWAP1 REVERT JUMPDEST PUSH2 0x378 CALLER PUSH2 0xECC JUMP JUMPDEST CALLER DUP5 MSTORE PUSH1 0xA PUSH1 0x20 MSTORE DUP2 DUP5 KECCAK256 SSTORE PUSH1 0x8 SLOAD PUSH1 0x9 PUSH1 0x20 MSTORE DUP2 DUP5 KECCAK256 SSTORE PUSH2 0x284 JUMP JUMPDEST POP CALLVALUE PUSH2 0x1A8 JUMPI PUSH1 0x20 DUP1 PUSH1 0x3 NOT CALLDATASIZE ADD SLT PUSH2 0x5B4 JUMPI DUP3 CALLDATALOAD SWAP3 PUSH2 0x3B3 PUSH2 0x102F JUMP JUMPDEST PUSH2 0x3BB PUSH2 0xFDD JUMP JUMPDEST PUSH1 0x8 SSTORE TIMESTAMP PUSH1 0x7 SSTORE CALLER PUSH2 0x590 JUMPI JUMPDEST DUP4 ISZERO PUSH2 0x55E JUMPI PUSH2 0x3DA DUP5 PUSH1 0x2 SLOAD PUSH2 0xEBF JUMP JUMPDEST PUSH1 0x2 SSTORE CALLER DUP6 MSTORE DUP1 DUP3 MSTORE PUSH1 0x1 DUP1 PUSH1 0xA0 SHL SUB SWAP4 PUSH2 0x44B DUP4 DUP3 DUP8 DUP8 DUP11 KECCAK256 SLOAD AND SWAP8 DUP9 ISZERO ISZERO SWAP6 DUP7 PUSH2 0x53A JUMPI JUMPDEST CALLER DUP12 MSTORE PUSH1 0x3 DUP5 MSTORE DUP9 DUP12 KECCAK256 PUSH2 0x416 DUP5 DUP3 SLOAD PUSH2 0xEBF JUMP JUMPDEST SWAP1 SSTORE DUP9 MLOAD PUSH4 0x23B872DD PUSH1 0xE0 SHL DUP2 MSTORE CALLER SWAP2 DUP2 ADD SWAP2 DUP3 MSTORE ADDRESS PUSH1 0x20 DUP4 ADD MSTORE PUSH1 0x40 DUP3 ADD SWAP4 SWAP1 SWAP4 MSTORE SWAP2 SWAP4 DUP5 SWAP3 DUP4 SWAP2 DUP13 SWAP2 DUP4 SWAP2 PUSH1 0x60 SWAP1 SWAP2 ADD SWAP1 JUMP JUMPDEST SUB SWAP3 PUSH32 0x0 AND GAS CALL DUP1 ISZERO PUSH2 0x530 JUMPI PUSH2 0x513 JUMPI JUMPDEST POP DUP4 MLOAD SWAP1 DUP2 MSTORE PUSH32 0x9E71BC8EEA02A63969F509818F2DAFB9254532904319F9DBDA79B67BD34A5F3D DUP4 CALLER SWAP3 LOG2 PUSH2 0x4B4 JUMPI JUMPDEST DUP4 PUSH1 0x1 DUP1 SSTORE DUP1 RETURN JUMPDEST PUSH32 0xE5541A6B6103D4FA7E021ED54FAD39C66F27A76BD13D374CF6240AE6BD0BB72B SWAP1 CALLER DUP6 MSTORE PUSH1 0x3 DUP2 MSTORE DUP3 DUP6 KECCAK256 SLOAD DUP5 DUP7 MSTORE PUSH1 0x5 DUP3 MSTORE PUSH2 0x4F6 DUP5 DUP8 KECCAK256 SWAP2 DUP3 SLOAD PUSH2 0xEBF JUMP JUMPDEST SWAP1 SSTORE CALLER DUP6 MSTORE PUSH1 0x3 DUP2 MSTORE DUP3 DUP6 KECCAK256 SLOAD SWAP3 MLOAD SWAP3 DUP4 MSTORE CALLER SWAP3 LOG3 CODESIZE DUP1 DUP1 PUSH2 0x4AC JUMP JUMPDEST PUSH2 0x529 SWAP1 DUP5 RETURNDATASIZE DUP7 GT PUSH2 0x35E JUMPI PUSH2 0x34F DUP2 DUP4 PUSH2 0xF2B JUMP JUMPDEST POP CODESIZE PUSH2 0x47C JUMP JUMPDEST DUP6 MLOAD RETURNDATASIZE DUP10 DUP3 RETURNDATACOPY RETURNDATASIZE SWAP1 REVERT JUMPDEST PUSH1 0x3 DUP5 MSTORE DUP9 DUP12 KECCAK256 SLOAD DUP11 DUP13 MSTORE PUSH1 0x5 DUP6 MSTORE PUSH2 0x557 DUP11 DUP14 KECCAK256 SWAP2 DUP3 SLOAD PUSH2 0xE89 JUMP JUMPDEST SWAP1 SSTORE PUSH2 0x401 JUMP JUMPDEST SWAP2 MLOAD PUSH3 0x461BCD PUSH1 0xE5 SHL DUP2 MSTORE SWAP2 DUP3 ADD MSTORE PUSH1 0xE PUSH1 0x24 DUP3 ADD MSTORE PUSH14 0x43616E6E6F74207374616B65203 PUSH1 0x94 SHL PUSH1 0x44 DUP3 ADD MSTORE PUSH1 0x64 SWAP1 REVERT JUMPDEST PUSH2 0x599 CALLER PUSH2 0xECC JUMP JUMPDEST CALLER DUP7 MSTORE PUSH1 0xA DUP4 MSTORE DUP4 DUP7 KECCAK256 SSTORE PUSH1 0x8 SLOAD PUSH1 0x9 DUP4 MSTORE DUP4 DUP7 KECCAK256 SSTORE PUSH2 0x3C8 JUMP JUMPDEST DUP4 DUP1 REVERT JUMPDEST POP SWAP1 CALLVALUE PUSH2 0x1A8 JUMPI PUSH1 0x20 CALLDATASIZE PUSH1 0x3 NOT ADD SLT PUSH2 0x1A8 JUMPI PUSH32 0x8CBFAFC8E0D9C5C81401C4B9C6E7D201198ADC7EB8F8F1556C195ECD4C0A0E7B SWAP2 PUSH1 0x20 SWAP2 CALLDATALOAD SWAP1 PUSH2 0x5FA PUSH2 0x1052 JUMP JUMPDEST PUSH2 0x602 PUSH2 0xFDD JUMP JUMPDEST PUSH1 0x8 SSTORE TIMESTAMP PUSH1 0x7 SSTORE DUP2 PUSH1 0x6 SSTORE MLOAD SWAP1 DUP2 MSTORE LOG1 DUP1 RETURN JUMPDEST POP CALLVALUE PUSH2 0x1A8 JUMPI PUSH1 0x20 CALLDATASIZE PUSH1 0x3 NOT ADD SLT PUSH2 0x1A8 JUMPI DUP1 MLOAD PUSH4 0x23B872DD PUSH1 0xE0 SHL DUP2 MSTORE CALLER DUP2 DUP5 ADD SWAP1 DUP2 MSTORE ADDRESS PUSH1 0x20 DUP3 DUP2 ADD SWAP2 SWAP1 SWAP2 MSTORE SWAP4 CALLDATALOAD PUSH1 0x40 DUP3 ADD DUP2 SWAP1 MSTORE SWAP4 SWAP1 DUP3 SWAP1 DUP2 SWAP1 PUSH1 0x60 ADD SUB DUP2 DUP8 PUSH32 0x0 PUSH1 0x1 PUSH1 0x1 PUSH1 0xA0 SHL SUB AND GAS CALL DUP1 ISZERO PUSH2 0x365 JUMPI PUSH2 0x6BE JUMPI JUMPDEST POP MLOAD SWAP1 DUP2 MSTORE PUSH32 0x525B74A34FA7D280989782FF88FADED7890117EDD2A674614497B9ED45B45988 PUSH1 0x20 CALLER SWAP3 LOG2 DUP1 RETURN JUMPDEST PUSH2 0x6D6 SWAP1 PUSH1 0x20 RETURNDATASIZE PUSH1 0x20 GT PUSH2 0x35E JUMPI PUSH2 0x34F DUP2 DUP4 PUSH2 0xF2B JUMP JUMPDEST POP CODESIZE PUSH2 0x690 JUMP JUMPDEST POP SWAP1 CALLVALUE PUSH2 0x1A8 JUMPI DUP3 PUSH1 0x3 NOT CALLDATASIZE ADD SLT PUSH2 0x1A8 JUMPI PUSH2 0x6F7 PUSH2 0x102F JUMP JUMPDEST PUSH2 0x6FF PUSH2 0xFDD JUMP JUMPDEST PUSH1 0x8 SSTORE TIMESTAMP PUSH1 0x7 SSTORE CALLER PUSH2 0x7D1 JUMPI JUMPDEST CALLER DUP4 MSTORE PUSH1 0x20 DUP2 DUP2 MSTORE DUP3 DUP5 KECCAK256 SLOAD PUSH1 0x1 PUSH1 0x1 PUSH1 0xA0 SHL SUB AND SWAP3 DUP4 ISZERO PUSH2 0x799 JUMPI SWAP1 PUSH32 0x4D10BD049775C77BD7F255195AFBA5088028ECB3C7C277D393CCFF7934F2F92C SWAP2 CALLER DUP7 MSTORE PUSH1 0x3 DUP3 MSTORE DUP1 DUP7 KECCAK256 SLOAD SWAP4 DUP6 DUP8 MSTORE PUSH1 0x5 DUP4 MSTORE DUP2 DUP8 KECCAK256 PUSH2 0x76C DUP7 DUP3 SLOAD PUSH2 0xE89 JUMP JUMPDEST SWAP1 SSTORE CALLER DUP8 MSTORE DUP3 MSTORE DUP1 DUP7 KECCAK256 PUSH12 0xFFFFFFFFFFFFFFFFFFFFFFFF PUSH1 0xA0 SHL DUP2 SLOAD AND SWAP1 SSTORE MLOAD SWAP3 DUP4 MSTORE CALLER SWAP3 LOG3 PUSH1 0x1 DUP1 SSTORE DUP1 RETURN JUMPDEST MLOAD PUSH3 0x461BCD PUSH1 0xE5 SHL DUP2 MSTORE SWAP2 DUP3 ADD MSTORE PUSH1 0x14 PUSH1 0x24 DUP3 ADD MSTORE PUSH20 0x27379030B1BA34BB32903232B632B3B0BA34B7B7 PUSH1 0x61 SHL PUSH1 0x44 DUP3 ADD MSTORE PUSH1 0x64 SWAP2 POP REVERT JUMPDEST PUSH2 0x7DA CALLER PUSH2 0xECC JUMP JUMPDEST CALLER DUP5 MSTORE PUSH1 0xA PUSH1 0x20 MSTORE DUP3 DUP5 KECCAK256 SSTORE PUSH1 0x8 SLOAD PUSH1 0x9 PUSH1 0x20 MSTORE DUP3 DUP5 KECCAK256 SSTORE PUSH2 0x70C JUMP JUMPDEST DUP4 DUP3 CALLVALUE PUSH2 0x1F0 JUMPI DUP2 PUSH1 0x3 NOT CALLDATASIZE ADD SLT PUSH2 0x1F0 JUMPI SWAP1 SLOAD SWAP1 MLOAD PUSH1 0x1 PUSH1 0x1 PUSH1 0xA0 SHL SUB SWAP1 SWAP2 AND DUP2 MSTORE PUSH1 0x20 SWAP1 RETURN JUMPDEST POP SWAP1 CALLVALUE PUSH2 0x1A8 JUMPI PUSH1 0x20 CALLDATASIZE PUSH1 0x3 NOT ADD SLT PUSH2 0x1A8 JUMPI CALLDATALOAD PUSH1 0x1 PUSH1 0x1 PUSH1 0xA0 SHL SUB DUP2 AND SWAP1 DUP2 SWAP1 SUB PUSH2 0x1A8 JUMPI DUP3 DUP3 SWAP2 PUSH1 0x20 SWAP5 MSTORE PUSH1 0x9 DUP5 MSTORE KECCAK256 SLOAD SWAP1 MLOAD SWAP1 DUP2 MSTORE RETURN JUMPDEST DUP4 DUP3 CALLVALUE PUSH2 0x1F0 JUMPI DUP2 PUSH1 0x3 NOT CALLDATASIZE ADD SLT PUSH2 0x1F0 JUMPI PUSH1 0x20 SWAP1 PUSH1 0x6 SLOAD SWAP1 MLOAD SWAP1 DUP2 MSTORE RETURN JUMPDEST DUP4 CALLVALUE PUSH2 0x8D2 JUMPI DUP1 PUSH1 0x3 NOT CALLDATASIZE ADD SLT PUSH2 0x8D2 JUMPI PUSH2 0x891 PUSH2 0x1052 JUMP JUMPDEST DUP1 SLOAD PUSH1 0x1 PUSH1 0x1 PUSH1 0xA0 SHL SUB NOT DUP2 AND DUP3 SSTORE DUP2 SWAP1 PUSH1 0x1 PUSH1 0x1 PUSH1 0xA0 SHL SUB AND PUSH32 0x8BE0079C531659141344CD1FD0A4F28419497F9722A3DAAFE3B4186F6B6457E0 DUP3 DUP1 LOG3 DUP1 RETURN JUMPDEST DUP1 REVERT JUMPDEST POP SWAP1 CALLVALUE PUSH2 0x1A8 JUMPI PUSH1 0x20 DUP1 PUSH1 0x3 NOT CALLDATASIZE ADD SLT PUSH2 0x5B4 JUMPI PUSH1 0x1 PUSH1 0x1 PUSH1 0xA0 SHL SUB DUP3 CALLDATALOAD DUP2 DUP2 AND SWAP5 SWAP2 SWAP4 SWAP1 DUP6 SWAP1 SUB PUSH2 0xABE JUMPI PUSH2 0x909 PUSH2 0x102F JUMP JUMPDEST PUSH2 0x911 PUSH2 0xFDD JUMP JUMPDEST PUSH1 0x8 SSTORE TIMESTAMP PUSH1 0x7 SSTORE CALLER PUSH2 0xA9A JUMPI JUMPDEST CALLER DUP6 EQ PUSH2 0xA59 JUMPI CALLER DUP7 MSTORE PUSH1 0x3 DUP4 MSTORE DUP2 DUP7 KECCAK256 SLOAD SWAP4 DUP5 ISZERO PUSH2 0xA0B JUMPI SWAP1 PUSH32 0xE5541A6B6103D4FA7E021ED54FAD39C66F27A76BD13D374CF6240AE6BD0BB72B SWAP4 SWAP3 SWAP2 CALLER DUP9 MSTORE DUP2 DUP5 MSTORE DUP3 DUP9 KECCAK256 SLOAD AND DUP1 ISZERO ISZERO DUP1 PUSH2 0xA01 JUMPI JUMPDEST PUSH2 0x9BA JUMPI JUMPDEST POP CALLER DUP8 MSTORE DUP3 MSTORE DUP1 DUP7 KECCAK256 DUP6 PUSH12 0xFFFFFFFFFFFFFFFFFFFFFFFF PUSH1 0xA0 SHL DUP3 SLOAD AND OR SWAP1 SSTORE DUP5 DUP7 MSTORE PUSH1 0x5 DUP3 MSTORE DUP1 DUP7 KECCAK256 PUSH2 0x9AA DUP6 DUP3 SLOAD PUSH2 0xEBF JUMP JUMPDEST SWAP1 SSTORE MLOAD SWAP3 DUP4 MSTORE CALLER SWAP3 LOG3 PUSH1 0x1 DUP1 SSTORE DUP1 RETURN JUMPDEST DUP1 DUP9 MSTORE PUSH1 0x5 DUP5 MSTORE DUP3 DUP9 KECCAK256 PUSH2 0x9CF DUP8 DUP3 SLOAD PUSH2 0xE89 JUMP JUMPDEST SWAP1 SSTORE DUP3 MLOAD DUP7 DUP2 MSTORE PUSH32 0x4D10BD049775C77BD7F255195AFBA5088028ECB3C7C277D393CCFF7934F2F92C DUP6 CALLER SWAP3 LOG3 CODESIZE PUSH2 0x975 JUMP JUMPDEST POP DUP7 DUP2 EQ ISZERO PUSH2 0x970 JUMP JUMPDEST POP DUP3 PUSH1 0x84 SWAP3 MLOAD SWAP2 PUSH3 0x461BCD PUSH1 0xE5 SHL DUP4 MSTORE DUP3 ADD MSTORE PUSH1 0x23 PUSH1 0x24 DUP3 ADD MSTORE PUSH32 0x4D7573742068617665207374616B656420746F6B656E7320746F2064656C6567 PUSH1 0x44 DUP3 ADD MSTORE PUSH3 0x617465 PUSH1 0xE8 SHL PUSH1 0x64 DUP3 ADD MSTORE REVERT JUMPDEST DUP3 PUSH1 0x64 SWAP3 MLOAD SWAP2 PUSH3 0x461BCD PUSH1 0xE5 SHL DUP4 MSTORE DUP3 ADD MSTORE PUSH1 0x1B PUSH1 0x24 DUP3 ADD MSTORE PUSH32 0x43616E6E6F742064656C656761746520746F20796F757273656C660000000000 PUSH1 0x44 DUP3 ADD MSTORE REVERT JUMPDEST PUSH2 0xAA3 CALLER PUSH2 0xECC JUMP JUMPDEST CALLER DUP8 MSTORE PUSH1 0xA DUP5 MSTORE DUP3 DUP8 KECCAK256 SSTORE PUSH1 0x8 SLOAD PUSH1 0x9 DUP5 MSTORE DUP3 DUP8 KECCAK256 SSTORE PUSH2 0x91E JUMP JUMPDEST DUP6 DUP1 REVERT JUMPDEST POP SWAP2 CALLVALUE PUSH2 0x8D2 JUMPI PUSH1 0x20 CALLDATASIZE PUSH1 0x3 NOT ADD SLT PUSH2 0x8D2 JUMPI POP PUSH1 0x20 PUSH1 0xA4 SWAP3 MLOAD SWAP2 PUSH3 0x461BCD PUSH1 0xE5 SHL DUP4 MSTORE DUP3 ADD MSTORE PUSH1 0x4B PUSH1 0x24 DUP3 ADD MSTORE PUSH32 0x646973747269627574655265776172647320697320646570726563617465642E PUSH1 0x44 DUP3 ADD MSTORE PUSH32 0x20557365207365745265776172645261746520616E642066756E645265776172 PUSH1 0x64 DUP3 ADD MSTORE PUSH11 0x32399034B739BA32B0B217 PUSH1 0xA9 SHL PUSH1 0x84 DUP3 ADD MSTORE REVERT JUMPDEST POP SWAP1 CALLVALUE PUSH2 0x1A8 JUMPI PUSH1 0x20 CALLDATASIZE PUSH1 0x3 NOT ADD SLT PUSH2 0x1A8 JUMPI PUSH1 0x1 PUSH1 0x1 PUSH1 0xA0 SHL SUB SWAP1 DUP1 CALLDATALOAD DUP3 DUP2 AND SWAP1 DUP2 SWAP1 SUB PUSH2 0x1A4 JUMPI SWAP4 DUP4 SWAP2 PUSH1 0x20 SWAP6 DUP3 MSTORE DUP6 MSTORE KECCAK256 SLOAD AND SWAP1 MLOAD SWAP1 DUP2 MSTORE RETURN JUMPDEST POP SWAP1 CALLVALUE PUSH2 0x1A8 JUMPI PUSH1 0x20 CALLDATASIZE PUSH1 0x3 NOT ADD SLT PUSH2 0x1A8 JUMPI CALLDATALOAD SWAP2 PUSH1 0x1 PUSH1 0x1 PUSH1 0xA0 SHL SUB DUP4 AND DUP4 SUB PUSH2 0x8D2 JUMPI POP PUSH2 0x230 PUSH1 0x20 SWAP3 PUSH2 0xF80 JUMP JUMPDEST POP CALLVALUE PUSH2 0x1A8 JUMPI PUSH1 0x20 SWAP1 DUP2 PUSH1 0x3 NOT CALLDATASIZE ADD SLT PUSH2 0x5B4 JUMPI DUP3 CALLDATALOAD SWAP3 PUSH2 0xBDF PUSH2 0x102F JUMP JUMPDEST PUSH2 0xBE7 PUSH2 0xFDD JUMP JUMPDEST PUSH1 0x8 SSTORE TIMESTAMP PUSH1 0x7 SSTORE CALLER PUSH2 0xDA1 JUMPI JUMPDEST DUP4 ISZERO PUSH2 0xD6D JUMPI CALLER DUP6 MSTORE PUSH1 0x3 DUP4 MSTORE DUP4 DUP3 DUP7 KECCAK256 SLOAD LT PUSH2 0xD2C JUMPI CALLER DUP6 MSTORE DUP1 DUP4 MSTORE DUP2 DUP6 KECCAK256 SLOAD PUSH2 0xC85 SWAP5 SWAP4 SWAP3 SWAP2 DUP4 SWAP2 DUP6 SWAP2 PUSH1 0x1 PUSH1 0x1 PUSH1 0xA0 SHL SUB SWAP2 DUP3 AND DUP1 PUSH2 0xD10 JUMPI JUMPDEST POP PUSH2 0xC3E DUP4 PUSH1 0x2 SLOAD PUSH2 0xE89 JUMP JUMPDEST PUSH1 0x2 SSTORE CALLER DUP10 MSTORE PUSH1 0x3 DUP5 MSTORE DUP5 DUP10 KECCAK256 PUSH2 0xC56 DUP5 DUP3 SLOAD PUSH2 0xE89 JUMP JUMPDEST SWAP1 SSTORE DUP5 MLOAD PUSH4 0xA9059CBB PUSH1 0xE0 SHL DUP2 MSTORE CALLER SWAP2 DUP2 ADD SWAP2 DUP3 MSTORE PUSH1 0x20 DUP3 ADD SWAP4 SWAP1 SWAP4 MSTORE SWAP2 SWAP7 DUP8 SWAP3 DUP4 SWAP2 DUP11 SWAP2 DUP4 SWAP2 PUSH1 0x40 SWAP1 SWAP2 ADD SWAP1 JUMP JUMPDEST SUB SWAP3 PUSH32 0x0 AND GAS CALL SWAP4 DUP5 ISZERO PUSH2 0xD06 JUMPI PUSH32 0xF5BB82176FEB1B5E747E28471AA92156A04D9F3AB9F45F28E2D704232B93F75 SWAP4 SWAP5 PUSH2 0xCE9 JUMPI JUMPDEST POP MLOAD SWAP3 DUP4 MSTORE CALLER SWAP3 LOG2 PUSH1 0x1 DUP1 SSTORE DUP1 RETURN JUMPDEST PUSH2 0xCFF SWAP1 DUP4 RETURNDATASIZE DUP6 GT PUSH2 0x35E JUMPI PUSH2 0x34F DUP2 DUP4 PUSH2 0xF2B JUMP JUMPDEST POP CODESIZE PUSH2 0xCDA JUMP JUMPDEST DUP2 MLOAD RETURNDATASIZE DUP8 DUP3 RETURNDATACOPY RETURNDATASIZE SWAP1 REVERT JUMPDEST DUP10 MSTORE PUSH1 0x5 DUP5 MSTORE DUP5 DUP10 KECCAK256 PUSH2 0xD24 DUP5 DUP3 SLOAD PUSH2 0xE89 JUMP JUMPDEST SWAP1 SSTORE CODESIZE PUSH2 0xC31 JUMP JUMPDEST DUP3 PUSH1 0x64 SWAP3 MLOAD SWAP2 PUSH3 0x461BCD PUSH1 0xE5 SHL DUP4 MSTORE DUP3 ADD MSTORE PUSH1 0x1E PUSH1 0x24 DUP3 ADD MSTORE PUSH32 0x556E7374616B6520616D6F756E7420657863656564732062616C616E63650000 PUSH1 0x44 DUP3 ADD MSTORE REVERT JUMPDEST DUP3 PUSH1 0x64 SWAP3 MLOAD SWAP2 PUSH3 0x461BCD PUSH1 0xE5 SHL DUP4 MSTORE DUP3 ADD MSTORE PUSH1 0x10 PUSH1 0x24 DUP3 ADD MSTORE PUSH16 0x43616E6E6F7420756E7374616B65203 PUSH1 0x84 SHL PUSH1 0x44 DUP3 ADD MSTORE REVERT JUMPDEST PUSH2 0xDAA CALLER PUSH2 0xECC JUMP JUMPDEST CALLER DUP7 MSTORE PUSH1 0xA DUP5 MSTORE DUP3 DUP7 KECCAK256 SSTORE PUSH1 0x8 SLOAD PUSH1 0x9 DUP5 MSTORE DUP3 DUP7 KECCAK256 SSTORE PUSH2 0xBF4 JUMP JUMPDEST DUP4 DUP3 CALLVALUE PUSH2 0x1F0 JUMPI DUP2 PUSH1 0x3 NOT CALLDATASIZE ADD SLT PUSH2 0x1F0 JUMPI PUSH1 0x20 SWAP1 PUSH1 0x2 SLOAD SWAP1 MLOAD SWAP1 DUP2 MSTORE RETURN JUMPDEST POP SWAP1 CALLVALUE PUSH2 0x1A8 JUMPI PUSH1 0x20 CALLDATASIZE PUSH1 0x3 NOT ADD SLT PUSH2 0x1A8 JUMPI CALLDATALOAD PUSH1 0x1 PUSH1 0x1 PUSH1 0xA0 SHL SUB DUP2 AND SWAP1 DUP2 SWAP1 SUB PUSH2 0x1A8 JUMPI DUP3 DUP3 SWAP2 PUSH1 0x20 SWAP5 MSTORE PUSH1 0x5 DUP5 MSTORE KECCAK256 SLOAD SWAP1 MLOAD SWAP1 DUP2 MSTORE RETURN JUMPDEST POP SWAP1 CALLVALUE PUSH2 0x1A8 JUMPI PUSH1 0x20 CALLDATASIZE PUSH1 0x3 NOT ADD SLT PUSH2 0x1A8 JUMPI CALLDATALOAD PUSH1 0x1 PUSH1 0x1 PUSH1 0xA0 SHL SUB DUP2 AND SWAP1 DUP2 SWAP1 SUB PUSH2 0x1A8 JUMPI DUP3 DUP3 SWAP2 PUSH1 0x20 SWAP5 MSTORE PUSH1 0xA DUP5 MSTORE KECCAK256 SLOAD SWAP1 MLOAD SWAP1 DUP2 MSTORE RETURN JUMPDEST POP SWAP1 CALLVALUE PUSH2 0x1A8 JUMPI PUSH1 0x20 CALLDATASIZE PUSH1 0x3 NOT ADD SLT PUSH2 0x1A8 JUMPI CALLDATALOAD SWAP2 PUSH1 0x1 PUSH1 0x1 PUSH1 0xA0 SHL SUB DUP4 AND DUP4 SUB PUSH2 0x8D2 JUMPI POP PUSH2 0x230 PUSH1 0x20 SWAP3 PUSH2 0xECC JUMP JUMPDEST SWAP2 SWAP1 DUP3 SUB SWAP2 DUP3 GT PUSH2 0xE96 JUMPI JUMP JUMPDEST PUSH4 0x4E487B71 PUSH1 0xE0 SHL PUSH1 0x0 MSTORE PUSH1 0x11 PUSH1 0x4 MSTORE PUSH1 0x24 PUSH1 0x0 REVERT JUMPDEST DUP2 DUP2 MUL SWAP3 SWAP2 DUP2 ISZERO SWAP2 DUP5 DIV EQ OR ISZERO PUSH2 0xE96 JUMPI JUMP JUMPDEST SWAP2 SWAP1 DUP3 ADD DUP1 SWAP3 GT PUSH2 0xE96 JUMPI JUMP JUMPDEST PUSH2 0xF28 SWAP1 PUSH1 0x1 DUP1 PUSH1 0xA0 SHL SUB AND PUSH1 0x40 PUSH1 0x0 DUP3 DUP2 MSTORE PUSH1 0x3 PUSH1 0x20 MSTORE PUSH8 0xDE0B6B3A7640000 PUSH2 0xF17 DUP4 DUP4 KECCAK256 SLOAD PUSH2 0xF11 PUSH2 0xEFF PUSH2 0xFDD JUMP JUMPDEST DUP8 DUP7 MSTORE PUSH1 0x9 PUSH1 0x20 MSTORE DUP7 DUP7 KECCAK256 SLOAD SWAP1 PUSH2 0xE89 JUMP JUMPDEST SWAP1 PUSH2 0xEAC JUMP JUMPDEST DIV SWAP3 DUP2 MSTORE PUSH1 0xA PUSH1 0x20 MSTORE KECCAK256 SLOAD SWAP1 PUSH2 0xEBF JUMP JUMPDEST SWAP1 JUMP JUMPDEST SWAP1 PUSH1 0x1F DUP1 NOT SWAP2 ADD AND DUP2 ADD SWAP1 DUP2 LT PUSH8 0xFFFFFFFFFFFFFFFF DUP3 GT OR PUSH2 0xF4D JUMPI PUSH1 0x40 MSTORE JUMP JUMPDEST PUSH4 0x4E487B71 PUSH1 0xE0 SHL PUSH1 0x0 MSTORE PUSH1 0x41 PUSH1 0x4 MSTORE PUSH1 0x24 PUSH1 0x0 REVERT JUMPDEST SWAP1 DUP2 PUSH1 0x20 SWAP2 SUB SLT PUSH2 0xF7B JUMPI MLOAD DUP1 ISZERO ISZERO DUP2 SUB PUSH2 0xF7B JUMPI SWAP1 JUMP JUMPDEST PUSH1 0x0 DUP1 REVERT JUMPDEST PUSH1 0x1 PUSH1 0x1 PUSH1 0xA0 SHL SUB SWAP1 DUP2 AND PUSH1 0x0 DUP2 DUP2 MSTORE PUSH1 0x4 PUSH1 0x20 MSTORE PUSH1 0x40 SWAP1 KECCAK256 SLOAD SWAP1 SWAP2 AND DUP1 ISZERO ISZERO SWAP2 SWAP1 DUP3 PUSH2 0xFD2 JUMPI JUMPDEST POP POP PUSH2 0xFCD JUMPI PUSH1 0x3 PUSH1 0x20 MSTORE PUSH2 0xF28 PUSH1 0x40 PUSH1 0x0 KECCAK256 SLOAD PUSH1 0x5 PUSH1 0x20 MSTORE PUSH1 0x40 PUSH1 0x0 KECCAK256 SLOAD SWAP1 PUSH2 0xEBF JUMP JUMPDEST PUSH1 0x0 SWAP1 JUMP JUMPDEST EQ ISZERO SWAP1 POP CODESIZE DUP1 PUSH2 0xFA8 JUMP JUMPDEST PUSH1 0x2 SLOAD DUP1 ISZERO PUSH2 0x1028 JUMPI PUSH2 0xFF2 PUSH1 0x7 SLOAD TIMESTAMP PUSH2 0xE89 JUMP JUMPDEST PUSH2 0x1002 PUSH1 0x8 SLOAD SWAP2 PUSH1 0x6 SLOAD SWAP1 PUSH2 0xEAC JUMP JUMPDEST SWAP2 PUSH8 0xDE0B6B3A7640000 SWAP3 DUP4 DUP2 MUL SWAP4 DUP2 DUP6 DIV EQ SWAP1 ISZERO OR ISZERO PUSH2 0xE96 JUMPI PUSH2 0xF28 SWAP3 DIV SWAP1 PUSH2 0xEBF JUMP JUMPDEST POP PUSH1 0x8 SLOAD SWAP1 JUMP JUMPDEST PUSH1 0x2 PUSH1 0x1 SLOAD EQ PUSH2 0x1040 JUMPI PUSH1 0x2 PUSH1 0x1 SSTORE JUMP JUMPDEST PUSH1 0x40 MLOAD PUSH4 0x3EE5AEB5 PUSH1 0xE0 SHL DUP2 MSTORE PUSH1 0x4 SWAP1 REVERT JUMPDEST PUSH1 0x0 SLOAD PUSH1 0x1 PUSH1 0x1 PUSH1 0xA0 SHL SUB AND CALLER SUB PUSH2 0x1066 JUMPI JUMP JUMPDEST PUSH1 0x40 MLOAD PUSH4 0x118CDAA7 PUSH1 0xE0 SHL DUP2 MSTORE CALLER PUSH1 0x4 DUP3 ADD MSTORE PUSH1 0x24 SWAP1 REVERT INVALID LOG2 PUSH5 0x6970667358 0x22 SLT KECCAK256 SWAP14 0xEA PUSH27 0x44D489E93D36CF1303876270AE7E55508B157BD9C8C9DA9BFA0F0C 0x2A PUSH25 0x64736F6C634300081800330000000000000000000000000000 "},"methodIdentifiers":{"claimReward()":"b88a802f","delegate(address)":"5c19a95c","delegatedPower(address)":"169df064","delegates(address)":"587cde1e","distributeRewards(uint256)":"59974e38","earned(address)":"008cc262","fundRewards(uint256)":"93707a19","getStakedAmount(address)":"4da6a556","lastUpdateTime()":"c8f33c91","owner()":"8da5cb5b","renounceOwnership()":"715018a6","rewardPerToken()":"cd3daf9d","rewardPerTokenStored()":"df136d65","rewardRate()":"7b0a47ee","rewards(address)":"0700037d","rycToken()":"e7499b7d","setRewardRate(uint256)":"9e447fc6","stake(uint256)":"a694fc3a","totalSupply()":"18160ddd","transferOwnership(address)":"f2fde38b","undelegate()":"92ab89bb","unstake(uint256)":"2e17de78","userRewardPerTokenPaid(address)":"8b876347"}}}}}