{"src/contracts/RayanChainDAO.sol":{"RayanChainDAO":{"abi":[{"inputs":[{"internalType":"address","name":"_accControlAddress","type":"address"},{"internalType":"address","name":"_stakingAddress","type":"address"},{"internalType":"address","name":"_financeAddress","type":"address"},{"internalType":"uint256","name":"_votingPeriod","type":"uint256"},{"internalType":"uint256","name":"_quorumPercentage","type":"uint256"},{"internalType":"uint256","name":"_approvalThreshold","type":"uint256"}],"stateMutability":"nonpayable","type":"constructor"},{"inputs":[{"internalType":"address","name":"owner","type":"address"}],"name":"OwnableInvalidOwner","type":"error"},{"inputs":[{"internalType":"address","name":"account","type":"address"}],"name":"OwnableUnauthorizedAccount","type":"error"},{"inputs":[],"name":"ReentrancyGuardReentrantCall","type":"error"},{"anonymous":false,"inputs":[{"indexed":true,"internalType":"uint256","name":"proposalId","type":"uint256"},{"indexed":false,"internalType":"uint256","name":"milestoneIndex","type":"uint256"},{"indexed":false,"internalType":"uint256","name":"amount","type":"uint256"}],"name":"MilestoneReleased","type":"event"},{"anonymous":false,"inputs":[{"indexed":true,"internalType":"address","name":"previousOwner","type":"address"},{"indexed":true,"internalType":"address","name":"newOwner","type":"address"}],"name":"OwnershipTransferred","type":"event"},{"anonymous":false,"inputs":[{"indexed":true,"internalType":"address","name":"user","type":"address"},{"indexed":false,"internalType":"uint256","name":"newScore","type":"uint256"}],"name":"ParticipationScoreUpdated","type":"event"},{"anonymous":false,"inputs":[{"indexed":false,"internalType":"uint256","name":"id","type":"uint256"},{"indexed":false,"internalType":"address","name":"proposer","type":"address"},{"indexed":false,"internalType":"enum RayanChainDAO.ProposalType","name":"pType","type":"uint8"},{"indexed":false,"internalType":"bytes32","name":"descriptionHash","type":"bytes32"}],"name":"ProposalCreated","type":"event"},{"anonymous":false,"inputs":[{"indexed":false,"internalType":"uint256","name":"id","type":"uint256"}],"name":"ProposalExecuted","type":"event"},{"anonymous":false,"inputs":[{"indexed":false,"internalType":"uint256","name":"id","type":"uint256"},{"indexed":false,"internalType":"enum RayanChainDAO.ProposalState","name":"newState","type":"uint8"}],"name":"ProposalStateChanged","type":"event"},{"anonymous":false,"inputs":[{"indexed":false,"internalType":"uint256","name":"proposalId","type":"uint256"},{"indexed":false,"internalType":"address","name":"voter","type":"address"},{"indexed":false,"internalType":"enum RayanChainDAO.VoteType","name":"vote","type":"uint8"},{"indexed":false,"internalType":"uint256","name":"weight","type":"uint256"}],"name":"Voted","type":"event"},{"inputs":[],"name":"MAX_RISK_SCORE","outputs":[{"internalType":"uint256","name":"","type":"uint256"}],"stateMutability":"view","type":"function"},{"inputs":[],"name":"accControl","outputs":[{"internalType":"contract AccControl","name":"","type":"address"}],"stateMutability":"view","type":"function"},{"inputs":[],"name":"approvalThresholdPercentage","outputs":[{"internalType":"uint256","name":"","type":"uint256"}],"stateMutability":"view","type":"function"},{"inputs":[{"internalType":"bytes32","name":"_descriptionHash","type":"bytes32"},{"internalType":"address payable","name":"_recipient","type":"address"},{"internalType":"uint256[]","name":"_milestoneAmounts","type":"uint256[]"}],"name":"createFundingProposal","outputs":[],"stateMutability":"nonpayable","type":"function"},{"inputs":[{"internalType":"bytes32","name":"_descriptionHash","type":"bytes32"},{"internalType":"address payable","name":"_recipient","type":"address"},{"internalType":"uint256","name":"_amount","type":"uint256"},{"internalType":"enum RayanChainDAO.TokenType","name":"_tokenType","type":"uint8"}],"name":"createTreasuryActionProposal","outputs":[],"stateMutability":"nonpayable","type":"function"},{"inputs":[{"internalType":"uint256","name":"_proposalId","type":"uint256"}],"name":"executeProposal","outputs":[],"stateMutability":"nonpayable","type":"function"},{"inputs":[],"name":"financeContract","outputs":[{"internalType":"contract IFinance","name":"","type":"address"}],"stateMutability":"view","type":"function"},{"inputs":[{"internalType":"uint256","name":"","type":"uint256"},{"internalType":"address","name":"","type":"address"}],"name":"hasVoted","outputs":[{"internalType":"bool","name":"","type":"bool"}],"stateMutability":"view","type":"function"},{"inputs":[],"name":"nextProposalId","outputs":[{"internalType":"uint256","name":"","type":"uint256"}],"stateMutability":"view","type":"function"},{"inputs":[],"name":"owner","outputs":[{"internalType":"address","name":"","type":"address"}],"stateMutability":"view","type":"function"},{"inputs":[{"internalType":"address","name":"","type":"address"}],"name":"participationScores","outputs":[{"internalType":"uint256","name":"","type":"uint256"}],"stateMutability":"view","type":"function"},{"inputs":[{"internalType":"uint256","name":"","type":"uint256"}],"name":"proposals","outputs":[{"internalType":"uint256","name":"id","type":"uint256"},{"internalType":"enum RayanChainDAO.ProposalType","name":"pType","type":"uint8"},{"internalType":"address","name":"proposer","type":"address"},{"internalType":"bytes32","name":"descriptionHash","type":"bytes32"},{"internalType":"address payable","name":"recipient","type":"address"},{"internalType":"uint256","name":"amount","type":"uint256"},{"internalType":"enum RayanChainDAO.TokenType","name":"tokenType","type":"uint8"},{"internalType":"uint256","name":"creationTime","type":"uint256"},{"internalType":"uint256","name":"votingDeadline","type":"uint256"},{"internalType":"uint256","name":"forVotes","type":"uint256"},{"internalType":"uint256","name":"againstVotes","type":"uint256"},{"internalType":"enum RayanChainDAO.ProposalState","name":"state","type":"uint8"},{"internalType":"bool","name":"executed","type":"bool"},{"internalType":"uint256","name":"currentMilestoneIndex","type":"uint256"},{"internalType":"uint256","name":"aiRiskScore","type":"uint256"},{"internalType":"uint256","name":"requiredApprovalThreshold","type":"uint256"}],"stateMutability":"view","type":"function"},{"inputs":[],"name":"quorumPercentage","outputs":[{"internalType":"uint256","name":"","type":"uint256"}],"stateMutability":"view","type":"function"},{"inputs":[{"internalType":"uint256","name":"_proposalId","type":"uint256"},{"internalType":"bytes32","name":"_proofHash","type":"bytes32"}],"name":"releaseNextMilestone","outputs":[],"stateMutability":"nonpayable","type":"function"},{"inputs":[],"name":"renounceOwnership","outputs":[],"stateMutability":"nonpayable","type":"function"},{"inputs":[{"internalType":"address","name":"_address","type":"address"}],"name":"setStartupAccessTokenAddress","outputs":[],"stateMutability":"nonpayable","type":"function"},{"inputs":[],"name":"stakingContract","outputs":[{"internalType":"contract IStaking","name":"","type":"address"}],"stateMutability":"view","type":"function"},{"inputs":[],"name":"startupAccessTokenAddress","outputs":[{"internalType":"address","name":"","type":"address"}],"stateMutability":"view","type":"function"},{"inputs":[{"internalType":"uint256","name":"_proposalId","type":"uint256"}],"name":"tallyVotes","outputs":[],"stateMutability":"nonpayable","type":"function"},{"inputs":[{"internalType":"address","name":"newOwner","type":"address"}],"name":"transferOwnership","outputs":[],"stateMutability":"nonpayable","type":"function"},{"inputs":[{"internalType":"address","name":"_user","type":"address"},{"internalType":"uint256","name":"_score","type":"uint256"}],"name":"updateParticipationScore","outputs":[],"stateMutability":"nonpayable","type":"function"},{"inputs":[{"internalType":"uint256","name":"_proposalId","type":"uint256"},{"internalType":"uint256","name":"_riskScore","type":"uint256"}],"name":"updateProposalRiskScore","outputs":[],"stateMutability":"nonpayable","type":"function"},{"inputs":[{"internalType":"uint256","name":"_proposalId","type":"uint256"},{"internalType":"enum RayanChainDAO.VoteType","name":"_voteType","type":"uint8"}],"name":"vote","outputs":[],"stateMutability":"nonpayable","type":"function"},{"inputs":[],"name":"votingPeriod","outputs":[{"internalType":"uint256","name":"","type":"uint256"}],"stateMutability":"view","type":"function"}],"evm":{"bytecode":{"linkReferences":{},"object":"6080346200013657601f62001e5f38819003918201601f19168301916001600160401b038311848410176200013b5780849260c09460405283398101031262000136576200004d8162000151565b906200005c6020820162000151565b906200006b6040820162000151565b9260608201519060a060808401519301519333156200011d57600080546001600160a01b03198082163390811784556040519991956001600160a01b039592948694859391908416907f8be0079c531659141344cd1fd0a4f28419497f9722a3daafe3b4186f6b6457e09080a3600180558660055416600555168560025416176002551683600354161760035516906004541617600455600a55600b55600c556001600755611cf89081620001678239f35b604051631e4fbdf760e01b815260006004820152602490fd5b600080fd5b634e487b7160e01b600052604160045260246000fd5b51906001600160a01b0382168203620001365756fe6080604052600436101561001257600080fd5b6000803560e01c8063013cf08b1461173457806302a251a3146117165780630d61b5191461131a57806316f58591146112f157806322005a92146111c95780632ab09d14146111ab578063345c35371461118257806338add68d1461114957806343859632146110fd57806345f19131146110e15780634d318b0e146110c15780634f23c04c146110a35780634fa76ec9146110855780635f95bfa014610d57578063715018a614610cfd5780638158a502146108c55780638da5cb5b1461089e578063943e8216146105f4578063bb1345c9146104c4578063c62a441f14610290578063d339614914610267578063ee99205c1461023e578063f2fde38b146101b35763f5fcb7ab1461012557600080fd5b346101b05760203660031901126101b05761013e61186f565b610146611c76565b6001600160a01b0316801561016b576001600160601b0360a01b600554161760055580f35b60405162461bcd60e51b815260206004820152601d60248201527f44414f3a2043616e6e6f7420736574207a65726f20616464726573732e0000006044820152606490fd5b80fd5b50346101b05760203660031901126101b0576101cd61186f565b6101d5611c76565b6001600160a01b0390811690811561022557600054826001600160601b0360a01b821617600055167f8be0079c531659141344cd1fd0a4f28419497f9722a3daafe3b4186f6b6457e0600080a380f35b604051631e4fbdf760e01b815260048101849052602490fd5b50346101b057806003193601126101b0576003546040516001600160a01b039091168152602090f35b50346101b057806003193601126101b0576004546040516001600160a01b039091168152602090f35b50346101b05760803660031901126101b0576004356102ad611885565b906064359160028310156104c05760025460405163a217fddf60e01b8152906020906001600160a01b0390879082168385600481845afa9485156104b557829561047d575b50604051632474521560e21b815260048101959095523360248601528390859060449082905afa95861561047057600080516020611ca3833981519152976002600a7fcc914becfa276bbc067049bf8db2d34ebbdc1bafa851e4d4936aaed376c08dbe9561036d60409b849a60809891610443575b5061193e565b610378851515611c07565b600754996103858b611bf8565b6007558a600052600689528b600020918b835560018301600181546101008260a81b033360081b16906affffffffffffffffffffff60a81b161717905586858401556003830191166001600160601b0360a01b8254161790556044356004820155600581016103f38561184f565b60ff199460ff868354169116179055426006820155610413825442611903565b6007820155019182541617905586519086825233858301526001888301526060820152a18351928352820152a180f35b61046391508a3d8c11610469575b61045b81836118af565b810190611926565b38610367565b503d610451565b50604051903d90823e3d90fd5b945090508284813d81116104ae575b61049681836118af565b810103126104a9579251928790836102f2565b600080fd5b503d61048c565b6040513d84823e3d90fd5b8380fd5b50346101b05760403660031901126101b0576104de61186f565b60025460405163c601f7af60e01b8152602435926001600160a01b03928316926020929091908381600481885afa9081156105e95787916105ba575b50604051632474521560e21b8152600481019190915233602482015293839085908180604481015b03915afa9384156105af577fbce4be9b5e0540fc5c565cd30c59b6465d9eb0550f7a36a89128eeb8271b6c729461057f918891610598575061193e565b169283855260098252806040862055604051908152a280f35b6104639150853d87116104695761045b81836118af565b6040513d88823e3d90fd5b90508381813d83116105e2575b6105d181836118af565b810103126104a9575161054261051a565b503d6105c7565b6040513d89823e3d90fd5b50346101b05760403660031901126101b0576004356024803560028110156104c05761061e611c53565b828452602060068152604085209260ff600a85015416600881101561088b5760026106499114611995565b6007840154421161084857848652600882526040862033600052825260ff60406000205416610815576003546040516326d352ab60e11b8152336004820152919083908390839082906001600160a01b03165afa9182156105e95787926107e6575b5081156107a35733875260098352604087205460640180606411610790578083029283040361077c5750916080939160647f2635c84c3a8027a303ca6d6e90b1c4a9604754040372414d244aadfa647175189694049284885260088252604088203360005282526040600020600160ff1982541617905561072b8361184f565b826107675760080161073e848254611903565b90555b60405193845233908401526107558161184f565b60408301526060820152a16001805580f35b600901610775848254611903565b9055610741565b634e487b7160e01b60009081526011600452fd5b50634e487b7160e01b8752601160045286fd5b82601f6064926040519262461bcd60e51b845260048401528201527f4d7573742068617665207374616b656420746f6b656e7320746f20766f7465006044820152fd5b9091508281813d831161080e575b6107fe81836118af565b810103126104a9575190386106ab565b503d6107f4565b90600d6064926040519262461bcd60e51b845260048401528201526c105b1c9958591e481d9bdd1959609a1b6044820152fd5b9060176064926040519262461bcd60e51b845260048401528201527f566f74696e6720706572696f642068617320656e6465640000000000000000006044820152fd5b50634e487b7160e01b8652602160045285fd5b50346101b057806003193601126101b057546040516001600160a01b039091168152602090f35b50346101b05760603660031901126101b0576108df611885565b60443567ffffffffffffffff8111610cf95736602382011215610cf95780600401359067ffffffffffffffff8211610ce5578160051b6040519261092660208301856118af565b83526024602084019183010191368311610ce157602401905b828210610cd15750506003546040516326d352ab60e11b81523360048201529150602090829060249082906001600160a01b03165afa908115610cc6578491610c94575b5015610c4157805115610bf15761099d6004351515611c07565b600a600754926109ac84611bf8565b6007558360005260066020526040600020908482556001820154610100600160a81b033360081b16906affffffffffffffffffffff60a81b161760018301556004356002830155600382019060018060a01b03166001600160601b0360a01b82541617905560006004820155600160ff19600583015416176005820155426006820155610a3a825442611903565b600782015501600260ff198254161790557fcc914becfa276bbc067049bf8db2d34ebbdc1bafa851e4d4936aaed376c08dbe6080604051848152336020820152600060408201526004356060820152a1600080516020611ca38339815191526040805184815260026020820152a1825b8151811015610bed578284526006602052600b60408520018251821015610bd95760208260051b84010151906040519182608081011067ffffffffffffffff608085011117610bc35760808301604052825285602083015285604083015285606083015280549068010000000000000000821015610baf5790610b32916001820181556118d1565b610b9b57815181556020820151906008821015610b87579060606003600195949360ff19878201541660ff8095161787820155604085015160028201550192015115159060ff19835416911617905501610aaa565b634e487b7160e01b87526021600452602487fd5b634e487b7160e01b86526004869052602486fd5b634e487b7160e01b87526041600452602487fd5b634e487b7160e01b600052604160045260246000fd5b634e487b7160e01b85526032600452602485fd5b8380f35b60405162461bcd60e51b815260206004820152602260248201527f4174206c65617374206f6e65206d696c6573746f6e6520697320726571756972604482015261195960f21b6064820152608490fd5b60405162461bcd60e51b815260206004820152602560248201527f44414f3a204d757374206861766520525943207374616b656420746f2070726f6044820152643837b9b29760d91b6064820152608490fd5b90506020813d602011610cbe575b81610caf602093836118af565b810103126104a9575138610983565b3d9150610ca2565b6040513d86823e3d90fd5b813581526020918201910161093f565b8580fd5b634e487b7160e01b84526041600452602484fd5b8280fd5b50346101b057806003193601126101b057610d16611c76565b600080546001600160a01b0319811682556001600160a01b03167f8be0079c531659141344cd1fd0a4f28419497f9722a3daafe3b4186f6b6457e08280a380f35b50346101b05760403660031901126101b0576004356024803590610d79611c53565b60025460405163a217fddf60e01b81526001600160a01b039491602091908616908281600481855afa801561107a5783918991611049575b50604051632474521560e21b815260048101919091523360248201529182908180604481015b03915afa80156105e957610df1918891611032575061193e565b81865260068152604086209260ff600185015416610e0e8161184f565b610ff65760ff600a850154166008811015610fe357600503610f9157600c840195600b875495019485541115610f4d578515610f09579087916004541690813b15610cf95782918291604051809481936331c57b1f60e11b83528960048401525af180156104b557610ef5575b505060407fd33fcd27cbfb73a2d9058c968b560ccb306500bf536133802048489ecc7355e991610eec956002610eb28954886118d1565b5001556003610ec28854876118d1565b5001600160ff19825416179055610edb875480966118d1565b5054825191868352820152a2611bf8565b90556001805580f35b610efe9061189b565b610ce1578538610e7b565b60405162461bcd60e51b8152600481018490526019818401527f50726f6f6620686173682063616e6e6f74206265207a65726f000000000000006044820152606490fd5b60405162461bcd60e51b815260048101849052601f818401527f416c6c206d696c6573746f6e657320616c72656164792072656c6561736564006044820152606490fd5b9060266084926040519262461bcd60e51b845260048401528201527f50726f706f73616c20776173206e6f7420617070726f76656420616e642065786044820152651958dd5d195960d21b6064820152fd5b50634e487b7160e01b8752602160045286fd5b9060166064926040519262461bcd60e51b8452600484015282015275139bdd081848199d5b991a5b99c81c1c9bdc1bdcd85b60521b6044820152fd5b6104639150833d85116104695761045b81836118af565b82819392503d8311611073575b61106081836118af565b810103126104a957518290610dd7610db1565b503d611056565b6040513d8a823e3d90fd5b50346101b057806003193601126101b0576020600b54604051908152f35b50346101b057806003193601126101b0576020600c54604051908152f35b50346101b05760203660031901126101b0576110de600435611a01565b80f35b50346101b057806003193601126101b0576020604051604b8152f35b50346101b05760403660031901126101b0576040611119611885565b9160043581526008602052209060018060a01b0316600052602052602060ff604060002054166040519015158152f35b50346101b05760203660031901126101b0576020906040906001600160a01b0361117161186f565b168152600983522054604051908152f35b50346101b057806003193601126101b0576002546040516001600160a01b039091168152602090f35b50346101b057806003193601126101b0576020600754604051908152f35b50346101b05760403660031901126101b05760025460405163c601f7af60e01b8152602435916020916001600160a01b03909116908281600481855afa80156112e657839186916112b5575b50604051632474521560e21b815260048101919091523360248201529182908180604481015b03915afa8015610cc657611255918591611032575061193e565b6064821161127157600690600435845252600d60408320015580f35b6064906040519062461bcd60e51b82526004820152601c60248201527f5269736b2073636f72652063616e6e6f742065786365656420313030000000006044820152fd5b82819392503d83116112df575b6112cc81836118af565b810103126104a95751829061123b611215565b503d6112c2565b6040513d87823e3d90fd5b50346101b057806003193601126101b0576005546040516001600160a01b039091168152602090f35b50346101b0576020806003193601126117125760043590611339611c53565b8183526006815260408320600a810160ff90818154166008811015610b875760021480611705575b6116f7575b805482811660088110156116e35760030361169e57828160081c1661165957604b600d85015411611614576101059061ffff191617905560019185826001830154166113b18161184f565b806114b45750929190839084600b8201948554955b8683106114885750505060018060a01b036003816004541692015416813b15610ce1578560849281956040519788968795630a7932b160e21b87528d6004880152602487015260448601521660648401525af180156104b557611474575b5050600080516020611ca38339815191529160056040925b7f712ae1383f79ac853f8d882153778e0260ef8f03b504e2866e0593e04d2b291f818551858152a18351928352820152a16001805580f35b61147d9061189b565b610cf9578238611424565b91949596506114a581939461149d87856118d1565b505490611903565b940190918996959493926113c6565b60019194506114c58194939461184f565b146114e8575b505050600080516020611ca383398151915291600560409261143c565b6005820154166114f78161184f565b61157e5760018060a01b039060048281541692600383015416910154823b156104c0576044849283604051958694859363f3fef3a360e01b8552600485015260248401525af180156104b55761156a575b5050600080516020611ca38339815191529160056040925b92859294506114cb565b6115739061189b565b610cf9578238611548565b60048054600383015491909201546001600160a01b039283169392909116833b15610cf9576044908360405195869485936306b091f960e01b8552600485015260248401525af18015610cc6576115eb575b50600080516020611ca3833981519152916005604092611560565b9160056040929461160a600080516020611ca38339815191529561189b565b94925050916115d0565b60405162461bcd60e51b815260048101869052601960248201527f4149207269736b2073636f726520697320746f6f2068696768000000000000006044820152606490fd5b60405162461bcd60e51b815260048101869052601960248201527f50726f706f73616c20616c7265616479206578656375746564000000000000006044820152606490fd5b60405162461bcd60e51b815260048101869052601860248201527f50726f706f73616c206973206e6f7420617070726f76656400000000000000006044820152606490fd5b634e487b7160e01b88526021600452602488fd5b61170085611a01565b611366565b5060078301544211611361565b5080fd5b50346101b057806003193601126101b0576020600a54604051908152f35b50346101b05760203660031901126101b05760043581526006602052604081208080805493816001810154600282015460018060a01b03600384015416600484015460ff60058601541690600686015492600787015494600888015496600e600d600c600a60098d01549c01549d01549d01549d01549d6080526117ba60ff821661184f565b60ff811660a05260081c6001600160a01b031660c05260e05261010052610120526117e48161184f565b6101405261016052610180526101a0526101c052600860ff8316101561183b57508060ff8092166101606080015260081c161515610180608001526101a0608001526101c0608001526101e0608001526102006080f35b634e487b7160e01b81526021600452602490fd5b6002111561185957565b634e487b7160e01b600052602160045260246000fd5b600435906001600160a01b03821682036104a957565b602435906001600160a01b03821682036104a957565b67ffffffffffffffff8111610bc357604052565b90601f8019910116810190811067ffffffffffffffff821117610bc357604052565b80548210156118ed5760005260206000209060021b0190600090565b634e487b7160e01b600052603260045260246000fd5b9190820180921161191057565b634e487b7160e01b600052601160045260246000fd5b908160209103126104a9575180151581036104a95790565b1561194557565b60405162461bcd60e51b815260206004820152602260248201527f43616c6c657220646f6573206e6f74206861766520726571756972656420726f6044820152616c6560f01b6064820152608490fd5b1561199c57565b60405162461bcd60e51b815260206004820152601c60248201527f50726f706f73616c206e6f7420696e20766f74696e67207374617465000000006044820152606490fd5b81156119eb570490565b634e487b7160e01b600052601260045260246000fd5b90600082815260209260068452604091828120600a81019081549260ff84166008811015611be4576002611a359114611995565b6007820154421115611ba05760035486516318160ddd60e01b815298600495909493929185908b90889082906001600160a01b03165afa998a15611b9657829a611b67575b50611a8e6009600885015494015484611903565b9960648b028b81046064148c151715611b545790611aab916119e1565b600b5411611b2b5750606482029180830460641490151715611b185750600080516020611ca38339815191529697611ae2916119e1565b600c5411611b0357600380935060ff198254161790558351928352820152a1565b805460ff1916831790558351928352820152a1565b634e487b7160e01b815260118552602490fd5b60ff1916851790925550508351928352820152919250600080516020611ca383398151915291a1565b634e487b7160e01b845260118852602484fd5b9099508481813d8311611b8f575b611b7f81836118af565b8101031261171257519838611a7a565b503d611b75565b88513d84823e3d90fd5b855162461bcd60e51b815260048101899052601b60248201527f566f74696e6720706572696f64206e6f742079657420656e64656400000000006044820152606490fd5b634e487b7160e01b82526021600452602482fd5b60001981146119105760010190565b15611c0e57565b60405162461bcd60e51b815260206004820152601f60248201527f4465736372697074696f6e20686173682063616e6e6f74206265207a65726f006044820152606490fd5b600260015414611c64576002600155565b604051633ee5aeb560e01b8152600490fd5b6000546001600160a01b03163303611c8a57565b60405163118cdaa760e01b8152336004820152602490fdfed6b3a81dd8b7dc419d8d0f20797397ea2eaba914386b89898aa638438803a1eca264697066735822122022f8960b26d1acf68a330be5ad09479995bebb71d0f46ae110b5e66ff2b902df64736f6c63430008180033","opcodes":"PUSH1 0x80 CALLVALUE PUSH3 0x136 JUMPI PUSH1 0x1F PUSH3 0x1E5F CODESIZE DUP2 SWAP1 SUB SWAP2 DUP3 ADD PUSH1 0x1F NOT AND DUP4 ADD SWAP2 PUSH1 0x1 PUSH1 0x1 PUSH1 0x40 SHL SUB DUP4 GT DUP5 DUP5 LT OR PUSH3 0x13B JUMPI DUP1 DUP5 SWAP3 PUSH1 0xC0 SWAP5 PUSH1 0x40 MSTORE DUP4 CODECOPY DUP2 ADD SUB SLT PUSH3 0x136 JUMPI PUSH3 0x4D DUP2 PUSH3 0x151 JUMP JUMPDEST SWAP1 PUSH3 0x5C PUSH1 0x20 DUP3 ADD PUSH3 0x151 JUMP JUMPDEST SWAP1 PUSH3 0x6B PUSH1 0x40 DUP3 ADD PUSH3 0x151 JUMP JUMPDEST SWAP3 PUSH1 0x60 DUP3 ADD MLOAD SWAP1 PUSH1 0xA0 PUSH1 0x80 DUP5 ADD MLOAD SWAP4 ADD MLOAD SWAP4 CALLER ISZERO PUSH3 0x11D JUMPI PUSH1 0x0 DUP1 SLOAD PUSH1 0x1 PUSH1 0x1 PUSH1 0xA0 SHL SUB NOT DUP1 DUP3 AND CALLER SWAP1 DUP2 OR DUP5 SSTORE PUSH1 0x40 MLOAD SWAP10 SWAP2 SWAP6 PUSH1 0x1 PUSH1 0x1 PUSH1 0xA0 SHL SUB SWAP6 SWAP3 SWAP5 DUP7 SWAP5 DUP6 SWAP4 SWAP2 SWAP1 DUP5 AND SWAP1 PUSH32 0x8BE0079C531659141344CD1FD0A4F28419497F9722A3DAAFE3B4186F6B6457E0 SWAP1 DUP1 LOG3 PUSH1 0x1 DUP1 SSTORE DUP7 PUSH1 0x5 SLOAD AND PUSH1 0x5 SSTORE AND DUP6 PUSH1 0x2 SLOAD AND OR PUSH1 0x2 SSTORE AND DUP4 PUSH1 0x3 SLOAD AND OR PUSH1 0x3 SSTORE AND SWAP1 PUSH1 0x4 SLOAD AND OR PUSH1 0x4 SSTORE PUSH1 0xA SSTORE PUSH1 0xB SSTORE PUSH1 0xC SSTORE PUSH1 0x1 PUSH1 0x7 SSTORE PUSH2 0x1CF8 SWAP1 DUP2 PUSH3 0x167 DUP3 CODECOPY RETURN JUMPDEST PUSH1 0x40 MLOAD PUSH4 0x1E4FBDF7 PUSH1 0xE0 SHL DUP2 MSTORE PUSH1 0x0 PUSH1 0x4 DUP3 ADD MSTORE PUSH1 0x24 SWAP1 REVERT JUMPDEST PUSH1 0x0 DUP1 REVERT JUMPDEST PUSH4 0x4E487B71 PUSH1 0xE0 SHL PUSH1 0x0 MSTORE PUSH1 0x41 PUSH1 0x4 MSTORE PUSH1 0x24 PUSH1 0x0 REVERT JUMPDEST MLOAD SWAP1 PUSH1 0x1 PUSH1 0x1 PUSH1 0xA0 SHL SUB DUP3 AND DUP3 SUB PUSH3 0x136 JUMPI JUMP INVALID PUSH1 0x80 PUSH1 0x40 MSTORE PUSH1 0x4 CALLDATASIZE LT ISZERO PUSH2 0x12 JUMPI PUSH1 0x0 DUP1 REVERT JUMPDEST PUSH1 0x0 DUP1 CALLDATALOAD PUSH1 0xE0 SHR DUP1 PUSH4 0x13CF08B EQ PUSH2 0x1734 JUMPI DUP1 PUSH4 0x2A251A3 EQ PUSH2 0x1716 JUMPI DUP1 PUSH4 0xD61B519 EQ PUSH2 0x131A JUMPI DUP1 PUSH4 0x16F58591 EQ PUSH2 0x12F1 JUMPI DUP1 PUSH4 0x22005A92 EQ PUSH2 0x11C9 JUMPI DUP1 PUSH4 0x2AB09D14 EQ PUSH2 0x11AB JUMPI DUP1 PUSH4 0x345C3537 EQ PUSH2 0x1182 JUMPI DUP1 PUSH4 0x38ADD68D EQ PUSH2 0x1149 JUMPI DUP1 PUSH4 0x43859632 EQ PUSH2 0x10FD JUMPI DUP1 PUSH4 0x45F19131 EQ PUSH2 0x10E1 JUMPI DUP1 PUSH4 0x4D318B0E EQ PUSH2 0x10C1 JUMPI DUP1 PUSH4 0x4F23C04C EQ PUSH2 0x10A3 JUMPI DUP1 PUSH4 0x4FA76EC9 EQ PUSH2 0x1085 JUMPI DUP1 PUSH4 0x5F95BFA0 EQ PUSH2 0xD57 JUMPI DUP1 PUSH4 0x715018A6 EQ PUSH2 0xCFD JUMPI DUP1 PUSH4 0x8158A502 EQ PUSH2 0x8C5 JUMPI DUP1 PUSH4 0x8DA5CB5B EQ PUSH2 0x89E JUMPI DUP1 PUSH4 0x943E8216 EQ PUSH2 0x5F4 JUMPI DUP1 PUSH4 0xBB1345C9 EQ PUSH2 0x4C4 JUMPI DUP1 PUSH4 0xC62A441F EQ PUSH2 0x290 JUMPI DUP1 PUSH4 0xD3396149 EQ PUSH2 0x267 JUMPI DUP1 PUSH4 0xEE99205C EQ PUSH2 0x23E JUMPI DUP1 PUSH4 0xF2FDE38B EQ PUSH2 0x1B3 JUMPI PUSH4 0xF5FCB7AB EQ PUSH2 0x125 JUMPI PUSH1 0x0 DUP1 REVERT JUMPDEST CALLVALUE PUSH2 0x1B0 JUMPI PUSH1 0x20 CALLDATASIZE PUSH1 0x3 NOT ADD SLT PUSH2 0x1B0 JUMPI PUSH2 0x13E PUSH2 0x186F JUMP JUMPDEST PUSH2 0x146 PUSH2 0x1C76 JUMP JUMPDEST PUSH1 0x1 PUSH1 0x1 PUSH1 0xA0 SHL SUB AND DUP1 ISZERO PUSH2 0x16B JUMPI PUSH1 0x1 PUSH1 0x1 PUSH1 0x60 SHL SUB PUSH1 0xA0 SHL PUSH1 0x5 SLOAD AND OR PUSH1 0x5 SSTORE DUP1 RETURN JUMPDEST PUSH1 0x40 MLOAD PUSH3 0x461BCD PUSH1 0xE5 SHL DUP2 MSTORE PUSH1 0x20 PUSH1 0x4 DUP3 ADD MSTORE PUSH1 0x1D PUSH1 0x24 DUP3 ADD MSTORE PUSH32 0x44414F3A2043616E6E6F7420736574207A65726F20616464726573732E000000 PUSH1 0x44 DUP3 ADD MSTORE PUSH1 0x64 SWAP1 REVERT JUMPDEST DUP1 REVERT JUMPDEST POP CALLVALUE PUSH2 0x1B0 JUMPI PUSH1 0x20 CALLDATASIZE PUSH1 0x3 NOT ADD SLT PUSH2 0x1B0 JUMPI PUSH2 0x1CD PUSH2 0x186F JUMP JUMPDEST PUSH2 0x1D5 PUSH2 0x1C76 JUMP JUMPDEST PUSH1 0x1 PUSH1 0x1 PUSH1 0xA0 SHL SUB SWAP1 DUP2 AND SWAP1 DUP2 ISZERO PUSH2 0x225 JUMPI PUSH1 0x0 SLOAD DUP3 PUSH1 0x1 PUSH1 0x1 PUSH1 0x60 SHL SUB PUSH1 0xA0 SHL DUP3 AND OR PUSH1 0x0 SSTORE AND PUSH32 0x8BE0079C531659141344CD1FD0A4F28419497F9722A3DAAFE3B4186F6B6457E0 PUSH1 0x0 DUP1 LOG3 DUP1 RETURN JUMPDEST PUSH1 0x40 MLOAD PUSH4 0x1E4FBDF7 PUSH1 0xE0 SHL DUP2 MSTORE PUSH1 0x4 DUP2 ADD DUP5 SWAP1 MSTORE PUSH1 0x24 SWAP1 REVERT JUMPDEST POP CALLVALUE PUSH2 0x1B0 JUMPI DUP1 PUSH1 0x3 NOT CALLDATASIZE ADD SLT PUSH2 0x1B0 JUMPI PUSH1 0x3 SLOAD PUSH1 0x40 MLOAD PUSH1 0x1 PUSH1 0x1 PUSH1 0xA0 SHL SUB SWAP1 SWAP2 AND DUP2 MSTORE PUSH1 0x20 SWAP1 RETURN JUMPDEST POP CALLVALUE PUSH2 0x1B0 JUMPI DUP1 PUSH1 0x3 NOT CALLDATASIZE ADD SLT PUSH2 0x1B0 JUMPI PUSH1 0x4 SLOAD PUSH1 0x40 MLOAD PUSH1 0x1 PUSH1 0x1 PUSH1 0xA0 SHL SUB SWAP1 SWAP2 AND DUP2 MSTORE PUSH1 0x20 SWAP1 RETURN JUMPDEST POP CALLVALUE PUSH2 0x1B0 JUMPI PUSH1 0x80 CALLDATASIZE PUSH1 0x3 NOT ADD SLT PUSH2 0x1B0 JUMPI PUSH1 0x4 CALLDATALOAD PUSH2 0x2AD PUSH2 0x1885 JUMP JUMPDEST SWAP1 PUSH1 0x64 CALLDATALOAD SWAP2 PUSH1 0x2 DUP4 LT ISZERO PUSH2 0x4C0 JUMPI PUSH1 0x2 SLOAD PUSH1 0x40 MLOAD PUSH4 0xA217FDDF PUSH1 0xE0 SHL DUP2 MSTORE SWAP1 PUSH1 0x20 SWAP1 PUSH1 0x1 PUSH1 0x1 PUSH1 0xA0 SHL SUB SWAP1 DUP8 SWAP1 DUP3 AND DUP4 DUP6 PUSH1 0x4 DUP2 DUP5 GAS STATICCALL SWAP5 DUP6 ISZERO PUSH2 0x4B5 JUMPI DUP3 SWAP6 PUSH2 0x47D JUMPI JUMPDEST POP PUSH1 0x40 MLOAD PUSH4 0x24745215 PUSH1 0xE2 SHL DUP2 MSTORE PUSH1 0x4 DUP2 ADD SWAP6 SWAP1 SWAP6 MSTORE CALLER PUSH1 0x24 DUP7 ADD MSTORE DUP4 SWAP1 DUP6 SWAP1 PUSH1 0x44 SWAP1 DUP3 SWAP1 GAS STATICCALL SWAP6 DUP7 ISZERO PUSH2 0x470 JUMPI PUSH1 0x0 DUP1 MLOAD PUSH1 0x20 PUSH2 0x1CA3 DUP4 CODECOPY DUP2 MLOAD SWAP2 MSTORE SWAP8 PUSH1 0x2 PUSH1 0xA PUSH32 0xCC914BECFA276BBC067049BF8DB2D34EBBDC1BAFA851E4D4936AAED376C08DBE SWAP6 PUSH2 0x36D PUSH1 0x40 SWAP12 DUP5 SWAP11 PUSH1 0x80 SWAP9 SWAP2 PUSH2 0x443 JUMPI JUMPDEST POP PUSH2 0x193E JUMP JUMPDEST PUSH2 0x378 DUP6 ISZERO ISZERO PUSH2 0x1C07 JUMP JUMPDEST PUSH1 0x7 SLOAD SWAP10 PUSH2 0x385 DUP12 PUSH2 0x1BF8 JUMP JUMPDEST PUSH1 0x7 SSTORE DUP11 PUSH1 0x0 MSTORE PUSH1 0x6 DUP10 MSTORE DUP12 PUSH1 0x0 KECCAK256 SWAP2 DUP12 DUP4 SSTORE PUSH1 0x1 DUP4 ADD PUSH1 0x1 DUP2 SLOAD PUSH2 0x100 DUP3 PUSH1 0xA8 SHL SUB CALLER PUSH1 0x8 SHL AND SWAP1 PUSH11 0xFFFFFFFFFFFFFFFFFFFFFF PUSH1 0xA8 SHL AND OR OR SWAP1 SSTORE DUP7 DUP6 DUP5 ADD SSTORE PUSH1 0x3 DUP4 ADD SWAP2 AND PUSH1 0x1 PUSH1 0x1 PUSH1 0x60 SHL SUB PUSH1 0xA0 SHL DUP3 SLOAD AND OR SWAP1 SSTORE PUSH1 0x44 CALLDATALOAD PUSH1 0x4 DUP3 ADD SSTORE PUSH1 0x5 DUP2 ADD PUSH2 0x3F3 DUP6 PUSH2 0x184F JUMP JUMPDEST PUSH1 0xFF NOT SWAP5 PUSH1 0xFF DUP7 DUP4 SLOAD AND SWAP2 AND OR SWAP1 SSTORE TIMESTAMP PUSH1 0x6 DUP3 ADD SSTORE PUSH2 0x413 DUP3 SLOAD TIMESTAMP PUSH2 0x1903 JUMP JUMPDEST PUSH1 0x7 DUP3 ADD SSTORE ADD SWAP2 DUP3 SLOAD AND OR SWAP1 SSTORE DUP7 MLOAD SWAP1 DUP7 DUP3 MSTORE CALLER DUP6 DUP4 ADD MSTORE PUSH1 0x1 DUP9 DUP4 ADD MSTORE PUSH1 0x60 DUP3 ADD MSTORE LOG1 DUP4 MLOAD SWAP3 DUP4 MSTORE DUP3 ADD MSTORE LOG1 DUP1 RETURN JUMPDEST PUSH2 0x463 SWAP2 POP DUP11 RETURNDATASIZE DUP13 GT PUSH2 0x469 JUMPI JUMPDEST PUSH2 0x45B DUP2 DUP4 PUSH2 0x18AF JUMP JUMPDEST DUP2 ADD SWAP1 PUSH2 0x1926 JUMP JUMPDEST CODESIZE PUSH2 0x367 JUMP JUMPDEST POP RETURNDATASIZE PUSH2 0x451 JUMP JUMPDEST POP PUSH1 0x40 MLOAD SWAP1 RETURNDATASIZE SWAP1 DUP3 RETURNDATACOPY RETURNDATASIZE SWAP1 REVERT JUMPDEST SWAP5 POP SWAP1 POP DUP3 DUP5 DUP2 RETURNDATASIZE DUP2 GT PUSH2 0x4AE JUMPI JUMPDEST PUSH2 0x496 DUP2 DUP4 PUSH2 0x18AF JUMP JUMPDEST DUP2 ADD SUB SLT PUSH2 0x4A9 JUMPI SWAP3 MLOAD SWAP3 DUP8 SWAP1 DUP4 PUSH2 0x2F2 JUMP JUMPDEST PUSH1 0x0 DUP1 REVERT JUMPDEST POP RETURNDATASIZE PUSH2 0x48C JUMP JUMPDEST PUSH1 0x40 MLOAD RETURNDATASIZE DUP5 DUP3 RETURNDATACOPY RETURNDATASIZE SWAP1 REVERT JUMPDEST DUP4 DUP1 REVERT JUMPDEST POP CALLVALUE PUSH2 0x1B0 JUMPI PUSH1 0x40 CALLDATASIZE PUSH1 0x3 NOT ADD SLT PUSH2 0x1B0 JUMPI PUSH2 0x4DE PUSH2 0x186F JUMP JUMPDEST PUSH1 0x2 SLOAD PUSH1 0x40 MLOAD PUSH4 0xC601F7AF PUSH1 0xE0 SHL DUP2 MSTORE PUSH1 0x24 CALLDATALOAD SWAP3 PUSH1 0x1 PUSH1 0x1 PUSH1 0xA0 SHL SUB SWAP3 DUP4 AND SWAP3 PUSH1 0x20 SWAP3 SWAP1 SWAP2 SWAP1 DUP4 DUP2 PUSH1 0x4 DUP2 DUP9 GAS STATICCALL SWAP1 DUP2 ISZERO PUSH2 0x5E9 JUMPI DUP8 SWAP2 PUSH2 0x5BA JUMPI JUMPDEST POP PUSH1 0x40 MLOAD PUSH4 0x24745215 PUSH1 0xE2 SHL DUP2 MSTORE PUSH1 0x4 DUP2 ADD SWAP2 SWAP1 SWAP2 MSTORE CALLER PUSH1 0x24 DUP3 ADD MSTORE SWAP4 DUP4 SWAP1 DUP6 SWAP1 DUP2 DUP1 PUSH1 0x44 DUP2 ADD JUMPDEST SUB SWAP2 GAS STATICCALL SWAP4 DUP5 ISZERO PUSH2 0x5AF JUMPI PUSH32 0xBCE4BE9B5E0540FC5C565CD30C59B6465D9EB0550F7A36A89128EEB8271B6C72 SWAP5 PUSH2 0x57F SWAP2 DUP9 SWAP2 PUSH2 0x598 JUMPI POP PUSH2 0x193E JUMP JUMPDEST AND SWAP3 DUP4 DUP6 MSTORE PUSH1 0x9 DUP3 MSTORE DUP1 PUSH1 0x40 DUP7 KECCAK256 SSTORE PUSH1 0x40 MLOAD SWAP1 DUP2 MSTORE LOG2 DUP1 RETURN JUMPDEST PUSH2 0x463 SWAP2 POP DUP6 RETURNDATASIZE DUP8 GT PUSH2 0x469 JUMPI PUSH2 0x45B DUP2 DUP4 PUSH2 0x18AF JUMP JUMPDEST PUSH1 0x40 MLOAD RETURNDATASIZE DUP9 DUP3 RETURNDATACOPY RETURNDATASIZE SWAP1 REVERT JUMPDEST SWAP1 POP DUP4 DUP2 DUP2 RETURNDATASIZE DUP4 GT PUSH2 0x5E2 JUMPI JUMPDEST PUSH2 0x5D1 DUP2 DUP4 PUSH2 0x18AF JUMP JUMPDEST DUP2 ADD SUB SLT PUSH2 0x4A9 JUMPI MLOAD PUSH2 0x542 PUSH2 0x51A JUMP JUMPDEST POP RETURNDATASIZE PUSH2 0x5C7 JUMP JUMPDEST PUSH1 0x40 MLOAD RETURNDATASIZE DUP10 DUP3 RETURNDATACOPY RETURNDATASIZE SWAP1 REVERT JUMPDEST POP CALLVALUE PUSH2 0x1B0 JUMPI PUSH1 0x40 CALLDATASIZE PUSH1 0x3 NOT ADD SLT PUSH2 0x1B0 JUMPI PUSH1 0x4 CALLDATALOAD PUSH1 0x24 DUP1 CALLDATALOAD PUSH1 0x2 DUP2 LT ISZERO PUSH2 0x4C0 JUMPI PUSH2 0x61E PUSH2 0x1C53 JUMP JUMPDEST DUP3 DUP5 MSTORE PUSH1 0x20 PUSH1 0x6 DUP2 MSTORE PUSH1 0x40 DUP6 KECCAK256 SWAP3 PUSH1 0xFF PUSH1 0xA DUP6 ADD SLOAD AND PUSH1 0x8 DUP2 LT ISZERO PUSH2 0x88B JUMPI PUSH1 0x2 PUSH2 0x649 SWAP2 EQ PUSH2 0x1995 JUMP JUMPDEST PUSH1 0x7 DUP5 ADD SLOAD TIMESTAMP GT PUSH2 0x848 JUMPI DUP5 DUP7 MSTORE PUSH1 0x8 DUP3 MSTORE PUSH1 0x40 DUP7 KECCAK256 CALLER PUSH1 0x0 MSTORE DUP3 MSTORE PUSH1 0xFF PUSH1 0x40 PUSH1 0x0 KECCAK256 SLOAD AND PUSH2 0x815 JUMPI PUSH1 0x3 SLOAD PUSH1 0x40 MLOAD PUSH4 0x26D352AB PUSH1 0xE1 SHL DUP2 MSTORE CALLER PUSH1 0x4 DUP3 ADD MSTORE SWAP2 SWAP1 DUP4 SWAP1 DUP4 SWAP1 DUP4 SWAP1 DUP3 SWAP1 PUSH1 0x1 PUSH1 0x1 PUSH1 0xA0 SHL SUB AND GAS STATICCALL SWAP2 DUP3 ISZERO PUSH2 0x5E9 JUMPI DUP8 SWAP3 PUSH2 0x7E6 JUMPI JUMPDEST POP DUP2 ISZERO PUSH2 0x7A3 JUMPI CALLER DUP8 MSTORE PUSH1 0x9 DUP4 MSTORE PUSH1 0x40 DUP8 KECCAK256 SLOAD PUSH1 0x64 ADD DUP1 PUSH1 0x64 GT PUSH2 0x790 JUMPI DUP1 DUP4 MUL SWAP3 DUP4 DIV SUB PUSH2 0x77C JUMPI POP SWAP2 PUSH1 0x80 SWAP4 SWAP2 PUSH1 0x64 PUSH32 0x2635C84C3A8027A303CA6D6E90B1C4A9604754040372414D244AADFA64717518 SWAP7 SWAP5 DIV SWAP3 DUP5 DUP9 MSTORE PUSH1 0x8 DUP3 MSTORE PUSH1 0x40 DUP9 KECCAK256 CALLER PUSH1 0x0 MSTORE DUP3 MSTORE PUSH1 0x40 PUSH1 0x0 KECCAK256 PUSH1 0x1 PUSH1 0xFF NOT DUP3 SLOAD AND OR SWAP1 SSTORE PUSH2 0x72B DUP4 PUSH2 0x184F JUMP JUMPDEST DUP3 PUSH2 0x767 JUMPI PUSH1 0x8 ADD PUSH2 0x73E DUP5 DUP3 SLOAD PUSH2 0x1903 JUMP JUMPDEST SWAP1 SSTORE JUMPDEST PUSH1 0x40 MLOAD SWAP4 DUP5 MSTORE CALLER SWAP1 DUP5 ADD MSTORE PUSH2 0x755 DUP2 PUSH2 0x184F JUMP JUMPDEST PUSH1 0x40 DUP4 ADD MSTORE PUSH1 0x60 DUP3 ADD MSTORE LOG1 PUSH1 0x1 DUP1 SSTORE DUP1 RETURN JUMPDEST PUSH1 0x9 ADD PUSH2 0x775 DUP5 DUP3 SLOAD PUSH2 0x1903 JUMP JUMPDEST SWAP1 SSTORE PUSH2 0x741 JUMP JUMPDEST PUSH4 0x4E487B71 PUSH1 0xE0 SHL PUSH1 0x0 SWAP1 DUP2 MSTORE PUSH1 0x11 PUSH1 0x4 MSTORE REVERT JUMPDEST POP PUSH4 0x4E487B71 PUSH1 0xE0 SHL DUP8 MSTORE PUSH1 0x11 PUSH1 0x4 MSTORE DUP7 REVERT JUMPDEST DUP3 PUSH1 0x1F PUSH1 0x64 SWAP3 PUSH1 0x40 MLOAD SWAP3 PUSH3 0x461BCD PUSH1 0xE5 SHL DUP5 MSTORE PUSH1 0x4 DUP5 ADD MSTORE DUP3 ADD MSTORE PUSH32 0x4D7573742068617665207374616B656420746F6B656E7320746F20766F746500 PUSH1 0x44 DUP3 ADD MSTORE REVERT JUMPDEST SWAP1 SWAP2 POP DUP3 DUP2 DUP2 RETURNDATASIZE DUP4 GT PUSH2 0x80E JUMPI JUMPDEST PUSH2 0x7FE DUP2 DUP4 PUSH2 0x18AF JUMP JUMPDEST DUP2 ADD SUB SLT PUSH2 0x4A9 JUMPI MLOAD SWAP1 CODESIZE PUSH2 0x6AB JUMP JUMPDEST POP RETURNDATASIZE PUSH2 0x7F4 JUMP JUMPDEST SWAP1 PUSH1 0xD PUSH1 0x64 SWAP3 PUSH1 0x40 MLOAD SWAP3 PUSH3 0x461BCD PUSH1 0xE5 SHL DUP5 MSTORE PUSH1 0x4 DUP5 ADD MSTORE DUP3 ADD MSTORE PUSH13 0x105B1C9958591E481D9BDD1959 PUSH1 0x9A SHL PUSH1 0x44 DUP3 ADD MSTORE REVERT JUMPDEST SWAP1 PUSH1 0x17 PUSH1 0x64 SWAP3 PUSH1 0x40 MLOAD SWAP3 PUSH3 0x461BCD PUSH1 0xE5 SHL DUP5 MSTORE PUSH1 0x4 DUP5 ADD MSTORE DUP3 ADD MSTORE PUSH32 0x566F74696E6720706572696F642068617320656E646564000000000000000000 PUSH1 0x44 DUP3 ADD MSTORE REVERT JUMPDEST POP PUSH4 0x4E487B71 PUSH1 0xE0 SHL DUP7 MSTORE PUSH1 0x21 PUSH1 0x4 MSTORE DUP6 REVERT JUMPDEST POP CALLVALUE PUSH2 0x1B0 JUMPI DUP1 PUSH1 0x3 NOT CALLDATASIZE ADD SLT PUSH2 0x1B0 JUMPI SLOAD PUSH1 0x40 MLOAD PUSH1 0x1 PUSH1 0x1 PUSH1 0xA0 SHL SUB SWAP1 SWAP2 AND DUP2 MSTORE PUSH1 0x20 SWAP1 RETURN JUMPDEST POP CALLVALUE PUSH2 0x1B0 JUMPI PUSH1 0x60 CALLDATASIZE PUSH1 0x3 NOT ADD SLT PUSH2 0x1B0 JUMPI PUSH2 0x8DF PUSH2 0x1885 JUMP JUMPDEST PUSH1 0x44 CALLDATALOAD PUSH8 0xFFFFFFFFFFFFFFFF DUP2 GT PUSH2 0xCF9 JUMPI CALLDATASIZE PUSH1 0x23 DUP3 ADD SLT ISZERO PUSH2 0xCF9 JUMPI DUP1 PUSH1 0x4 ADD CALLDATALOAD SWAP1 PUSH8 0xFFFFFFFFFFFFFFFF DUP3 GT PUSH2 0xCE5 JUMPI DUP2 PUSH1 0x5 SHL PUSH1 0x40 MLOAD SWAP3 PUSH2 0x926 PUSH1 0x20 DUP4 ADD DUP6 PUSH2 0x18AF JUMP JUMPDEST DUP4 MSTORE PUSH1 0x24 PUSH1 0x20 DUP5 ADD SWAP2 DUP4 ADD ADD SWAP2 CALLDATASIZE DUP4 GT PUSH2 0xCE1 JUMPI PUSH1 0x24 ADD SWAP1 JUMPDEST DUP3 DUP3 LT PUSH2 0xCD1 JUMPI POP POP PUSH1 0x3 SLOAD PUSH1 0x40 MLOAD PUSH4 0x26D352AB PUSH1 0xE1 SHL DUP2 MSTORE CALLER PUSH1 0x4 DUP3 ADD MSTORE SWAP2 POP PUSH1 0x20 SWAP1 DUP3 SWAP1 PUSH1 0x24 SWAP1 DUP3 SWAP1 PUSH1 0x1 PUSH1 0x1 PUSH1 0xA0 SHL SUB AND GAS STATICCALL SWAP1 DUP2 ISZERO PUSH2 0xCC6 JUMPI DUP5 SWAP2 PUSH2 0xC94 JUMPI JUMPDEST POP ISZERO PUSH2 0xC41 JUMPI DUP1 MLOAD ISZERO PUSH2 0xBF1 JUMPI PUSH2 0x99D PUSH1 0x4 CALLDATALOAD ISZERO ISZERO PUSH2 0x1C07 JUMP JUMPDEST PUSH1 0xA PUSH1 0x7 SLOAD SWAP3 PUSH2 0x9AC DUP5 PUSH2 0x1BF8 JUMP JUMPDEST PUSH1 0x7 SSTORE DUP4 PUSH1 0x0 MSTORE PUSH1 0x6 PUSH1 0x20 MSTORE PUSH1 0x40 PUSH1 0x0 KECCAK256 SWAP1 DUP5 DUP3 SSTORE PUSH1 0x1 DUP3 ADD SLOAD PUSH2 0x100 PUSH1 0x1 PUSH1 0xA8 SHL SUB CALLER PUSH1 0x8 SHL AND SWAP1 PUSH11 0xFFFFFFFFFFFFFFFFFFFFFF PUSH1 0xA8 SHL AND OR PUSH1 0x1 DUP4 ADD SSTORE PUSH1 0x4 CALLDATALOAD PUSH1 0x2 DUP4 ADD SSTORE PUSH1 0x3 DUP3 ADD SWAP1 PUSH1 0x1 DUP1 PUSH1 0xA0 SHL SUB AND PUSH1 0x1 PUSH1 0x1 PUSH1 0x60 SHL SUB PUSH1 0xA0 SHL DUP3 SLOAD AND OR SWAP1 SSTORE PUSH1 0x0 PUSH1 0x4 DUP3 ADD SSTORE PUSH1 0x1 PUSH1 0xFF NOT PUSH1 0x5 DUP4 ADD SLOAD AND OR PUSH1 0x5 DUP3 ADD SSTORE TIMESTAMP PUSH1 0x6 DUP3 ADD SSTORE PUSH2 0xA3A DUP3 SLOAD TIMESTAMP PUSH2 0x1903 JUMP JUMPDEST PUSH1 0x7 DUP3 ADD SSTORE ADD PUSH1 0x2 PUSH1 0xFF NOT DUP3 SLOAD AND OR SWAP1 SSTORE PUSH32 0xCC914BECFA276BBC067049BF8DB2D34EBBDC1BAFA851E4D4936AAED376C08DBE PUSH1 0x80 PUSH1 0x40 MLOAD DUP5 DUP2 MSTORE CALLER PUSH1 0x20 DUP3 ADD MSTORE PUSH1 0x0 PUSH1 0x40 DUP3 ADD MSTORE PUSH1 0x4 CALLDATALOAD PUSH1 0x60 DUP3 ADD MSTORE LOG1 PUSH1 0x0 DUP1 MLOAD PUSH1 0x20 PUSH2 0x1CA3 DUP4 CODECOPY DUP2 MLOAD SWAP2 MSTORE PUSH1 0x40 DUP1 MLOAD DUP5 DUP2 MSTORE PUSH1 0x2 PUSH1 0x20 DUP3 ADD MSTORE LOG1 DUP3 JUMPDEST DUP2 MLOAD DUP2 LT ISZERO PUSH2 0xBED JUMPI DUP3 DUP5 MSTORE PUSH1 0x6 PUSH1 0x20 MSTORE PUSH1 0xB PUSH1 0x40 DUP6 KECCAK256 ADD DUP3 MLOAD DUP3 LT ISZERO PUSH2 0xBD9 JUMPI PUSH1 0x20 DUP3 PUSH1 0x5 SHL DUP5 ADD ADD MLOAD SWAP1 PUSH1 0x40 MLOAD SWAP2 DUP3 PUSH1 0x80 DUP2 ADD LT PUSH8 0xFFFFFFFFFFFFFFFF PUSH1 0x80 DUP6 ADD GT OR PUSH2 0xBC3 JUMPI PUSH1 0x80 DUP4 ADD PUSH1 0x40 MSTORE DUP3 MSTORE DUP6 PUSH1 0x20 DUP4 ADD MSTORE DUP6 PUSH1 0x40 DUP4 ADD MSTORE DUP6 PUSH1 0x60 DUP4 ADD MSTORE DUP1 SLOAD SWAP1 PUSH9 0x10000000000000000 DUP3 LT ISZERO PUSH2 0xBAF JUMPI SWAP1 PUSH2 0xB32 SWAP2 PUSH1 0x1 DUP3 ADD DUP2 SSTORE PUSH2 0x18D1 JUMP JUMPDEST PUSH2 0xB9B JUMPI DUP2 MLOAD DUP2 SSTORE PUSH1 0x20 DUP3 ADD MLOAD SWAP1 PUSH1 0x8 DUP3 LT ISZERO PUSH2 0xB87 JUMPI SWAP1 PUSH1 0x60 PUSH1 0x3 PUSH1 0x1 SWAP6 SWAP5 SWAP4 PUSH1 0xFF NOT DUP8 DUP3 ADD SLOAD AND PUSH1 0xFF DUP1 SWAP6 AND OR DUP8 DUP3 ADD SSTORE PUSH1 0x40 DUP6 ADD MLOAD PUSH1 0x2 DUP3 ADD SSTORE ADD SWAP3 ADD MLOAD ISZERO ISZERO SWAP1 PUSH1 0xFF NOT DUP4 SLOAD AND SWAP2 AND OR SWAP1 SSTORE ADD PUSH2 0xAAA JUMP JUMPDEST PUSH4 0x4E487B71 PUSH1 0xE0 SHL DUP8 MSTORE PUSH1 0x21 PUSH1 0x4 MSTORE PUSH1 0x24 DUP8 REVERT JUMPDEST PUSH4 0x4E487B71 PUSH1 0xE0 SHL DUP7 MSTORE PUSH1 0x4 DUP7 SWAP1 MSTORE PUSH1 0x24 DUP7 REVERT JUMPDEST PUSH4 0x4E487B71 PUSH1 0xE0 SHL DUP8 MSTORE PUSH1 0x41 PUSH1 0x4 MSTORE PUSH1 0x24 DUP8 REVERT JUMPDEST PUSH4 0x4E487B71 PUSH1 0xE0 SHL PUSH1 0x0 MSTORE PUSH1 0x41 PUSH1 0x4 MSTORE PUSH1 0x24 PUSH1 0x0 REVERT JUMPDEST PUSH4 0x4E487B71 PUSH1 0xE0 SHL DUP6 MSTORE PUSH1 0x32 PUSH1 0x4 MSTORE PUSH1 0x24 DUP6 REVERT JUMPDEST DUP4 DUP1 RETURN JUMPDEST PUSH1 0x40 MLOAD PUSH3 0x461BCD PUSH1 0xE5 SHL DUP2 MSTORE PUSH1 0x20 PUSH1 0x4 DUP3 ADD MSTORE PUSH1 0x22 PUSH1 0x24 DUP3 ADD MSTORE PUSH32 0x4174206C65617374206F6E65206D696C6573746F6E6520697320726571756972 PUSH1 0x44 DUP3 ADD MSTORE PUSH2 0x1959 PUSH1 0xF2 SHL PUSH1 0x64 DUP3 ADD MSTORE PUSH1 0x84 SWAP1 REVERT JUMPDEST PUSH1 0x40 MLOAD PUSH3 0x461BCD PUSH1 0xE5 SHL DUP2 MSTORE PUSH1 0x20 PUSH1 0x4 DUP3 ADD MSTORE PUSH1 0x25 PUSH1 0x24 DUP3 ADD MSTORE PUSH32 0x44414F3A204D757374206861766520525943207374616B656420746F2070726F PUSH1 0x44 DUP3 ADD MSTORE PUSH5 0x3837B9B297 PUSH1 0xD9 SHL PUSH1 0x64 DUP3 ADD MSTORE PUSH1 0x84 SWAP1 REVERT JUMPDEST SWAP1 POP PUSH1 0x20 DUP2 RETURNDATASIZE PUSH1 0x20 GT PUSH2 0xCBE JUMPI JUMPDEST DUP2 PUSH2 0xCAF PUSH1 0x20 SWAP4 DUP4 PUSH2 0x18AF JUMP JUMPDEST DUP2 ADD SUB SLT PUSH2 0x4A9 JUMPI MLOAD CODESIZE PUSH2 0x983 JUMP JUMPDEST RETURNDATASIZE SWAP2 POP PUSH2 0xCA2 JUMP JUMPDEST PUSH1 0x40 MLOAD RETURNDATASIZE DUP7 DUP3 RETURNDATACOPY RETURNDATASIZE SWAP1 REVERT JUMPDEST DUP2 CALLDATALOAD DUP2 MSTORE PUSH1 0x20 SWAP2 DUP3 ADD SWAP2 ADD PUSH2 0x93F JUMP JUMPDEST DUP6 DUP1 REVERT JUMPDEST PUSH4 0x4E487B71 PUSH1 0xE0 SHL DUP5 MSTORE PUSH1 0x41 PUSH1 0x4 MSTORE PUSH1 0x24 DUP5 REVERT JUMPDEST DUP3 DUP1 REVERT JUMPDEST POP CALLVALUE PUSH2 0x1B0 JUMPI DUP1 PUSH1 0x3 NOT CALLDATASIZE ADD SLT PUSH2 0x1B0 JUMPI PUSH2 0xD16 PUSH2 0x1C76 JUMP JUMPDEST PUSH1 0x0 DUP1 SLOAD PUSH1 0x1 PUSH1 0x1 PUSH1 0xA0 SHL SUB NOT DUP2 AND DUP3 SSTORE PUSH1 0x1 PUSH1 0x1 PUSH1 0xA0 SHL SUB AND PUSH32 0x8BE0079C531659141344CD1FD0A4F28419497F9722A3DAAFE3B4186F6B6457E0 DUP3 DUP1 LOG3 DUP1 RETURN JUMPDEST POP CALLVALUE PUSH2 0x1B0 JUMPI PUSH1 0x40 CALLDATASIZE PUSH1 0x3 NOT ADD SLT PUSH2 0x1B0 JUMPI PUSH1 0x4 CALLDATALOAD PUSH1 0x24 DUP1 CALLDATALOAD SWAP1 PUSH2 0xD79 PUSH2 0x1C53 JUMP JUMPDEST PUSH1 0x2 SLOAD PUSH1 0x40 MLOAD PUSH4 0xA217FDDF PUSH1 0xE0 SHL DUP2 MSTORE PUSH1 0x1 PUSH1 0x1 PUSH1 0xA0 SHL SUB SWAP5 SWAP2 PUSH1 0x20 SWAP2 SWAP1 DUP7 AND SWAP1 DUP3 DUP2 PUSH1 0x4 DUP2 DUP6 GAS STATICCALL DUP1 ISZERO PUSH2 0x107A JUMPI DUP4 SWAP2 DUP10 SWAP2 PUSH2 0x1049 JUMPI JUMPDEST POP PUSH1 0x40 MLOAD PUSH4 0x24745215 PUSH1 0xE2 SHL DUP2 MSTORE PUSH1 0x4 DUP2 ADD SWAP2 SWAP1 SWAP2 MSTORE CALLER PUSH1 0x24 DUP3 ADD MSTORE SWAP2 DUP3 SWAP1 DUP2 DUP1 PUSH1 0x44 DUP2 ADD JUMPDEST SUB SWAP2 GAS STATICCALL DUP1 ISZERO PUSH2 0x5E9 JUMPI PUSH2 0xDF1 SWAP2 DUP9 SWAP2 PUSH2 0x1032 JUMPI POP PUSH2 0x193E JUMP JUMPDEST DUP2 DUP7 MSTORE PUSH1 0x6 DUP2 MSTORE PUSH1 0x40 DUP7 KECCAK256 SWAP3 PUSH1 0xFF PUSH1 0x1 DUP6 ADD SLOAD AND PUSH2 0xE0E DUP2 PUSH2 0x184F JUMP JUMPDEST PUSH2 0xFF6 JUMPI PUSH1 0xFF PUSH1 0xA DUP6 ADD SLOAD AND PUSH1 0x8 DUP2 LT ISZERO PUSH2 0xFE3 JUMPI PUSH1 0x5 SUB PUSH2 0xF91 JUMPI PUSH1 0xC DUP5 ADD SWAP6 PUSH1 0xB DUP8 SLOAD SWAP6 ADD SWAP5 DUP6 SLOAD GT ISZERO PUSH2 0xF4D JUMPI DUP6 ISZERO PUSH2 0xF09 JUMPI SWAP1 DUP8 SWAP2 PUSH1 0x4 SLOAD AND SWAP1 DUP2 EXTCODESIZE ISZERO PUSH2 0xCF9 JUMPI DUP3 SWAP2 DUP3 SWAP2 PUSH1 0x40 MLOAD DUP1 SWAP5 DUP2 SWAP4 PUSH4 0x31C57B1F PUSH1 0xE1 SHL DUP4 MSTORE DUP10 PUSH1 0x4 DUP5 ADD MSTORE GAS CALL DUP1 ISZERO PUSH2 0x4B5 JUMPI PUSH2 0xEF5 JUMPI JUMPDEST POP POP PUSH1 0x40 PUSH32 0xD33FCD27CBFB73A2D9058C968B560CCB306500BF536133802048489ECC7355E9 SWAP2 PUSH2 0xEEC SWAP6 PUSH1 0x2 PUSH2 0xEB2 DUP10 SLOAD DUP9 PUSH2 0x18D1 JUMP JUMPDEST POP ADD SSTORE PUSH1 0x3 PUSH2 0xEC2 DUP9 SLOAD DUP8 PUSH2 0x18D1 JUMP JUMPDEST POP ADD PUSH1 0x1 PUSH1 0xFF NOT DUP3 SLOAD AND OR SWAP1 SSTORE PUSH2 0xEDB DUP8 SLOAD DUP1 SWAP7 PUSH2 0x18D1 JUMP JUMPDEST POP SLOAD DUP3 MLOAD SWAP2 DUP7 DUP4 MSTORE DUP3 ADD MSTORE LOG2 PUSH2 0x1BF8 JUMP JUMPDEST SWAP1 SSTORE PUSH1 0x1 DUP1 SSTORE DUP1 RETURN JUMPDEST PUSH2 0xEFE SWAP1 PUSH2 0x189B JUMP JUMPDEST PUSH2 0xCE1 JUMPI DUP6 CODESIZE PUSH2 0xE7B JUMP JUMPDEST PUSH1 0x40 MLOAD PUSH3 0x461BCD PUSH1 0xE5 SHL DUP2 MSTORE PUSH1 0x4 DUP2 ADD DUP5 SWAP1 MSTORE PUSH1 0x19 DUP2 DUP5 ADD MSTORE PUSH32 0x50726F6F6620686173682063616E6E6F74206265207A65726F00000000000000 PUSH1 0x44 DUP3 ADD MSTORE PUSH1 0x64 SWAP1 REVERT JUMPDEST PUSH1 0x40 MLOAD PUSH3 0x461BCD PUSH1 0xE5 SHL DUP2 MSTORE PUSH1 0x4 DUP2 ADD DUP5 SWAP1 MSTORE PUSH1 0x1F DUP2 DUP5 ADD MSTORE PUSH32 0x416C6C206D696C6573746F6E657320616C72656164792072656C656173656400 PUSH1 0x44 DUP3 ADD MSTORE PUSH1 0x64 SWAP1 REVERT JUMPDEST SWAP1 PUSH1 0x26 PUSH1 0x84 SWAP3 PUSH1 0x40 MLOAD SWAP3 PUSH3 0x461BCD PUSH1 0xE5 SHL DUP5 MSTORE PUSH1 0x4 DUP5 ADD MSTORE DUP3 ADD MSTORE PUSH32 0x50726F706F73616C20776173206E6F7420617070726F76656420616E64206578 PUSH1 0x44 DUP3 ADD MSTORE PUSH6 0x1958DD5D1959 PUSH1 0xD2 SHL PUSH1 0x64 DUP3 ADD MSTORE REVERT JUMPDEST POP PUSH4 0x4E487B71 PUSH1 0xE0 SHL DUP8 MSTORE PUSH1 0x21 PUSH1 0x4 MSTORE DUP7 REVERT JUMPDEST SWAP1 PUSH1 0x16 PUSH1 0x64 SWAP3 PUSH1 0x40 MLOAD SWAP3 PUSH3 0x461BCD PUSH1 0xE5 SHL DUP5 MSTORE PUSH1 0x4 DUP5 ADD MSTORE DUP3 ADD MSTORE PUSH22 0x139BDD081848199D5B991A5B99C81C1C9BDC1BDCD85B PUSH1 0x52 SHL PUSH1 0x44 DUP3 ADD MSTORE REVERT JUMPDEST PUSH2 0x463 SWAP2 POP DUP4 RETURNDATASIZE DUP6 GT PUSH2 0x469 JUMPI PUSH2 0x45B DUP2 DUP4 PUSH2 0x18AF JUMP JUMPDEST DUP3 DUP2 SWAP4 SWAP3 POP RETURNDATASIZE DUP4 GT PUSH2 0x1073 JUMPI JUMPDEST PUSH2 0x1060 DUP2 DUP4 PUSH2 0x18AF JUMP JUMPDEST DUP2 ADD SUB SLT PUSH2 0x4A9 JUMPI MLOAD DUP3 SWAP1 PUSH2 0xDD7 PUSH2 0xDB1 JUMP JUMPDEST POP RETURNDATASIZE PUSH2 0x1056 JUMP JUMPDEST PUSH1 0x40 MLOAD RETURNDATASIZE DUP11 DUP3 RETURNDATACOPY RETURNDATASIZE SWAP1 REVERT JUMPDEST POP CALLVALUE PUSH2 0x1B0 JUMPI DUP1 PUSH1 0x3 NOT CALLDATASIZE ADD SLT PUSH2 0x1B0 JUMPI PUSH1 0x20 PUSH1 0xB SLOAD PUSH1 0x40 MLOAD SWAP1 DUP2 MSTORE RETURN JUMPDEST POP CALLVALUE PUSH2 0x1B0 JUMPI DUP1 PUSH1 0x3 NOT CALLDATASIZE ADD SLT PUSH2 0x1B0 JUMPI PUSH1 0x20 PUSH1 0xC SLOAD PUSH1 0x40 MLOAD SWAP1 DUP2 MSTORE RETURN JUMPDEST POP CALLVALUE PUSH2 0x1B0 JUMPI PUSH1 0x20 CALLDATASIZE PUSH1 0x3 NOT ADD SLT PUSH2 0x1B0 JUMPI PUSH2 0x10DE PUSH1 0x4 CALLDATALOAD PUSH2 0x1A01 JUMP JUMPDEST DUP1 RETURN JUMPDEST POP CALLVALUE PUSH2 0x1B0 JUMPI DUP1 PUSH1 0x3 NOT CALLDATASIZE ADD SLT PUSH2 0x1B0 JUMPI PUSH1 0x20 PUSH1 0x40 MLOAD PUSH1 0x4B DUP2 MSTORE RETURN JUMPDEST POP CALLVALUE PUSH2 0x1B0 JUMPI PUSH1 0x40 CALLDATASIZE PUSH1 0x3 NOT ADD SLT PUSH2 0x1B0 JUMPI PUSH1 0x40 PUSH2 0x1119 PUSH2 0x1885 JUMP JUMPDEST SWAP2 PUSH1 0x4 CALLDATALOAD DUP2 MSTORE PUSH1 0x8 PUSH1 0x20 MSTORE KECCAK256 SWAP1 PUSH1 0x1 DUP1 PUSH1 0xA0 SHL SUB AND PUSH1 0x0 MSTORE PUSH1 0x20 MSTORE PUSH1 0x20 PUSH1 0xFF PUSH1 0x40 PUSH1 0x0 KECCAK256 SLOAD AND PUSH1 0x40 MLOAD SWAP1 ISZERO ISZERO DUP2 MSTORE RETURN JUMPDEST POP CALLVALUE PUSH2 0x1B0 JUMPI PUSH1 0x20 CALLDATASIZE PUSH1 0x3 NOT ADD SLT PUSH2 0x1B0 JUMPI PUSH1 0x20 SWAP1 PUSH1 0x40 SWAP1 PUSH1 0x1 PUSH1 0x1 PUSH1 0xA0 SHL SUB PUSH2 0x1171 PUSH2 0x186F JUMP JUMPDEST AND DUP2 MSTORE PUSH1 0x9 DUP4 MSTORE KECCAK256 SLOAD PUSH1 0x40 MLOAD SWAP1 DUP2 MSTORE RETURN JUMPDEST POP CALLVALUE PUSH2 0x1B0 JUMPI DUP1 PUSH1 0x3 NOT CALLDATASIZE ADD SLT PUSH2 0x1B0 JUMPI PUSH1 0x2 SLOAD PUSH1 0x40 MLOAD PUSH1 0x1 PUSH1 0x1 PUSH1 0xA0 SHL SUB SWAP1 SWAP2 AND DUP2 MSTORE PUSH1 0x20 SWAP1 RETURN JUMPDEST POP CALLVALUE PUSH2 0x1B0 JUMPI DUP1 PUSH1 0x3 NOT CALLDATASIZE ADD SLT PUSH2 0x1B0 JUMPI PUSH1 0x20 PUSH1 0x7 SLOAD PUSH1 0x40 MLOAD SWAP1 DUP2 MSTORE RETURN JUMPDEST POP CALLVALUE PUSH2 0x1B0 JUMPI PUSH1 0x40 CALLDATASIZE PUSH1 0x3 NOT ADD SLT PUSH2 0x1B0 JUMPI PUSH1 0x2 SLOAD PUSH1 0x40 MLOAD PUSH4 0xC601F7AF PUSH1 0xE0 SHL DUP2 MSTORE PUSH1 0x24 CALLDATALOAD SWAP2 PUSH1 0x20 SWAP2 PUSH1 0x1 PUSH1 0x1 PUSH1 0xA0 SHL SUB SWAP1 SWAP2 AND SWAP1 DUP3 DUP2 PUSH1 0x4 DUP2 DUP6 GAS STATICCALL DUP1 ISZERO PUSH2 0x12E6 JUMPI DUP4 SWAP2 DUP7 SWAP2 PUSH2 0x12B5 JUMPI JUMPDEST POP PUSH1 0x40 MLOAD PUSH4 0x24745215 PUSH1 0xE2 SHL DUP2 MSTORE PUSH1 0x4 DUP2 ADD SWAP2 SWAP1 SWAP2 MSTORE CALLER PUSH1 0x24 DUP3 ADD MSTORE SWAP2 DUP3 SWAP1 DUP2 DUP1 PUSH1 0x44 DUP2 ADD JUMPDEST SUB SWAP2 GAS STATICCALL DUP1 ISZERO PUSH2 0xCC6 JUMPI PUSH2 0x1255 SWAP2 DUP6 SWAP2 PUSH2 0x1032 JUMPI POP PUSH2 0x193E JUMP JUMPDEST PUSH1 0x64 DUP3 GT PUSH2 0x1271 JUMPI PUSH1 0x6 SWAP1 PUSH1 0x4 CALLDATALOAD DUP5 MSTORE MSTORE PUSH1 0xD PUSH1 0x40 DUP4 KECCAK256 ADD SSTORE DUP1 RETURN JUMPDEST PUSH1 0x64 SWAP1 PUSH1 0x40 MLOAD SWAP1 PUSH3 0x461BCD PUSH1 0xE5 SHL DUP3 MSTORE PUSH1 0x4 DUP3 ADD MSTORE PUSH1 0x1C PUSH1 0x24 DUP3 ADD MSTORE PUSH32 0x5269736B2073636F72652063616E6E6F74206578636565642031303000000000 PUSH1 0x44 DUP3 ADD MSTORE REVERT JUMPDEST DUP3 DUP2 SWAP4 SWAP3 POP RETURNDATASIZE DUP4 GT PUSH2 0x12DF JUMPI JUMPDEST PUSH2 0x12CC DUP2 DUP4 PUSH2 0x18AF JUMP JUMPDEST DUP2 ADD SUB SLT PUSH2 0x4A9 JUMPI MLOAD DUP3 SWAP1 PUSH2 0x123B PUSH2 0x1215 JUMP JUMPDEST POP RETURNDATASIZE PUSH2 0x12C2 JUMP JUMPDEST PUSH1 0x40 MLOAD RETURNDATASIZE DUP8 DUP3 RETURNDATACOPY RETURNDATASIZE SWAP1 REVERT JUMPDEST POP CALLVALUE PUSH2 0x1B0 JUMPI DUP1 PUSH1 0x3 NOT CALLDATASIZE ADD SLT PUSH2 0x1B0 JUMPI PUSH1 0x5 SLOAD PUSH1 0x40 MLOAD PUSH1 0x1 PUSH1 0x1 PUSH1 0xA0 SHL SUB SWAP1 SWAP2 AND DUP2 MSTORE PUSH1 0x20 SWAP1 RETURN JUMPDEST POP CALLVALUE PUSH2 0x1B0 JUMPI PUSH1 0x20 DUP1 PUSH1 0x3 NOT CALLDATASIZE ADD SLT PUSH2 0x1712 JUMPI PUSH1 0x4 CALLDATALOAD SWAP1 PUSH2 0x1339 PUSH2 0x1C53 JUMP JUMPDEST DUP2 DUP4 MSTORE PUSH1 0x6 DUP2 MSTORE PUSH1 0x40 DUP4 KECCAK256 PUSH1 0xA DUP2 ADD PUSH1 0xFF SWAP1 DUP2 DUP2 SLOAD AND PUSH1 0x8 DUP2 LT ISZERO PUSH2 0xB87 JUMPI PUSH1 0x2 EQ DUP1 PUSH2 0x1705 JUMPI JUMPDEST PUSH2 0x16F7 JUMPI JUMPDEST DUP1 SLOAD DUP3 DUP2 AND PUSH1 0x8 DUP2 LT ISZERO PUSH2 0x16E3 JUMPI PUSH1 0x3 SUB PUSH2 0x169E JUMPI DUP3 DUP2 PUSH1 0x8 SHR AND PUSH2 0x1659 JUMPI PUSH1 0x4B PUSH1 0xD DUP6 ADD SLOAD GT PUSH2 0x1614 JUMPI PUSH2 0x105 SWAP1 PUSH2 0xFFFF NOT AND OR SWAP1 SSTORE PUSH1 0x1 SWAP2 DUP6 DUP3 PUSH1 0x1 DUP4 ADD SLOAD AND PUSH2 0x13B1 DUP2 PUSH2 0x184F JUMP JUMPDEST DUP1 PUSH2 0x14B4 JUMPI POP SWAP3 SWAP2 SWAP1 DUP4 SWAP1 DUP5 PUSH1 0xB DUP3 ADD SWAP5 DUP6 SLOAD SWAP6 JUMPDEST DUP7 DUP4 LT PUSH2 0x1488 JUMPI POP POP POP PUSH1 0x1 DUP1 PUSH1 0xA0 SHL SUB PUSH1 0x3 DUP2 PUSH1 0x4 SLOAD AND SWAP3 ADD SLOAD AND DUP2 EXTCODESIZE ISZERO PUSH2 0xCE1 JUMPI DUP6 PUSH1 0x84 SWAP3 DUP2 SWAP6 PUSH1 0x40 MLOAD SWAP8 DUP9 SWAP7 DUP8 SWAP6 PUSH4 0xA7932B1 PUSH1 0xE2 SHL DUP8 MSTORE DUP14 PUSH1 0x4 DUP9 ADD MSTORE PUSH1 0x24 DUP8 ADD MSTORE PUSH1 0x44 DUP7 ADD MSTORE AND PUSH1 0x64 DUP5 ADD MSTORE GAS CALL DUP1 ISZERO PUSH2 0x4B5 JUMPI PUSH2 0x1474 JUMPI JUMPDEST POP POP PUSH1 0x0 DUP1 MLOAD PUSH1 0x20 PUSH2 0x1CA3 DUP4 CODECOPY DUP2 MLOAD SWAP2 MSTORE SWAP2 PUSH1 0x5 PUSH1 0x40 SWAP3 JUMPDEST PUSH32 0x712AE1383F79AC853F8D882153778E0260EF8F03B504E2866E0593E04D2B291F DUP2 DUP6 MLOAD DUP6 DUP2 MSTORE LOG1 DUP4 MLOAD SWAP3 DUP4 MSTORE DUP3 ADD MSTORE LOG1 PUSH1 0x1 DUP1 SSTORE DUP1 RETURN JUMPDEST PUSH2 0x147D SWAP1 PUSH2 0x189B JUMP JUMPDEST PUSH2 0xCF9 JUMPI DUP3 CODESIZE PUSH2 0x1424 JUMP JUMPDEST SWAP2 SWAP5 SWAP6 SWAP7 POP PUSH2 0x14A5 DUP2 SWAP4 SWAP5 PUSH2 0x149D DUP8 DUP6 PUSH2 0x18D1 JUMP JUMPDEST POP SLOAD SWAP1 PUSH2 0x1903 JUMP JUMPDEST SWAP5 ADD SWAP1 SWAP2 DUP10 SWAP7 SWAP6 SWAP5 SWAP4 SWAP3 PUSH2 0x13C6 JUMP JUMPDEST PUSH1 0x1 SWAP2 SWAP5 POP PUSH2 0x14C5 DUP2 SWAP5 SWAP4 SWAP5 PUSH2 0x184F JUMP JUMPDEST EQ PUSH2 0x14E8 JUMPI JUMPDEST POP POP POP PUSH1 0x0 DUP1 MLOAD PUSH1 0x20 PUSH2 0x1CA3 DUP4 CODECOPY DUP2 MLOAD SWAP2 MSTORE SWAP2 PUSH1 0x5 PUSH1 0x40 SWAP3 PUSH2 0x143C JUMP JUMPDEST PUSH1 0x5 DUP3 ADD SLOAD AND PUSH2 0x14F7 DUP2 PUSH2 0x184F JUMP JUMPDEST PUSH2 0x157E JUMPI PUSH1 0x1 DUP1 PUSH1 0xA0 SHL SUB SWAP1 PUSH1 0x4 DUP3 DUP2 SLOAD AND SWAP3 PUSH1 0x3 DUP4 ADD SLOAD AND SWAP2 ADD SLOAD DUP3 EXTCODESIZE ISZERO PUSH2 0x4C0 JUMPI PUSH1 0x44 DUP5 SWAP3 DUP4 PUSH1 0x40 MLOAD SWAP6 DUP7 SWAP5 DUP6 SWAP4 PUSH4 0xF3FEF3A3 PUSH1 0xE0 SHL DUP6 MSTORE PUSH1 0x4 DUP6 ADD MSTORE PUSH1 0x24 DUP5 ADD MSTORE GAS CALL DUP1 ISZERO PUSH2 0x4B5 JUMPI PUSH2 0x156A JUMPI JUMPDEST POP POP PUSH1 0x0 DUP1 MLOAD PUSH1 0x20 PUSH2 0x1CA3 DUP4 CODECOPY DUP2 MLOAD SWAP2 MSTORE SWAP2 PUSH1 0x5 PUSH1 0x40 SWAP3 JUMPDEST SWAP3 DUP6 SWAP3 SWAP5 POP PUSH2 0x14CB JUMP JUMPDEST PUSH2 0x1573 SWAP1 PUSH2 0x189B JUMP JUMPDEST PUSH2 0xCF9 JUMPI DUP3 CODESIZE PUSH2 0x1548 JUMP JUMPDEST PUSH1 0x4 DUP1 SLOAD PUSH1 0x3 DUP4 ADD SLOAD SWAP2 SWAP1 SWAP3 ADD SLOAD PUSH1 0x1 PUSH1 0x1 PUSH1 0xA0 SHL SUB SWAP3 DUP4 AND SWAP4 SWAP3 SWAP1 SWAP2 AND DUP4 EXTCODESIZE ISZERO PUSH2 0xCF9 JUMPI PUSH1 0x44 SWAP1 DUP4 PUSH1 0x40 MLOAD SWAP6 DUP7 SWAP5 DUP6 SWAP4 PUSH4 0x6B091F9 PUSH1 0xE0 SHL DUP6 MSTORE PUSH1 0x4 DUP6 ADD MSTORE PUSH1 0x24 DUP5 ADD MSTORE GAS CALL DUP1 ISZERO PUSH2 0xCC6 JUMPI PUSH2 0x15EB JUMPI JUMPDEST POP PUSH1 0x0 DUP1 MLOAD PUSH1 0x20 PUSH2 0x1CA3 DUP4 CODECOPY DUP2 MLOAD SWAP2 MSTORE SWAP2 PUSH1 0x5 PUSH1 0x40 SWAP3 PUSH2 0x1560 JUMP JUMPDEST SWAP2 PUSH1 0x5 PUSH1 0x40 SWAP3 SWAP5 PUSH2 0x160A PUSH1 0x0 DUP1 MLOAD PUSH1 0x20 PUSH2 0x1CA3 DUP4 CODECOPY DUP2 MLOAD SWAP2 MSTORE SWAP6 PUSH2 0x189B JUMP JUMPDEST SWAP5 SWAP3 POP POP SWAP2 PUSH2 0x15D0 JUMP JUMPDEST PUSH1 0x40 MLOAD PUSH3 0x461BCD PUSH1 0xE5 SHL DUP2 MSTORE PUSH1 0x4 DUP2 ADD DUP7 SWAP1 MSTORE PUSH1 0x19 PUSH1 0x24 DUP3 ADD MSTORE PUSH32 0x4149207269736B2073636F726520697320746F6F206869676800000000000000 PUSH1 0x44 DUP3 ADD MSTORE PUSH1 0x64 SWAP1 REVERT JUMPDEST PUSH1 0x40 MLOAD PUSH3 0x461BCD PUSH1 0xE5 SHL DUP2 MSTORE PUSH1 0x4 DUP2 ADD DUP7 SWAP1 MSTORE PUSH1 0x19 PUSH1 0x24 DUP3 ADD MSTORE PUSH32 0x50726F706F73616C20616C726561647920657865637574656400000000000000 PUSH1 0x44 DUP3 ADD MSTORE PUSH1 0x64 SWAP1 REVERT JUMPDEST PUSH1 0x40 MLOAD PUSH3 0x461BCD PUSH1 0xE5 SHL DUP2 MSTORE PUSH1 0x4 DUP2 ADD DUP7 SWAP1 MSTORE PUSH1 0x18 PUSH1 0x24 DUP3 ADD MSTORE PUSH32 0x50726F706F73616C206973206E6F7420617070726F7665640000000000000000 PUSH1 0x44 DUP3 ADD MSTORE PUSH1 0x64 SWAP1 REVERT JUMPDEST PUSH4 0x4E487B71 PUSH1 0xE0 SHL DUP9 MSTORE PUSH1 0x21 PUSH1 0x4 MSTORE PUSH1 0x24 DUP9 REVERT JUMPDEST PUSH2 0x1700 DUP6 PUSH2 0x1A01 JUMP JUMPDEST PUSH2 0x1366 JUMP JUMPDEST POP PUSH1 0x7 DUP4 ADD SLOAD TIMESTAMP GT PUSH2 0x1361 JUMP JUMPDEST POP DUP1 REVERT JUMPDEST POP CALLVALUE PUSH2 0x1B0 JUMPI DUP1 PUSH1 0x3 NOT CALLDATASIZE ADD SLT PUSH2 0x1B0 JUMPI PUSH1 0x20 PUSH1 0xA SLOAD PUSH1 0x40 MLOAD SWAP1 DUP2 MSTORE RETURN JUMPDEST POP CALLVALUE PUSH2 0x1B0 JUMPI PUSH1 0x20 CALLDATASIZE PUSH1 0x3 NOT ADD SLT PUSH2 0x1B0 JUMPI PUSH1 0x4 CALLDATALOAD DUP2 MSTORE PUSH1 0x6 PUSH1 0x20 MSTORE PUSH1 0x40 DUP2 KECCAK256 DUP1 DUP1 DUP1 SLOAD SWAP4 DUP2 PUSH1 0x1 DUP2 ADD SLOAD PUSH1 0x2 DUP3 ADD SLOAD PUSH1 0x1 DUP1 PUSH1 0xA0 SHL SUB PUSH1 0x3 DUP5 ADD SLOAD AND PUSH1 0x4 DUP5 ADD SLOAD PUSH1 0xFF PUSH1 0x5 DUP7 ADD SLOAD AND SWAP1 PUSH1 0x6 DUP7 ADD SLOAD SWAP3 PUSH1 0x7 DUP8 ADD SLOAD SWAP5 PUSH1 0x8 DUP9 ADD SLOAD SWAP7 PUSH1 0xE PUSH1 0xD PUSH1 0xC PUSH1 0xA PUSH1 0x9 DUP14 ADD SLOAD SWAP13 ADD SLOAD SWAP14 ADD SLOAD SWAP14 ADD SLOAD SWAP14 ADD SLOAD SWAP14 PUSH1 0x80 MSTORE PUSH2 0x17BA PUSH1 0xFF DUP3 AND PUSH2 0x184F JUMP JUMPDEST PUSH1 0xFF DUP2 AND PUSH1 0xA0 MSTORE PUSH1 0x8 SHR PUSH1 0x1 PUSH1 0x1 PUSH1 0xA0 SHL SUB AND PUSH1 0xC0 MSTORE PUSH1 0xE0 MSTORE PUSH2 0x100 MSTORE PUSH2 0x120 MSTORE PUSH2 0x17E4 DUP2 PUSH2 0x184F JUMP JUMPDEST PUSH2 0x140 MSTORE PUSH2 0x160 MSTORE PUSH2 0x180 MSTORE PUSH2 0x1A0 MSTORE PUSH2 0x1C0 MSTORE PUSH1 0x8 PUSH1 0xFF DUP4 AND LT ISZERO PUSH2 0x183B JUMPI POP DUP1 PUSH1 0xFF DUP1 SWAP3 AND PUSH2 0x160 PUSH1 0x80 ADD MSTORE PUSH1 0x8 SHR AND ISZERO ISZERO PUSH2 0x180 PUSH1 0x80 ADD MSTORE PUSH2 0x1A0 PUSH1 0x80 ADD MSTORE PUSH2 0x1C0 PUSH1 0x80 ADD MSTORE PUSH2 0x1E0 PUSH1 0x80 ADD MSTORE PUSH2 0x200 PUSH1 0x80 RETURN JUMPDEST PUSH4 0x4E487B71 PUSH1 0xE0 SHL DUP2 MSTORE PUSH1 0x21 PUSH1 0x4 MSTORE PUSH1 0x24 SWAP1 REVERT JUMPDEST PUSH1 0x2 GT ISZERO PUSH2 0x1859 JUMPI JUMP JUMPDEST PUSH4 0x4E487B71 PUSH1 0xE0 SHL PUSH1 0x0 MSTORE PUSH1 0x21 PUSH1 0x4 MSTORE PUSH1 0x24 PUSH1 0x0 REVERT JUMPDEST PUSH1 0x4 CALLDATALOAD SWAP1 PUSH1 0x1 PUSH1 0x1 PUSH1 0xA0 SHL SUB DUP3 AND DUP3 SUB PUSH2 0x4A9 JUMPI JUMP JUMPDEST PUSH1 0x24 CALLDATALOAD SWAP1 PUSH1 0x1 PUSH1 0x1 PUSH1 0xA0 SHL SUB DUP3 AND DUP3 SUB PUSH2 0x4A9 JUMPI JUMP JUMPDEST PUSH8 0xFFFFFFFFFFFFFFFF DUP2 GT PUSH2 0xBC3 JUMPI PUSH1 0x40 MSTORE JUMP JUMPDEST SWAP1 PUSH1 0x1F DUP1 NOT SWAP2 ADD AND DUP2 ADD SWAP1 DUP2 LT PUSH8 0xFFFFFFFFFFFFFFFF DUP3 GT OR PUSH2 0xBC3 JUMPI PUSH1 0x40 MSTORE JUMP JUMPDEST DUP1 SLOAD DUP3 LT ISZERO PUSH2 0x18ED JUMPI PUSH1 0x0 MSTORE PUSH1 0x20 PUSH1 0x0 KECCAK256 SWAP1 PUSH1 0x2 SHL ADD SWAP1 PUSH1 0x0 SWAP1 JUMP JUMPDEST PUSH4 0x4E487B71 PUSH1 0xE0 SHL PUSH1 0x0 MSTORE PUSH1 0x32 PUSH1 0x4 MSTORE PUSH1 0x24 PUSH1 0x0 REVERT JUMPDEST SWAP2 SWAP1 DUP3 ADD DUP1 SWAP3 GT PUSH2 0x1910 JUMPI JUMP JUMPDEST PUSH4 0x4E487B71 PUSH1 0xE0 SHL PUSH1 0x0 MSTORE PUSH1 0x11 PUSH1 0x4 MSTORE PUSH1 0x24 PUSH1 0x0 REVERT JUMPDEST SWAP1 DUP2 PUSH1 0x20 SWAP2 SUB SLT PUSH2 0x4A9 JUMPI MLOAD DUP1 ISZERO ISZERO DUP2 SUB PUSH2 0x4A9 JUMPI SWAP1 JUMP JUMPDEST ISZERO PUSH2 0x1945 JUMPI JUMP JUMPDEST PUSH1 0x40 MLOAD PUSH3 0x461BCD PUSH1 0xE5 SHL DUP2 MSTORE PUSH1 0x20 PUSH1 0x4 DUP3 ADD MSTORE PUSH1 0x22 PUSH1 0x24 DUP3 ADD MSTORE PUSH32 0x43616C6C657220646F6573206E6F74206861766520726571756972656420726F PUSH1 0x44 DUP3 ADD MSTORE PUSH2 0x6C65 PUSH1 0xF0 SHL PUSH1 0x64 DUP3 ADD MSTORE PUSH1 0x84 SWAP1 REVERT JUMPDEST ISZERO PUSH2 0x199C JUMPI JUMP JUMPDEST PUSH1 0x40 MLOAD PUSH3 0x461BCD PUSH1 0xE5 SHL DUP2 MSTORE PUSH1 0x20 PUSH1 0x4 DUP3 ADD MSTORE PUSH1 0x1C PUSH1 0x24 DUP3 ADD MSTORE PUSH32 0x50726F706F73616C206E6F7420696E20766F74696E6720737461746500000000 PUSH1 0x44 DUP3 ADD MSTORE PUSH1 0x64 SWAP1 REVERT JUMPDEST DUP2 ISZERO PUSH2 0x19EB JUMPI DIV SWAP1 JUMP JUMPDEST PUSH4 0x4E487B71 PUSH1 0xE0 SHL PUSH1 0x0 MSTORE PUSH1 0x12 PUSH1 0x4 MSTORE PUSH1 0x24 PUSH1 0x0 REVERT JUMPDEST SWAP1 PUSH1 0x0 DUP3 DUP2 MSTORE PUSH1 0x20 SWAP3 PUSH1 0x6 DUP5 MSTORE PUSH1 0x40 SWAP2 DUP3 DUP2 KECCAK256 PUSH1 0xA DUP2 ADD SWAP1 DUP2 SLOAD SWAP3 PUSH1 0xFF DUP5 AND PUSH1 0x8 DUP2 LT ISZERO PUSH2 0x1BE4 JUMPI PUSH1 0x2 PUSH2 0x1A35 SWAP2 EQ PUSH2 0x1995 JUMP JUMPDEST PUSH1 0x7 DUP3 ADD SLOAD TIMESTAMP GT ISZERO PUSH2 0x1BA0 JUMPI PUSH1 0x3 SLOAD DUP7 MLOAD PUSH4 0x18160DDD PUSH1 0xE0 SHL DUP2 MSTORE SWAP9 PUSH1 0x4 SWAP6 SWAP1 SWAP5 SWAP4 SWAP3 SWAP2 DUP6 SWAP1 DUP12 SWAP1 DUP9 SWAP1 DUP3 SWAP1 PUSH1 0x1 PUSH1 0x1 PUSH1 0xA0 SHL SUB AND GAS STATICCALL SWAP10 DUP11 ISZERO PUSH2 0x1B96 JUMPI DUP3 SWAP11 PUSH2 0x1B67 JUMPI JUMPDEST POP PUSH2 0x1A8E PUSH1 0x9 PUSH1 0x8 DUP6 ADD SLOAD SWAP5 ADD SLOAD DUP5 PUSH2 0x1903 JUMP JUMPDEST SWAP10 PUSH1 0x64 DUP12 MUL DUP12 DUP2 DIV PUSH1 0x64 EQ DUP13 ISZERO OR ISZERO PUSH2 0x1B54 JUMPI SWAP1 PUSH2 0x1AAB SWAP2 PUSH2 0x19E1 JUMP JUMPDEST PUSH1 0xB SLOAD GT PUSH2 0x1B2B JUMPI POP PUSH1 0x64 DUP3 MUL SWAP2 DUP1 DUP4 DIV PUSH1 0x64 EQ SWAP1 ISZERO OR ISZERO PUSH2 0x1B18 JUMPI POP PUSH1 0x0 DUP1 MLOAD PUSH1 0x20 PUSH2 0x1CA3 DUP4 CODECOPY DUP2 MLOAD SWAP2 MSTORE SWAP7 SWAP8 PUSH2 0x1AE2 SWAP2 PUSH2 0x19E1 JUMP JUMPDEST PUSH1 0xC SLOAD GT PUSH2 0x1B03 JUMPI PUSH1 0x3 DUP1 SWAP4 POP PUSH1 0xFF NOT DUP3 SLOAD AND OR SWAP1 SSTORE DUP4 MLOAD SWAP3 DUP4 MSTORE DUP3 ADD MSTORE LOG1 JUMP JUMPDEST DUP1 SLOAD PUSH1 0xFF NOT AND DUP4 OR SWAP1 SSTORE DUP4 MLOAD SWAP3 DUP4 MSTORE DUP3 ADD MSTORE LOG1 JUMP JUMPDEST PUSH4 0x4E487B71 PUSH1 0xE0 SHL DUP2 MSTORE PUSH1 0x11 DUP6 MSTORE PUSH1 0x24 SWAP1 REVERT JUMPDEST PUSH1 0xFF NOT AND DUP6 OR SWAP1 SWAP3 SSTORE POP POP DUP4 MLOAD SWAP3 DUP4 MSTORE DUP3 ADD MSTORE SWAP2 SWAP3 POP PUSH1 0x0 DUP1 MLOAD PUSH1 0x20 PUSH2 0x1CA3 DUP4 CODECOPY DUP2 MLOAD SWAP2 MSTORE SWAP2 LOG1 JUMP JUMPDEST PUSH4 0x4E487B71 PUSH1 0xE0 SHL DUP5 MSTORE PUSH1 0x11 DUP9 MSTORE PUSH1 0x24 DUP5 REVERT JUMPDEST SWAP1 SWAP10 POP DUP5 DUP2 DUP2 RETURNDATASIZE DUP4 GT PUSH2 0x1B8F JUMPI JUMPDEST PUSH2 0x1B7F DUP2 DUP4 PUSH2 0x18AF JUMP JUMPDEST DUP2 ADD SUB SLT PUSH2 0x1712 JUMPI MLOAD SWAP9 CODESIZE PUSH2 0x1A7A JUMP JUMPDEST POP RETURNDATASIZE PUSH2 0x1B75 JUMP JUMPDEST DUP9 MLOAD RETURNDATASIZE DUP5 DUP3 RETURNDATACOPY RETURNDATASIZE SWAP1 REVERT JUMPDEST DUP6 MLOAD PUSH3 0x461BCD PUSH1 0xE5 SHL DUP2 MSTORE PUSH1 0x4 DUP2 ADD DUP10 SWAP1 MSTORE PUSH1 0x1B PUSH1 0x24 DUP3 ADD MSTORE PUSH32 0x566F74696E6720706572696F64206E6F742079657420656E6465640000000000 PUSH1 0x44 DUP3 ADD MSTORE PUSH1 0x64 SWAP1 REVERT JUMPDEST PUSH4 0x4E487B71 PUSH1 0xE0 SHL DUP3 MSTORE PUSH1 0x21 PUSH1 0x4 MSTORE PUSH1 0x24 DUP3 REVERT JUMPDEST PUSH1 0x0 NOT DUP2 EQ PUSH2 0x1910 JUMPI PUSH1 0x1 ADD SWAP1 JUMP JUMPDEST ISZERO PUSH2 0x1C0E JUMPI JUMP JUMPDEST PUSH1 0x40 MLOAD PUSH3 0x461BCD PUSH1 0xE5 SHL DUP2 MSTORE PUSH1 0x20 PUSH1 0x4 DUP3 ADD MSTORE PUSH1 0x1F PUSH1 0x24 DUP3 ADD MSTORE PUSH32 0x4465736372697074696F6E20686173682063616E6E6F74206265207A65726F00 PUSH1 0x44 DUP3 ADD MSTORE PUSH1 0x64 SWAP1 REVERT JUMPDEST PUSH1 0x2 PUSH1 0x1 SLOAD EQ PUSH2 0x1C64 JUMPI PUSH1 0x2 PUSH1 0x1 SSTORE JUMP JUMPDEST PUSH1 0x40 MLOAD PUSH4 0x3EE5AEB5 PUSH1 0xE0 SHL DUP2 MSTORE PUSH1 0x4 SWAP1 REVERT JUMPDEST PUSH1 0x0 SLOAD PUSH1 0x1 PUSH1 0x1 PUSH1 0xA0 SHL SUB AND CALLER SUB PUSH2 0x1C8A JUMPI JUMP JUMPDEST PUSH1 0x40 MLOAD PUSH4 0x118CDAA7 PUSH1 0xE0 SHL DUP2 MSTORE CALLER PUSH1 0x4 DUP3 ADD MSTORE PUSH1 0x24 SWAP1 REVERT INVALID 0xD6 0xB3 0xA8 SAR 0xD8 0xB7 0xDC COINBASE SWAP14 DUP14 0xF KECCAK256 PUSH26 0x7397EA2EABA914386B89898AA638438803A1ECA2646970667358 0x22 SLT KECCAK256 0x22 0xF8 SWAP7 SIGNEXTEND 0x26 0xD1 0xAC 0xF6 DUP11 CALLER SIGNEXTEND 0xE5 0xAD MULMOD SELFBALANCE SWAP10 SWAP6 0xBE 0xBB PUSH18 0xD0F46AE110B5E66FF2B902DF64736F6C6343 STOP ADDMOD XOR STOP CALLER "},"methodIdentifiers":{"MAX_RISK_SCORE()":"45f19131","accControl()":"345c3537","approvalThresholdPercentage()":"4f23c04c","createFundingProposal(bytes32,address,uint256[])":"8158a502","createTreasuryActionProposal(bytes32,address,uint256,uint8)":"c62a441f","executeProposal(uint256)":"0d61b519","financeContract()":"d3396149","hasVoted(uint256,address)":"43859632","nextProposalId()":"2ab09d14","owner()":"8da5cb5b","participationScores(address)":"38add68d","proposals(uint256)":"013cf08b","quorumPercentage()":"4fa76ec9","releaseNextMilestone(uint256,bytes32)":"5f95bfa0","renounceOwnership()":"715018a6","setStartupAccessTokenAddress(address)":"f5fcb7ab","stakingContract()":"ee99205c","startupAccessTokenAddress()":"16f58591","tallyVotes(uint256)":"4d318b0e","transferOwnership(address)":"f2fde38b","updateParticipationScore(address,uint256)":"bb1345c9","updateProposalRiskScore(uint256,uint256)":"22005a92","vote(uint256,uint8)":"943e8216","votingPeriod()":"02a251a3"}}}}}