{
  "_format": "hh-sol-artifact-1",
  "contractName": "RayanChainDAO",
  "sourceName": "src/contracts/RayanChainDAO.sol",
  "abi": [
    {
      "inputs": [
        {
          "internalType": "address",
          "name": "_accControlAddress",
          "type": "address"
        },
        {
          "internalType": "address",
          "name": "_stakingAddress",
          "type": "address"
        },
        {
          "internalType": "address",
          "name": "_financeAddress",
          "type": "address"
        },
        {
          "internalType": "uint256",
          "name": "_votingPeriod",
          "type": "uint256"
        },
        {
          "internalType": "uint256",
          "name": "_quorumPercentage",
          "type": "uint256"
        },
        {
          "internalType": "uint256",
          "name": "_approvalThreshold",
          "type": "uint256"
        }
      ],
      "stateMutability": "nonpayable",
      "type": "constructor"
    },
    {
      "inputs": [
        {
          "internalType": "address",
          "name": "owner",
          "type": "address"
        }
      ],
      "name": "OwnableInvalidOwner",
      "type": "error"
    },
    {
      "inputs": [
        {
          "internalType": "address",
          "name": "account",
          "type": "address"
        }
      ],
      "name": "OwnableUnauthorizedAccount",
      "type": "error"
    },
    {
      "inputs": [],
      "name": "ReentrancyGuardReentrantCall",
      "type": "error"
    },
    {
      "anonymous": false,
      "inputs": [
        {
          "indexed": true,
          "internalType": "uint256",
          "name": "proposalId",
          "type": "uint256"
        },
        {
          "indexed": false,
          "internalType": "uint256",
          "name": "milestoneIndex",
          "type": "uint256"
        },
        {
          "indexed": false,
          "internalType": "uint256",
          "name": "amount",
          "type": "uint256"
        }
      ],
      "name": "MilestoneReleased",
      "type": "event"
    },
    {
      "anonymous": false,
      "inputs": [
        {
          "indexed": true,
          "internalType": "address",
          "name": "previousOwner",
          "type": "address"
        },
        {
          "indexed": true,
          "internalType": "address",
          "name": "newOwner",
          "type": "address"
        }
      ],
      "name": "OwnershipTransferred",
      "type": "event"
    },
    {
      "anonymous": false,
      "inputs": [
        {
          "indexed": true,
          "internalType": "address",
          "name": "user",
          "type": "address"
        },
        {
          "indexed": false,
          "internalType": "uint256",
          "name": "newScore",
          "type": "uint256"
        }
      ],
      "name": "ParticipationScoreUpdated",
      "type": "event"
    },
    {
      "anonymous": false,
      "inputs": [
        {
          "indexed": false,
          "internalType": "uint256",
          "name": "id",
          "type": "uint256"
        },
        {
          "indexed": false,
          "internalType": "address",
          "name": "proposer",
          "type": "address"
        },
        {
          "indexed": false,
          "internalType": "enum RayanChainDAO.ProposalType",
          "name": "pType",
          "type": "uint8"
        },
        {
          "indexed": false,
          "internalType": "bytes32",
          "name": "descriptionHash",
          "type": "bytes32"
        }
      ],
      "name": "ProposalCreated",
      "type": "event"
    },
    {
      "anonymous": false,
      "inputs": [
        {
          "indexed": false,
          "internalType": "uint256",
          "name": "id",
          "type": "uint256"
        }
      ],
      "name": "ProposalExecuted",
      "type": "event"
    },
    {
      "anonymous": false,
      "inputs": [
        {
          "indexed": false,
          "internalType": "uint256",
          "name": "id",
          "type": "uint256"
        },
        {
          "indexed": false,
          "internalType": "enum RayanChainDAO.ProposalState",
          "name": "newState",
          "type": "uint8"
        }
      ],
      "name": "ProposalStateChanged",
      "type": "event"
    },
    {
      "anonymous": false,
      "inputs": [
        {
          "indexed": false,
          "internalType": "uint256",
          "name": "proposalId",
          "type": "uint256"
        },
        {
          "indexed": false,
          "internalType": "address",
          "name": "voter",
          "type": "address"
        },
        {
          "indexed": false,
          "internalType": "enum RayanChainDAO.VoteType",
          "name": "vote",
          "type": "uint8"
        },
        {
          "indexed": false,
          "internalType": "uint256",
          "name": "weight",
          "type": "uint256"
        }
      ],
      "name": "Voted",
      "type": "event"
    },
    {
      "inputs": [],
      "name": "MAX_RISK_SCORE",
      "outputs": [
        {
          "internalType": "uint256",
          "name": "",
          "type": "uint256"
        }
      ],
      "stateMutability": "view",
      "type": "function"
    },
    {
      "inputs": [],
      "name": "accControl",
      "outputs": [
        {
          "internalType": "contract AccControl",
          "name": "",
          "type": "address"
        }
      ],
      "stateMutability": "view",
      "type": "function"
    },
    {
      "inputs": [],
      "name": "approvalThresholdPercentage",
      "outputs": [
        {
          "internalType": "uint256",
          "name": "",
          "type": "uint256"
        }
      ],
      "stateMutability": "view",
      "type": "function"
    },
    {
      "inputs": [
        {
          "internalType": "bytes32",
          "name": "_descriptionHash",
          "type": "bytes32"
        },
        {
          "internalType": "address payable",
          "name": "_recipient",
          "type": "address"
        },
        {
          "internalType": "uint256[]",
          "name": "_milestoneAmounts",
          "type": "uint256[]"
        }
      ],
      "name": "createFundingProposal",
      "outputs": [],
      "stateMutability": "nonpayable",
      "type": "function"
    },
    {
      "inputs": [
        {
          "internalType": "bytes32",
          "name": "_descriptionHash",
          "type": "bytes32"
        },
        {
          "internalType": "address payable",
          "name": "_recipient",
          "type": "address"
        },
        {
          "internalType": "uint256",
          "name": "_amount",
          "type": "uint256"
        },
        {
          "internalType": "enum RayanChainDAO.TokenType",
          "name": "_tokenType",
          "type": "uint8"
        }
      ],
      "name": "createTreasuryActionProposal",
      "outputs": [],
      "stateMutability": "nonpayable",
      "type": "function"
    },
    {
      "inputs": [
        {
          "internalType": "uint256",
          "name": "_proposalId",
          "type": "uint256"
        }
      ],
      "name": "executeProposal",
      "outputs": [],
      "stateMutability": "nonpayable",
      "type": "function"
    },
    {
      "inputs": [],
      "name": "financeContract",
      "outputs": [
        {
          "internalType": "contract IFinance",
          "name": "",
          "type": "address"
        }
      ],
      "stateMutability": "view",
      "type": "function"
    },
    {
      "inputs": [
        {
          "internalType": "uint256",
          "name": "",
          "type": "uint256"
        },
        {
          "internalType": "address",
          "name": "",
          "type": "address"
        }
      ],
      "name": "hasVoted",
      "outputs": [
        {
          "internalType": "bool",
          "name": "",
          "type": "bool"
        }
      ],
      "stateMutability": "view",
      "type": "function"
    },
    {
      "inputs": [],
      "name": "nextProposalId",
      "outputs": [
        {
          "internalType": "uint256",
          "name": "",
          "type": "uint256"
        }
      ],
      "stateMutability": "view",
      "type": "function"
    },
    {
      "inputs": [],
      "name": "owner",
      "outputs": [
        {
          "internalType": "address",
          "name": "",
          "type": "address"
        }
      ],
      "stateMutability": "view",
      "type": "function"
    },
    {
      "inputs": [
        {
          "internalType": "address",
          "name": "",
          "type": "address"
        }
      ],
      "name": "participationScores",
      "outputs": [
        {
          "internalType": "uint256",
          "name": "",
          "type": "uint256"
        }
      ],
      "stateMutability": "view",
      "type": "function"
    },
    {
      "inputs": [
        {
          "internalType": "uint256",
          "name": "",
          "type": "uint256"
        }
      ],
      "name": "proposals",
      "outputs": [
        {
          "internalType": "uint256",
          "name": "id",
          "type": "uint256"
        },
        {
          "internalType": "enum RayanChainDAO.ProposalType",
          "name": "pType",
          "type": "uint8"
        },
        {
          "internalType": "address",
          "name": "proposer",
          "type": "address"
        },
        {
          "internalType": "bytes32",
          "name": "descriptionHash",
          "type": "bytes32"
        },
        {
          "internalType": "address payable",
          "name": "recipient",
          "type": "address"
        },
        {
          "internalType": "uint256",
          "name": "amount",
          "type": "uint256"
        },
        {
          "internalType": "enum RayanChainDAO.TokenType",
          "name": "tokenType",
          "type": "uint8"
        },
        {
          "internalType": "uint256",
          "name": "creationTime",
          "type": "uint256"
        },
        {
          "internalType": "uint256",
          "name": "votingDeadline",
          "type": "uint256"
        },
        {
          "internalType": "uint256",
          "name": "forVotes",
          "type": "uint256"
        },
        {
          "internalType": "uint256",
          "name": "againstVotes",
          "type": "uint256"
        },
        {
          "internalType": "enum RayanChainDAO.ProposalState",
          "name": "state",
          "type": "uint8"
        },
        {
          "internalType": "bool",
          "name": "executed",
          "type": "bool"
        },
        {
          "internalType": "uint256",
          "name": "currentMilestoneIndex",
          "type": "uint256"
        },
        {
          "internalType": "uint256",
          "name": "aiRiskScore",
          "type": "uint256"
        },
        {
          "internalType": "uint256",
          "name": "requiredApprovalThreshold",
          "type": "uint256"
        }
      ],
      "stateMutability": "view",
      "type": "function"
    },
    {
      "inputs": [],
      "name": "quorumPercentage",
      "outputs": [
        {
          "internalType": "uint256",
          "name": "",
          "type": "uint256"
        }
      ],
      "stateMutability": "view",
      "type": "function"
    },
    {
      "inputs": [
        {
          "internalType": "uint256",
          "name": "_proposalId",
          "type": "uint256"
        },
        {
          "internalType": "bytes32",
          "name": "_proofHash",
          "type": "bytes32"
        }
      ],
      "name": "releaseNextMilestone",
      "outputs": [],
      "stateMutability": "nonpayable",
      "type": "function"
    },
    {
      "inputs": [],
      "name": "renounceOwnership",
      "outputs": [],
      "stateMutability": "nonpayable",
      "type": "function"
    },
    {
      "inputs": [
        {
          "internalType": "address",
          "name": "_address",
          "type": "address"
        }
      ],
      "name": "setStartupAccessTokenAddress",
      "outputs": [],
      "stateMutability": "nonpayable",
      "type": "function"
    },
    {
      "inputs": [],
      "name": "stakingContract",
      "outputs": [
        {
          "internalType": "contract IStaking",
          "name": "",
          "type": "address"
        }
      ],
      "stateMutability": "view",
      "type": "function"
    },
    {
      "inputs": [],
      "name": "startupAccessTokenAddress",
      "outputs": [
        {
          "internalType": "address",
          "name": "",
          "type": "address"
        }
      ],
      "stateMutability": "view",
      "type": "function"
    },
    {
      "inputs": [
        {
          "internalType": "uint256",
          "name": "_proposalId",
          "type": "uint256"
        }
      ],
      "name": "tallyVotes",
      "outputs": [],
      "stateMutability": "nonpayable",
      "type": "function"
    },
    {
      "inputs": [
        {
          "internalType": "address",
          "name": "newOwner",
          "type": "address"
        }
      ],
      "name": "transferOwnership",
      "outputs": [],
      "stateMutability": "nonpayable",
      "type": "function"
    },
    {
      "inputs": [
        {
          "internalType": "address",
          "name": "_user",
          "type": "address"
        },
        {
          "internalType": "uint256",
          "name": "_score",
          "type": "uint256"
        }
      ],
      "name": "updateParticipationScore",
      "outputs": [],
      "stateMutability": "nonpayable",
      "type": "function"
    },
    {
      "inputs": [
        {
          "internalType": "uint256",
          "name": "_proposalId",
          "type": "uint256"
        },
        {
          "internalType": "uint256",
          "name": "_riskScore",
          "type": "uint256"
        }
      ],
      "name": "updateProposalRiskScore",
      "outputs": [],
      "stateMutability": "nonpayable",
      "type": "function"
    },
    {
      "inputs": [
        {
          "internalType": "uint256",
          "name": "_proposalId",
          "type": "uint256"
        },
        {
          "internalType": "enum RayanChainDAO.VoteType",
          "name": "_voteType",
          "type": "uint8"
        }
      ],
      "name": "vote",
      "outputs": [],
      "stateMutability": "nonpayable",
      "type": "function"
    },
    {
      "inputs": [],
      "name": "votingPeriod",
      "outputs": [
        {
          "internalType": "uint256",
          "name": "",
          "type": "uint256"
        }
      ],
      "stateMutability": "view",
      "type": "function"
    }
  ],
  "bytecode": "0x6080346200013657601f62001e5f38819003918201601f19168301916001600160401b038311848410176200013b5780849260c09460405283398101031262000136576200004d8162000151565b906200005c6020820162000151565b906200006b6040820162000151565b9260608201519060a060808401519301519333156200011d57600080546001600160a01b03198082163390811784556040519991956001600160a01b039592948694859391908416907f8be0079c531659141344cd1fd0a4f28419497f9722a3daafe3b4186f6b6457e09080a3600180558660055416600555168560025416176002551683600354161760035516906004541617600455600a55600b55600c556001600755611cf89081620001678239f35b604051631e4fbdf760e01b815260006004820152602490fd5b600080fd5b634e487b7160e01b600052604160045260246000fd5b51906001600160a01b0382168203620001365756fe6080604052600436101561001257600080fd5b6000803560e01c8063013cf08b1461173457806302a251a3146117165780630d61b5191461131a57806316f58591146112f157806322005a92146111c95780632ab09d14146111ab578063345c35371461118257806338add68d1461114957806343859632146110fd57806345f19131146110e15780634d318b0e146110c15780634f23c04c146110a35780634fa76ec9146110855780635f95bfa014610d57578063715018a614610cfd5780638158a502146108c55780638da5cb5b1461089e578063943e8216146105f4578063bb1345c9146104c4578063c62a441f14610290578063d339614914610267578063ee99205c1461023e578063f2fde38b146101b35763f5fcb7ab1461012557600080fd5b346101b05760203660031901126101b05761013e61186f565b610146611c76565b6001600160a01b0316801561016b576001600160601b0360a01b600554161760055580f35b60405162461bcd60e51b815260206004820152601d60248201527f44414f3a2043616e6e6f7420736574207a65726f20616464726573732e0000006044820152606490fd5b80fd5b50346101b05760203660031901126101b0576101cd61186f565b6101d5611c76565b6001600160a01b0390811690811561022557600054826001600160601b0360a01b821617600055167f8be0079c531659141344cd1fd0a4f28419497f9722a3daafe3b4186f6b6457e0600080a380f35b604051631e4fbdf760e01b815260048101849052602490fd5b50346101b057806003193601126101b0576003546040516001600160a01b039091168152602090f35b50346101b057806003193601126101b0576004546040516001600160a01b039091168152602090f35b50346101b05760803660031901126101b0576004356102ad611885565b906064359160028310156104c05760025460405163a217fddf60e01b8152906020906001600160a01b0390879082168385600481845afa9485156104b557829561047d575b50604051632474521560e21b815260048101959095523360248601528390859060449082905afa95861561047057600080516020611ca3833981519152976002600a7fcc914becfa276bbc067049bf8db2d34ebbdc1bafa851e4d4936aaed376c08dbe9561036d60409b849a60809891610443575b5061193e565b610378851515611c07565b600754996103858b611bf8565b6007558a600052600689528b600020918b835560018301600181546101008260a81b033360081b16906affffffffffffffffffffff60a81b161717905586858401556003830191166001600160601b0360a01b8254161790556044356004820155600581016103f38561184f565b60ff199460ff868354169116179055426006820155610413825442611903565b6007820155019182541617905586519086825233858301526001888301526060820152a18351928352820152a180f35b61046391508a3d8c11610469575b61045b81836118af565b810190611926565b38610367565b503d610451565b50604051903d90823e3d90fd5b945090508284813d81116104ae575b61049681836118af565b810103126104a9579251928790836102f2565b600080fd5b503d61048c565b6040513d84823e3d90fd5b8380fd5b50346101b05760403660031901126101b0576104de61186f565b60025460405163c601f7af60e01b8152602435926001600160a01b03928316926020929091908381600481885afa9081156105e95787916105ba575b50604051632474521560e21b8152600481019190915233602482015293839085908180604481015b03915afa9384156105af577fbce4be9b5e0540fc5c565cd30c59b6465d9eb0550f7a36a89128eeb8271b6c729461057f918891610598575061193e565b169283855260098252806040862055604051908152a280f35b6104639150853d87116104695761045b81836118af565b6040513d88823e3d90fd5b90508381813d83116105e2575b6105d181836118af565b810103126104a9575161054261051a565b503d6105c7565b6040513d89823e3d90fd5b50346101b05760403660031901126101b0576004356024803560028110156104c05761061e611c53565b828452602060068152604085209260ff600a85015416600881101561088b5760026106499114611995565b6007840154421161084857848652600882526040862033600052825260ff60406000205416610815576003546040516326d352ab60e11b8152336004820152919083908390839082906001600160a01b03165afa9182156105e95787926107e6575b5081156107a35733875260098352604087205460640180606411610790578083029283040361077c5750916080939160647f2635c84c3a8027a303ca6d6e90b1c4a9604754040372414d244aadfa647175189694049284885260088252604088203360005282526040600020600160ff1982541617905561072b8361184f565b826107675760080161073e848254611903565b90555b60405193845233908401526107558161184f565b60408301526060820152a16001805580f35b600901610775848254611903565b9055610741565b634e487b7160e01b60009081526011600452fd5b50634e487b7160e01b8752601160045286fd5b82601f6064926040519262461bcd60e51b845260048401528201527f4d7573742068617665207374616b656420746f6b656e7320746f20766f7465006044820152fd5b9091508281813d831161080e575b6107fe81836118af565b810103126104a9575190386106ab565b503d6107f4565b90600d6064926040519262461bcd60e51b845260048401528201526c105b1c9958591e481d9bdd1959609a1b6044820152fd5b9060176064926040519262461bcd60e51b845260048401528201527f566f74696e6720706572696f642068617320656e6465640000000000000000006044820152fd5b50634e487b7160e01b8652602160045285fd5b50346101b057806003193601126101b057546040516001600160a01b039091168152602090f35b50346101b05760603660031901126101b0576108df611885565b60443567ffffffffffffffff8111610cf95736602382011215610cf95780600401359067ffffffffffffffff8211610ce5578160051b6040519261092660208301856118af565b83526024602084019183010191368311610ce157602401905b828210610cd15750506003546040516326d352ab60e11b81523360048201529150602090829060249082906001600160a01b03165afa908115610cc6578491610c94575b5015610c4157805115610bf15761099d6004351515611c07565b600a600754926109ac84611bf8565b6007558360005260066020526040600020908482556001820154610100600160a81b033360081b16906affffffffffffffffffffff60a81b161760018301556004356002830155600382019060018060a01b03166001600160601b0360a01b82541617905560006004820155600160ff19600583015416176005820155426006820155610a3a825442611903565b600782015501600260ff198254161790557fcc914becfa276bbc067049bf8db2d34ebbdc1bafa851e4d4936aaed376c08dbe6080604051848152336020820152600060408201526004356060820152a1600080516020611ca38339815191526040805184815260026020820152a1825b8151811015610bed578284526006602052600b60408520018251821015610bd95760208260051b84010151906040519182608081011067ffffffffffffffff608085011117610bc35760808301604052825285602083015285604083015285606083015280549068010000000000000000821015610baf5790610b32916001820181556118d1565b610b9b57815181556020820151906008821015610b87579060606003600195949360ff19878201541660ff8095161787820155604085015160028201550192015115159060ff19835416911617905501610aaa565b634e487b7160e01b87526021600452602487fd5b634e487b7160e01b86526004869052602486fd5b634e487b7160e01b87526041600452602487fd5b634e487b7160e01b600052604160045260246000fd5b634e487b7160e01b85526032600452602485fd5b8380f35b60405162461bcd60e51b815260206004820152602260248201527f4174206c65617374206f6e65206d696c6573746f6e6520697320726571756972604482015261195960f21b6064820152608490fd5b60405162461bcd60e51b815260206004820152602560248201527f44414f3a204d757374206861766520525943207374616b656420746f2070726f6044820152643837b9b29760d91b6064820152608490fd5b90506020813d602011610cbe575b81610caf602093836118af565b810103126104a9575138610983565b3d9150610ca2565b6040513d86823e3d90fd5b813581526020918201910161093f565b8580fd5b634e487b7160e01b84526041600452602484fd5b8280fd5b50346101b057806003193601126101b057610d16611c76565b600080546001600160a01b0319811682556001600160a01b03167f8be0079c531659141344cd1fd0a4f28419497f9722a3daafe3b4186f6b6457e08280a380f35b50346101b05760403660031901126101b0576004356024803590610d79611c53565b60025460405163a217fddf60e01b81526001600160a01b039491602091908616908281600481855afa801561107a5783918991611049575b50604051632474521560e21b815260048101919091523360248201529182908180604481015b03915afa80156105e957610df1918891611032575061193e565b81865260068152604086209260ff600185015416610e0e8161184f565b610ff65760ff600a850154166008811015610fe357600503610f9157600c840195600b875495019485541115610f4d578515610f09579087916004541690813b15610cf95782918291604051809481936331c57b1f60e11b83528960048401525af180156104b557610ef5575b505060407fd33fcd27cbfb73a2d9058c968b560ccb306500bf536133802048489ecc7355e991610eec956002610eb28954886118d1565b5001556003610ec28854876118d1565b5001600160ff19825416179055610edb875480966118d1565b5054825191868352820152a2611bf8565b90556001805580f35b610efe9061189b565b610ce1578538610e7b565b60405162461bcd60e51b8152600481018490526019818401527f50726f6f6620686173682063616e6e6f74206265207a65726f000000000000006044820152606490fd5b60405162461bcd60e51b815260048101849052601f818401527f416c6c206d696c6573746f6e657320616c72656164792072656c6561736564006044820152606490fd5b9060266084926040519262461bcd60e51b845260048401528201527f50726f706f73616c20776173206e6f7420617070726f76656420616e642065786044820152651958dd5d195960d21b6064820152fd5b50634e487b7160e01b8752602160045286fd5b9060166064926040519262461bcd60e51b8452600484015282015275139bdd081848199d5b991a5b99c81c1c9bdc1bdcd85b60521b6044820152fd5b6104639150833d85116104695761045b81836118af565b82819392503d8311611073575b61106081836118af565b810103126104a957518290610dd7610db1565b503d611056565b6040513d8a823e3d90fd5b50346101b057806003193601126101b0576020600b54604051908152f35b50346101b057806003193601126101b0576020600c54604051908152f35b50346101b05760203660031901126101b0576110de600435611a01565b80f35b50346101b057806003193601126101b0576020604051604b8152f35b50346101b05760403660031901126101b0576040611119611885565b9160043581526008602052209060018060a01b0316600052602052602060ff604060002054166040519015158152f35b50346101b05760203660031901126101b0576020906040906001600160a01b0361117161186f565b168152600983522054604051908152f35b50346101b057806003193601126101b0576002546040516001600160a01b039091168152602090f35b50346101b057806003193601126101b0576020600754604051908152f35b50346101b05760403660031901126101b05760025460405163c601f7af60e01b8152602435916020916001600160a01b03909116908281600481855afa80156112e657839186916112b5575b50604051632474521560e21b815260048101919091523360248201529182908180604481015b03915afa8015610cc657611255918591611032575061193e565b6064821161127157600690600435845252600d60408320015580f35b6064906040519062461bcd60e51b82526004820152601c60248201527f5269736b2073636f72652063616e6e6f742065786365656420313030000000006044820152fd5b82819392503d83116112df575b6112cc81836118af565b810103126104a95751829061123b611215565b503d6112c2565b6040513d87823e3d90fd5b50346101b057806003193601126101b0576005546040516001600160a01b039091168152602090f35b50346101b0576020806003193601126117125760043590611339611c53565b8183526006815260408320600a810160ff90818154166008811015610b875760021480611705575b6116f7575b805482811660088110156116e35760030361169e57828160081c1661165957604b600d85015411611614576101059061ffff191617905560019185826001830154166113b18161184f565b806114b45750929190839084600b8201948554955b8683106114885750505060018060a01b036003816004541692015416813b15610ce1578560849281956040519788968795630a7932b160e21b87528d6004880152602487015260448601521660648401525af180156104b557611474575b5050600080516020611ca38339815191529160056040925b7f712ae1383f79ac853f8d882153778e0260ef8f03b504e2866e0593e04d2b291f818551858152a18351928352820152a16001805580f35b61147d9061189b565b610cf9578238611424565b91949596506114a581939461149d87856118d1565b505490611903565b940190918996959493926113c6565b60019194506114c58194939461184f565b146114e8575b505050600080516020611ca383398151915291600560409261143c565b6005820154166114f78161184f565b61157e5760018060a01b039060048281541692600383015416910154823b156104c0576044849283604051958694859363f3fef3a360e01b8552600485015260248401525af180156104b55761156a575b5050600080516020611ca38339815191529160056040925b92859294506114cb565b6115739061189b565b610cf9578238611548565b60048054600383015491909201546001600160a01b039283169392909116833b15610cf9576044908360405195869485936306b091f960e01b8552600485015260248401525af18015610cc6576115eb575b50600080516020611ca3833981519152916005604092611560565b9160056040929461160a600080516020611ca38339815191529561189b565b94925050916115d0565b60405162461bcd60e51b815260048101869052601960248201527f4149207269736b2073636f726520697320746f6f2068696768000000000000006044820152606490fd5b60405162461bcd60e51b815260048101869052601960248201527f50726f706f73616c20616c7265616479206578656375746564000000000000006044820152606490fd5b60405162461bcd60e51b815260048101869052601860248201527f50726f706f73616c206973206e6f7420617070726f76656400000000000000006044820152606490fd5b634e487b7160e01b88526021600452602488fd5b61170085611a01565b611366565b5060078301544211611361565b5080fd5b50346101b057806003193601126101b0576020600a54604051908152f35b50346101b05760203660031901126101b05760043581526006602052604081208080805493816001810154600282015460018060a01b03600384015416600484015460ff60058601541690600686015492600787015494600888015496600e600d600c600a60098d01549c01549d01549d01549d01549d6080526117ba60ff821661184f565b60ff811660a05260081c6001600160a01b031660c05260e05261010052610120526117e48161184f565b6101405261016052610180526101a0526101c052600860ff8316101561183b57508060ff8092166101606080015260081c161515610180608001526101a0608001526101c0608001526101e0608001526102006080f35b634e487b7160e01b81526021600452602490fd5b6002111561185957565b634e487b7160e01b600052602160045260246000fd5b600435906001600160a01b03821682036104a957565b602435906001600160a01b03821682036104a957565b67ffffffffffffffff8111610bc357604052565b90601f8019910116810190811067ffffffffffffffff821117610bc357604052565b80548210156118ed5760005260206000209060021b0190600090565b634e487b7160e01b600052603260045260246000fd5b9190820180921161191057565b634e487b7160e01b600052601160045260246000fd5b908160209103126104a9575180151581036104a95790565b1561194557565b60405162461bcd60e51b815260206004820152602260248201527f43616c6c657220646f6573206e6f74206861766520726571756972656420726f6044820152616c6560f01b6064820152608490fd5b1561199c57565b60405162461bcd60e51b815260206004820152601c60248201527f50726f706f73616c206e6f7420696e20766f74696e67207374617465000000006044820152606490fd5b81156119eb570490565b634e487b7160e01b600052601260045260246000fd5b90600082815260209260068452604091828120600a81019081549260ff84166008811015611be4576002611a359114611995565b6007820154421115611ba05760035486516318160ddd60e01b815298600495909493929185908b90889082906001600160a01b03165afa998a15611b9657829a611b67575b50611a8e6009600885015494015484611903565b9960648b028b81046064148c151715611b545790611aab916119e1565b600b5411611b2b5750606482029180830460641490151715611b185750600080516020611ca38339815191529697611ae2916119e1565b600c5411611b0357600380935060ff198254161790558351928352820152a1565b805460ff1916831790558351928352820152a1565b634e487b7160e01b815260118552602490fd5b60ff1916851790925550508351928352820152919250600080516020611ca383398151915291a1565b634e487b7160e01b845260118852602484fd5b9099508481813d8311611b8f575b611b7f81836118af565b8101031261171257519838611a7a565b503d611b75565b88513d84823e3d90fd5b855162461bcd60e51b815260048101899052601b60248201527f566f74696e6720706572696f64206e6f742079657420656e64656400000000006044820152606490fd5b634e487b7160e01b82526021600452602482fd5b60001981146119105760010190565b15611c0e57565b60405162461bcd60e51b815260206004820152601f60248201527f4465736372697074696f6e20686173682063616e6e6f74206265207a65726f006044820152606490fd5b600260015414611c64576002600155565b604051633ee5aeb560e01b8152600490fd5b6000546001600160a01b03163303611c8a57565b60405163118cdaa760e01b8152336004820152602490fdfed6b3a81dd8b7dc419d8d0f20797397ea2eaba914386b89898aa638438803a1eca264697066735822122022f8960b26d1acf68a330be5ad09479995bebb71d0f46ae110b5e66ff2b902df64736f6c63430008180033",
  "linkReferences": {},
  "deployedLinkReferences": {}
}