{
  "_format": "hh-sol-artifact-1",
  "contractName": "RayanChainDAO",
  "sourceName": "src/contracts/RayanChainDAO.sol",
  "abi": [
    {
      "inputs": [
        {
          "internalType": "address",
          "name": "_accControlAddress",
          "type": "address"
        },
        {
          "internalType": "address",
          "name": "_stakingAddress",
          "type": "address"
        },
        {
          "internalType": "address",
          "name": "_financeAddress",
          "type": "address"
        },
        {
          "internalType": "uint256",
          "name": "_votingPeriod",
          "type": "uint256"
        },
        {
          "internalType": "uint256",
          "name": "_quorumPercentage",
          "type": "uint256"
        },
        {
          "internalType": "uint256",
          "name": "_approvalThreshold",
          "type": "uint256"
        }
      ],
      "stateMutability": "nonpayable",
      "type": "constructor"
    },
    {
      "inputs": [
        {
          "internalType": "address",
          "name": "owner",
          "type": "address"
        }
      ],
      "name": "OwnableInvalidOwner",
      "type": "error"
    },
    {
      "inputs": [
        {
          "internalType": "address",
          "name": "account",
          "type": "address"
        }
      ],
      "name": "OwnableUnauthorizedAccount",
      "type": "error"
    },
    {
      "inputs": [],
      "name": "ReentrancyGuardReentrantCall",
      "type": "error"
    },
    {
      "anonymous": false,
      "inputs": [
        {
          "indexed": true,
          "internalType": "uint256",
          "name": "proposalId",
          "type": "uint256"
        },
        {
          "indexed": false,
          "internalType": "uint256",
          "name": "milestoneIndex",
          "type": "uint256"
        },
        {
          "indexed": false,
          "internalType": "uint256",
          "name": "amount",
          "type": "uint256"
        }
      ],
      "name": "MilestoneReleased",
      "type": "event"
    },
    {
      "anonymous": false,
      "inputs": [
        {
          "indexed": true,
          "internalType": "address",
          "name": "previousOwner",
          "type": "address"
        },
        {
          "indexed": true,
          "internalType": "address",
          "name": "newOwner",
          "type": "address"
        }
      ],
      "name": "OwnershipTransferred",
      "type": "event"
    },
    {
      "anonymous": false,
      "inputs": [
        {
          "indexed": true,
          "internalType": "address",
          "name": "user",
          "type": "address"
        },
        {
          "indexed": false,
          "internalType": "uint256",
          "name": "newScore",
          "type": "uint256"
        }
      ],
      "name": "ParticipationScoreUpdated",
      "type": "event"
    },
    {
      "anonymous": false,
      "inputs": [
        {
          "indexed": false,
          "internalType": "uint256",
          "name": "id",
          "type": "uint256"
        },
        {
          "indexed": false,
          "internalType": "address",
          "name": "proposer",
          "type": "address"
        },
        {
          "indexed": false,
          "internalType": "enum RayanChainDAO.ProposalType",
          "name": "pType",
          "type": "uint8"
        },
        {
          "indexed": false,
          "internalType": "bytes32",
          "name": "descriptionHash",
          "type": "bytes32"
        }
      ],
      "name": "ProposalCreated",
      "type": "event"
    },
    {
      "anonymous": false,
      "inputs": [
        {
          "indexed": false,
          "internalType": "uint256",
          "name": "id",
          "type": "uint256"
        }
      ],
      "name": "ProposalExecuted",
      "type": "event"
    },
    {
      "anonymous": false,
      "inputs": [
        {
          "indexed": false,
          "internalType": "uint256",
          "name": "id",
          "type": "uint256"
        },
        {
          "indexed": false,
          "internalType": "enum RayanChainDAO.ProposalState",
          "name": "newState",
          "type": "uint8"
        }
      ],
      "name": "ProposalStateChanged",
      "type": "event"
    },
    {
      "anonymous": false,
      "inputs": [
        {
          "indexed": false,
          "internalType": "uint256",
          "name": "proposalId",
          "type": "uint256"
        },
        {
          "indexed": false,
          "internalType": "address",
          "name": "voter",
          "type": "address"
        },
        {
          "indexed": false,
          "internalType": "enum RayanChainDAO.VoteType",
          "name": "vote",
          "type": "uint8"
        },
        {
          "indexed": false,
          "internalType": "uint256",
          "name": "weight",
          "type": "uint256"
        }
      ],
      "name": "Voted",
      "type": "event"
    },
    {
      "inputs": [],
      "name": "MAX_RISK_SCORE",
      "outputs": [
        {
          "internalType": "uint256",
          "name": "",
          "type": "uint256"
        }
      ],
      "stateMutability": "view",
      "type": "function"
    },
    {
      "inputs": [],
      "name": "accControl",
      "outputs": [
        {
          "internalType": "contract AccControl",
          "name": "",
          "type": "address"
        }
      ],
      "stateMutability": "view",
      "type": "function"
    },
    {
      "inputs": [],
      "name": "approvalThresholdPercentage",
      "outputs": [
        {
          "internalType": "uint256",
          "name": "",
          "type": "uint256"
        }
      ],
      "stateMutability": "view",
      "type": "function"
    },
    {
      "inputs": [
        {
          "internalType": "bytes32",
          "name": "_descriptionHash",
          "type": "bytes32"
        },
        {
          "internalType": "address payable",
          "name": "_recipient",
          "type": "address"
        },
        {
          "internalType": "uint256[]",
          "name": "_milestoneAmounts",
          "type": "uint256[]"
        }
      ],
      "name": "createFundingProposal",
      "outputs": [],
      "stateMutability": "nonpayable",
      "type": "function"
    },
    {
      "inputs": [
        {
          "internalType": "bytes32",
          "name": "_descriptionHash",
          "type": "bytes32"
        },
        {
          "internalType": "address payable",
          "name": "_recipient",
          "type": "address"
        },
        {
          "internalType": "uint256",
          "name": "_amount",
          "type": "uint256"
        },
        {
          "internalType": "enum RayanChainDAO.TokenType",
          "name": "_tokenType",
          "type": "uint8"
        }
      ],
      "name": "createTreasuryActionProposal",
      "outputs": [],
      "stateMutability": "nonpayable",
      "type": "function"
    },
    {
      "inputs": [
        {
          "internalType": "uint256",
          "name": "_proposalId",
          "type": "uint256"
        }
      ],
      "name": "executeProposal",
      "outputs": [],
      "stateMutability": "nonpayable",
      "type": "function"
    },
    {
      "inputs": [],
      "name": "financeContract",
      "outputs": [
        {
          "internalType": "contract IFinance",
          "name": "",
          "type": "address"
        }
      ],
      "stateMutability": "view",
      "type": "function"
    },
    {
      "inputs": [
        {
          "internalType": "uint256",
          "name": "",
          "type": "uint256"
        },
        {
          "internalType": "address",
          "name": "",
          "type": "address"
        }
      ],
      "name": "hasVoted",
      "outputs": [
        {
          "internalType": "bool",
          "name": "",
          "type": "bool"
        }
      ],
      "stateMutability": "view",
      "type": "function"
    },
    {
      "inputs": [],
      "name": "nextProposalId",
      "outputs": [
        {
          "internalType": "uint256",
          "name": "",
          "type": "uint256"
        }
      ],
      "stateMutability": "view",
      "type": "function"
    },
    {
      "inputs": [],
      "name": "owner",
      "outputs": [
        {
          "internalType": "address",
          "name": "",
          "type": "address"
        }
      ],
      "stateMutability": "view",
      "type": "function"
    },
    {
      "inputs": [
        {
          "internalType": "address",
          "name": "",
          "type": "address"
        }
      ],
      "name": "participationScores",
      "outputs": [
        {
          "internalType": "uint256",
          "name": "",
          "type": "uint256"
        }
      ],
      "stateMutability": "view",
      "type": "function"
    },
    {
      "inputs": [
        {
          "internalType": "uint256",
          "name": "",
          "type": "uint256"
        }
      ],
      "name": "proposals",
      "outputs": [
        {
          "internalType": "uint256",
          "name": "id",
          "type": "uint256"
        },
        {
          "internalType": "enum RayanChainDAO.ProposalType",
          "name": "pType",
          "type": "uint8"
        },
        {
          "internalType": "address",
          "name": "proposer",
          "type": "address"
        },
        {
          "internalType": "bytes32",
          "name": "descriptionHash",
          "type": "bytes32"
        },
        {
          "internalType": "address payable",
          "name": "recipient",
          "type": "address"
        },
        {
          "internalType": "uint256",
          "name": "amount",
          "type": "uint256"
        },
        {
          "internalType": "enum RayanChainDAO.TokenType",
          "name": "tokenType",
          "type": "uint8"
        },
        {
          "internalType": "uint256",
          "name": "creationTime",
          "type": "uint256"
        },
        {
          "internalType": "uint256",
          "name": "votingDeadline",
          "type": "uint256"
        },
        {
          "internalType": "uint256",
          "name": "forVotes",
          "type": "uint256"
        },
        {
          "internalType": "uint256",
          "name": "againstVotes",
          "type": "uint256"
        },
        {
          "internalType": "enum RayanChainDAO.ProposalState",
          "name": "state",
          "type": "uint8"
        },
        {
          "internalType": "bool",
          "name": "executed",
          "type": "bool"
        },
        {
          "internalType": "uint256",
          "name": "currentMilestoneIndex",
          "type": "uint256"
        },
        {
          "internalType": "uint256",
          "name": "aiRiskScore",
          "type": "uint256"
        },
        {
          "internalType": "uint256",
          "name": "requiredApprovalThreshold",
          "type": "uint256"
        }
      ],
      "stateMutability": "view",
      "type": "function"
    },
    {
      "inputs": [],
      "name": "quorumPercentage",
      "outputs": [
        {
          "internalType": "uint256",
          "name": "",
          "type": "uint256"
        }
      ],
      "stateMutability": "view",
      "type": "function"
    },
    {
      "inputs": [
        {
          "internalType": "uint256",
          "name": "_proposalId",
          "type": "uint256"
        },
        {
          "internalType": "bytes32",
          "name": "_proofHash",
          "type": "bytes32"
        }
      ],
      "name": "releaseNextMilestone",
      "outputs": [],
      "stateMutability": "nonpayable",
      "type": "function"
    },
    {
      "inputs": [],
      "name": "renounceOwnership",
      "outputs": [],
      "stateMutability": "nonpayable",
      "type": "function"
    },
    {
      "inputs": [],
      "name": "stakingContract",
      "outputs": [
        {
          "internalType": "contract IStaking",
          "name": "",
          "type": "address"
        }
      ],
      "stateMutability": "view",
      "type": "function"
    },
    {
      "inputs": [
        {
          "internalType": "uint256",
          "name": "_proposalId",
          "type": "uint256"
        }
      ],
      "name": "tallyVotes",
      "outputs": [],
      "stateMutability": "nonpayable",
      "type": "function"
    },
    {
      "inputs": [
        {
          "internalType": "address",
          "name": "newOwner",
          "type": "address"
        }
      ],
      "name": "transferOwnership",
      "outputs": [],
      "stateMutability": "nonpayable",
      "type": "function"
    },
    {
      "inputs": [
        {
          "internalType": "address",
          "name": "_user",
          "type": "address"
        },
        {
          "internalType": "uint256",
          "name": "_score",
          "type": "uint256"
        }
      ],
      "name": "updateParticipationScore",
      "outputs": [],
      "stateMutability": "nonpayable",
      "type": "function"
    },
    {
      "inputs": [
        {
          "internalType": "uint256",
          "name": "_proposalId",
          "type": "uint256"
        },
        {
          "internalType": "uint256",
          "name": "_riskScore",
          "type": "uint256"
        }
      ],
      "name": "updateProposalRiskScore",
      "outputs": [],
      "stateMutability": "nonpayable",
      "type": "function"
    },
    {
      "inputs": [
        {
          "internalType": "uint256",
          "name": "_proposalId",
          "type": "uint256"
        },
        {
          "internalType": "enum RayanChainDAO.VoteType",
          "name": "_voteType",
          "type": "uint8"
        }
      ],
      "name": "vote",
      "outputs": [],
      "stateMutability": "nonpayable",
      "type": "function"
    },
    {
      "inputs": [],
      "name": "votingPeriod",
      "outputs": [
        {
          "internalType": "uint256",
          "name": "",
          "type": "uint256"
        }
      ],
      "stateMutability": "view",
      "type": "function"
    }
  ],
  "bytecode": "0x6080346200012e57601f62001d8c38819003918201601f19168301916001600160401b03831184841017620001335780849260c0946040528339810103126200012e576200004d8162000149565b906200005c6020820162000149565b906200006b6040820162000149565b9260608201519060a060808401519301519333156200011557600080546001600160a01b03198082163390811784556040519991956001600160a01b039592948694859391908416907f8be0079c531659141344cd1fd0a4f28419497f9722a3daafe3b4186f6b6457e09080a360018055168560025416176002551683600354161760035516906004541617600455600955600a55600b556001600655611c2d90816200015f8239f35b604051631e4fbdf760e01b815260006004820152602490fd5b600080fd5b634e487b7160e01b600052604160045260246000fd5b51906001600160a01b03821682036200012e5756fe6080604052600436101561001257600080fd5b6000803560e01c8063013cf08b1461166957806302a251a31461164b5780630d61b5191461124f57806322005a92146111325780632ab09d1414611114578063345c3537146110eb57806338add68d146110b2578063438596321461106657806345f191311461104a5780634d318b0e1461102a5780634f23c04c1461100c5780634fa76ec914610fee5780635f95bfa014610cc0578063715018a614610c665780638158a502146108245780638da5cb5b146107fd578063943e821614610553578063bb1345c914610423578063c62a441f146101ee578063d3396149146101c5578063ee99205c1461019c5763f2fde38b1461010f57600080fd5b34610199576020366003190112610199576101286117a4565b610130611bab565b6001600160a01b0390811690811561018057600054826001600160601b0360a01b821617600055167f8be0079c531659141344cd1fd0a4f28419497f9722a3daafe3b4186f6b6457e0600080a380f35b604051631e4fbdf760e01b815260048101849052602490fd5b80fd5b50346101995780600319360112610199576003546040516001600160a01b039091168152602090f35b50346101995780600319360112610199576004546040516001600160a01b039091168152602090f35b50346101995760803660031901126101995760043561020b6117ba565b9060643591600283101561041f5760025460405163a217fddf60e01b8152906020906001600160a01b0390879082168385600481845afa9485156104145782956103dc575b50604051632474521560e21b815260048101959095523360248601528390859060449082905afa9586156103cf57600080516020611bd8833981519152976002600a7fcc914becfa276bbc067049bf8db2d34ebbdc1bafa851e4d4936aaed376c08dbe956102cb60409b849a608098916103a2575b50611873565b6102d6851515611b3c565b600654996102e38b611b2d565b6006558a600052600589528b600020918b835560018301600181546101008260a81b033360081b16906affffffffffffffffffffff60a81b161717905586858401556003830191166001600160601b0360a01b82541617905560443560048201556005810161035185611784565b60ff199460ff86835416911617905542600682015561037260095442611838565b6007820155019182541617905586519086825233858301526001888301526060820152a18351928352820152a180f35b6103c291508a3d8c116103c8575b6103ba81836117e4565b81019061185b565b386102c5565b503d6103b0565b50604051903d90823e3d90fd5b945090508284813d811161040d575b6103f581836117e4565b8101031261040857925192879083610250565b600080fd5b503d6103eb565b6040513d84823e3d90fd5b8380fd5b50346101995760403660031901126101995761043d6117a4565b60025460405163c601f7af60e01b8152602435926001600160a01b03928316926020929091908381600481885afa908115610548578791610519575b50604051632474521560e21b8152600481019190915233602482015293839085908180604481015b03915afa93841561050e577fbce4be9b5e0540fc5c565cd30c59b6465d9eb0550f7a36a89128eeb8271b6c72946104de9188916104f75750611873565b169283855260088252806040862055604051908152a280f35b6103c29150853d87116103c8576103ba81836117e4565b6040513d88823e3d90fd5b90508381813d8311610541575b61053081836117e4565b8101031261040857516104a1610479565b503d610526565b6040513d89823e3d90fd5b50346101995760403660031901126101995760043560248035600281101561041f5761057d611b88565b828452602060058152604085209260ff600a8501541660088110156107ea5760026105a891146118ca565b600784015442116107a757848652600782526040862033600052825260ff60406000205416610774576003546040516326d352ab60e11b8152336004820152919083908390839082906001600160a01b03165afa918215610548578792610745575b50811561070257338752600883526040872054606401806064116106ef57808302928304036106db5750916080939160647f2635c84c3a8027a303ca6d6e90b1c4a9604754040372414d244aadfa647175189694049284885260078252604088203360005282526040600020600160ff1982541617905561068a83611784565b826106c65760080161069d848254611838565b90555b60405193845233908401526106b481611784565b60408301526060820152a16001805580f35b6009016106d4848254611838565b90556106a0565b634e487b7160e01b60009081526011600452fd5b50634e487b7160e01b8752601160045286fd5b82601f6064926040519262461bcd60e51b845260048401528201527f4d7573742068617665207374616b656420746f6b656e7320746f20766f7465006044820152fd5b9091508281813d831161076d575b61075d81836117e4565b810103126104085751903861060a565b503d610753565b90600d6064926040519262461bcd60e51b845260048401528201526c105b1c9958591e481d9bdd1959609a1b6044820152fd5b9060176064926040519262461bcd60e51b845260048401528201527f566f74696e6720706572696f642068617320656e6465640000000000000000006044820152fd5b50634e487b7160e01b8652602160045285fd5b5034610199578060031936011261019957546040516001600160a01b039091168152602090f35b50346101995760603660031901126101995761083e6117ba565b60443567ffffffffffffffff8111610c625736602382011215610c625780600401359067ffffffffffffffff8211610c4e578160051b6040519261088560208301856117e4565b83526024602084019183010191368311610c4a57602401905b828210610c3a5750506002546040516313aa1d4d60e11b81526001600160a01b039091169150602081600481855afa908115610c2f578591610bfb575b50604051632474521560e21b815260048101919091523360248201529060209082908180604481015b03915afa8015610bf05761091e918591610bd75750611873565b805115610b87576109326004351515611b3c565b600a6006549261094184611b2d565b6006558360005260056020526040600020908482556001820154610100600160a81b033360081b16906affffffffffffffffffffff60a81b161760018301556004356002830155600382019060018060a01b03166001600160601b0360a01b82541617905560006004820155600160ff196005830154161760058201554260068201556109d060095442611838565b600782015501600260ff198254161790557fcc914becfa276bbc067049bf8db2d34ebbdc1bafa851e4d4936aaed376c08dbe6080604051848152336020820152600060408201526004356060820152a1600080516020611bd88339815191526040805184815260026020820152a1825b8151811015610b83578284526005602052600b60408520018251821015610b6f5760208260051b84010151906040519182608081011067ffffffffffffffff608085011117610b595760808301604052825285602083015285604083015285606083015280549068010000000000000000821015610b455790610ac891600182018155611806565b610b3157815181556020820151906008821015610b1d579060606003600195949360ff19878201541660ff8095161787820155604085015160028201550192015115159060ff19835416911617905501610a40565b634e487b7160e01b87526021600452602487fd5b634e487b7160e01b86526004869052602486fd5b634e487b7160e01b87526041600452602487fd5b634e487b7160e01b600052604160045260246000fd5b634e487b7160e01b85526032600452602485fd5b8380f35b60405162461bcd60e51b815260206004820152602260248201527f4174206c65617374206f6e65206d696c6573746f6e6520697320726571756972604482015261195960f21b6064820152608490fd5b6103c2915060203d6020116103c8576103ba81836117e4565b6040513d86823e3d90fd5b90506020813d602011610c27575b81610c16602093836117e4565b8101031261040857516109046108db565b3d9150610c09565b6040513d87823e3d90fd5b813581526020918201910161089e565b8580fd5b634e487b7160e01b84526041600452602484fd5b8280fd5b5034610199578060031936011261019957610c7f611bab565b600080546001600160a01b0319811682556001600160a01b03167f8be0079c531659141344cd1fd0a4f28419497f9722a3daafe3b4186f6b6457e08280a380f35b5034610199576040366003190112610199576004356024803590610ce2611b88565b60025460405163a217fddf60e01b81526001600160a01b039491602091908616908281600481855afa8015610fe35783918991610fb2575b50604051632474521560e21b815260048101919091523360248201529182908180604481015b03915afa801561054857610d5a918891610f9b5750611873565b81865260058152604086209260ff600185015416610d7781611784565b610f5f5760ff600a850154166008811015610f4c57600503610efa57600c840195600b875495019485541115610eb6578515610e72579087916004541690813b15610c625782918291604051809481936331c57b1f60e11b83528960048401525af1801561041457610e5e575b505060407fd33fcd27cbfb73a2d9058c968b560ccb306500bf536133802048489ecc7355e991610e55956002610e1b895488611806565b5001556003610e2b885487611806565b5001600160ff19825416179055610e4487548096611806565b5054825191868352820152a2611b2d565b90556001805580f35b610e67906117d0565b610c4a578538610de4565b60405162461bcd60e51b8152600481018490526019818401527f50726f6f6620686173682063616e6e6f74206265207a65726f000000000000006044820152606490fd5b60405162461bcd60e51b815260048101849052601f818401527f416c6c206d696c6573746f6e657320616c72656164792072656c6561736564006044820152606490fd5b9060266084926040519262461bcd60e51b845260048401528201527f50726f706f73616c20776173206e6f7420617070726f76656420616e642065786044820152651958dd5d195960d21b6064820152fd5b50634e487b7160e01b8752602160045286fd5b9060166064926040519262461bcd60e51b8452600484015282015275139bdd081848199d5b991a5b99c81c1c9bdc1bdcd85b60521b6044820152fd5b6103c29150833d85116103c8576103ba81836117e4565b82819392503d8311610fdc575b610fc981836117e4565b8101031261040857518290610d40610d1a565b503d610fbf565b6040513d8a823e3d90fd5b50346101995780600319360112610199576020600a54604051908152f35b50346101995780600319360112610199576020600b54604051908152f35b503461019957602036600319011261019957611047600435611936565b80f35b50346101995780600319360112610199576020604051604b8152f35b50346101995760403660031901126101995760406110826117ba565b9160043581526007602052209060018060a01b0316600052602052602060ff604060002054166040519015158152f35b5034610199576020366003190112610199576020906040906001600160a01b036110da6117a4565b168152600883522054604051908152f35b50346101995780600319360112610199576002546040516001600160a01b039091168152602090f35b50346101995780600319360112610199576020600654604051908152f35b50346101995760403660031901126101995760025460405163c601f7af60e01b8152602435916020916001600160a01b03909116908281600481855afa8015610c2f578391869161121e575b50604051632474521560e21b815260048101919091523360248201529182908180604481015b03915afa8015610bf0576111be918591610f9b5750611873565b606482116111da57600590600435845252600d60408320015580f35b6064906040519062461bcd60e51b82526004820152601c60248201527f5269736b2073636f72652063616e6e6f742065786365656420313030000000006044820152fd5b82819392503d8311611248575b61123581836117e4565b81010312610408575182906111a461117e565b503d61122b565b503461019957602080600319360112611647576004359061126e611b88565b8183526005815260408320600a810160ff90818154166008811015610b1d576002148061163a575b61162c575b80548281166008811015611618576003036115d357828160081c1661158e57604b600d85015411611549576101059061ffff191617905560019185826001830154166112e681611784565b806113e95750929190839084600b8201948554955b8683106113bd5750505060018060a01b036003816004541692015416813b15610c4a578560849281956040519788968795630a7932b160e21b87528d6004880152602487015260448601521660648401525af18015610414576113a9575b5050600080516020611bd88339815191529160056040925b7f712ae1383f79ac853f8d882153778e0260ef8f03b504e2866e0593e04d2b291f818551858152a18351928352820152a16001805580f35b6113b2906117d0565b610c62578238611359565b91949596506113da8193946113d28785611806565b505490611838565b940190918996959493926112fb565b60019194506113fa81949394611784565b1461141d575b505050600080516020611bd8833981519152916005604092611371565b60058201541661142c81611784565b6114b35760018060a01b039060048281541692600383015416910154823b1561041f576044849283604051958694859363f3fef3a360e01b8552600485015260248401525af180156104145761149f575b5050600080516020611bd88339815191529160056040925b9285929450611400565b6114a8906117d0565b610c6257823861147d565b60048054600383015491909201546001600160a01b039283169392909116833b15610c62576044908360405195869485936306b091f960e01b8552600485015260248401525af18015610bf057611520575b50600080516020611bd8833981519152916005604092611495565b9160056040929461153f600080516020611bd8833981519152956117d0565b9492505091611505565b60405162461bcd60e51b815260048101869052601960248201527f4149207269736b2073636f726520697320746f6f2068696768000000000000006044820152606490fd5b60405162461bcd60e51b815260048101869052601960248201527f50726f706f73616c20616c7265616479206578656375746564000000000000006044820152606490fd5b60405162461bcd60e51b815260048101869052601860248201527f50726f706f73616c206973206e6f7420617070726f76656400000000000000006044820152606490fd5b634e487b7160e01b88526021600452602488fd5b61163585611936565b61129b565b5060078301544211611296565b5080fd5b50346101995780600319360112610199576020600954604051908152f35b50346101995760203660031901126101995760043581526005602052604081208080805493816001810154600282015460018060a01b03600384015416600484015460ff60058601541690600686015492600787015494600888015496600e600d600c600a60098d01549c01549d01549d01549d01549d6080526116ef60ff8216611784565b60ff811660a05260081c6001600160a01b031660c05260e052610100526101205261171981611784565b6101405261016052610180526101a0526101c052600860ff8316101561177057508060ff8092166101606080015260081c161515610180608001526101a0608001526101c0608001526101e0608001526102006080f35b634e487b7160e01b81526021600452602490fd5b6002111561178e57565b634e487b7160e01b600052602160045260246000fd5b600435906001600160a01b038216820361040857565b602435906001600160a01b038216820361040857565b67ffffffffffffffff8111610b5957604052565b90601f8019910116810190811067ffffffffffffffff821117610b5957604052565b80548210156118225760005260206000209060021b0190600090565b634e487b7160e01b600052603260045260246000fd5b9190820180921161184557565b634e487b7160e01b600052601160045260246000fd5b90816020910312610408575180151581036104085790565b1561187a57565b60405162461bcd60e51b815260206004820152602260248201527f43616c6c657220646f6573206e6f74206861766520726571756972656420726f6044820152616c6560f01b6064820152608490fd5b156118d157565b60405162461bcd60e51b815260206004820152601c60248201527f50726f706f73616c206e6f7420696e20766f74696e67207374617465000000006044820152606490fd5b8115611920570490565b634e487b7160e01b600052601260045260246000fd5b90600082815260209260058452604091828120600a81019081549260ff84166008811015611b1957600261196a91146118ca565b6007820154421115611ad55760035486516318160ddd60e01b815298600495909493929185908b90889082906001600160a01b03165afa998a15611acb57829a611a9c575b506119c36009600885015494015484611838565b9960648b028b81046064148c151715611a8957906119e091611916565b600a5411611a605750606482029180830460641490151715611a4d5750600080516020611bd88339815191529697611a1791611916565b600b5411611a3857600380935060ff198254161790558351928352820152a1565b805460ff1916831790558351928352820152a1565b634e487b7160e01b815260118552602490fd5b60ff1916851790925550508351928352820152919250600080516020611bd883398151915291a1565b634e487b7160e01b845260118852602484fd5b9099508481813d8311611ac4575b611ab481836117e4565b81010312611647575198386119af565b503d611aaa565b88513d84823e3d90fd5b855162461bcd60e51b815260048101899052601b60248201527f566f74696e6720706572696f64206e6f742079657420656e64656400000000006044820152606490fd5b634e487b7160e01b82526021600452602482fd5b60001981146118455760010190565b15611b4357565b60405162461bcd60e51b815260206004820152601f60248201527f4465736372697074696f6e20686173682063616e6e6f74206265207a65726f006044820152606490fd5b600260015414611b99576002600155565b604051633ee5aeb560e01b8152600490fd5b6000546001600160a01b03163303611bbf57565b60405163118cdaa760e01b8152336004820152602490fdfed6b3a81dd8b7dc419d8d0f20797397ea2eaba914386b89898aa638438803a1eca26469706673582212207e2091989f5570cb3470a1cfe21db48eac764a240a80737ff0dce4d7049bedf764736f6c63430008180033",
  "linkReferences": {},
  "deployedLinkReferences": {}
}