{
  "_format": "hh-sol-artifact-1",
  "contractName": "Finance",
  "sourceName": "src/contracts/Finance.sol",
  "abi": [
    {
      "inputs": [
        {
          "internalType": "address",
          "name": "_initialOwner",
          "type": "address"
        },
        {
          "internalType": "address",
          "name": "_tokenAddress",
          "type": "address"
        },
        {
          "internalType": "uint256",
          "name": "_platformFeeBps",
          "type": "uint256"
        }
      ],
      "stateMutability": "nonpayable",
      "type": "constructor"
    },
    {
      "inputs": [
        {
          "internalType": "address",
          "name": "owner",
          "type": "address"
        }
      ],
      "name": "OwnableInvalidOwner",
      "type": "error"
    },
    {
      "inputs": [
        {
          "internalType": "address",
          "name": "account",
          "type": "address"
        }
      ],
      "name": "OwnableUnauthorizedAccount",
      "type": "error"
    },
    {
      "inputs": [],
      "name": "ReentrancyGuardReentrantCall",
      "type": "error"
    },
    {
      "anonymous": false,
      "inputs": [
        {
          "indexed": true,
          "internalType": "address",
          "name": "newDaoAddress",
          "type": "address"
        }
      ],
      "name": "DaoAddressSet",
      "type": "event"
    },
    {
      "anonymous": false,
      "inputs": [
        {
          "indexed": true,
          "internalType": "address",
          "name": "from",
          "type": "address"
        },
        {
          "indexed": false,
          "internalType": "uint256",
          "name": "amount",
          "type": "uint256"
        }
      ],
      "name": "FundsDeposited",
      "type": "event"
    },
    {
      "anonymous": false,
      "inputs": [
        {
          "indexed": true,
          "internalType": "address",
          "name": "recipient",
          "type": "address"
        },
        {
          "indexed": false,
          "internalType": "uint256",
          "name": "amount",
          "type": "uint256"
        }
      ],
      "name": "FundsReleased",
      "type": "event"
    },
    {
      "anonymous": false,
      "inputs": [
        {
          "indexed": true,
          "internalType": "uint256",
          "name": "proposalId",
          "type": "uint256"
        }
      ],
      "name": "InvestmentCancelled",
      "type": "event"
    },
    {
      "anonymous": false,
      "inputs": [
        {
          "indexed": true,
          "internalType": "uint256",
          "name": "proposalId",
          "type": "uint256"
        },
        {
          "indexed": true,
          "internalType": "address",
          "name": "recipient",
          "type": "address"
        },
        {
          "indexed": false,
          "internalType": "uint256",
          "name": "totalAmount",
          "type": "uint256"
        },
        {
          "indexed": false,
          "internalType": "uint8",
          "name": "milestoneCount",
          "type": "uint8"
        }
      ],
      "name": "InvestmentRegistered",
      "type": "event"
    },
    {
      "anonymous": false,
      "inputs": [
        {
          "indexed": true,
          "internalType": "uint256",
          "name": "proposalId",
          "type": "uint256"
        },
        {
          "indexed": false,
          "internalType": "uint256",
          "name": "amount",
          "type": "uint256"
        },
        {
          "indexed": false,
          "internalType": "uint8",
          "name": "milestoneNumber",
          "type": "uint8"
        }
      ],
      "name": "MilestoneReleased",
      "type": "event"
    },
    {
      "anonymous": false,
      "inputs": [
        {
          "indexed": true,
          "internalType": "address",
          "name": "to",
          "type": "address"
        },
        {
          "indexed": false,
          "internalType": "uint256",
          "name": "amount",
          "type": "uint256"
        }
      ],
      "name": "NativeFundsWithdrawn",
      "type": "event"
    },
    {
      "anonymous": false,
      "inputs": [
        {
          "indexed": true,
          "internalType": "address",
          "name": "previousOwner",
          "type": "address"
        },
        {
          "indexed": true,
          "internalType": "address",
          "name": "newOwner",
          "type": "address"
        }
      ],
      "name": "OwnershipTransferred",
      "type": "event"
    },
    {
      "anonymous": false,
      "inputs": [
        {
          "indexed": true,
          "internalType": "uint256",
          "name": "proposalId",
          "type": "uint256"
        },
        {
          "indexed": false,
          "internalType": "uint256",
          "name": "feeAmount",
          "type": "uint256"
        }
      ],
      "name": "PlatformFeeTaken",
      "type": "event"
    },
    {
      "anonymous": false,
      "inputs": [
        {
          "indexed": true,
          "internalType": "address",
          "name": "to",
          "type": "address"
        },
        {
          "indexed": false,
          "internalType": "uint256",
          "name": "amount",
          "type": "uint256"
        }
      ],
      "name": "TokenFundsWithdrawn",
      "type": "event"
    },
    {
      "inputs": [],
      "name": "daoAddress",
      "outputs": [
        {
          "internalType": "address",
          "name": "",
          "type": "address"
        }
      ],
      "stateMutability": "view",
      "type": "function"
    },
    {
      "inputs": [
        {
          "internalType": "uint256",
          "name": "",
          "type": "uint256"
        }
      ],
      "name": "investments",
      "outputs": [
        {
          "internalType": "address",
          "name": "recipient",
          "type": "address"
        },
        {
          "internalType": "uint256",
          "name": "totalAmount",
          "type": "uint256"
        },
        {
          "internalType": "uint256",
          "name": "releasedAmount",
          "type": "uint256"
        },
        {
          "internalType": "uint8",
          "name": "milestoneCount",
          "type": "uint8"
        },
        {
          "internalType": "uint8",
          "name": "currentMilestone",
          "type": "uint8"
        },
        {
          "internalType": "bool",
          "name": "isActive",
          "type": "bool"
        }
      ],
      "stateMutability": "view",
      "type": "function"
    },
    {
      "inputs": [],
      "name": "owner",
      "outputs": [
        {
          "internalType": "address",
          "name": "",
          "type": "address"
        }
      ],
      "stateMutability": "view",
      "type": "function"
    },
    {
      "inputs": [],
      "name": "platformFeeBps",
      "outputs": [
        {
          "internalType": "uint256",
          "name": "",
          "type": "uint256"
        }
      ],
      "stateMutability": "view",
      "type": "function"
    },
    {
      "inputs": [
        {
          "internalType": "uint256",
          "name": "_proposalId",
          "type": "uint256"
        },
        {
          "internalType": "address",
          "name": "_recipient",
          "type": "address"
        },
        {
          "internalType": "uint256",
          "name": "_totalAmount",
          "type": "uint256"
        },
        {
          "internalType": "uint8",
          "name": "_milestoneCount",
          "type": "uint8"
        }
      ],
      "name": "registerInvestment",
      "outputs": [],
      "stateMutability": "nonpayable",
      "type": "function"
    },
    {
      "inputs": [
        {
          "internalType": "address payable",
          "name": "",
          "type": "address"
        },
        {
          "internalType": "uint256",
          "name": "",
          "type": "uint256"
        }
      ],
      "name": "releaseFunds",
      "outputs": [],
      "stateMutability": "view",
      "type": "function"
    },
    {
      "inputs": [
        {
          "internalType": "uint256",
          "name": "_proposalId",
          "type": "uint256"
        }
      ],
      "name": "releaseNextMilestone",
      "outputs": [],
      "stateMutability": "nonpayable",
      "type": "function"
    },
    {
      "inputs": [],
      "name": "renounceOwnership",
      "outputs": [],
      "stateMutability": "nonpayable",
      "type": "function"
    },
    {
      "inputs": [
        {
          "internalType": "address",
          "name": "_daoAddress",
          "type": "address"
        }
      ],
      "name": "setDaoAddress",
      "outputs": [],
      "stateMutability": "nonpayable",
      "type": "function"
    },
    {
      "inputs": [],
      "name": "token",
      "outputs": [
        {
          "internalType": "contract IERC20",
          "name": "",
          "type": "address"
        }
      ],
      "stateMutability": "view",
      "type": "function"
    },
    {
      "inputs": [
        {
          "internalType": "address",
          "name": "newOwner",
          "type": "address"
        }
      ],
      "name": "transferOwnership",
      "outputs": [],
      "stateMutability": "nonpayable",
      "type": "function"
    },
    {
      "inputs": [
        {
          "internalType": "address payable",
          "name": "to",
          "type": "address"
        },
        {
          "internalType": "uint256",
          "name": "amount",
          "type": "uint256"
        }
      ],
      "name": "withdraw",
      "outputs": [],
      "stateMutability": "nonpayable",
      "type": "function"
    },
    {
      "inputs": [
        {
          "internalType": "address",
          "name": "to",
          "type": "address"
        },
        {
          "internalType": "uint256",
          "name": "amount",
          "type": "uint256"
        }
      ],
      "name": "withdrawTokens",
      "outputs": [],
      "stateMutability": "nonpayable",
      "type": "function"
    },
    {
      "stateMutability": "payable",
      "type": "receive"
    }
  ],
  "bytecode": "0x60a03461018557601f61116838819003918201601f191683019291906001600160401b0384118385101761018a5781606092849260409687528339810103126101855761004b816101a0565b82610058602084016101a0565b920151916001600160a01b03918216801561016d57600080546001600160a01b03198116831782558416907f8be0079c531659141344cd1fd0a4f28419497f9722a3daafe3b4186f6b6457e09080a360018055168015610129576103e882116100e55760805260035551610fb390816101b58239608051818181610169015281816105fc0152610ce70152f35b825162461bcd60e51b815260206004820152601560248201527f4665652063616e6e6f74206578636565642031302500000000000000000000006044820152606490fd5b825162461bcd60e51b815260206004820152601c60248201527f546f6b656e2063616e6e6f74206265207a65726f2061646472657373000000006044820152606490fd5b8451631e4fbdf760e01b815260006004820152602490fd5b600080fd5b634e487b7160e01b600052604160045260246000fd5b51906001600160a01b03821682036101855756fe604060808152600480361015610048575b50361561001c57600080fd5b513481527f543ba50a5eec5e6178218e364b1d0f396157b3c8fa278522c2cb7fd99407d47460203392a2005b90600091823560e01c806306b091f914610c975780632131c68c14610c6e57806322dcd13e14610c4f57806329e4cac41461098d578063638af63e14610559578063715018a6146104ff5780638da5cb5b146104d75780639a3cac6a1461041b578063d6e982e514610385578063f2fde38b146102ff578063f3fef3a31461019c578063fc0c546a146101545763fd345c8a146100e6575090610010565b34610150576020366003190112610150578160c0938260ff93358252602052209160018060a01b03835416926001810154916003600283015492015492815195865260208601528401528181166060840152818160081c16608084015260101c16151560a0820152f35b8280fd5b505034610198578160031936011261019857517f00000000000000000000000000000000000000000000000000000000000000006001600160a01b03168152602090f35b5080fd5b509034610150576101ac36610eb8565b91906101b6610f2e565b6101be610f5a565b8247106102b0576001600160a01b0316928480808086885af13d156102ab573d67ffffffffffffffff811161029857835190610204601f8201601f191660200183610ede565b81528660203d92013e5b1561024557507fd50b71a2790ecccf5881141fe9ae079e17c66aace5d50ba383d443ecd398ffa59160209151908152a26001805580f35b6020608492519162461bcd60e51b8352820152602860248201527f46696e616e63653a204e61746976652063757272656e6379207472616e7366656044820152671c8819985a5b195960c21b6064820152fd5b634e487b7160e01b875260418352602487fd5b61020e565b815162461bcd60e51b81526020818601526024808201527f46696e616e63653a20496e73756666696369656e74206e61746976652062616c604482015263616e636560e01b6064820152608490fd5b503461015057602036600319011261015057610319610e9d565b90610322610f2e565b6001600160a01b0391821692831561036f57505082546001600160a01b0319811683178455167f8be0079c531659141344cd1fd0a4f28419497f9722a3daafe3b4186f6b6457e08380a380f35b51631e4fbdf760e01b8152908101849052602490fd5b5082346104185750602060a49261039b36610eb8565b50506103a5610f2e565b5162461bcd60e51b815291820152604760248201527f46696e616e63653a20546869732066756e6374696f6e2069732064657072656360448201527f617465642e205573652072656c656173654e6578744d696c6573746f6e6520696064820152663739ba32b0b21760c91b6084820152fd5b80fd5b503461015057602036600319011261015057610435610e9d565b61043d610f2e565b6001600160a01b0316918215610488575050600280546001600160a01b031916821790557ff1034ad6b4d45dc33a4142b9c51c2b7f89bf4a410696e426cc0f3224869e0aca8280a280f35b906020608492519162461bcd60e51b8352820152602360248201527f46696e616e63653a2044414f20616464726573732063616e6e6f74206265207a60448201526265726f60e81b6064820152fd5b505034610198578160031936011261019857905490516001600160a01b039091168152602090f35b8334610418578060031936011261041857610518610f2e565b80546001600160a01b03198116825581906001600160a01b03167f8be0079c531659141344cd1fd0a4f28419497f9722a3daafe3b4186f6b6457e08280a380f35b5091903461019857602090816003193601126101505783359161057a610f5a565b610582610f2e565b8284528481528184206003810180549160ff92838160101c161561094a578381169060081c84168111156108fd57600182015481156108ea5704906003548083029083820414831517156108d757612710900494858303958387116108c45787516370a0823160e01b8152308c8201526001600160a01b037f000000000000000000000000000000000000000000000000000000000000000081169290918481602481875afa9081156108ba579087918e91610885575b501061082b57610689928d8d86948e8e878f97806107fb575b50505050885416918d519687958694859363a9059cbb60e01b8552840160209093929193604081019460018060a01b031681520152565b03925af19081156107f1578a916107c4575b501561076e5750600201805491820180921161075b575581815460081c1682811461074857815461ff001916600190910160081b61ff00161781557f39f915d515e1ad5b9681b432c41d1a92bddd82df2fbb529c8b424bde672607ec939291610730918054828116838260081c161461073a575b505460081c1692519283928390929160ff6020916040840195845216910152565b0390a26001805580f35b62ff0000191681558861070f565b634e487b7160e01b875260118852602487fd5b634e487b7160e01b885260118952602488fd5b8960849188519162461bcd60e51b8352820152602b60248201527f46696e616e63653a20546f6b656e207472616e7366657220746f20726563697060448201526a1a595b9d0819985a5b195960aa1b6064820152fd5b6107e49150823d84116107ea575b6107dc8183610ede565b810190610f16565b3861069b565b503d6107d2565b88513d8c823e3d90fd5b7f88b2acb95aa96593aaef36316ea22270c9bf94cf087ca55246c0dc22c5a5199e9251908152a28e8e8738610652565b895162461bcd60e51b8152808e01859052602e60248201527f46696e616e63653a20496e73756666696369656e742066756e647320666f722060448201526d74686973206d696c6573746f6e6560901b6064820152608490fd5b809250868092503d83116108b3575b61089e8183610ede565b810103126108af5786905138610639565b8c80fd5b503d610894565b8b513d8f823e3d90fd5b634e487b7160e01b8a5260118b5260248afd5b634e487b7160e01b895260118a52602489fd5b634e487b7160e01b895260128a52602489fd5b855162461bcd60e51b8152808a01869052602160248201527f416c6c206d696c6573746f6e65732068617665206265656e2072656c656173656044820152601960fa1b6064820152608490fd5b855162461bcd60e51b8152808a01869052601860248201527f496e766573746d656e74206973206e6f742061637469766500000000000000006044820152606490fd5b50829034610198576080366003190112610198576001600160a01b03926024803585811693803593909291859003610c4b57604435916064359360ff851698898603610c47576109db610f2e565b8715610c06578415610bb5578915610b74578689528160205260ff6003858b20015460101c16610b1e5783519260c084019084821067ffffffffffffffff831117610b0d575060ff8881600388978e9f978e9f7f9965c2d68d7ba3300ad3d4b4549699d007476cb578988093b8c911c37e8bef519e9f988b8e9260019b610b079f9b610ad89c5286526020860193845281860194818652606087019d8e526080870199828b5260a088019d8e528252602052209351166bffffffffffffffffffffffff60a01b8454161783555160018301555160028201550195511682198654161785555116839061ff0082549160081b169061ff001916179055565b51815462ff0000191690151560101b62ff0000161790555191825260ff90921660208201529081906040820190565b0390a380f35b634e487b7160e01b8b52604184528afd5b50602b608492602085519362461bcd60e51b85528401528201527f496e766573746d656e7420666f7220746869732070726f706f73616c20616c7260448201526a656164792065786973747360a81b6064820152fd5b5060206064928185519362461bcd60e51b85528401528201527f4d7573742068617665206174206c65617374206f6e65206d696c6573746f6e656044820152fd5b506026608492602085519362461bcd60e51b85528401528201527f546f74616c20616d6f756e74206d7573742062652067726561746572207468616044820152656e207a65726f60d01b6064820152fd5b5060206064928185519362461bcd60e51b85528401528201527f526563697069656e742063616e6e6f74206265207a65726f20616464726573736044820152fd5b8880fd5b8580fd5b5050346101985781600319360112610198576020906003549051908152f35b50503461019857816003193601126101985760025490516001600160a01b039091168152602090f35b50829034610198578260031936011261019857610cb2610e9d565b9060243591610cbf610f2e565b610cc7610f5a565b84516370a0823160e01b815230818401526020926001600160a01b0392917f00000000000000000000000000000000000000000000000000000000000000008416908581602481855afa908115610e93579087918991610e5e575b5010610e1b57875163a9059cbb60e01b81526001600160a01b038416838201908152602081018890529091869183919082908b90829060400103925af1908115610e11578791610df4575b5015610da657507f1321d2e7f45f7db82b8674b3b205b2d394b8d5096118ff08373ec5394f2d24a1939495519485521692a26001805580f35b865162461bcd60e51b8152908101849052602260248201527f46696e616e63653a2052594320746f6b656e207472616e73666572206661696c604482015261195960f21b6064820152608490fd5b610e0b9150853d87116107ea576107dc8183610ede565b88610d6d565b88513d89823e3d90fd5b875162461bcd60e51b8152808301869052601f60248201527f46696e616e63653a20496e73756666696369656e74205259432066756e6473006044820152606490fd5b809250878092503d8311610e8c575b610e778183610ede565b81010312610e88578690518a610d22565b8780fd5b503d610e6d565b89513d8a823e3d90fd5b600435906001600160a01b0382168203610eb357565b600080fd5b6040906003190112610eb3576004356001600160a01b0381168103610eb3579060243590565b90601f8019910116810190811067ffffffffffffffff821117610f0057604052565b634e487b7160e01b600052604160045260246000fd5b90816020910312610eb357518015158103610eb35790565b6000546001600160a01b03163303610f4257565b60405163118cdaa760e01b8152336004820152602490fd5b600260015414610f6b576002600155565b604051633ee5aeb560e01b8152600490fdfea2646970667358221220347e01669381ff97f232ee2fd2fef03cc6881857c43db3541ec5443fa5158ffe64736f6c63430008180033",
  "linkReferences": {},
  "deployedLinkReferences": {}
}