{
  "_format": "hh-sol-artifact-1",
  "contractName": "DAORegistry",
  "sourceName": "src/contracts/DAORegistry.sol",
  "abi": [
    {
      "inputs": [
        {
          "internalType": "address",
          "name": "initialOwner",
          "type": "address"
        }
      ],
      "stateMutability": "nonpayable",
      "type": "constructor"
    },
    {
      "inputs": [
        {
          "internalType": "address",
          "name": "owner",
          "type": "address"
        }
      ],
      "name": "OwnableInvalidOwner",
      "type": "error"
    },
    {
      "inputs": [
        {
          "internalType": "address",
          "name": "account",
          "type": "address"
        }
      ],
      "name": "OwnableUnauthorizedAccount",
      "type": "error"
    },
    {
      "anonymous": false,
      "inputs": [
        {
          "indexed": true,
          "internalType": "bytes32",
          "name": "key",
          "type": "bytes32"
        },
        {
          "indexed": false,
          "internalType": "address",
          "name": "newAddress",
          "type": "address"
        }
      ],
      "name": "AddressSet",
      "type": "event"
    },
    {
      "anonymous": false,
      "inputs": [
        {
          "indexed": true,
          "internalType": "address",
          "name": "previousOwner",
          "type": "address"
        },
        {
          "indexed": true,
          "internalType": "address",
          "name": "newOwner",
          "type": "address"
        }
      ],
      "name": "OwnershipTransferred",
      "type": "event"
    },
    {
      "inputs": [],
      "name": "ACC_CONTROL",
      "outputs": [
        {
          "internalType": "bytes32",
          "name": "",
          "type": "bytes32"
        }
      ],
      "stateMutability": "view",
      "type": "function"
    },
    {
      "inputs": [],
      "name": "FINANCE",
      "outputs": [
        {
          "internalType": "bytes32",
          "name": "",
          "type": "bytes32"
        }
      ],
      "stateMutability": "view",
      "type": "function"
    },
    {
      "inputs": [],
      "name": "RAYAN_CHAIN_DAO",
      "outputs": [
        {
          "internalType": "bytes32",
          "name": "",
          "type": "bytes32"
        }
      ],
      "stateMutability": "view",
      "type": "function"
    },
    {
      "inputs": [],
      "name": "RAYAN_CHAIN_TOKEN",
      "outputs": [
        {
          "internalType": "bytes32",
          "name": "",
          "type": "bytes32"
        }
      ],
      "stateMutability": "view",
      "type": "function"
    },
    {
      "inputs": [],
      "name": "STAKING",
      "outputs": [
        {
          "internalType": "bytes32",
          "name": "",
          "type": "bytes32"
        }
      ],
      "stateMutability": "view",
      "type": "function"
    },
    {
      "inputs": [],
      "name": "USER_PROFILE",
      "outputs": [
        {
          "internalType": "bytes32",
          "name": "",
          "type": "bytes32"
        }
      ],
      "stateMutability": "view",
      "type": "function"
    },
    {
      "inputs": [
        {
          "internalType": "bytes32",
          "name": "_key",
          "type": "bytes32"
        }
      ],
      "name": "getAddress",
      "outputs": [
        {
          "internalType": "address",
          "name": "",
          "type": "address"
        }
      ],
      "stateMutability": "view",
      "type": "function"
    },
    {
      "inputs": [],
      "name": "owner",
      "outputs": [
        {
          "internalType": "address",
          "name": "",
          "type": "address"
        }
      ],
      "stateMutability": "view",
      "type": "function"
    },
    {
      "inputs": [],
      "name": "renounceOwnership",
      "outputs": [],
      "stateMutability": "nonpayable",
      "type": "function"
    },
    {
      "inputs": [
        {
          "internalType": "bytes32",
          "name": "_key",
          "type": "bytes32"
        },
        {
          "internalType": "address",
          "name": "_address",
          "type": "address"
        }
      ],
      "name": "setAddress",
      "outputs": [],
      "stateMutability": "nonpayable",
      "type": "function"
    },
    {
      "inputs": [
        {
          "internalType": "address",
          "name": "newOwner",
          "type": "address"
        }
      ],
      "name": "transferOwnership",
      "outputs": [],
      "stateMutability": "nonpayable",
      "type": "function"
    }
  ],
  "bytecode": "0x6080346100bb57601f61055738819003918201601f19168301916001600160401b038311848410176100c0578084926020946040528339810103126100bb57516001600160a01b0390818116908190036100bb5780156100a257600080546001600160a01b03198116831782556040519316907f8be0079c531659141344cd1fd0a4f28419497f9722a3daafe3b4186f6b6457e09080a361048090816100d78239f35b604051631e4fbdf760e01b815260006004820152602490fd5b600080fd5b634e487b7160e01b600052604160045260246000fdfe608060408181526004918236101561001657600080fd5b600092833560e01c918263049ba670146103e45750816321f8a721146103b1578163715018a6146103545781638486902d146103195781638da5cb5b146102f15781638fe1db3e146102b657816397610f301461027b578163a797e59414610240578163ca446dd91461016e578163f2fde38b146100db575063f85ec6961461009e57600080fd5b346100d757816003193601126100d757602090517f9619ff105aad40d59361cd856f607d46c195aed5598b859545f531d68191e8728152f35b5080fd5b9190503461016a57602036600319011261016a576001600160a01b038235818116939192908490036101665761010f61041e565b831561015057505082546001600160a01b0319811683178455167f8be0079c531659141344cd1fd0a4f28419497f9722a3daafe3b4186f6b6457e08380a380f35b51631e4fbdf760e01b8152908101849052602490fd5b8480fd5b8280fd5b90503461016a578160031936011261016a578035916024356001600160a01b0381169290839003610166576101a161041e565b82156101f057508284526001602090815281852080546001600160a01b0319168417905590519182527fb37614c7d254ea8d16eb81fa11dddaeb266aa8ba4917980859c7740aff30c69191a280f35b6020608492519162461bcd60e51b8352820152602560248201527f52656769737472793a205a65726f2061646472657373206973206e6f7420616c6044820152641b1bddd95960da1b6064820152fd5b5050346100d757816003193601126100d757602090517f2a3b0ee7bd526d7b828265caf340b39316e9879eb6bbe2cbfbbd337b465be9e98152f35b5050346100d757816003193601126100d757602090517f080909c18c958ce5a2d36481697824e477319323d03154ceba3b78f28a61887b8152f35b5050346100d757816003193601126100d757602090517f36512993acd336097d949a4478961f799de73ee0af350081d8de038d6e4ab7e48152f35b5050346100d757816003193601126100d757905490516001600160a01b039091168152602090f35b5050346100d757816003193601126100d757602090517fe91e69686af56c584e188c4128cbaf29402b5eceaf4d71f2e4497f57e80dea828152f35b83346103ae57806003193601126103ae5761036d61041e565b80546001600160a01b03198116825581906001600160a01b03167f8be0079c531659141344cd1fd0a4f28419497f9722a3daafe3b4186f6b6457e08280a380f35b80fd5b90503461016a57602036600319011261016a5735825260016020908152918190205490516001600160a01b039091168152f35b8490346100d757816003193601126100d757807fc611fdf155bb51222185506f1efb3e8afbb6baae6cfa75519f32d468bb6d7eec60209252f35b6000546001600160a01b0316330361043257565b60405163118cdaa760e01b8152336004820152602490fdfea2646970667358221220638d12795b99e59b87d219828a971a686286a79f91392ee9257013fbf51f2ff964736f6c63430008180033",
  "linkReferences": {},
  "deployedLinkReferences": {}
}