{
  "_format": "hh-sol-artifact-1",
  "contractName": "Staking",
  "sourceName": "src/contracts/Staking.sol",
  "abi": [
    {
      "inputs": [
        {
          "internalType": "address",
          "name": "_tokenAddress",
          "type": "address"
        },
        {
          "internalType": "address",
          "name": "_initialOwner",
          "type": "address"
        }
      ],
      "stateMutability": "nonpayable",
      "type": "constructor"
    },
    {
      "inputs": [
        {
          "internalType": "address",
          "name": "owner",
          "type": "address"
        }
      ],
      "name": "OwnableInvalidOwner",
      "type": "error"
    },
    {
      "inputs": [
        {
          "internalType": "address",
          "name": "account",
          "type": "address"
        }
      ],
      "name": "OwnableUnauthorizedAccount",
      "type": "error"
    },
    {
      "inputs": [],
      "name": "ReentrancyGuardReentrantCall",
      "type": "error"
    },
    {
      "anonymous": false,
      "inputs": [
        {
          "indexed": true,
          "internalType": "address",
          "name": "delegator",
          "type": "address"
        },
        {
          "indexed": true,
          "internalType": "address",
          "name": "delegatee",
          "type": "address"
        },
        {
          "indexed": false,
          "internalType": "uint256",
          "name": "power",
          "type": "uint256"
        }
      ],
      "name": "Delegated",
      "type": "event"
    },
    {
      "anonymous": false,
      "inputs": [
        {
          "indexed": true,
          "internalType": "address",
          "name": "previousOwner",
          "type": "address"
        },
        {
          "indexed": true,
          "internalType": "address",
          "name": "newOwner",
          "type": "address"
        }
      ],
      "name": "OwnershipTransferred",
      "type": "event"
    },
    {
      "anonymous": false,
      "inputs": [
        {
          "indexed": true,
          "internalType": "address",
          "name": "user",
          "type": "address"
        },
        {
          "indexed": false,
          "internalType": "uint256",
          "name": "reward",
          "type": "uint256"
        }
      ],
      "name": "RewardClaimed",
      "type": "event"
    },
    {
      "anonymous": false,
      "inputs": [
        {
          "indexed": false,
          "internalType": "uint256",
          "name": "totalReward",
          "type": "uint256"
        }
      ],
      "name": "RewardDistributed",
      "type": "event"
    },
    {
      "anonymous": false,
      "inputs": [
        {
          "indexed": true,
          "internalType": "address",
          "name": "funder",
          "type": "address"
        },
        {
          "indexed": false,
          "internalType": "uint256",
          "name": "amount",
          "type": "uint256"
        }
      ],
      "name": "RewardFunded",
      "type": "event"
    },
    {
      "anonymous": false,
      "inputs": [
        {
          "indexed": false,
          "internalType": "uint256",
          "name": "newRate",
          "type": "uint256"
        }
      ],
      "name": "RewardRateSet",
      "type": "event"
    },
    {
      "anonymous": false,
      "inputs": [
        {
          "indexed": true,
          "internalType": "address",
          "name": "user",
          "type": "address"
        },
        {
          "indexed": false,
          "internalType": "uint256",
          "name": "amount",
          "type": "uint256"
        }
      ],
      "name": "Staked",
      "type": "event"
    },
    {
      "anonymous": false,
      "inputs": [
        {
          "indexed": true,
          "internalType": "address",
          "name": "delegator",
          "type": "address"
        },
        {
          "indexed": true,
          "internalType": "address",
          "name": "previousDelegatee",
          "type": "address"
        },
        {
          "indexed": false,
          "internalType": "uint256",
          "name": "power",
          "type": "uint256"
        }
      ],
      "name": "Undelegated",
      "type": "event"
    },
    {
      "anonymous": false,
      "inputs": [
        {
          "indexed": true,
          "internalType": "address",
          "name": "user",
          "type": "address"
        },
        {
          "indexed": false,
          "internalType": "uint256",
          "name": "amount",
          "type": "uint256"
        }
      ],
      "name": "Unstaked",
      "type": "event"
    },
    {
      "inputs": [],
      "name": "claimReward",
      "outputs": [],
      "stateMutability": "nonpayable",
      "type": "function"
    },
    {
      "inputs": [
        {
          "internalType": "address",
          "name": "_delegatee",
          "type": "address"
        }
      ],
      "name": "delegate",
      "outputs": [],
      "stateMutability": "nonpayable",
      "type": "function"
    },
    {
      "inputs": [
        {
          "internalType": "address",
          "name": "",
          "type": "address"
        }
      ],
      "name": "delegatedPower",
      "outputs": [
        {
          "internalType": "uint256",
          "name": "",
          "type": "uint256"
        }
      ],
      "stateMutability": "view",
      "type": "function"
    },
    {
      "inputs": [
        {
          "internalType": "address",
          "name": "",
          "type": "address"
        }
      ],
      "name": "delegates",
      "outputs": [
        {
          "internalType": "address",
          "name": "",
          "type": "address"
        }
      ],
      "stateMutability": "view",
      "type": "function"
    },
    {
      "inputs": [
        {
          "internalType": "uint256",
          "name": "",
          "type": "uint256"
        }
      ],
      "name": "distributeRewards",
      "outputs": [],
      "stateMutability": "pure",
      "type": "function"
    },
    {
      "inputs": [
        {
          "internalType": "address",
          "name": "account",
          "type": "address"
        }
      ],
      "name": "earned",
      "outputs": [
        {
          "internalType": "uint256",
          "name": "",
          "type": "uint256"
        }
      ],
      "stateMutability": "view",
      "type": "function"
    },
    {
      "inputs": [
        {
          "internalType": "uint256",
          "name": "amount",
          "type": "uint256"
        }
      ],
      "name": "fundRewards",
      "outputs": [],
      "stateMutability": "nonpayable",
      "type": "function"
    },
    {
      "inputs": [
        {
          "internalType": "address",
          "name": "user",
          "type": "address"
        }
      ],
      "name": "getStakedAmount",
      "outputs": [
        {
          "internalType": "uint256",
          "name": "",
          "type": "uint256"
        }
      ],
      "stateMutability": "view",
      "type": "function"
    },
    {
      "inputs": [],
      "name": "lastUpdateTime",
      "outputs": [
        {
          "internalType": "uint256",
          "name": "",
          "type": "uint256"
        }
      ],
      "stateMutability": "view",
      "type": "function"
    },
    {
      "inputs": [],
      "name": "owner",
      "outputs": [
        {
          "internalType": "address",
          "name": "",
          "type": "address"
        }
      ],
      "stateMutability": "view",
      "type": "function"
    },
    {
      "inputs": [],
      "name": "renounceOwnership",
      "outputs": [],
      "stateMutability": "nonpayable",
      "type": "function"
    },
    {
      "inputs": [],
      "name": "rewardPerToken",
      "outputs": [
        {
          "internalType": "uint256",
          "name": "",
          "type": "uint256"
        }
      ],
      "stateMutability": "view",
      "type": "function"
    },
    {
      "inputs": [],
      "name": "rewardPerTokenStored",
      "outputs": [
        {
          "internalType": "uint256",
          "name": "",
          "type": "uint256"
        }
      ],
      "stateMutability": "view",
      "type": "function"
    },
    {
      "inputs": [],
      "name": "rewardRate",
      "outputs": [
        {
          "internalType": "uint256",
          "name": "",
          "type": "uint256"
        }
      ],
      "stateMutability": "view",
      "type": "function"
    },
    {
      "inputs": [
        {
          "internalType": "address",
          "name": "",
          "type": "address"
        }
      ],
      "name": "rewards",
      "outputs": [
        {
          "internalType": "uint256",
          "name": "",
          "type": "uint256"
        }
      ],
      "stateMutability": "view",
      "type": "function"
    },
    {
      "inputs": [],
      "name": "rycToken",
      "outputs": [
        {
          "internalType": "contract IERC20",
          "name": "",
          "type": "address"
        }
      ],
      "stateMutability": "view",
      "type": "function"
    },
    {
      "inputs": [
        {
          "internalType": "uint256",
          "name": "_rewardRate",
          "type": "uint256"
        }
      ],
      "name": "setRewardRate",
      "outputs": [],
      "stateMutability": "nonpayable",
      "type": "function"
    },
    {
      "inputs": [
        {
          "internalType": "uint256",
          "name": "amount",
          "type": "uint256"
        }
      ],
      "name": "stake",
      "outputs": [],
      "stateMutability": "nonpayable",
      "type": "function"
    },
    {
      "inputs": [],
      "name": "totalSupply",
      "outputs": [
        {
          "internalType": "uint256",
          "name": "",
          "type": "uint256"
        }
      ],
      "stateMutability": "view",
      "type": "function"
    },
    {
      "inputs": [
        {
          "internalType": "address",
          "name": "newOwner",
          "type": "address"
        }
      ],
      "name": "transferOwnership",
      "outputs": [],
      "stateMutability": "nonpayable",
      "type": "function"
    },
    {
      "inputs": [],
      "name": "undelegate",
      "outputs": [],
      "stateMutability": "nonpayable",
      "type": "function"
    },
    {
      "inputs": [
        {
          "internalType": "uint256",
          "name": "amount",
          "type": "uint256"
        }
      ],
      "name": "unstake",
      "outputs": [],
      "stateMutability": "nonpayable",
      "type": "function"
    },
    {
      "inputs": [
        {
          "internalType": "address",
          "name": "",
          "type": "address"
        }
      ],
      "name": "userRewardPerTokenPaid",
      "outputs": [
        {
          "internalType": "uint256",
          "name": "",
          "type": "uint256"
        }
      ],
      "stateMutability": "view",
      "type": "function"
    }
  ],
  "bytecode": "0x60a0346100f857601f6111dc38819003918201601f19168301916001600160401b038311848410176100fd5780849260409485528339810103126100f857602061004882610113565b916001600160a01b0391829161005e9101610113565b169182156100df57600080546001600160a01b03198116851782556040519491908416907f8be0079c531659141344cd1fd0a4f28419497f9722a3daafe3b4186f6b6457e09080a360018055166080526110b4908161012882396080518181816101c1015281816102cc0152818161044f0152818161065b0152610c890152f35b604051631e4fbdf760e01b815260006004820152602490fd5b600080fd5b634e487b7160e01b600052604160045260246000fd5b51906001600160a01b03821682036100f85756fe60406080815260048036101561001457600080fd5b600091823560e01c80628cc26214610e585780630700037d14610e1e578063169df06414610de457806318160ddd14610dc55780632e17de7814610bc05780634da6a55614610b8f578063587cde1e14610b5257806359974e3814610ac25780635c19a95c146108d5578063715018a6146108785780637b0a47ee146108595780638b8763471461081f5780638da5cb5b146107f757806392ab89bb146106dd57806393707a19146106155780639e447fc6146105b8578063a694fc3a14610395578063b88a802f14610256578063c8f33c9114610237578063cd3daf9d14610213578063df136d65146101f4578063e7499b7d146101ac5763f2fde38b1461011c57600080fd5b346101a85760203660031901126101a8576001600160a01b038235818116939192908490036101a45761014d611052565b831561018e57505082546001600160a01b0319811683178455167f8be0079c531659141344cd1fd0a4f28419497f9722a3daafe3b4186f6b6457e08380a380f35b51631e4fbdf760e01b8152908101849052602490fd5b8480fd5b8280fd5b8382346101f057816003193601126101f057517f00000000000000000000000000000000000000000000000000000000000000006001600160a01b03168152602090f35b5080fd5b8382346101f057816003193601126101f0576020906008549051908152f35b8382346101f057816003193601126101f057602090610230610fdd565b9051908152f35b8382346101f057816003193601126101f0576020906007549051908152f35b50346101a857826003193601126101a85761026f61102f565b610277610fdd565b600855426007553361036f575b338352600a6020528083209183835493846102a2575b506001805580f35b55815163a9059cbb60e01b81523391810191825260208281018590529091829081906040010381877f00000000000000000000000000000000000000000000000000000000000000006001600160a01b03165af1801561036557610336575b50519081527f106f923f993c2149d49b4255ff723acafa1f2d94393f561d3eda32ae348f724160203392a2388080838161029a565b6103579060203d60201161035e575b61034f8183610f2b565b810190610f63565b5038610301565b503d610345565b82513d86823e3d90fd5b61037833610ecc565b338452600a60205281842055600854600960205281842055610284565b50346101a8576020806003193601126105b4578235926103b361102f565b6103bb610fdd565b6008554260075533610590575b831561055e576103da84600254610ebf565b60025533855280825260018060a01b039361044b838287878a20541697881515958661053a575b338b5260038452888b20610416848254610ebf565b905588516323b872dd60e01b81523391810191825230602083015260408201939093529193849283918c918391606090910190565b03927f0000000000000000000000000000000000000000000000000000000000000000165af1801561053057610513575b5083519081527f9e71bc8eea02a63969f509818f2dafb9254532904319f9dbda79b67bd34a5f3d833392a26104b4575b836001805580f35b7fe5541a6b6103d4fa7e021ed54fad39c66f27a76bd13d374cf6240ae6bd0bb72b903385526003815282852054848652600582526104f6848720918254610ebf565b9055338552600381528285205492519283523392a33880806104ac565b61052990843d861161035e5761034f8183610f2b565b503861047c565b85513d89823e3d90fd5b60038452888b20548a8c52600585526105578a8d20918254610e89565b9055610401565b915162461bcd60e51b815291820152600e60248201526d043616e6e6f74207374616b6520360941b6044820152606490fd5b61059933610ecc565b338652600a83528386205560085460098352838620556103c8565b8380fd5b5090346101a85760203660031901126101a8577f8cbfafc8e0d9c5c81401c4b9c6e7d201198adc7eb8f8f1556c195ecd4c0a0e7b9160209135906105fa611052565b610602610fdd565b600855426007558160065551908152a180f35b50346101a85760203660031901126101a85780516323b872dd60e01b815233818401908152306020828101919091529335604082018190529390829081906060010381877f00000000000000000000000000000000000000000000000000000000000000006001600160a01b03165af18015610365576106be575b50519081527f525b74a34fa7d280989782ff88faded7890117edd2a674614497b9ed45b4598860203392a280f35b6106d69060203d60201161035e5761034f8183610f2b565b5038610690565b5090346101a857826003193601126101a8576106f761102f565b6106ff610fdd565b60085542600755336107d1575b3383526020818152828420546001600160a01b031692831561079957907f4d10bd049775c77bd7f255195afba5088028ecb3c7c277d393ccff7934f2f92c913386526003825280862054938587526005835281872061076c868254610e89565b905533875282528086206bffffffffffffffffffffffff60a01b8154169055519283523392a36001805580f35b5162461bcd60e51b815291820152601460248201527327379030b1ba34bb32903232b632b3b0ba34b7b760611b604482015260649150fd5b6107da33610ecc565b338452600a6020528284205560085460096020528284205561070c565b8382346101f057816003193601126101f057905490516001600160a01b039091168152602090f35b5090346101a85760203660031901126101a857356001600160a01b038116908190036101a857828291602094526009845220549051908152f35b8382346101f057816003193601126101f0576020906006549051908152f35b83346108d257806003193601126108d257610891611052565b80546001600160a01b03198116825581906001600160a01b03167f8be0079c531659141344cd1fd0a4f28419497f9722a3daafe3b4186f6b6457e08280a380f35b80fd5b5090346101a8576020806003193601126105b4576001600160a01b03823581811694919390859003610abe5761090961102f565b610911610fdd565b6008554260075533610a9a575b338514610a59573386526003835281862054938415610a0b57907fe5541a6b6103d4fa7e021ed54fad39c66f27a76bd13d374cf6240ae6bd0bb72b939291338852818452828820541680151580610a01575b6109ba575b503387528252808620856bffffffffffffffffffffffff60a01b825416179055848652600582528086206109aa858254610ebf565b9055519283523392a36001805580f35b808852600584528288206109cf878254610e89565b905582518681527f4d10bd049775c77bd7f255195afba5088028ecb3c7c277d393ccff7934f2f92c853392a338610975565b5086811415610970565b5082608492519162461bcd60e51b8352820152602360248201527f4d7573742068617665207374616b656420746f6b656e7320746f2064656c656760448201526261746560e81b6064820152fd5b82606492519162461bcd60e51b8352820152601b60248201527f43616e6e6f742064656c656761746520746f20796f757273656c6600000000006044820152fd5b610aa333610ecc565b338752600a845282872055600854600984528287205561091e565b8580fd5b5091346108d25760203660031901126108d25750602060a492519162461bcd60e51b8352820152604b60248201527f646973747269627574655265776172647320697320646570726563617465642e60448201527f20557365207365745265776172645261746520616e642066756e64526577617260648201526a32399034b739ba32b0b21760a91b6084820152fd5b5090346101a85760203660031901126101a8576001600160a01b03908035828116908190036101a457938391602095825285522054169051908152f35b5090346101a85760203660031901126101a85735916001600160a01b03831683036108d25750610230602092610f80565b50346101a857602090816003193601126105b457823592610bdf61102f565b610be7610fdd565b6008554260075533610da1575b8315610d6d5733855260038352838286205410610d2c5733855280835281852054610c8594939291839185916001600160a01b0391821680610d10575b50610c3e83600254610e89565b60025533895260038452848920610c56848254610e89565b9055845163a9059cbb60e01b81523391810191825260208201939093529196879283918a918391604090910190565b03927f0000000000000000000000000000000000000000000000000000000000000000165af1938415610d06577f0f5bb82176feb1b5e747e28471aa92156a04d9f3ab9f45f28e2d704232b93f759394610ce9575b50519283523392a26001805580f35b610cff90833d851161035e5761034f8183610f2b565b5038610cda565b81513d87823e3d90fd5b895260058452848920610d24848254610e89565b905538610c31565b82606492519162461bcd60e51b8352820152601e60248201527f556e7374616b6520616d6f756e7420657863656564732062616c616e636500006044820152fd5b82606492519162461bcd60e51b8352820152601060248201526f043616e6e6f7420756e7374616b6520360841b6044820152fd5b610daa33610ecc565b338652600a8452828620556008546009845282862055610bf4565b8382346101f057816003193601126101f0576020906002549051908152f35b5090346101a85760203660031901126101a857356001600160a01b038116908190036101a857828291602094526005845220549051908152f35b5090346101a85760203660031901126101a857356001600160a01b038116908190036101a85782829160209452600a845220549051908152f35b5090346101a85760203660031901126101a85735916001600160a01b03831683036108d25750610230602092610ecc565b91908203918211610e9657565b634e487b7160e01b600052601160045260246000fd5b81810292918115918404141715610e9657565b91908201809211610e9657565b610f289060018060a01b0316604060008281526003602052670de0b6b3a7640000610f1783832054610f11610eff610fdd565b87865260096020528686205490610e89565b90610eac565b04928152600a602052205490610ebf565b90565b90601f8019910116810190811067ffffffffffffffff821117610f4d57604052565b634e487b7160e01b600052604160045260246000fd5b90816020910312610f7b57518015158103610f7b5790565b600080fd5b6001600160a01b03908116600081815260046020526040902054909116801515919082610fd2575b5050610fcd576003602052610f28604060002054600560205260406000205490610ebf565b600090565b141590503880610fa8565b600254801561102857610ff260075442610e89565b6110026008549160065490610eac565b91670de0b6b3a764000092838102938185041490151715610e9657610f28920490610ebf565b5060085490565b600260015414611040576002600155565b604051633ee5aeb560e01b8152600490fd5b6000546001600160a01b0316330361106657565b60405163118cdaa760e01b8152336004820152602490fdfea26469706673582212209dea7a44d489e93d36cf1303876270ae7e55508b157bd9c8c9da9bfa0f0c2a7864736f6c63430008180033",
  "linkReferences": {},
  "deployedLinkReferences": {}
}