{
  "_format": "hh-sol-artifact-1",
  "contractName": "UserProfile",
  "sourceName": "src/contracts/UserProfile.sol",
  "abi": [
    {
      "inputs": [
        {
          "internalType": "address",
          "name": "initialOwner",
          "type": "address"
        }
      ],
      "stateMutability": "nonpayable",
      "type": "constructor"
    },
    {
      "inputs": [
        {
          "internalType": "address",
          "name": "owner",
          "type": "address"
        }
      ],
      "name": "OwnableInvalidOwner",
      "type": "error"
    },
    {
      "inputs": [
        {
          "internalType": "address",
          "name": "account",
          "type": "address"
        }
      ],
      "name": "OwnableUnauthorizedAccount",
      "type": "error"
    },
    {
      "anonymous": false,
      "inputs": [
        {
          "indexed": true,
          "internalType": "address",
          "name": "previousOwner",
          "type": "address"
        },
        {
          "indexed": true,
          "internalType": "address",
          "name": "newOwner",
          "type": "address"
        }
      ],
      "name": "OwnershipTransferred",
      "type": "event"
    },
    {
      "anonymous": false,
      "inputs": [
        {
          "indexed": true,
          "internalType": "address",
          "name": "user",
          "type": "address"
        },
        {
          "indexed": false,
          "internalType": "string",
          "name": "newURI",
          "type": "string"
        }
      ],
      "name": "ProfileUpdated",
      "type": "event"
    },
    {
      "inputs": [
        {
          "internalType": "address",
          "name": "",
          "type": "address"
        }
      ],
      "name": "metadataURIs",
      "outputs": [
        {
          "internalType": "string",
          "name": "",
          "type": "string"
        }
      ],
      "stateMutability": "view",
      "type": "function"
    },
    {
      "inputs": [],
      "name": "owner",
      "outputs": [
        {
          "internalType": "address",
          "name": "",
          "type": "address"
        }
      ],
      "stateMutability": "view",
      "type": "function"
    },
    {
      "inputs": [],
      "name": "renounceOwnership",
      "outputs": [],
      "stateMutability": "nonpayable",
      "type": "function"
    },
    {
      "inputs": [
        {
          "internalType": "string",
          "name": "uri",
          "type": "string"
        }
      ],
      "name": "setProfileURI",
      "outputs": [],
      "stateMutability": "nonpayable",
      "type": "function"
    },
    {
      "inputs": [
        {
          "internalType": "address",
          "name": "user",
          "type": "address"
        },
        {
          "internalType": "string",
          "name": "uri",
          "type": "string"
        }
      ],
      "name": "setProfileURIFor",
      "outputs": [],
      "stateMutability": "nonpayable",
      "type": "function"
    },
    {
      "inputs": [
        {
          "internalType": "address",
          "name": "newOwner",
          "type": "address"
        }
      ],
      "name": "transferOwnership",
      "outputs": [],
      "stateMutability": "nonpayable",
      "type": "function"
    }
  ],
  "bytecode": "0x6080346100bb57601f6107d338819003918201601f19168301916001600160401b038311848410176100c0578084926020946040528339810103126100bb57516001600160a01b0390818116908190036100bb5780156100a257600080546001600160a01b03198116831782556040519316907f8be0079c531659141344cd1fd0a4f28419497f9722a3daafe3b4186f6b6457e09080a36106fc90816100d78239f35b604051631e4fbdf760e01b815260006004820152602490fd5b600080fd5b634e487b7160e01b600052604160045260246000fdfe6040608081526004908136101561001557600080fd5b600091823560e01c8063715018a614610575578063786d6b97146103fc5780638da5cb5b146103d4578063b861f06014610229578063ca10bc8e146100ec5763f2fde38b1461006357600080fd5b346100e85760203660031901126100e85761007c610602565b9061008561067a565b6001600160a01b039182169283156100d257505082546001600160a01b0319811683178455167f8be0079c531659141344cd1fd0a4f28419497f9722a3daafe3b4186f6b6457e08380a380f35b51631e4fbdf760e01b8152908101849052602490fd5b8280fd5b50913461022657602080600319360112610222576001600160a01b03610110610602565b16825260019160018252838120918451938493839181549161013183610618565b92838852856001821691826000146102045750506001146101cf575b505050601f801995869203011683019583871067ffffffffffffffff8811176101bc575085929391838652818452845191828186015281955b8387106101a45750508394508582601f949501015201168101030190f35b86810182015189880189015295810195889550610186565b634e487b7160e01b835260419052602482fd5b85528385208593505b8284106101ee575050508301810138808061014d565b80548885018601528796509284019281016101d8565b93509450505060ff191682860152151560051b84010138808061014d565b5080fd5b80fd5b50829034610222578260031936011261022257610244610602565b67ffffffffffffffff906024358281116103d05761026590369085016105cf565b92909161027061067a565b60018060a01b0316938486526001906020908282528888209386116103bd575061029a8354610618565b601f8111610377575b508690601f86116001146102ff57509184808899936102ee956000805160206106a7833981519152999a936102f4575b501b906000198760031b1c19161790555b5192839283610652565b0390a280f35b87013592508b6102d3565b90601f1986168489528289209289905b828210610360575050916000805160206106a78339815191529798999391876102ee969410610346575b505085811b0190556102e4565b860135600019600389901b60f8161c191690558980610339565b808685968294968b0135815501950193019061030f565b838852818820601f870160051c8101918388106103b3575b601f0160051c019083905b8281106103a85750506102a3565b89815501839061039a565b909150819061038f565b634e487b7160e01b885260419052602487fd5b8480fd5b505034610222578160031936011261022257905490516001600160a01b039091168152602090f35b50346100e857602091826003193601126105715767ffffffffffffffff823581811161056d5761042f90369085016105cf565b9390943387526001918282528488209386116103bd57506104508354610618565b601f8111610527575b508690601f86116001146104b057509184806102ee95936000805160206106a783398151915297958a936104a5575b501b906000198560031b1c19161790555b51918291339583610652565b890135925038610488565b90601f1986168489528289209289905b828210610510575050916102ee959391876000805160206106a7833981519152989694106104f6575b505083811b019055610499565b880135600019600387901b60f8161c1916905538806104e9565b808685968294968d013581550195019301906104c0565b838852818820601f870160051c810191838810610563575b601f0160051c019083905b828110610558575050610459565b89815501839061054a565b909150819061053f565b8580fd5b8380fd5b833461022657806003193601126102265761058e61067a565b80546001600160a01b03198116825581906001600160a01b03167f8be0079c531659141344cd1fd0a4f28419497f9722a3daafe3b4186f6b6457e08280a380f35b9181601f840112156105fd5782359167ffffffffffffffff83116105fd57602083818601950101116105fd57565b600080fd5b600435906001600160a01b03821682036105fd57565b90600182811c92168015610648575b602083101461063257565b634e487b7160e01b600052602260045260246000fd5b91607f1691610627565b90918060409360208452816020850152848401376000828201840152601f01601f1916010190565b6000546001600160a01b0316330361068e57565b60405163118cdaa760e01b8152336004820152602490fdfedd635a4cd84864e37e4479dbfc2ec667acfa473c83c8422a8ac9d9d07599b01ca2646970667358221220a034ff2b5bbbe48d816681d333ee9326cf864c875a7e15f8630b469d084e664664736f6c63430008180033",
  "linkReferences": {},
  "deployedLinkReferences": {}
}